:020000024000BC
:080000006F1010170000000052
:100008001705F8DF130505EE9705FEFF938585DFD5
:100018001716FEFF1306C61C63FAC50083220500E7
:1000280023A0550011059105E3EAC5FE1715F8DF71
:10003800130585799715FEFF9385851A1716FEFF18
:100048001306061A63FAC5008322050023A055008B
:1000580011059105E3EAC5FE1715F8DF1305C57606
:10006800970500009385050A1386818163FAC50008
:100078008322050023A0550011059105E3EAC5FE7A
:10008800138581819385C1826377B500232005009C
:100098001105E36DB5FEB7B237129382023E739035
:1000A80002BC9D42739012BCBD427390428099621B
:1000B80093828208739002309702FEFF938282D463
:1000C80093E23200739052309702FEFF9382422EE1
:0800D800739012347300203014
:1000E00000000400000000003A030A203C030A203C
:1000F00000000000EC090A200000000000000000E1
:10010000EC090A20EC090A200000000000000000B1
:10011000EC090A20EC090A20EC090A200000000082
:10012000EC090A20EC090A20EC090A20EC090A2053
:1001300000000000000000000000000000000000BF
:1001400000000000000000000000000000000000AF
:10015000EC090A2000000000000000000000000080
:10016000EC090A20EC090A20EC090A20EC090A2013
:10017000EC090A20EC090A20EC090A20EC090A2003
:10018000EC090A20EC090A20EC090A20EC090A20F3
:10019000EC090A20EC090A20EC090A20EC090A20E3
:1001A000EC090A20EC090A20EC090A20EC090A20D3
:1001B000EC090A20EC090A20EC090A20EC090A20C3
:1001C000EC090A20EC090A20EC090A20EC090A20B3
:1001D000EC090A20EC090A20EC090A20EC090A20A3
:1001E000EC090A20EC090A20EC090A20EC090A2093
:1001F000EC090A20EC090A20EC090A20EC090A2083
:10020000EC090A20EC090A20EC090A20EC090A2072
:10021000EC090A20EC090A20EC090A20EC090A2062
:10022000EC090A20EC090A20EC090A20EC090A2052
:10023000EC090A20EC090A20EC090A20EC090A2042
:10024000EC090A20EC090A20EC090A20EC090A2032
:10025000EC090A20EC090A20EC090A20EC090A2022
:10026000EC090A20EC090A20EC090A20EC090A2012
:10027000EC090A20EC090A20EC090A20EC090A2002
:10028000EC090A20EC090A20EC090A20EC090A20F2
:10029000EC090A20EC090A20EC090A20EC090A20E2
:1002A000EC090A20EC090A20EC090A20EC090A20D2
:1002B000EC090A20EC090A20EC090A20EC090A20C2
:1002C000EC090A20EC090A20EC090A20EC090A20B2
:1002D000EC090A20EC090A2000000000EC090A20C1
:1002E000EC090A200000000000000000EC090A20D0
:1002F0000000000000000000EC090A20EC090A20C0
:10030000EC090A20EC090A20EC090A20EC090A2071
:10031000EC090A20EC090A20EC090A20EC090A2061
:10032000EC090A20EC090A20EC090A20EC090A2051
:10033000EC090A20397101436EC619A03971415385
:100340006AC866CA62CC5ECE19A0397101535AD010
:1003500056D252D44ED64AD826DA22DC06DE3301F3
:100360006140828241114AC026C222C406C68282EE
:10037000B24D4101024D924C224CB24B4101024B15
:10038000924A224AB2494101024992442244B2406F
:10039000410182802A8309CA8383050023007300F8
:1003A0007D16050385056DFA8280EFF2BFFBB74429
:1003B00001402A8413890480930500044A85EF00D4
:1003C000D0487DD913850480B3450408EF007047F9
:1003D00065BFEFF23FF92A840305040011E16DB710
:1003E0000504E137D5BFEFF25FF6AA8437150400A4
:1003F0001305C54BF93F7144A5497159B3D7840022
:1004000013F7F7001305770363E4E9001305070307
:100410007114613FE31424FF9DB701A0411122C66E
:1004200026C44AC273292034F32410347324303490
:10043000371504001305054C693F4A856D3737159C
:1004400004001305454D71372685713F37150400AB
:100450001305C54DBD3F22857937371504001305B7
:100460000565853F2945EF001041B707EFBE37E727
:1004700000E0938707083CC701A0EFF2BFEEB74446
:1004800001402A8413890480930500044A85EF0003
:10049000D03B7DD9A28513850480EF00903AEDB55D
:1004A000EFF25FEC2A840305040011E1F1BD13753E
:1004B000F50F0504D937C5BFEFF2DFEA0111B71513
:1004C000040045469385454EAA846800E1353715FA
:1004D00004001305C54BE93771447159B3D7840043
:1004E000BD8B938707028A9703C5C7FE71147137C6
:1004F000E31624FF056149BDEFF2DFE6411111E586
:10050000130500039D3F410141B55C000144BE84D9
:10051000A94625463377D502050485071307070347
:10052000A38FE7FE2A873355D502E365E6FE7D14E7
:10053000B3878400882391377DF8F1B7EFF21FE08D
:10054000AA84B70756AA371504004111938707F00C
:100550001305854F2E8A32843EC699372285893706
:100560003715040013054550253F2685B13737154B
:100570000400130585502D375285BD3F3715040003
:1005800013050551313F0149B71A0400371C040017
:10059000914B7C00CA9783C9070081473387F400D9
:1005A000230037013E878507E31AFAFE8147014B96
:1005B0000144B386F40094226385360111E03E8B3A
:1005C000050493861700631FF7021DCC371504003E
:1005D0001305C551F1354E85C53537150400130592
:1005E00005537D3D2285093F371504001305C5538A
:1005F000453D5A85113713850A655D357D54228541
:1006000041018DBBB68775B71305CC54513D4E855E
:10061000653513850A6505096135E31C79F7C5B7AA
:10062000EFF25FD42A84371504001305C555AE8454
:10063000853D2685B53537150400130545508D35A4
:1006400022859D3D930750FA1CA01C201307500AD9
:100650006398E700371504001305C55691352DB38F
:10066000371504001305455713F4F70F153D13050F
:10067000500A99353715040013054558153522855C
:10068000253D3715040013050559C9BFEFF29FCA70
:10069000011185452145EF00500BB7140140C147BA
:1006A0000947138504C04C083ECA3ACC3ECE05210A
:1006B0004D2CEF00301A716513050520EF00901FD7
:1006C0007D54938404C0655913761400C145268572
:1006D000F9291305800C7D14EF00F019E31624FFAF
:1006E000B719040013854959653B371504001305F4
:1006F000455C7D33371904001305C95E5533371542
:10070000040013058561693B03A58181F533371525
:1007100004001305C56269333715040013054563EA
:10072000413337160400130646658D6537051020E2
:100730003135631C051037150400130505668D332C
:1007400005443715040013058568993B37160400E6
:100750001306866AA16537351020CD33631E050E5A
:10076000371504000504130505661D3B3715040005
:100770001305456B3533371604001306466D931584
:10078000B02837B510205D3B631D050C37150400FC
:100790000504130505662933371504001305056E96
:1007A000013337160400A165130646709385058052
:1007B0003705142061335DE937150400050413057E
:1007C0000566F9393715040013054571D139814D96
:1007D000370A1820C16A378B0700B71B0400371C83
:1007E0000400B71C0400371D0400B3874D01EE84DC
:1007F0003EC4D69DC1656373BB01A16513854B756E
:100800002EC6793913D5A400C53913050C7649399C
:10081000B245338595002981C53113854C76493120
:10082000B245224513060D63113B31E5B7170400AD
:100830001385C776B53137070800E398EDFA371509
:10084000040005041305056681A03715040013058F
:100850004567B9310144F5B53715040013054567FF
:1008600029B7371504001305456735B73715040058
:1008700013054567B9B737150400130585770D31A2
:10088000371504001305456721391385495909397E
:10089000371504001305457821311305C95E093168
:1008A000B715040037051820938585797D158D3B94
:1008B000B71504009385857A370518209533B71549
:1008C00004009385C57B37451F20993BB71504006D
:1008D000370520209385057D7D159933138549596A
:1008E000C136371504001305857E5D3E1305C95ECC
:1008F000453E371504001305457F5D361545B71491
:100900000400DD3E13850465613E372504001305B0
:10091000458079362285CD361385046551363725D5
:10092000040013050581AD3E154933058940E936BC
:1009300013850465B53663112403372504001305B8
:10094000C581B93E372504001305C585913E1305C1
:10095000803EEF004072E5BF372504001305C583D4
:10096000CDB7B7170240D44398472146B18A639464
:10097000C602B7060070758F370600506303C714B0
:100980006360E6021DC7B7479C1CB706004093870B
:1009900007806307D706B7877D01938707848DA0FB
:1009A000370600606300C710B76773079387079423
:1009B000CDB79047944798479305000A93F6060EE3
:1009C00021831377F7037D8A05076392B608B7671B
:1009D000CD1D9387075033D7E702B7070C209387C5
:1009E0000732B2979C239146B387E7026309D6008A
:1009F000856693860654B3D6C600858A91C28583E0
:100A000023AEF18037160240544237070C201307FB
:100A100007319182BD8A36971823B7060C2093863A
:100A20000638B3D7E7005842416641830D8B3697AD
:100A3000182333D7E70023A0E182B7F600E083A6AE
:100A400006D1F18E91E2BA8723ACF18082809305C2
:100A5000000E6392B602D45BB7070C209387073071
:100A6000C182B6979C23B7867D0193860684B3879F
:100A7000D70285838DB7930700086397F600B747C1
:100A80009C1C9387078081BF9307000C6397F60037
:100A9000B7677307938707943DBFB7877D01938737
:100AA000078415BFD85BB7070C20938707304183B5
:100AB000BA979C2337877D0113070784B387E70222
:100AC0003DBFB767CD1D938707501DBF01A09C4553
:100AD00003D8050013F7070193F8F7001DCB584D15
:100AE00093E8180081468D4E414E3316D02833735B
:100AF000C800631C66001393160033966E003377AC
:100B0000C740D04133166600518F8506E39FC6FD6E
:100B100058CD1377F80F1DCF18418146130380027B
:100B20003D4E930E8004A1453316D028337FC80074
:100B3000631EE6016395670650C913962600331FAE
:100B4000CE003396C8003377E741518F8506E39D89
:100B5000B6FC18C11307F00F637207055441014634
:100B6000130E8002930E800421431307860033176F
:100B7000E028B375E800631FB7006396C70358C940
:100B800013172600BD45B395E5003397E800B3F68B
:100B9000B640D98E0506E31A66FC54C18280E39EF6
:100BA000D7F910C959BFE39DD7FD18C9D1BF19C2E4
:100BB0000CC982804CC98280371701409D4793063B
:100BC000078063F8B702938785FF93F7F70F631ADF
:100BD000D506B70601408C468A073D473317F70014
:100BE00033F7E54098C69846B317F600D98F9CC6F0
:100BF00082806308D502930707C0630AF508631C67
:100C0000E51637070140544B8A05BD47B397B70037
:100C1000B3F7F6405CCB5C4BB315B600DD8D4CCB27
:100C200082803707014054438A05BD47B397B70018
:100C3000B3F7F6405CC35C43B315B600DD8D4CC31F
:100C40008280930607C06304D5026312E510B706DD
:100C500001408C4E8A073D473317F70033F7E540D4
:100C600098CE984EB317F600D98F9CCE8280B706E7
:100C700001408C4A8A073D473317F70033F7E540B8
:100C800098CA984AB317F600D98F9CCA8280370752
:100C9000014054478A05BD47B397B700B3F7F64004
:100CA0005CC75C47B315B600DD8D4CC78280372723
:100CB000014013070780AE876318E504370701403A
:100CC00054538A05BD47B397B700B3F7F6405CD3DA
:100CD0005C53B315B600DD8D4CD3828037270140BD
:100CE000130707806312E502B70601408C568A0796
:100CF0003D473317F70033F7E54098D69856B317BA
:100D0000F600D98F9CD6828037270140130707C091
:100D10006317E5088A073D473317F7003316F600D7
:100D20009D471347F7FF63FBB700B7070140945B8C
:100D3000758F98DB985B518F98DB8280B7070140F5
:100D4000D457758FD8D7D857518FD8D782801307EB
:100D50000740E315E5F8B70601408C528A073D4786
:100D60003317F70033F7E54098D29852B317F600DF
:100D7000D98F9CD2828013070740E31AE5F2370728
:100D80000140544F8A05BD47B397B700B3F7F6400B
:100D90005CCF5C4FB315B600DD8D4CCF8280828076
:100DA000B7170240D44398472146B18A6394C602DC
:100DB000B7060070758F37060050630EC714636066
:100DC000E6021DC7B7479C1CB70600409387078003
:100DD0006307D706B7877D01938707848DA0370601
:100DE0000060630BC710B767730793870794CDB78D
:100DF0009047944798479305000A93F6060E21837F
:100E00001377F7037D8A0507639DB608B767CD1D85
:100E10009387075033D7E702B7070C20938707362D
:100E2000B2979C239146B387E7026309D600856693
:100E300093860654B3D6C600858A91C285831CC1A9
:100E400037160240544237070C20130707359182AA
:100E5000BD8A3697182393860181B3D7E70058429D
:100E6000416641830D8B36971823B7F600E033D7E0
:100E7000E70058C183A606D1F18E91E2BA871CC55E
:100E8000371602405C4263DD07085C4237479C1C12
:100E900013070780AD83FD8B95073357F70258C5BD
:100EA00082809305000E6392B602D45BB7070C20D4
:100EB00093870734C182B6979C23B7867D019386BA
:100EC0000684B387D7028583B1B793070008639779
:100ED000F600B7479C1C938707802DBF9307000C33
:100EE0006397F600B76773079387079425B7B787AB
:100EF0007D019387078439BFD85BB7070C209387A0
:100F000007344183BA979C2337877D0113070784F1
:100F1000B387E70225B7B767CD1D9387075005B79D
:100F20005442B7070C2093878738AD829D8AB697C5
:100F30008C235C42B7060C2093864638B9838D8B90
:100F4000B6979C233357B70089BF99C5371702401E
:100F50005C4FC98F5CCF8280B7170240D84F337582
:100F6000A740C8CF828099C5371702401C53C98F4C
:100F70001CD38280B717024098533375A74088D39B
:100F80008280EFF22FBE9E257D77BD667D8F411159
:100F90002A84AE84631BD7005A2DB18B33470708D0
:100FA0004D9BD98F5EAD239405001A28F577FD1768
:100FB0007D8FFE200A85D98F1EA85A248D679387BE
:100FC000379F7D8FDE20D98F9A24D98FBA24D98F6D
:100FD0005EA45E28DA24B3C7070893F7F7CFD98F4A
:100FE0005EA87D3B924765459040B335F50281464A
:100FF0000A063305F502352293064006B357D5029B
:101000001306F06313974700B377D50292079387CF
:101010002703637AF60093070701B3C707081EA4E6
:1010200041016FF06FB6B3D7D702D98FFDB75E25F8
:1010300089C59397D7285EA5828079777D17F98F28
:10104000DDBF93F5F51F4EA182800A216D8D3335EA
:10105000A000828083A7018237470F00130707246F
:10106000B3D7E7022394F1821307803EB387E702E8
:1010700023A2F1828280B7F700E0D843759BD8C3E2
:1010800003A741829387070823A407003305E502DD
:10109000114788CB98C398431367170098C3B7F7D5
:1010A00000E0D843098B75DF938707089843799B45
:1010B00098C38280EFF20FAB01112A848545254544
:1010C00002C202C402C602C802CA02CC02CEB53DA8
:1010D000854513050010413DB71401402D46138589
:1010E00004C09145EFF05FADC1477C828D473EC49F
:1010F0004C00E147138504C03EC6EFF05F9DB70783
:1011000008000C08372500403ECC22C802CA231E26
:101110000100853D854537250040113F05616FF091
:10112000AFA63288AA882E87CDEA63FFC50EC167B5
:10113000636AF618B7070001B337F600B307F0404B
:10114000E19BE1073353F6009716FADF938686801A
:101150009A96942213030002B697B306F340630BEA
:10116000F3003397D500B357F5003318D6005D8FE1
:10117000B318D500135608013355C702B346080803
:1011800093D708013377C702B385A6024207D98FE8
:1011900063FAB700C2971307F5FF63E4070163E83A
:1011A000B7303A858D8F33D7C702B3C80808B3F775
:1011B000C702B386E602C207B3E8F80063FBD800B3
:1011C000C2989307F7FF63E50801791763E3D80036
:1011D0003E874205598D8145828063F5D500814562
:1011E00001458280C16763E5F618B7070001B3B710
:1011F000F600B307F040E19BE10733D8F60017078C
:10120000FADF1307277542971823930800023E97C9
:101210003388E8406392E81863EDB6263335C5009D
:10122000134515008145828045C6C167637BF6245E
:1012300013370610134717000E07B356E60097073B
:10124000FADF93872771B6979C2393060002BA971B
:10125000B38EF640639DF608B387C5408545935627
:1012600006013346060833D5D70213D70801B3F772
:10127000D7023303C502C207D98F63FA6700C2974A
:101280001307F5FF63E4070163E067223A85B3873C
:10129000674033D7D702B3C80808B3F7D70233067D
:1012A000C702C207B3E8F80063FBC800C2989307FF
:1012B000F7FF63E50801791763E3C8003E8742053D
:1012C000598D82809337061093C717008E079DBDF6
:1012D00081469707FADF9387E767B6979C23014714
:1012E00093060002BA97B38EF640E387F6F63318FA
:1012F000D60133D3F50093560801335ED302B3957C
:10130000D501B357F500CD8F3346080813D7070131
:10131000B318D5013373D302B305C6034203336751
:101320006700637BB70042971305FEFF636A0717E8
:101330006378B716791E42970D8F3355D702B3C71E
:1013400007083377D7023303A6024207D98F63FB1E
:101350006700C2971307F5FF63E0071563FE671286
:101360007915C29793150E01B3876740C98DE5BD06
:1013700093B7061093C717008E0733D8F6001707E8
:10138000FADF1307275D42971823930800023E9760
:101390003388E840E382E8E8335EE600B39606016E
:1013A000336EDE00B3D8E500935E0E01B3D7D803E9
:1013B000B39505013357E5004D8F33430E0893561F
:1013C000070133160601B3F8D803B305F302C208C8
:1013D000B3E6160163FBB600F2969388F7FF63E36A
:1013E000C60D63F1B60CF917F2968D8EB3D5D60300
:1013F00033470708B3F6D603B308B302C206558FC6
:10140000637B170172979386F5FF6369C70963775A
:101410001709F9157297C207C16ECD8F9386FEFF2B
:10142000B3F5D70013D30701F18E4182338ED50275
:1014300033071741B306D30293580E01B385C50293
:10144000B695C6953303C30263F3D500769393D65E
:1014500005019A966363D7026305D7003E858145EF
:101460008280C166FD1633F7D5004207337EDE0069
:10147000331505017297E373E5FE1385F7FF814588
:101480008280B70700016377F60293560601414751
:101490007DB38145054582803A85E9B5B685A5BF0E
:1014A0002A8E59BDC68791B77915C297CDB37915E4
:0C14B000C297CDB993568601614751B335
:1014BC00307800000D0A563546204641554C5420D4
:1014CC006D63617573653D00206D6570633D000053
:1014DC00206D7476616C3D003031323334353637E3
:1014EC003839414243444546000000000D0A5B5424
:1014FC004553545D20000000204020002073697A81
:10150C00653D00002062797465730D0A00000000CF
:10151C0020204641494C207061747465726E3D30D8
:10152C0078000000206572726F72733D000000003D
:10153C00206669727374406F66667365743D000053
:10154C0020204F4B207061747465726E3D307800B2
:10155C000D0A5B424F554E444152595D200000002C
:10156C00204F4B0D0A000000204641494C202877A3
:10157C00726F746520307800207265616420307859
:10158C0000000000290D0A000D0A3D3D3D3D3D3D8A
:10159C003D3D3D3D3D3D3D3D3D3D3D3D3D3D3D3D6F
:1015AC003D3D3D3D3D3D3D3D3D3D3D3D3D3D3D3D5F
:1015BC003D3D0D0A0000000054657374342E313A21
:1015CC00204D656D6F727920416464726573732070
:1015DC0056616C69646174696F6E0D0A00000000DD
:1015EC003D3D3D3D3D3D3D3D3D3D3D3D3D3D3D3D1F
:1015FC003D3D3D3D3D3D3D3D3D3D3D3D3D3D3D3D0F
:10160C003D3D3D3D3D3D3D3D0D0A000056354620DE
:10161C0053797374656D436F7265436C6B3A00005C
:10162C000D0A0D0A000000000D0A5B312F355D20FC
:10163C0054657374696E6720696E7075745F62753A
:10164C00662E2E2E0D0A0000696E7075745F627521
:10165C00660000002020524553554C543A2050410E
:10166C0053530D0A000000002020524553554C5492
:10167C003A204641494C0D0A000000000D0A5B322D
:10168C002F355D2054657374696E6720636F6E76B9
:10169C005F6275662E2E2E0D0A000000636F6E764B
:1016AC005F627566000000000D0A5B332F355D200C
:1016BC0054657374696E6720706F6F6C5F627566CA
:1016CC002E2E2E0D0A000000706F6F6C5F62756617
:1016DC00000000000D0A5B342F355D2054657374D7
:1016EC00696E67204456505F444D415F6275666673
:1016FC0065722E2E2E0D0A004456505F444D415FEC
:10170C0062756666657200000D0A5B352F355D20CB
:10171C0054657374696E67206A7065675F6465638E
:10172C005F62756620283438304B422C2074657308
:10173C0074696E6720696E20626C6F636B73292EFF
:10174C002E2E0D0A000000002020426C6F636B20CF
:10175C00000000004B422D004B423A2000000000DC
:10176C00202020204F4B0D0A0000000020202020BC
:10177C004641494C0D0A0000426F756E64617279E6
:10178C002054657374733A0D0A000000536861723B
:10179C0065645F5352414D5F656E64006A706567A6
:1017AC005F6465635F6275665F7374617274000079
:1017BC006A7065675F6465635F6275665F656E64BA
:1017CC00000000005368617265645F5352414D5FC5
:1017DC006C6173745F6279746500000053756D6D94
:1017EC006172793A0D0A0000546F74616C20746553
:1017FC007374733A200000005061737365643A206F
:10180C00000000004661696C65643A20000000002D
:10181C000D0A2A2A2A20414C4C205445535453205B
:10182C00504153534544202A2A2A0D0A0000000037
:10183C000D0A2A2A2A20534F4D4520544553545300
:10184C00204641494C4544202A2A2A0D0A00000012
:10185C000D0A5465737420636F6D706C65746564E8
:10186C002E0D0A0000010202030303030404040406
:10187C000404040405050505050505050505050510
:10188C0005050505060606060606060606060606F0
:10189C0006060606060606060606060606060606DC
:1018AC0006060606070707070707070707070707C0
:1018BC0007070707070707070707070707070707AC
:1018CC00070707070707070707070707070707079C
:1018DC00070707070707070707070707070707078C
:1018EC000707070708080808080808080808080870
:1018FC00080808080808080808080808080808085C
:10190C00080808080808080808080808080808084B
:10191C00080808080808080808080808080808083B
:10192C00080808080808080808080808080808082B
:10193C00080808080808080808080808080808081B
:10194C00080808080808080808080808080808080B
:10195C0008080808080808080808080808080808FB
:04196C000808080857
:1019700097F107209381012117E10B201301816862
:10198000B726024098428D47D98F9CC217E5FFFFCA
:101990001305C56797F507209385C58617F60720B9
:1019A0001306C69363FAC5008322050023A05500E1
:1019B00011059105E3EAC5FE98C297F00720E7807C
:0419C000608400003F
:1019C400191C1E202326282D32383C40464C505AE0
:1019D40000000000000000000102030406070809DB
:1019E400040607081109130A150B170C190D0E0F1D
:1019F400101112131416181A1C1E20222426283B18
:101A0400191C1E202326282D32383C40464C505A9F
:101A1400000000000000000001020304060708099A
:101A2400040607081109130A150B170C190D0E0FDC
:101A3400101112131416181A1C1E20222426283BD7
:101A4400000102020204060800000000010203046F
:081A5400000102020000000085
:0400000340000000B9
:00000001FF
