:020000024000BC
:080000006F30D00B000000007E
:100008001705F8DF130505EE9705FEFF938585DFD5
:100018001736FEFF1306C6DB63FAC5008322050008
:1000280023A0550011059105E3EAC5FE1735F8DF51
:100038001305456E9735FEFF938585D91736FEFF64
:10004800130606D963FAC5008322050023A05500CC
:1000580011059105E3EAC5FE1735F8DF1305856B31
:10006800970500009385050A1386C18463FAC500C5
:100078008322050023A0550011059105E3EAC5FE7A
:100088001385C1849385C1886377B5002320050053
:100098001105E36DB5FEB7B237129382023E739035
:1000A80002BC9D42739012BCBD427390428099621B
:1000B80093828208739002309702FEFF938282D463
:1000C80093E23200739052309702FEFF9382222807
:0800D800739012347300203014
:1000E00000000400000000004A030A204C030A201C
:1000F000000000009E0B0A2000000000000000002D
:100100009E0B0A209E0B0A20000000000000000049
:100110009E0B0A209E0B0A209E0B0A200000000066
:100120009E0B0A209E0B0A209E0B0A209E0B0A2083
:1001300000000000000000000000000000000000BF
:1001400000000000000000000000000000000000AF
:100150009E0B0A20000000000000000000000000CC
:100160009E0B0A209E0B0A209E0B0A209E0B0A2043
:100170009E0B0A209E0B0A209E0B0A209E0B0A2033
:100180009E0B0A209E0B0A209E0B0A209E0B0A2023
:100190009E0B0A209E0B0A209E0B0A209E0B0A2013
:1001A0009E0B0A209E0B0A209E0B0A209E0B0A2003
:1001B0009E0B0A209E0B0A209E0B0A209E0B0A20F3
:1001C0009E0B0A209E0B0A209E0B0A209E0B0A20E3
:1001D0009E0B0A209E0B0A209E0B0A209E0B0A20D3
:1001E0009E0B0A209E0B0A209E0B0A209E0B0A20C3
:1001F0009E0B0A209E0B0A209E0B0A209E0B0A20B3
:100200009E0B0A209E0B0A209E0B0A209E0B0A20A2
:100210009E0B0A209E0B0A209E0B0A209E0B0A2092
:100220009E0B0A209E0B0A209E0B0A209E0B0A2082
:100230009E0B0A209E0B0A209E0B0A209E0B0A2072
:100240009E0B0A209E0B0A209E0B0A209E0B0A2062
:100250009E0B0A209E0B0A209E0B0A209E0B0A2052
:100260009E0B0A209E0B0A209E0B0A209E0B0A2042
:100270009E0B0A209E0B0A209E0B0A209E0B0A2032
:100280009E0B0A209E0B0A209E0B0A209E0B0A2022
:100290009E0B0A209E0B0A209E0B0A209E0B0A2012
:1002A0009E0B0A209E0B0A209E0B0A209E0B0A2002
:1002B0009E0B0A209E0B0A209E0B0A209E0B0A20F2
:1002C000AA030A209E0B0A209E0B0A209E0B0A20DE
:1002D0009E0B0A209E0B0A20000000009E0B0A20A5
:1002E0009E0B0A2000000000000000009E0B0A2068
:1002F00000000000000000009E0B0A209E0B0A2058
:100300009E0B0A209E0B0A209E0B0A209E0B0A20A1
:100310009E0B0A209E0B0A209E0B0A209E0B0A2091
:100320009E0B0A209E0B0A209E0B0A209E0B0A2081
:100330009E0B0A20397101436EC619A039714153D1
:100340006AC866CA62CC5ECE19A0397101535AD010
:1003500056D252D44ED64AD826DA22DC06DE3301F3
:100360006140828241114AC026C222C406C68282EE
:10037000B24D4101024D924C224CB24B4101024B15
:10038000924A224AB2494101024992442244B2406F
:10039000410182802A8309CA8383050023007300F8
:1003A0007D16050385056DFA82802A8311C6230018
:1003B000B3007D16050365FE8280EFF2BFFAB744F5
:1003C00001402A8413890480930500044A85EF00C4
:1003D000507A7DD913850480B3450408EF00F07886
:1003E00065B7EFF23FF82A840305040011E169BF05
:1003F0000504E137D5BFEFF25FF5AA843735040075
:100400001305C50AF93F7144A5497159B3D7840052
:1004100013F7F7001305770363E4E90013050703F7
:100420007114613FE31424FF99BF01A0411122C65A
:1004300026C44AC273292034F32410347324303480
:10044000373504001305050B693F4A856D3737358D
:1004500004001305450C71372685713F37350400BC
:100460001305C50CBD3F22857937373504001305C8
:10047000C534853F2945EF007076B707EFBE37E7F3
:1004800000E0938707083CC701A00945EF00101062
:1004900015C90945EF00B01183A78186850723A4FC
:1004A000F18603A7C186058B55C303A7C18605073F
:1004B00023A6E186B767024093870780D8471307D2
:1004C0000764D8C71145EF00700C29C51145EF002E
:1004D000100E0145EF00F00283A7818693060032DB
:1004E0000545B387D70223A2F18683A60184B767A7
:1004F00002409387078094C7B7060C2083A6064066
:10050000D4C723A4018623A60186054723A0E1863C
:10051000EF00207F0545EF00700709C90545EF0092
:10052000100983A70187850723A8F1864145EF00BD
:10053000F00501C54145EF0090072145EF0010058A
:1005400001C52145EF00B0067300203003A7C18626
:10055000050723A6E186B76702409387078098477F
:100560001307076498C7B9BFEFF2DFDFB744014054
:100570002A8413890480930500044A85EF00705F84
:100580007DD9A28513850480EF00305EF5BBEFF2C4
:100590007FDD2A840305040011E1FDB31375F50F17
:1005A0000504D937C5BFEFF2FFDB0111B7350400F1
:1005B00045469385450DAA846800E93B373504001C
:1005C0001305C50AE93771447159B3D78400BD8B4F
:1005D000938707028A9703C5C7FE71147137E31624
:1005E00024FF056155B3EFF2FFD7411111E5130563
:1005F00000039D3F410149BB5C000144BE84A94604
:1006000025463377D5020504850713070703A38F13
:10061000E7FE2A873355D502E365E6FE7D14B387EE
:100620008400882391377DF8F1B7EFF2BFD04111F4
:1006300085452145EF001042B7140140C1470947E5
:10064000138504C04C003EC23AC43EC6EF00C076DB
:10065000D121EF00B052716513050520EF00F05B6A
:100660007D54938404C0655913761400C1452685D2
:10067000EF0090021305800C7D14EF003056E31557
:1006800024FF373A040013058A0E1137373504006A
:1006900013058511ED3DB73904001385C914C53D17
:1006A0003735040013058517DD3503A5C184253FC3
:1006B000373504001305C518D93D37350400130537
:1006C0004519F135EF00B06A373504001305451CB4
:1006D0007D3D373504001305851E553D7145EF10EE
:1006E000200DAA847545EF10A00CAA8A2945EF10A9
:1006F000200C2A842D45EF10A00B2A8937350400E1
:10070000130505216935A20433E55401693D3735E8
:10071000040013050522A53D22043365240161353B
:10072000373904001305C9349D3581451305F00F91
:10073000EF10E0031305A005EF1080072A8B1305C7
:10074000B005EF10E006AA8A1305C005EF104006B9
:10075000AA8B931485001314650037350400130524
:10076000852235355A8581353735040013058523B3
:10077000393D56850D3D3735040013050524013DEF
:100780005E8515351305C934193537350400130551
:10079000852493F40430E53BB3E46401B3C4040856
:1007A00013952400334505083D3D373504001305F6
:1007B000052613740410E13B3364540133440408E8
:1007C0001315240033450508393D1305C934C133D9
:1007D0001305A00DEF00D07D2A84373504001305E2
:1007E00045267533228541887D3B51CC3735040041
:1007F00013058527693B85451305F00FEF0030771A
:100800004945EF00F07A2A84373504001305052A9C
:10081000BD3B2285493B1180373504001D881305F7
:10082000052BB53335E4373504001305052C853326
:10083000373504001305C529993B373504001305E6
:10084000C52DB133373504001305053089333D45D7
:10085000593B373504001305C531153B2945613334
:1008600037350400130545331D6B15330144130B55
:100870000B53373C0400B73C0400373D0400B73D40
:100880000400814A3DA8373504001305C5289DB7EB
:1008900089476317F400373504001305852C41BFE1
:1008A00091476317F400373504001305C52C41B791
:1008B000373504001305452D9DBF0545EF00103267
:1008C000850A83A701869DE7E3996AFF373504000F
:1008D000130505356D39228539331305C93445397A
:1008E000373504001305C5365D311305803EEF0032
:1008F000F02EE5BFE38C6AFD1305CC38493922851B
:10090000DD3113854C39613103A54186E939130581
:100910004D3AB53903A54186930700323355F502A8
:10092000D93113858D3BA53103A501876D39A547C5
:1009300063CB8700373504001305853C8939EF0008
:10094000B04205043DBF1305C9349131B947E318DE
:10095000F4FE373504001305453D1539B70714205B
:1009600083CB0700373504001305054083CA170001
:1009700039395E850D39B74C040013850C84013973
:10098000568515319307F00F6391FB109307800D87
:10099000639DFA0E3735040013054541CD3E03A78C
:1009A0004186B7071420373504003E97034CE7FF14
:1009B00003A7418613050543BA9703CBF7FFC13E52
:1009C0006285D53613850C84D9365A85E93E93075E
:1009D000F00F6311FC0C9307900D631DFB0A373574
:1009E00004001305454165363735040013054544B9
:1009F000793E0144B70D1420130D0002B3878D001A
:100A0000882305044D3613850C8451369377F40002
:100A100081E71305C934A53EE312A4FF373504006E
:100A200013050546AD3603A44186370D1420011485
:100A300083A741866365F40613058A0E893E373520
:100A400004001305C547A1361385C91489369307D9
:100A5000F00F6385FB06631DFC069307900D631979
:100A6000FB06373504001305854815363735040075
:100A70001305054A293E3735040013050551013E8B
:100A80001305803EEF009015E5BF373504001305D0
:100A9000054229B73735040013050542A9B7B30746
:100AA0008D0088230504013613850C84CD3493779B
:100AB000F400BDFF1305C934D93C9DBF63167C010A
:100AC0009307900D6305FB029307800D638FFA0275
:100AD00037350400130585485D3C373504001305A0
:100AE000054A7534373504001305854F61B7930700
:100AF000800DE398FAF6373504001305854B413C29
:100B0000373504001305454DB5B7373504001305D7
:100B10008548C1BFB7170240D44398472146B18AE0
:100B20006394C602B7060070758F370600506303E2
:100B3000C7146360E6021DC7B7479C1CB706004098
:100B4000938707806307D706B7877D01938707845C
:100B50008DA0370600606300C710B76773079387DF
:100B60000794CDB79047944798479305000A93F6AA
:100B7000060E21831377F7037D8A05076392B60873
:100B8000B767CD1D9387075033D7E702B7070C200F
:100B900093870732B2979C239146B387E702630994
:100BA000D600856693860654B3D6C600858A91C260
:100BB000858323A8F18437160240544237070C205E
:100BC000130707319182BD8A36971823B7060C2088
:100BD0009386063EB3D7E7005842416641830D8BAA
:100BE0003697182333D7E70023AAE184B7F600E04D
:100BF00083A606D1F18E91E2BA8723A6F184828082
:100C00009305000E6392B602D45BB7070C2093875E
:100C10000730C182B6979C23B7867D0193860684F0
:100C2000B387D70285838DB7930700086397F600D3
:100C3000B7479C1C9387078081BF9307000C63977D
:100C4000F600B7677307938707943DBFB7877D01A9
:100C50009387078415BFD85BB7070C2093870730AD
:100C60004183BA979C2337877D0113070784B38795
:100C7000E7023DBFB767CD1D938707501DBF01A099
:100C8000EFF24FEE85450965112581450965FD2B7C
:100C90006FF08FEF3766024023000680A3000680C6
:100CA00054395C299165938505FCD58F7429130708
:100CB0000680D58F7439D58F14519A06ED8ED58F55
:100CC00093F7F70F2300F6805C4D8966811696072F
:100CD000103DF58F142DD18ED58F93F7F70F1CB3E0
:100CE0001E215EA33E217EA35C411CC71C455CC740
:100CF0005E251EAF7E253EAF1E295EAF3E297EAF2C
:100D00008280376702408347078011C593E7170049
:100D10002300F780828093F7E70FDDBFB7670240BB
:100D200003C717809387078009C51367170098B317
:100D300082801377E70FE5BFB767024003C71780CC
:100D40009387078009C51367470098B3828013779C
:100D5000B70FE5BFB767024003C7178093870780C7
:100D600009C51367270098B382801377D70FE5BFB3
:100D7000B767024003C727809387078081C5498FE3
:100D8000B8A382803375A740A8A38280376702404A
:100D90008347278013070780182B93F7F70F698F76
:100DA00009C77D8D3335A000828001458280B767F9
:100DB00002402388A78082809C4503D8050013F752
:100DC000070193F8F7001DCB584D93E818008146B2
:100DD0008D4E414E3316D0283373C800631C660015
:100DE0001393160033966E003377C740D041331605
:100DF0006600518F8506E39FC6FD58CD1377F80F27
:100E00001DCF18418146130380023D4E930E80048E
:100E1000A1453316D028337FC800631EE6016395D1
:100E2000670650C913962600331FCE003396C800BC
:100E30003377E741518F8506E39DB6FC18C1130750
:100E4000F00F6372070554410146130E8002930EA2
:100E500080042143130786003317E028B375E800A8
:100E6000631FB7006396C70358C913172600BD4513
:100E7000B395E5003397E800B3F6B640D98E050682
:100E8000E31A66FC54C18280E39ED7F910C959BFAA
:100E9000E39DD7FD18C9D1BF19C20CC982804CC9C6
:100EA0008280371701409D479306078063F8B70299
:100EB000938785FF93F7F70F631AD506B7060140AE
:100EC0008C468A073D473317F70033F7E54098C64D
:100ED0009846B317F600D98F9CC682806308D50266
:100EE000930707C0630AF508631CE516370701403E
:100EF000544B8A05BD47B397B700B3F7F6405CCBB8
:100F00005C4BB315B600DD8D4CCB828037070140BA
:100F100054438A05BD47B397B700B3F7F6405CC3A7
:100F20005C43B315B600DD8D4CC38280930607C0C9
:100F30006304D5026312E510B70601408C4E8A07A0
:100F40003D473317F70033F7E54098CE984EB31777
:100F5000F600D98F9CCE8280B70601408C4A8A0762
:100F60003D473317F70033F7E54098CA984AB3175F
:100F7000F600D98F9CCA82803707014054478A0502
:100F8000BD47B397B700B3F7F6405CC75C47B315EE
:100F9000B600DD8D4CC782803727014013070780DC
:100FA000AE876318E5043707014054538A05BD47EF
:100FB000B397B700B3F7F6405CD35C53B315B600F4
:100FC000DD8D4CD3828037270140130707806312E1
:100FD000E502B70601408C568A073D473317F700F4
:100FE00033F7E54098D69856B317F600D98F9CD6BC
:100FF000828037270140130707C06317E5088A0777
:101000003D473317F7003316F6009D471347F7FFA8
:1010100063FBB700B7070140945B758F98DB985B63
:10102000518F98DB8280B7070140D457758FD8D78E
:10103000D857518FD8D7828013070740E315E5F8BA
:10104000B70601408C528A073D473317F70033F744
:10105000E54098D29852B317F600D98F9CD282807F
:1010600013070740E31AE5F237070140544F8A059A
:10107000BD47B397B700B3F7F6405CCF5C4FB315ED
:10108000B600DD8D4CCF82808280B7170240D443FA
:1010900098472146B18A6394C602B7060070758FDF
:1010A000370600506300C7166360E6021DC7B747E6
:1010B0009C1CB7060040938707806307D706B78755
:1010C0007D01938707848DA037060060630DC710EC
:1010D000B767730793870794CDB7904794479847AE
:1010E0009305000A93F6060E21831377F7037D8A92
:1010F0000507639FB608B767CD1D9387075033D7A1
:10110000E702B7070C2093870736B2979C239146D6
:10111000B387E7026309D600856693860654B3D683
:10112000C600858A91C285831CC13716024054428D
:1011300037070C20130707359182BD8A369718238D
:10114000B7060C209386063FB3D7E70058424166A6
:1011500041830D8B36971823B7F600E033D7E700AD
:1011600058C183A606D1F18E91E2BA871CC5371605
:1011700002405C4263DD07085C4237479C1C130752
:101180000780AD83FD8B95073357F70258C58280E2
:101190009305000E6392B602D45BB7070C209387C9
:1011A0000734C182B6979C23B7867D019386068457
:1011B000B387D7028583A1B7930700086397F6002A
:1011C000B7479C1C938707801DBF9307000C63974C
:1011D000F600B76773079387079415B7B7877D0144
:1011E0009387078429BFD85BB7070C209387073400
:1011F0004183BA979C2337877D0113070784B38700
:10120000E70215B7B767CD1D9387075031BF54422A
:10121000B7070C209387873EAD829D8AB6978C23B3
:101220005C42B7060C209386463EB9838D8BB697F9
:101230009C233357B70089BF99C5371702401C4F0D
:10124000C98F1CCF8280B7170240984F3375A740D3
:1012500088CF828099C5371702405C4FC98F5CCF19
:101260008280B7170240D84F3375A740C8CF82801D
:1012700099C5371702401C53C98F1CD38280B717FA
:10128000024098533375A74088D3828099C5371799
:1012900002405C57C98F5CD78280B7170240D8578D
:1012A0003375A740C8D78280EFF2CF8B9E257D771C
:1012B000BD667D8F41112A84AE84631BD7005A2DF1
:1012C000B18B334707084D9BD98F5EAD2394050042
:1012D0001A28F577FD177D8FFE200A85D98F1EA865
:1012E0005A248D679387379F7D8FDE20D98F9A246C
:1012F000D98FBA24D98F5EA45E28DA24B3C7070831
:1013000093F7F7CFD98F5EA8493392476545904050
:10131000B335F50281460A063305F502EF001004E5
:1013200093064006B357D5021306F06313974700A0
:10133000B377D502920793872703637AF600930762
:101340000701B3C707081EA441016FF0EF83B3D7AD
:10135000D702D98FFDB75E2589C59397D7285EA59B
:10136000828079777D17F98FDDBF93F5F51F4EA148
:1013700082800A216D8D3335A000828083A741854C
:1013800037470F0013070724B3D7E702239EF184E2
:101390001307803EB387E70223ACF1848280B7F75E
:1013A00000E0D843759BD8C303D7C185938707084E
:1013B00023A407003307A70298CB114798C398438B
:1013C0001367170098C3B7F700E0D843098B75DFA0
:1013D000938707089843799B98C38280B7F700E00A
:1013E000D843759BD8C303A781859387070823A497
:1013F00007003305E502114788CB98C3984313676C
:10140000170098C3B7F700E0D843098B75DF9387BF
:1014100007089843799B98C38280EFE2BFF40111DB
:101420002A848545254502C202C402C602C802CAF2
:1014300002CC02CE0535854513050010153DB714C5
:1014400001402D46138504C09145EFF09FA5C1478B
:101450007C828D473EC44C00E147138504C03EC6E4
:10146000EFF09F95B70708000C08372500403ECCE9
:1014700022C802CA231E0100053D854537250040CC
:10148000D93D05616FE05FF0EFE2DFED2E89328438
:10149000814463C5840022856FE01FEF930500043B
:1014A00037250040F9357DD9B307990083850700BA
:1014B000372500408504B3C50508453DD9BFB706AB
:1014C0000C20AA8703A5463F1387C188AA9763EB20
:1014D000E70037071020130707806365F70023AA8A
:1014E000F63E82807D558280EFE2DFE77971130658
:1014F000400281456800EFE05FEB854509652D3BC3
:10150000EFF00FF8930700327C8783A7018468000F
:101510003EC8B7070C2083A707403ECAB7070002A2
:101520003ED0930700F82302F10285473ED6EFF044
:101530006FF60145EFF05F800145EFF0BF81B7E73F
:1015400000E03707000123A6E710238C07468545F6
:101550007D45EFF0FF810545EFF04FFC0545EFF0CD
:101560004FFA45616FE05FE223A001868280EFE2DF
:101570007FDF37140140130404C005498944232840
:1015800024011305400604C8913D44C81305401FBB
:10159000232A2401A13513054006232824013D3DBB
:1015A0001305400604C81D3DC12619ED1305803EF4
:1015B00035359D2B1305803E153561231305803E7F
:1015C000313D1D376FE05FDC1305803EE9BFB71783
:1015D00001409843419B98C398431367370098C3D1
:1015E00098431377F7F098C398431367070398C39A
:1015F000054798CB094798CB8280EFE2BFD63714D6
:101600000140094923282401854404C81305200307
:10161000793313052003232A2401513344C86FE092
:10162000BFD6EFE23FD437140140894444C81305C4
:101630002003B53385471CC8130520038D331305DC
:10164000200304C8A93B6FE03FD4EFE2BFD13714B9
:1016500001408944130520039933054904C8232810
:10166000240113052003253B13052003232A24010D
:101670003D331305200344C81D336FE0FFD0EFE274
:10168000DFCCAA84214937140140094A8549939740
:10169000446063D507062328440113052003013362
:1016A00013052003232834017D198604CD391379CD
:1016B000F90F232A340193F4F40FE31A09FC1C40B8
:1016C0001305200393F7F7F01CC01C4093E70708AD
:1016D0001CC0F1311305200323283401C93108440B
:1016E000232A34011C401355154893F7F7F01CC00A
:1016F0001C4093E707031CC06FE07FC8232A440106
:1017000069BFEFE29FC4B7170140984321490144E4
:101710001377F7F098C39843B714014085491367CE
:10172000070898C313052003EFF07FC723A83401EF
:101730009C4406041374F40F898B81C70504137449
:10174000F40F130520037D19EFF07FC51379F90F0E
:1017500023AA3401E31809FC9C40228593F7F7F093
:101760009CC09C4093E707039CC06FE05FC1EFE221
:101770007FBFAE842A8951351305000609372A84B4
:1017800013054006EFF0BFC14A85D53D498C1305CE
:101790004006EFF0DFC02685DD3511C50544513523
:1017A00022856FE07FBE1374F40F33348000C5BF11
:1017B000EFE25FBB41112A84893513050006C1356C
:1017C00013054006EFF0BFBD2285553D13054006C9
:1017D000EFF0FFBCB93513054006EFF05FBC313DBB
:1017E00013051006693D13054006EFF05FBB113F7E
:1017F0002AC6A13D3D35324541016FE0FFB8EFE219
:101800007FB641118545130590073714014002C288
:1018100002C402C6EFF01FA4C1478D444C0013055B
:1018200004C03EC6648226C4EFF00FD913098004B9
:101830004C003715014064824AC6EFF0EFD73546B9
:10184000130504C09D45EFF0CFE5930700084C0059
:10185000130504C07C824AC6EFF00FD6130504C0FE
:101860003D46B145EFF0EFE32146130504C0B54511
:10187000EFF02FE389674C00130504C07C82B72486
:1018800001404AC6EFF04FD3138504802D468145B1
:10189000EFF02FE1138504802D468545EFF06FE0D2
:1018A0001385048035468945EFF0AFDF138504804A
:1018B00035468D45EFF0EFDE1385048035469145C2
:1018C000EFF02FDE1385048035469545EFF06FDD90
:1018D0003546138504809945EFF0AFDC9307F00798
:1018E0004C00138504807C824AC6EFF0EFCC35466D
:1018F000130504C09945EFF0CFDA930700044C00BC
:10190000130504C07C824AC6EFF00FCB3546A945CB
:1019100037150140EFF0EFD83546B1453715014096
:10192000EFF02FD88567938707404C0037150140AB
:101930007C824AC6EFF04FC81305044035469945EE
:10194000EFF02FD63546130504408945EFF06FD5EB
:10195000930740044C00130504407C824AC6EFF014
:10196000AFC541016FE05FA2EFE2DF9F493D371451
:1019700001408547130404C05CC82945EFF01FA649
:101980008944294544C8EFF07FA504C8EFF03FC45F
:1019900085451305F00FE13B930500084945EFF03D
:1019A0001FDD13052003EFF07FA3714511351314DC
:1019B00085007545F53BA16733440408938727FAF2
:1019C000B3658500B3C50508638AF50037350400A3
:1019D000130545520D2305456FE01F9B2945C93B63
:1019E000131485002D45EFF0BFDC896733440408EC
:1019F00093872764B3658500B3C505086389F5003F
:101A00003735040013050553FD210945F1B7373477
:101A1000040013048457930444160C30082009046E
:101A2000EFF0FFD4E31B94FE01457DB7EFE29F93F7
:101A30003734040013048456930404010C30082046
:101A40000904EFF0DFD2E31B94FE373404001304E3
:101A500084559304E4000C3008200904EFF03FD1D2
:101A6000E31B94FE6FE05F92EFE2DF8F37340400F8
:101A70001304C4539304C4010C3008200904EFF08C
:101A80001FCFE31B94FE6FE03F90B367B5008D8BD3
:101A9000ADE3EFE23F8DAA842E841305F00F81455C
:101AA000EFF0FFCC91451305000EEFF05FCC93D51E
:101AB000240093F5F50F1305A005EFF05FCB9355C8
:101AC000240093F5F50F1305B005EFF05FCA93D529
:101AD000A400218011888D89C18D1305C005EFF008
:101AE0001FC981451305000EEFF07FC801456FE067
:101AF000BF8905458280EFE2FF862E84AA84814556
:101B00001305F00FEFF0BFC6A6851305300DEFF0FB
:101B10001FC685451305F00FEFF07FC5A28545452B
:101B2000EFF0FFC46FE05F86EFE2DF83353F9305A0
:101B300000141305000F913F854505456D3F6FE08B
:101B4000BF84EFE23F82DD35930580251305003227
:101B50002D3F8545054545376FE01F833288AA88AC
:101B60002E87CDEA63FFC50EC167636AF618B70713
:101B70000001B337F600B307F040E19BE1073353B0
:101B8000F6009726FADF9386A6C39A96942213034B
:101B90000002B697B306F340630BF3003397D5000A
:101BA000B357F5003318D6005D8FB318D500135620
:101BB00008013355C702B346080893D708013377A5
:101BC000C702B385A6024207D98F63FAB700C2974E
:101BD0001307F5FF63E4070163E8B7303A858D8F9B
:101BE00033D7C702B3C80808B3F7C702B386E60203
:101BF000C207B3E8F80063FBD800C2989307F7FF69
:101C000063E50801791763E3D8003E874205598DE3
:101C10008145828063F5D500814501458280C16799
:101C200063E5F618B7070001B3B7F600B307F04055
:101C3000E19BE10733D8F6001727FADF130747B80F
:101C400042971823930800023E973388E840639236
:101C5000E81863EDB6263335C500134515008145F8
:101C6000828045C6C167637BF6241337061013478D
:101C700017000E07B356E6009727FADF938747B49D
:101C8000B6979C2393060002BA97B38EF640639DE5
:101C9000F608B387C54085459356060133460608C6
:101CA00033D5D70213D70801B3F7D7023303C502E0
:101CB000C207D98F63FA6700C2971307F5FF63E481
:101CC000070163E067223A85B387674033D7D702BD
:101CD000B3C80808B3F7D7023306C702C207B3E890
:101CE000F80063FBC800C2989307F7FF63E508019B
:101CF000791763E3C8003E874205598D8280933788
:101D0000061093C717008E079DBD81469727FADFFF
:101D1000938707ABB6979C23014793060002BA97B7
:101D2000B38EF640E387F6F63318D60133D3F500C9
:101D300093560801335ED302B395D501B357F5002E
:101D4000CD8F3346080813D70701B318D501337375
:101D5000D302B305C603420333676700637BB70052
:101D600042971305FEFF636A07176378B716791E5B
:101D700042970D8F3355D702B3C707083377D70281
:101D80003303A6024207D98F63FB6700C29713078C
:101D9000F5FF63E0071563FE67127915C297931587
:101DA0000E01B3876740C98DE5BD93B7061093C791
:101DB00017008E0733D8F6001727FADF130747A05E
:101DC00042971823930800023E973388E840E38245
:101DD000E8E8335EE600B3960601336EDE00B3D862
:101DE000E500935E0E01B3D7D803B39505013357D1
:101DF000E5004D8F33430E08935607013316060155
:101E0000B3F8D803B305F302C208B3E6160163FBC7
:101E1000B600F2969388F7FF63E3C60D63F1B60C44
:101E2000F917F2968D8EB3D5D60333470708B3F66C
:101E3000D603B308B302C206558F637B17017297AE
:101E40009386F5FF6369C70963771709F9157297D8
:101E5000C207C16ECD8F9386FEFFB3F5D70013D3B3
:101E60000701F18E4182338ED50233071741B30645
:101E7000D30293580E01B385C502B695C6953303B8
:101E8000C30263F3D500769393D605019A966363F4
:101E9000D7026305D7003E8581458280C166FD1665
:101EA00033F7D5004207337EDE0033150501729704
:101EB000E373E5FE1385F7FF81458280B7070001D4
:101EC0006377F6029356060141477DB38145054588
:101ED00082803A85E9B5B685A5BF2A8E59BDC687E9
:101EE00091B77915C297CDB37915C297CDB99356ED
:101EF0008601614751B35D7122D406D62A842EDA59
:101F000032DC36DEBAC0BEC2C2C4C6C603A5418436
:101F100011C51C4D81E72AC6D52032450C45541801
:101F2000228636CE0D21B250225461618280411149
:101F300022C406C62A844EA572A5232005002322AA
:101F40000500232405002322050623280500232A53
:101F50000500232C0500214681451305C505EFE04A
:101F6000CFC4970700009387676C5CD09707000089
:101F70009387876E1CD497070000938747725CD4C1
:101F80009707000093878774B24000D01CD8224482
:101F900041018280971500009385E5A6A5AA41110D
:101FA00026C2930780069384F5FFB384F4024AC0E7
:101FB0002E8922C406C693854407312C2A8401CD7C
:101FC0002320050023222501310508C41386840639
:101FD0008145EFE08FBDB240228522449244024900
:101FE000410182801385818759AA1385818749AA77
:101FF0001385C18769A21385C18759A2411122C4E3
:1020000006C62A84F5371C4C89C72244B2404101D8
:10201000DDB797070000938727F81CD42324040416
:10202000232604042328040483A78184639487005F
:1020300085471CCC2285152848C022853D2008C430
:102040002285252048C4484001469145EFF03FEEE7
:1020500008440546A545EFF09FED48440946C945AB
:10206000EFF0FFEC85471CCC4DB7411126C24AC0AA
:1020700006C622C42A89BD3783A481849C4C99E377
:102080002685AD3F938484048044DC40FD1763D6ED
:1020900007009C40BDC38440C5BF0317C40039EB93
:1020A000C17785075CC41305840523220406F92043
:1020B0002D3F214623200400232404002322040072
:1020C00023280400232A0400232C0400814513053F
:1020D000C405EFE08FAD232A0402232C040223243D
:1020E000040423260404B240228522449244024977
:1020F000410182801304840651BF91454A85EFF067
:102100001FEA88C02A8441F9EFF03FEEB14723204F
:10211000F900D1BF797122D44AD04ECE52CC5AC8E0
:102120005EC606D626D256CA2A892E8A130485048C
:102130008149054BFD5B0444832A4400FD1A63D0AA
:102140000A0200406DF8B250225492540259624A79
:10215000D24A424BB24B4E85F24945618280DE2421
:10216000637BFB008397E40063877701A6854A853C
:10217000029AB3E9A90093848406C9B78280828059
:10218000828041114AC0138901888327090022C433
:1021900026C206C6AA842E8489E78145952123207C
:1021A000A900A2852685A9297D59631A25017D5498
:1021B000B2402285224492440249410182801304A4
:1021C00035007198E30685FEB305A44026850D29E8
:1021D000E31025FFE9BF011126CA93843500F19869
:1021E0004AC8A104B14706CE22CC4EC62A89B3F410
:1021F000F40A63C4040063FDB400B1472320F9006E
:102200000145F2406244D2444249B24905618280AC
:10221000EF00101B9389418883A709003E8439E4AD
:10222000A6854A85B93FFD572A846319F50A03A498
:102230000900A287D1EB8329040081454A85A29930
:10224000C1266396A9081C408D044A859D8CF1988F
:10225000B147A104B3F4F40AA685EFF09FF2FD574D
:102260006307F5061C40A6971CC015A01440858E78
:1022700063C906042D47637ED70204C03307940068
:102280006397870223A0E9005C4014C35CC34A85BE
:10229000EF0090131305B4009307440061993307CE
:1022A000F540E300F5F63A94898F1CC099BFD8C376
:1022B000E1BF58406395870023A0E900C9BFD8C398
:1022C000F9B7A2874040A1BF3E84DC43A5B7B14720
:1022D0002320F9004A85EF00300F1DB704C145BF28
:1022E0001C46FD171CC663D90700184E63C5E700DE
:1022F000A9476393F500E1AE1C422E8513871700B2
:1023000018C28CA38280011122CC26CA4AC84EC6AC
:1023100052C406CE2A89AE893284B304D6007D5ACF
:1023200063149400014501A80C204E864A854D3F58
:102330000504E31745FFF2406244D2444249B249E2
:10234000224A05618280357122CD26CB4AC94EC70B
:1023500006CF52C556C35AC1DEDEE2DCAA892E84FE
:102360003289B68409C51C4D99E3EFF03FC9971730
:10237000FADF9387E7586317F40403A449007C50FD
:10238000858B81EB5E2493F7072081E7284CEFF0E3
:102390001FDF5E24A18B99C31C48B9EFA2854E852F
:1023A000212939C97C50858BA1C37D55FA406A44E7
:1023B000DA444A49BA492A4A9A4A0A4BF65B665CA9
:1023C0000D6182809717FADF938787516315F400B8
:1023D00003A489006DB79717FADF9387674EE31060
:1023E000F4FA03A4C90061BF5E2493F70720D5FF68
:1023F000284CEFF0FFD855BF93070002A304F10269
:102400009307000302D22305F10226C6930B500264
:10241000971AFADF938ACA50294BCA849C2099C321
:10242000639B7709338C2441638E2401E2864A86BC
:10243000A2854E85EFF03FEDFD576307F5189257E3
:10244000E2973ED29C2063810718FD571389140040
:1024500002C802CE3ECA02CCA309010482D483453D
:10246000090015465685EF002074C24793041900F1
:1024700029E513F7070109C713070002A309E104BF
:1024800013F7870009C71307B002A309E1048346C5
:1024900009001307A0026389E602F247CA84814655
:1024A0002546982093851400130707FD6372E606FE
:1024B00085C63ECE15A0850495B733055541B39723
:1024C000A72826893EC861BF3247930647001843B4
:1024D00036C6634807023ACE98209307E002631C91
:1024E000F70498309307A002631AF702B2478904F1
:1024F000138747009C433AC67D57B3E7E70A3ECAB5
:102500001DA83307E04093E727003ACE3EC8E9B75D
:10251000B3876703AE848546BA9761B7850402CA5C
:10252000814681472546982093851400130707FDAF
:102530006372E606E9F68C200D461715FADF1305DF
:10254000A53E9D2511CD9717FADF9387E73D1D8D99
:10255000C247130700043317A700D98F85043EC86C
:102560008C2019461715FADF1305453C1389140012
:102570002304B102152D35C99307000095E74247A2
:10258000B2471377071009CF91073EC69257D297EB
:102590003ED261B5B3876703AE848546BA9761B70B
:1025A0009D07E19BA107D5B77800970600009386A9
:1025B000C6D522860C084E8597000000E700000073
:1025C000FD572A8AE314F5FC7C50858B81EB5E2451
:1025D00093F7072081E7284CEFF09FBA5E2493F72A
:1025E0000704E39407DC1255D1B378009706000086
:1025F0009386A6D122860C084E85EF002078C9B7B5
:10260000411122C42A842E8523A4018806C6EFE046
:102610001FEBFD576316F50083A7818891C31CC08B
:10262000B240224441018280411122C42E8483950C
:10263000E50006C6EF00501C634905007C48AA97D8
:102640007CC8B2402244410182805E249397C748EF
:102650005EA4C5BFDE25011122CC26CA4AC84EC6DB
:1026600006CE93F70710AA842E843289B68991C7C3
:102670008395E5008946014621295E248315E400FF
:10268000F2409397C7485EA46244CE864A86B24918
:1026900042492685D2440561D5A8411122C42E8421
:1026A0008395E50006C6ED267D575E246319E50097
:1026B0009397C7485EA4B240224441018280939719
:1026C000C72868C85EA4C5BF8395E500F1AA0111BB
:1026D00022CC26CA4AC806CE4EC6AA842E89328487
:1026E00009C51C4D99E3EFF07F919717FADF9387A7
:1026F00027216317F402C0401C4C1CC45E24A18B2C
:1027000099C31C4895EFA28526857D2015C97D5962
:10271000F2406244D244B2494A854249056182800E
:102720009717FADF9387C71B6314F4008044E9B757
:102730009717FADF9387C718E310F4FCC0446DBF06
:102740001C4808409379F90F1379F90F1D8D5C48E7
:102750006346F500A28526856D2455F91C440505C0
:10276000FD171CC41C401387170018C023803701B5
:102770005C486388A7005E24858BD9DBA947E319F1
:10278000F9F8A2852685B52C41D551B7411122C44F
:102790002A842E85B285368623A4018806C6EFE0FA
:1027A000BFCEFD576316F50083A7818891C31CC077
:1027B000B240224441018280411122C426C24AC053
:1027C00006C683A441842A892E8491C49C4C81E747
:1027D0002685EFF0BF829717FADF9387671263139E
:1027E000F402C0408317C40013F7870025E713F7EE
:1027F00007010DEB25472320E90093E707045EA4BA
:102800007D5571A09717FADF9387870D6314F40045
:102810008044C9BF9717FADF9387870AE314F4FC53
:10282000C044C9B7918B9DC34C5889C993074404D0
:102830006384F5004A85692E232A04025E2423223C
:10284000040093F7B7FD5EA41C481CC05E2493E708
:1028500087005EA41C4899EB5E241307002093F7C1
:1028600007286385E700A2854A8565248317C4008D
:1028700013F717001DC35848232404003307E04012
:1028800018CC1848014501E713F707083DF7B24097
:102890002244924402494101828013F72700814675
:1028A00011E3544814C4F1BF411122C42A842E8577
:1028B00023A4018806C6EF00A07BFD576316F50030
:1028C00083A7818891C31CC0B24022444101828009
:1028D0008397C500011122CC26CA06CE4AC84EC62F
:1028E00013F78700AA842E8479E3D8416345E0007A
:1028F000B8416356E008585459C303A9040023A003
:1029000004000C5093D7C748A9CB70485E24918B24
:1029100099C75C401D8E5C5899C33C401D8E5C5429
:102920000C50814626858297FD57630CF5041C48A0
:102930000567232204001CC05E24F98F91C368C878
:102940004C5823A0240185CD930744046384F500EB
:102950002685BD2C232A04021DA001468546268516
:102960000297FD572A86E313F5FA9C40C5D37547B5
:102970006385E70059476395E70623A024010145D5
:10298000B5A098408317C40001CFF5466305D70072
:10299000D9466319D7041C48232204001CC04DB734
:1029A00018482322040093D7C74818C041BF83A901
:1029B0000501E38609FC03A905008D8B23A03501E1
:1029C00033093941014791E3D84918C4E35920FB41
:1029D0001C540C50CA864E8626858297634FA000F1
:1029E0008317C40093E707045EA47D55F240624458
:1029F000D2444249B24905618280AA993309A9406B
:102A0000F1B79C49411106C622C426C281EB81441C
:102A1000B24022442685924441018280AA842E84B9
:102A200009C51C4D99E3EFF06FDD9717FADF938727
:102A300027ED631FF402C0408317C400E9DB785020
:102A4000058B19E793F7072081E7284CEFF02FF368
:102A50002685A285EFF0DFE77C50AA84858BCDFB2D
:102A60005E2493F70720CDF7284CEFF06FF14DB7B8
:102A70009717FADF9387C7E66314F40080446DBFAD
:102A80009717FADF9387C7E3E318F4FAC0446DB7EA
:102A9000411122C42A842E85B285368623A401885A
:102AA00006C6CD2BFD576316F50083A7818891C319
:102AB0001CC0B2402244410182805971A2D42E84AC
:102AC0008395E500A6D2CAD086D6B284368963D271
:102AD00005025E2493F707088DEB13070040B650FC
:102AE00026542320F90098C0065996540145656183
:102AF000828030003D23E34E05FC3247BD67F98FED
:102B00007977BA9793B71700C9BF814713070004B5
:102B1000F9B7DE25797122D406D626D24AD04ECE18
:102B2000898B2E8491CF930774041CC01CC88547E1
:102B30005CC8B250225492540259F24945618280D5
:102B400074003000AA84EFF05FF7A2492A89268535
:102B5000CE85EFF04FE819E98317C40013F707207B
:102B600069FBF19B93E727005EA475BF97F7FFFF12
:102B7000938787429CD45E2408C008C893E707085F
:102B80005EA4B247232A340199CB8315E40026853D
:102B90006D2911C55E24F19B93E717005EA45E24A6
:102BA00033E527014AA471B793F5F50F2A9663140C
:102BB000C500014582801C21E38EB7FE0505C5BF17
:102BC000138541876FF0AFDB138541876FF04FDBD3
:102BD000C5C183A7C5FF011122CC06CE1384C5FF52
:102BE00063D307003E942AC6EFF09FFD1387418808
:102BF0001C43324589EB2322040000C36244F240A7
:102C000005616FF07FFC637DF4001040B306C400E3
:102C10006396D7009443DC43B29614C05CC0F1BF06
:102C20003E87DC4399C3E37DF4FE14433306D700AB
:102C3000631F86001040B29614C33306D700E39F8B
:102C4000C7FA9043DC43B29614C35CC345BF6375B7
:102C5000C400B1471CC15DB71040B306C400639601
:102C6000D7009443DC43B29614C05CC040C379B72C
:102C70008280797156CA9C49BA8A984522D44AD032
:102C80004ECE52CC06D626D25AC85EC6B3E7E70A65
:102C90001CC203C73504AA892E843289368A19C317
:102CA00085071CC21C4093F7070291C783270900C0
:102CB00089072320F9000440998891E8130B9401B7
:102CC000FD5B5C4403270900998F63CCF4048347C0
:102CD0003404B336F0001C4093F70702A5EB13064B
:102CE0003404D2854E85829AFD576303F5041C4057
:102CF00011478144998B6399E70083270900444475
:102D00009D8C8147B3E4F40A1C4418486354F700CF
:102D1000998FBE94014969047D5B63982405014540
:102D200009A885465A86D2854E85829A631E75010A
:102D30007D55B250225492540259F249624AD24A05
:102D4000424BB24B456182808504A5BF3307D40056
:102D500013060003A301C704034754049387160016
:102D6000A2978906A381E7049DBF85462286D28566
:102D70004E85829AE30E65FB050945B7797122D429
:102D80004AD04ECE52CC06D626D256CA5AC803C80E
:102D90008501930780072A892E84B289368A63E2E7
:102DA0000703930720069386350463E10703630C4A
:102DB000081C930780051706FADF1306E63F630831
:102DC000F814930424042301040515A89307D8F9E3
:102DD00093F7F70F5546E366F6FE1716FADF13066C
:102DE000A6B6B3C7C7209C43B29782871C4393847F
:102DF0002504938647009C4314C32381F50485472B
:102E000075A290411C43137506089385470029C19C
:102E10009C430CC3584063DF07129305D002A30103
:102E2000B40418C4635E0702B307F0401706FADF64
:102E3000130686382948B68433F70703FD14329702
:102E4000182398A03E87B3D70703E37707FF85A031
:102E50009C43137506040CC355DD939757605DBF03
:102E60006D9A10C0D1B790411C4313750608938525
:102E7000470001C50CC39C4331A0137606040CC364
:102E80007DDA9E231307F0061706FADF1306C63213
:102E90006310E80C2148A3010404584018C4E34C13
:102EA00007F80C40ED990CC0D9F7B68449F7A14753
:102EB000631EF8001C40858B91CB58401C4863C7AB
:102EC000E70093070003A38FF4FEFD14858E14C85A
:102ED0005287CE867000A2854A85EFF09FD9FD5AB1
:102EE000631A550D7D55B250225492540259F2493D
:102EF000624AD24A424B456182809C4193E7070275
:102F00009CC1130880071716FADF1306A6A2A302B6
:102F100004050C401C4313F805081385470063059E
:102F2000080008C39C4339A013F8050408C3E30B49
:102F300008FE9E2313F7150001C793E505020CC098
:102F400099C3414889BF18401377F7FD18C0D5BF12
:102F5000294891B71706FADF13060626294835BF18
:102F600090411C43CC49137806081385470063063B
:102F7000080008C39C438CC339A008C31376060419
:102F80009C4375DA8EA323280400B68491B71C43B2
:102F9000D04181459386470014C384432685EFF0D2
:102FA000BFC001C5B30795405CC05C401CC8A3010D
:102FB000040439BF14482686CE854A85029AE30365
:102FC00055F31C40898B85E74844B2473365F50AC1
:102FD00019BF85465686CE854A85029AE30465F177
:102FE00085045C443247998FE3C5F4FEF1BF814408
:102FF000930A94017D5BF5B7411122C42A842E8582
:10300000B285368623A4018806C65928FD57631663
:10301000F50083A7818891C31CC0B24022444101BE
:103020008280411122C42A842E85B28523A401887E
:1030300006C6A920FD576316F50083A7818891C3B2
:103040001CC0B240224441018280411122C42A8422
:103050002E8523A4018806C60528FD576316F500B2
:1030600083A7818891C31CC0B24022444101828061
:103070009307800523A4F1887D55828093078005FE
:1030800023A4F1887D5582809307800523A4F188CD
:10309000014582809307800523A4F1887D558280B5
:0C30A0009307800523A4F1887D558280F1
:1030AC00307800000D0A563546204641554C5420C8
:1030BC006D63617573653D00206D6570633D000047
:1030CC00206D7476616C3D003031323334353637D7
:1030DC003839414243444546000000000D0A3D3D4D
:1030EC003D3D3D3D3D3D3D3D3D3D3D3D3D3D3D3D04
:1030FC003D3D3D3D3D3D3D3D3D3D3D3D3D3D3D3DF4
:10310C003D3D3D3D3D3D0D0A00000000546573748E
:10311C00342E323A204456502052656365697665E8
:10312C002056616C69646174696F6E20284D756CF2
:10313C0074692D6672616D6529207631300D0A0037
:10314C003D3D3D3D3D3D3D3D3D3D3D3D3D3D3D3DA3
:10315C003D3D3D3D3D3D3D3D3D3D3D3D3D3D3D3D93
:10316C003D3D3D3D3D3D3D3D0D0A00005635462063
:10317C0053797374656D436F7265436C6B3A0000E1
:10318C000D0A0D0A000000005B444941475D2053C5
:10319C0074657020313A20496E697469616C697A82
:1031AC00696E67204F56323634302063616D65721C
:1031BC00612E2E2E0D0A00005B444941475D2053C1
:1031CC0074657020323A2043616D65726120696EBE
:1031DC00697469616C697A65640D0A005B444941E4
:1031EC00475D2052656164696E67204F56323634F4
:1031FC0030207265676973746572732E2E2E0D0AFA
:10320C00000000005B444941475D204D49443A2091
:10321C00000000002C205049443A20005B444941F6
:10322C00475D205A4D4F573D000000002C205A4D51
:10323C004F483D002C205A4D48483D005B444941C5
:10324C00475D204F75747075742073697A653A20E8
:10325C0000000000780000005B444941475D2049B4
:10326C004D4147455F4D4F44453D000020284A5095
:10327C00454720656E61626C6564290D0A0000008B
:10328C0020284A5045472044495341424C4544214B
:10329C00290D0A005B444941475D20434F4D373DA2
:1032AC000000000020287265736F6C7574696F6E76
:1032BC003A200000555847410000000043494600A1
:1032CC005356474100000000756E6B6E6F776E00B1
:1032DC005B444941475D205374657020333A204468
:1032EC00565020696E697469616C697A65640D0A5F
:1032FC00000000005B444941475D20537465702019
:10330C00343A20436170747572696E672000000056
:10331C00206672616D65732028736B697020666915
:10332C00727374200000000020666F722073746149
:10333C0062696C697A6174696F6E292E2E2E0D0A82
:10334C000D0A00005B444941475D2054494D454FEF
:10335C005554206174206672616D65200000000078
:10336C002A2A2A2054455354204641494C45443A74
:10337C002054494D454F5554202A2A2A0D0A000045
:10338C005B4652414D4520005D206A7065675F7356
:10339C00697A653D000000002062797465732C2009
:1033AC00687265665F636E743D0000002C20667267
:1033BC00616D655F636E743D000000002028736BC7
:1033CC006970290D0A0000000D0A5B444941475DF4
:1033DC00205374657020353A2056616C69646174B1
:1033EC00696E67206C617374206672616D652E2E38
:1033FC002E0D0A005B444941475D20534F49206D17
:10340C0061726B65723A2000202856414C49442960
:10341C000D0A00002028494E56414C4944290D0AFA
:10342C00000000005B444941475D20454F49206D39
:10343C0061726B65723A20000D0A5B444941475D2D
:10344C002046697273742033322062797465733A42
:10345C000D0A00000D0A5B444941475D204C617325
:10346C00742033322062797465733A0D0A000000BF
:10347C0053756D6D6172793A0D0A00002A2A2A2063
:10348C0054455354204641494C4544202A2A2A0D80
:10349C000A0000002D20534F49206D61726B65723C
:1034AC0020696E76616C69640D0A00002A2A2A2054
:1034BC00414C4C2054455354532050415353454494
:1034CC00202A2A2A0D0A0000445650207265636592
:1034DC0069766520697320776F726B696E672063FC
:1034EC006F72726563746C79210D0A002D20454F43
:1034FC0049206D61726B657220696E76616C6964CE
:10350C000D0A00000D0A5465737420636F6D706CA6
:10351C00657465642E0D0A004D49443A253038789F
:10352C000D0A00005049443A253038780D0A000045
:10353C00FF00DA09D703DF0233A03C00E167FF018B
:10354C00E000E100E500D700DA00E000FF01E01444
:10355C00E177E51FD703DA10E0000000FF00DA1076
:10356C00D703DF0033803C40E1770000FF002CFFE5
:10357C002EDFFF013C321100090204D813E5144878
:10358C002C0C33783A333BFB3E0043111610399226
:10359C0035DA221A37C3230034C0361A068807C01E
:1035AC000D870E414C0048005B0042034A81219973
:1035BC002440253826825C00630046000C3C617078
:1035CC0062807C05208028306C006D806E0070025B
:1035DC00719473C13D345A571200171118751901A3
:1035EC001A973236030F37404FCA50A85A236D0032
:1035FC006D38FF00E57FF9C04124E01476FF33A05D
:10360C00422043184C0087D5883FD703D910D3826A
:10361C00C808C9807C007D007C037D487D487C08FF
:10362C007D207D107D0E9000910E911A9131915A52
:10363C0091699175917E9188918F919691A391AF9B
:10364C0091C491D791E891209200930693E393054E
:10365C0093059300930493009300930093009300BD
:10366C00930093009600970897199702970C97244C
:10367C0097309728972697029798978097009700EE
:10368C00C3EFA400A800C511C651BF80C710B66611
:10369C00B8A5B764B97CB3AFB497B5FFB0C5B19456
:1036AC00B20FC45CC0C8C1968C00863D50005190CE
:1036BC00522C5300540055885A905B2C5C05D30255
:1036CC00C3ED7F00DA09E51FE167E000DD7F05004F
:1036DC0000010202030303030404040404040404AD
:1036EC00050505050505050505050505050505057E
:1036FC00060606060606060606060606060606065E
:10370C00060606060606060606060606060606064D
:10371C00070707070707070707070707070707072D
:10372C00070707070707070707070707070707071D
:10373C00070707070707070707070707070707070D
:10374C0007070707070707070707070707070707FD
:10375C0008080808080808080808080808080808DD
:10376C0008080808080808080808080808080808CD
:10377C0008080808080808080808080808080808BD
:10378C0008080808080808080808080808080808AD
:10379C00080808080808080808080808080808089D
:1037AC00080808080808080808080808080808088D
:1037BC00080808080808080808080808080808087D
:1037CC00080808080808080808080808080808086D
:1037DC0000000000000000000000000000000000DD
:1037EC0000000000000000000000000000000000CD
:1037FC0000000000000000000000000000000000BD
:10380C0000000000000000000000000000000000AC
:10381C00000000000000000000000000000000009C
:10382C00000000000000000000000000000000008C
:10383C00232D302B20000000686C4C00656667451A
:10384C00464700003031323334353637383961620F
:10385C006364656600000000A8F40520BEF4052032
:10386C007EF405207EF405207EF405207EF40520F0
:10387C00BEF405207EF405207EF405207EF40520A0
:10388C007EF405201CF6052022F50520B6F5052052
:10389C007EF405207EF405204AF605207EF40520F2
:1038AC0022F505207EF405207EF40520BEF50520CA
:1038BC0097D107209381413217C10B201301C1739B
:1038CC00B726024098428D47D98F9CC217C5FFFF7F
:1038DC001305057397D507209385059217D60720F6
:1038EC001306069F63FAC5008322050023A055002A
:1038FC0011059105E3EAC5FE98C297D00720E78031
:04390C00A08F000088
:10391000191C1E202326282D32383C40464C505A74
:10392000000000000000000001020304060708096F
:10393000040607081109130A150B170C190D0E0FB1
:10394000101112131416181A1C1E20222426283BAC
:10395000191C1E202326282D32383C40464C505A34
:10396000000000000000000001020304060708092F
:10397000040607081109130A150B170C190D0E0F71
:10398000101112131416181A1C1E20222426283B6C
:10399000000000001C380400FC370400DC37040081
:1039A0000000000000000000000000000000000017
:1039B0000000000000000000000000000000000007
:1039C00000000000000000000000000000000000F7
:1039D00000000000000000000000000000000000E7
:1039E00000000000000000000000000000000000D7
:1039F00000010202020406080000000001020304A4
:103A0000000102026C040C20000000000000000015
:103A1000200314200000000000000000000000004F
:103A20000000000000000000000000000000000096
:0C3A30000000142080030C2080030C20F8
:0400000340000000B9
:00000001FF
