:020000024000BC
:080000006F80101200000000E7
:100008001705F8DF130505EE9705FEFF938585DFD5
:100018001756FEFF130606AE63FAC50083220500D5
:1000280023A0550011059105E3EAC5FE1785F8DF01
:10003800130585749755FEFF9385C5AB1756FEFFCC
:10004800130646AB63FAC5008322050023A05500BA
:1000580011059105E3EAC5FE1785F8DF1305C5719B
:10006800970500009385050A1386418D63FAC5003C
:100078008322050023A0550011059105E3EAC5FE7A
:100088001385418D938581486377B500232005004A
:100098001105E36DB5FEB7B237129382023E739035
:1000A80002BC9D42739012BCBD427390428099621B
:1000B80093828208739002309702FEFF938282D463
:1000C80093E23200739052309702FEFF93824221EE
:0800D800739012347300203014
:1000E000000004000000000034030A2036030A2048
:1000F00000000000EC090A200000000000000000E1
:10010000EC090A20EC090A200000000000000000B1
:10011000EC090A20EC090A20EC090A200000000082
:10012000EC090A20EC090A20EC090A20EC090A2053
:1001300000000000000000000000000000000000BF
:1001400000000000000000000000000000000000AF
:10015000EC090A2000000000000000000000000080
:10016000EC090A20EC090A20EC090A20EC090A2013
:10017000EC090A20EC090A20EC090A20EC090A2003
:10018000EC090A20EC090A20EC090A20EC090A20F3
:10019000EC090A20EC090A20EC090A20EC090A20E3
:1001A000EC090A20EC090A20EC090A20EC090A20D3
:1001B000EC090A20EC090A20EC090A20EC090A20C3
:1001C000EC090A20EC090A20EC090A20EC090A20B3
:1001D000EC090A20EC090A20EC090A20EC090A20A3
:1001E000EC090A20EC090A20EC090A20EC090A2093
:1001F000EC090A20EC090A20EC090A20EC090A2083
:10020000EC090A20EC090A20EC090A20EC090A2072
:10021000EC090A20EC090A20EC090A20EC090A2062
:10022000EC090A20EC090A20EC090A20EC090A2052
:10023000EC090A20EC090A20EC090A20EC090A2042
:10024000EC090A20EC090A20EC090A20EC090A2032
:10025000EC090A20EC090A20EC090A20EC090A2022
:10026000EC090A20EC090A20EC090A20EC090A2012
:10027000EC090A20EC090A20EC090A20EC090A2002
:10028000EC090A20EC090A20EC090A20EC090A20F2
:10029000EC090A20EC090A20EC090A20EC090A20E2
:1002A000EC090A20EC090A20EC090A20EC090A20D2
:1002B000EC090A20EC090A20EC090A20EC090A20C2
:1002C00088030A20EC090A20EC090A20EC090A201C
:1002D000EC090A20EC090A2000000000EC090A20C1
:1002E000EC090A200000000000000000EC090A20D0
:1002F0000000000000000000EC090A20EC090A20C0
:10030000EC090A20EC090A20EC090A20EC090A2071
:10031000EC090A20EC090A20EC090A20EC090A2061
:10032000EC090A20EC090A20EC090A20EC090A2051
:10033000EC090A20397101436EC619A03971415385
:100340006AC866CA62CC5ECE19A0397101535AD010
:1003500056D252D44ED64AD826DA22DC06DE3301F3
:100360006140828241114AC026C222C406C68282EE
:10037000B24D4101024D924C224CB24B4101024B15
:10038000924A224AB2494101024992442244B2406F
:10039000410182802A8311C62300B3007D16050324
:1003A00065FE8280EFF21FFCB74401402A84138966
:1003B0000480930500044A85EF0090607DD9138581
:1003C0000480B3450408EF00305F7DBFEFF29FF972
:1003D0002A840305040011E145BF0504E137D5BFB8
:1003E000EFF2BFF6AA8437550400130505DDF93F87
:1003F0007144A5497159B3D7840013F7F700130569
:10040000770363E4E900130507037114613FE31404
:1004100024FFB5B701A0411122C626C44AC27329E0
:100420002034F3241034732430343755040013057A
:1004300045DD693F4A856D3737550400130585DE74
:1004400071372685713F37550400130505DFBD3F21
:100450002285793737550400130545E5853F130597
:100460004006EF00905C01A00945EF00007715C938
:100470000945EF00A07883A7018F850723A8F18E97
:1004800003A7418F058B3DCF03A7418F050723AA03
:10049000E18EB767024093870780D8471307072884
:1004A000D8C71145EF00607315C11145EF00007505
:1004B0000145EF00E06983A7018F13070014B3879C
:1004C000E70223A4F18E054723A6E18E0545EF0040
:1004D000C07009C90545EF00607283A7818F850749
:1004E00023ACF18E4145EF00406F01C54145EF005F
:1004F000E0702145EF00606E01C52145EF000070FE
:100500007300203003A7418F050723AAE18EB76748
:1005100002409387078098471307072898C751B769
:10052000EFF25FE4B74401402A8413890480930505
:1005300000044A85EF00D0487DD9A2851385048048
:10054000EF00904791B5EFF2FFE12A840305040024
:1005500011E11DBD1375F50F0504D937C5BFEFF2C5
:100560007FE0411111E5130500035D3F410129BD05
:100570005C000144BE84A94625463377D5020504B4
:10058000850713070703A38FE7FE2A873355D50294
:10059000E365E6FE7D14B3878400882351377DF838
:1005A000F1B7EFF23FDC2A84635705001305D00250
:1005B000853F3304804022855D37F9B3EFF29FD742
:1005C000797185452145EF00D02DB7140140C14711
:1005D0000947138504C04C103ED23AD43ED6EF00F2
:1005E00080624126EF00703E716513050520EF0023
:1005F000B0477D54938404C0655913761400C145F7
:100600002685EF00406E1305800C7D14EF00F0414D
:10061000E31524FF37550400130585DF2D3703A5A7
:10062000418D37540400814B1D3F130544E5213FA4
:10063000EF007061375504001305C5E02937EF104E
:10064000402637550400130545E2F53D1305401FCC
:10065000EF00B03DEF00D05837550400130505E416
:10066000DD3537550400130585E5F13D83A7018687
:10067000375C04003EC883A741863ECA83A7C18E6B
:10068000F5DF37F900E0032A890883A7818E370553
:100690001620BE853EC6EF10202383278908AA8432
:1006A00063ED472937550400130505E7338A4741B1
:1006B000593D37550400130505E871355E8545350C
:1006C000130544E54935375504001305C5E8A53D34
:1006D00032457135130544E5BD35639A042603A9F7
:1006E000019237550400130585E983A9C191A13D05
:1006F0004A85453D1305800725354E855D35130533
:1007000044E5913537550400130545EA2D3D5285E2
:10071000B93513054CEB053D03ADC184014B930680
:1007200080021306001837081220938DF9FF930CEE
:1007300000029308F9FFB307DB02EE8A330ACB020B
:1007400095879387A705429A63D33701BE8AB38AF8
:100750002A030143EA9AB3479303B307F040938710
:10076000D70B63C32701C687D697882346CE1ACCFA
:10077000EF30403DC245310AEF20B00B6243232ADF
:10078000AAFE232CAAFE232EAAFE1303830213071C
:100790000050F24893068002130600183708122012
:1007A000E31BE3FA050BE3189BF937FA00E09385A6
:1007B000C1933705122003298A08EF007058832758
:1007C0008A0863EE2717338927419389C193054A25
:1007D000938AC193194BB3C7542103A549008C4395
:1007E000EF2010316353A000D284050A9109E3146D
:1007F0006AFF37550400130505ECB133375B04007D
:100800009307CBF5B3C7F4208843096A8149253B98
:10081000130544E50D3B37550400130585EC2533DE
:10082000130BCBF5B79C0400130A0A71130D703E2D
:10083000930D300613850C893933B3073B01884388
:1008400019331305D003E939B3873A01D2458843F8
:10085000EF20F03CEF30202AAA84335545030133C2
:100860001305E0027539B3F4440363609D02130578
:1008700000037D3163EB9D00130500035531A5474F
:1008800063E597001305000361392685C93991098D
:10089000E147E391F9FA130544E575313755040052
:1008A000130505ED4D314A855D3913054CEB613972
:1008B000375504001305C5ED79311305A00A4531FC
:1008C0001305C002B1391305E0065139130544E59B
:1008D0009D39B70412200149B7391220C24588401A
:1008E000B104EF20D033EF3000211375F50F2A99B2
:1008F000E39634FF37550400130545EEA9314A85C8
:10090000B939130544E5813137550400130545EF26
:100910001D39814437091620B24763949702375531
:100920000400130545F0053137550400130545F261
:100930001939850BEF00302891B3FD17A5B3FD17CA
:1009400059B5B307990088238504D93EF1B73755C7
:100950000400130545F1C53E2685A131130544E584
:10096000D9B7B7170240D44398472146B18A639458
:10097000C602B7060070758F370600506303C714B0
:100980006360E6021DC7B7479C1CB706004093870B
:1009900007806307D706B7877D01938707848DA0FB
:1009A000370600606300C710B76773079387079423
:1009B000CDB79047944798479305000A93F6060EE3
:1009C00021831377F7037D8A05076392B608B7671B
:1009D000CD1D9387075033D7E702B7070C209387C5
:1009E0000732B2979C239146B387E7026309D6008A
:1009F000856693860654B3D6C600858A91C28583E0
:100A000023ACF18C37160240544237070C201307F1
:100A100007319182BD8A36971823B7060C2093863A
:100A2000063EB3D7E7005842416641830D8B3697A7
:100A3000182333D7E70023AEE18CB7F600E083A696
:100A400006D1F18E91E2BA8723AAF18C82809305B8
:100A5000000E6392B602D45BB7070C209387073071
:100A6000C182B6979C23B7867D0193860684B3879F
:100A7000D70285838DB7930700086397F600B747C1
:100A80009C1C9387078081BF9307000C6397F60037
:100A9000B7677307938707943DBFB7877D01938737
:100AA000078415BFD85BB7070C20938707304183B5
:100AB000BA979C2337877D0113070784B387E70222
:100AC0003DBFB767CD1D938707501DBF01A0EFF253
:100AD0007F8985450965112581450965FD2B6FF0E5
:100AE000BF8A3766024023000680A300068054397F
:100AF0005C299165938505FCD58F742913070680C1
:100B0000D58F7439D58F14519A06ED8ED58F93F702
:100B1000F70F2300F6805C4D896681169607103D1D
:100B2000F58F142DD18ED58F93F7F70F1CB31E219F
:100B30005EA33E217EA35C411CC71C455CC75E25AD
:100B40001EAF7E253EAF1E295EAF3E297EAF82805E
:100B5000376702408347078011C593E717002300DA
:100B6000F780828093F7E70FDDBFB767024003C7C6
:100B700017809387078009C51367170098B3828091
:100B80001377E70FE5BFB767024003C71780938766
:100B9000078009C51367470098B382801377B70FA2
:100BA000E5BFB767024003C717809387078009C571
:100BB0001367270098B382801377D70FE5BFB76715
:100BC000024003C727809387078081C5498FB8A358
:100BD00082803375A740A8A382803767024083478D
:100BE000278013070780182B93F7F70F698F09C722
:100BF0007D8D3335A000828001458280B767024039
:100C00002388A78082809C4503D8050013F707013D
:100C100093F8F7001DCB584D93E8180081468D4E90
:100C2000414E3316D0283373C800631C66001393FB
:100C3000160033966E003377C740D04133166600F6
:100C4000518F8506E39FC6FD58CD1377F80F1DCF52
:100C500018418146130380023D4E930E8004A14546
:100C60003316D028337FC800631EE60163956706FC
:100C700050C913962600331FCE003396C800337731
:100C8000E741518F8506E39DB6FC18C11307F00FAD
:100C90006372070554410146130E8002930E8004CF
:100CA0002143130786003317E028B375E800631F5C
:100CB000B7006396C70358C913172600BD45B395FF
:100CC000E5003397E800B3F6B640D98E0506E31A7F
:100CD00066FC54C18280E39ED7F910C959BFE39DD9
:100CE000D7FD18C9D1BF19C20CC982804CC98280F6
:100CF000371701409D479306078063F8B702938733
:100D000085FF93F7F70F631AD506B70601408C46A7
:100D10008A073D473317F70033F7E54098C69846F2
:100D2000B317F600D98F9CC682806308D50293075B
:100D300007C0630AF508631CE51637070140544BEA
:100D40008A05BD47B397B700B3F7F6405CCB5C4B61
:100D5000B315B600DD8D4CCB82803707014054437C
:100D60008A05BD47B397B700B3F7F6405CC35C4351
:100D7000B315B600DD8D4CC38280930607C06304B3
:100D8000D5026312E510B70601408C4E8A073D4735
:100D90003317F70033F7E54098CE984EB317F600B7
:100DA000D98F9CCE8280B70601408C4A8A073D4786
:100DB0003317F70033F7E54098CA984AB317F6009F
:100DC000D98F9CCA82803707014054478A05BD47A6
:100DD000B397B700B3F7F6405CC75C47B315B600EE
:100DE000DD8D4CC782803727014013070780AE870F
:100DF0006318E5043707014054538A05BD47B3978C
:100E0000B700B3F7F6405CD35C53B315B600DD8D85
:100E10004CD3828037270140130707806312E50215
:100E2000B70601408C568A073D473317F70033F762
:100E3000E54098D69856B317F600D98F9CD6828095
:100E400037270140130707C06317E5088A073D47A6
:100E50003317F7003316F6009D471347F7FF63FB80
:100E6000B700B7070140945B758F98DB985B518F93
:100E700098DB8280B7070140D457758FD8D7D857F1
:100E8000518FD8D7828013070740E315E5F8B706DE
:100E900001408C528A073D473317F70033F7E5408E
:100EA00098D29852B317F600D98F9CD2828013073C
:100EB0000740E31AE5F237070140544F8A05BD4762
:100EC000B397B700B3F7F6405CCF5C4FB315B600ED
:100ED000DD8D4CCF82808280B7170240D443984783
:100EE0002146B18A6394C602B7060070758F370633
:100EF00000506300C7166360E6021DC7B7479C1C1D
:100F0000B7060040938707806307D706B7877D0140
:100F1000938707848DA037060060630DC710B767FD
:100F2000730793870794CDB79047944798479305E5
:100F3000000A93F6060E21831377F7037D8A0507CF
:100F4000639FB608B767CD1D9387075033D7E70275
:100F5000B7070C2093870736B2979C239146B38737
:100F6000E7026309D600856693860654B3D6C600A9
:100F7000858A91C285831CC13716024054423707C7
:100F80000C20130707359182BD8A36971823B706C0
:100F90000C209386063FB3D7E70058424166418351
:100FA0000D8B36971823B7F600E033D7E70058C10A
:100FB00083A606D1F18E91E2BA871CC5371602408E
:100FC0005C4263DD07085C4237479C1C13070780BF
:100FD000AD83FD8B95073357F70258C58280930583
:100FE000000E6392B602D45BB7070C2093870734D8
:100FF000C182B6979C23B7867D0193860684B3870A
:10100000D7028583A1B7930700086397F600B74717
:101010009C1C938707801DBF9307000C6397F60005
:10102000B76773079387079415B7B7877D019387D1
:10103000078429BFD85BB7070C2093870734418307
:10104000BA979C2337877D0113070784B387E7028C
:1010500015B7B767CD1D9387075031BF5442B70707
:101060000C209387873EAD829D8AB6978C235C4285
:10107000B7060C209386463EB9838D8BB6979C238A
:101080003357B70089BF99C5371702401C4FC98F26
:101090001CCF8280B7170240984F3375A74088CF86
:1010A000828099C5371702405C4FC98F5CCF828020
:1010B000B7170240D84F3375A740C8CF828099C573
:1010C000371702401C53C98F1CD38280B7170240C8
:1010D00098533375A74088D3828099C5371702404B
:1010E0005C57C98F5CD78280B7170240D8573375D9
:1010F000A740C8D78280EFF2EFA69E257D77BD6618
:101100007D8F41112A84AE84631BD7005A2DB18B89
:10111000334707084D9BD98F5EAD239405001A28ED
:10112000F577FD177D8FFE200A85D98F1EA85A24DA
:101130008D679387379F7D8FDE20D98F9A24D98F33
:10114000BA24D98F5EA45E28DA24B3C7070893F7C0
:10115000F7CFD98F5EA84933924765459040B335A4
:10116000F50281460A063305F502EF10607D93060D
:101170004006B357D5021306F06313974700B377C1
:10118000D502920793872703637AF6009307070136
:10119000B3C707081EA441016FF00F9FB3D7D70252
:1011A000D98FFDB75E2589C59397D7285EA5828024
:1011B00079777D17F98FDDBF93F5F51F4EA18280FA
:1011C0000A216D8D3335A000828083A7C18D3747FA
:1011D0000F0013070724B3D7E7022392F18E1307FA
:1011E000803EB387E70223A0F18E8280B7F700E04C
:1011F000D843759BD8C303D7418E9387070823A490
:1012000007003307A70298CB114798C39843136789
:10121000170098C3B7F700E0D843098B75DF9387B1
:1012200007089843799B98C38280B7F700E0D843BA
:10123000759BD8C303A7018E9387070823A40700D3
:101240003305E502114788CB98C39843136717000D
:1012500098C3B7F700E0D843098B75DF9387070879
:101260009843799B98C38280EFF2CF8F01112A8433
:101270008545254502C202C402C602C802CA02CC84
:1012800002CE0535854513050010153DB714014004
:101290002D46138504C09145EFF09FA5C1477C8280
:1012A0008D473EC44C00E147138504C03EC6EFF0B5
:1012B0009F95B70708000C08372500403ECC22C890
:1012C00002CA231E0100053D854537250040D93D52
:1012D00005616FF06F8BEFF2EF882E8932848144C5
:1012E00063C5840022856FF02F8A9305000437259B
:1012F0000040F9357DD9B30799008385070037256C
:1013000000408504B3C50508453DD9BFB7060C208C
:10131000AA8703A5463F13878148AA9763EBE70096
:1013200037071020130707806365F70023AAF63EEE
:1013300082807D558280EFF2EF8279711306400240
:1013400081456800EFF00F85854509652D3BEFF07D
:101350000FF8930700147C8783A7018468003EC8B8
:10136000B7070C2083A707403ECAB70700023ED04C
:10137000930700F82302F10285473ED6EFF06FF69F
:101380000145EFF05F800145EFF0BF81B7E700E076
:101390003707000123A6E710238C074685457D45C6
:1013A000EFF0FF810545EFF04FFC0545EFF04FFAF8
:1013B00045616FE07FFD03A70184B7670240938713
:1013C000078098C737070C20032707400545D8C773
:1013D00023A8018E23AA018E23A6018E6FF04FF75A
:1013E000EFE25FF837140140130404C00549894453
:1013F000232824011305400604C8053D44C81305ED
:10140000401F232A240115351305400623282401F3
:10141000293D1305400604C8093DEF00106B0DE19E
:101420001305803E1935EF1020071305803EF53B6C
:10143000EF1080081305803ECD3BF53D6FE0DFF4F3
:101440001305803ED1BFEFE2FFEE378A0400411161
:1014500093074A2E3EC483A78186B78A0400B78BC0
:101460000400378C0400B78C0400378D040001445D
:101470006D49938A4A283EC6138B4195938B4B3016
:10148000130C4C2A938C4C2C130D4D32A247B245B1
:10149000A2978443B30754018843EF101004EF1060
:1014A000000AAA852685EF10D038B3077401B30669
:1014B00084018C422AC28843B3046401EF20802255
:1014C0009245EF10D075B30794018C43EF10F000F4
:1014D00037060C2088C013064655930459FE814DEB
:1014E00033CAA421B3C9C420924503250A00850D3F
:1014F000310AEF10D07223A0A900924503258AFF7C
:10150000B109EF10D07123ACA9FE92450325CAFFA3
:10151000EF10F070B7070C2023AEA9FE0D4813861C
:101520004755E3930DFDA504E39B24FB1389B40108
:101530009307300F1104E31BF9F441016FE05FE3FF
:10154000EFE25FDFB7070C207971938747553EC6FE
:10155000930705182E84938B4195814A130A000244
:101560003EC8214DED47B387FA02139BAA0081497B
:101570003EC46DA09108FD4763EC0705FD57631558
:10158000F90091080149C5BF630449059307001894
:101590003305F802B1471ED67ED47AD21AD042CE95
:1015A00016CC46CAB305F90216952E95032505E813
:1015B00083A50800EF10B066AA852685EF10E071BC
:1015C000B253A25F125F02537248E242D248AA8429
:1015D0000509E31179FA05080D0F6308B801B24750
:1015E0001309FCFFB348FF2079B705038D47A50F0A
:1015F0006313F304930500002685EF10704F6344D6
:10160000A0009304000023A09C00050C910C631E15
:101610004C018509130B0B0263868903B70713205E
:10162000014C938D2900B34CFB2083A40B00A24FE7
:10163000014393032C00C2471388F9FF7E8FB34206
:10164000F32071BF850A910BE39EAAF183A8C1869E
:1016500001493708152037061320131A49001317BC
:10166000590081448DA883A70D00E28576C83E8588
:101670003AC63EC4EF10D0473247C24E83A8C18657
:101680009146370613203708152013030010130E58
:1016900000026354A000A2473E8C8509910DE3949B
:1016A000D9FC850C130D0D0263863C018149B34DB5
:1016B000DD2155BF23A08B01938A0A02910B130BE6
:1016C0000B4063866A005A8D814C468CC5B79104E5
:1016D000210A6389C4013A8B814AB34B0A21B3CEF4
:1016E000C420D5B71109E31A99F637590400B75A3F
:1016F0000400371B1520130949288144938ACA2600
:10170000130B0B80931CB028614CB387540183A941
:101710000700CA8B370A152083A50B0003250A0092
:10172000110A910BEF10B04FAA854E85EF10E05AC9
:10173000AA89E3136AFFB307940088C391046699EA
:10174000E39584FD032A040013094400A28493094D
:101750008401832A0900D2855685EF1070396353BE
:10176000A000568A1109E39629FF130900000840DA
:10177000D2851104EF101077EF001056232EA4FE2F
:10178000AA854A85EF1060552A89E39289FE884030
:10179000CA859104EF10F00923AEA4FEE39999FEE7
:1017A00045616FE0FFBC83A781908DEF83A74190D7
:1017B00083A501907D5563F5B7068823138617002E
:1017C00023A6A19023A2C1901308F00F631905016D
:1017D0006377B600903301E6890723A2F190A14711
:1017E00023A4F19083A78190FD1723A4F19003A572
:1017F000C19003A7C18F3355F548FD4763CFE7007C
:101800009387419193563740BE968C229347F7FFBA
:101810009D8BB317F500CD8F9CA2050723AEE18EFB
:101820008280EFE23FB4AA840149014463459900F4
:1018300022856FE07FB5853F634605000604498C2D
:101840000509EDB77D54EDB7EFE23FB02A84930967
:10185000451105498144454AB93763420504B30738
:1018600024019C238604C98C85C703D70900B307CC
:10187000F740850763CEF400634C97009D8C334995
:1018800089208327491326943E9408386FE03FAFA0
:1018900005098909E31249FD130590C1C5BF7D55AE
:1018A000F5B7EFE23FAC1306802F8145138501FFAA
:1018B000EFE05FAE1306802F8145138581CFEFE007
:1018C0007FAD01456FE05FACEFE2DFA6B307B50087
:1018D000130101D73EC4224723A2A190414523A072
:1018E000E1908137C167938787FD6302F5067D55D7
:1018F000130101296FE0DFA7414525378549E3D86A
:10190000A9FE930704FC1309E5FF639FF408214532
:10191000093F4145393723AEA1904145193723A0EE
:10192000A1922145FD3D23ACA1907599631D355DC4
:1019300023A4A18423A2A1841389C1CE9384C14787
:1019400013840147814983A7819163C1F90283A769
:101950004190224763FAE7004145E135416493072E
:1019600094FDAA84E31AF5F8014559B72145553D80
:101970002145453D03A78184935745403D899CC03F
:1019800008C06354F70023A4F18483A7418463D47F
:10199000A70023A2A184214569352320A900850938
:1019A00011099104110445B79307B4FD639AF40239
:1019B0009384812E93090004E35B20F9214595353A
:1019C0001374F5001A04014A2145A13DB3078A00AA
:1019D000A69788A3050AE3193AFF1309F9FBE9BFA3
:1019E000930744FC639AF40C938981CF138A814254
:1019F000938AC144E35D20F521452535935C45403C
:101A00001304C0173D8993FCFC0033048502639ED8
:101A10000C08938701FF3E94C547054C014B454D8B
:101A2000B304F50285042145ED3B33078401937728
:101A3000F50F1CA33387540163840C0033874401E2
:101A40001375F50F1CA3050C2A9B8504E31DACFD43
:101A5000A284330C8B00639C8405130684139306C5
:101A60004411814705478145FD5845480CC22390E4
:101A700016013305E400082109C9AA97B3C707086E
:101A80001383F7FF23906600AA95860705071106C2
:101A90008906B3C70708E31B07FD8547232CF41607
:101AA00093071B013309F940B1B74E94B5B72145EF
:101AB0008D3B88B8850445B71304A4FD8149639123
:101AC00084442145B93B138901CE938941CD1387C5
:101AD00001CE938741CD2A8481443AD63ED8214510
:101AE00063C784083D3B21452D3B21451D3B23AA6F
:101AF000019023AE018E1306000281451385813EBD
:101B000023A80190EFE01F89130600028145138589
:101B1000813CEFE03F8883A7818483A6019282C243
:101B200013973700B3E7D720FD17B3C7E70283A6A3
:101B3000C19182C482C602C6814C8144014C3ECE12
:101B400083A7418413973700B3E7D720FD17B3C7A6
:101B5000E7023ED09387C1CE3EDC83A74190224767
:101B6000E3F7E7DE930A4104014402C8BDA65539F4
:101B700021454539935745402320F9009377F500D7
:101B800023A0F90085041109910991BF83A7C18F92
:101B9000138501FF3ECAB257A29798439307C01717
:101BA000B387E7023E954D312A8B03AA01919D47E9
:101BB0006340A00E63C147039387813EB347FA2079
:101BC00023A007009387813CB347FA20050A23A08E
:101BD000070023A84191014503ABC18F83A70A00E9
:101BE0001306C00F8145330AF50023A04A014809B6
:101BF000EFE04FFAC25752C9130AC017A2979C438D
:101C0000130DF003BD4D330AFA02938781CFD297AB
:101C10003ED2054A1255EFF03FC3634BA00A32474C
:101C20009D4763D2E710D2571385812E94439D4779
:101C30009A0663CE97013307D50018234A46938747
:101C400081403307C702B3C7FC20850C98C3100935
:101C50003287814713080004B385D700AA9583C84B
:101C600005000C438507B38515030CC31107E395E5
:101C700007FF140B8D6836850148938818D4A14E50
:101C8000130F0004B7570400138747F7AA85D5A898
:101C900063D24703EFF0FFB8050A9307FBFF23A8C1
:101CA0004191B317F028E359F5F2B3176029FD17F6
:101CB0001D8D1DB79387813EB347FA2088C3EFF08F
:101CC0005FB6931D2A009387813CEE9788C3E9B7DE
:101CD00093564540369A9377F500E3424DF581E7F8
:101CE000E39FB6F305BF3E853EDEEFF09FB3F257AC
:101CF0009386F7FFB316D0286356D500B317F028A4
:101D0000FD171D8DB757040093874707D2979C2373
:101D1000180D050AB3C7E72023A0A7E09307000426
:101D2000E31AFAEEEDBD5247938781383307EB4053
:101D3000CE9798C303A7C18F93878136CE97330B75
:101D40006741D24623A067019387813ACE97158FCA
:101D500098C3D1BD83220E0083A30F000503910F0A
:101D6000B3827202110E9697E316D3FFB9879CC116
:101D7000B7570400130707029387470791056300CD
:101D8000F7021C4203230700930F4600B387170393
:101D9000130E4700B987B3876702054365BF210863
:101DA0001306060213050502E31EE8ED0D68014661
:101DB000130818D4A1481303F00F014E9C083305F3
:101DC000F600B7570400138747F73DA883AF0E000E
:101DD00083220F008505130F0F02B38F5F02910E50
:101DE000FE97E39515FFC18793870708B3C7670A76
:101DF000B3E7C70B1CA1B75704001307070293876B
:101E000047072105630FF7009C420C43138F06021E
:101E1000B3870703930E4700B987B387B702854599
:101E200075B705069106E31BB6F883A781841247B0
:101E30008145B387F402130E0004CA9793963700C6
:101E400083A7418493888600B307FC02BA9713974F
:101E500037009C0836863388F50083A70192635FBC
:101E6000F60003A5C191635BA7003385E70283A752
:101E7000C184B297AA970345080088A30506050800
:101E8000E31D16FDA1050507E395C5FD05099109AB
:101E9000E247CA973EC6A2579C43E349F9CE924710
:101EA00085073EC293870147A2979C43124763511F
:101EB000F702B24701493ECC939927009387C14767
:101EC000A2973ED4F1B7E25702C2A2973EDAD9BF39
:101ED000C247910A110485073EC883A781914247F2
:101EE000E343F7FEF2478504E3C9F4C68257050CC5
:101EF000E35CFCA6814495B12145EFF09F928509F2
:101F0000E3CC29FFA9B47555E5B2B7170140984352
:101F1000419B98C398431367370098C3984313773E
:101F2000F7F098C398431367070398C3054798CB06
:101F3000094798CB8280EFE2EFC23714014009498C
:101F400023282401854404C813052003EFF00FAAB9
:101F500013052003232A2401EFF04FA944C86FE0A2
:101F6000AFC2EFE22FC037140140894444C81305C3
:101F70002003EFF0AFA785471CC813052003EFF03F
:101F8000EFA61305200304C8EFF04FA66FE0CFBF04
:101F9000EFE24FBD37140140894413052003EFF0F1
:101FA000EFA4054904C82328240113052003EFF0FA
:101FB000EFA313052003232A2401EFF02FA3130519
:101FC000200344C8EFF08FA26FE00FBCEFE2EFB741
:101FD000AA84214937140140094A854993974460EE
:101FE00063D907062328440113052003EFF00FA04F
:101FF00013052003232834017D198604EFF00F9F79
:102000001379F90F232A340193F4F40FE31809FC30
:102010001C401305200393F7F7F01CC01C4093E706
:1020200007081CC0EFF08F9C130520032328340100
:10203000EFF0CF9B0844232A34011C401355154868
:1020400093F7F7F01CC01C4093E707031CC06FE038
:102050000FB3232A440149BFEFE22FAFB717014066
:102060009843214901441377F7F098C39843B71474
:10207000014085491367070898C313052003EFF053
:10208000EF9623A834019C4406041374F40F898B43
:1020900081C705041374F40F130520037D19EFF0B5
:1020A000EF941379F90F23AA3401E31809FC9C403B
:1020B000228593F7F7F09CC09C4093E707039CC0F0
:1020C0006FE0EFABEFE20FAAAE842A89AD351305BE
:1020D0000006ED3D2A8413054006EFF02F914A8556
:1020E000F535498C13054006EFF04F902685F93DF4
:1020F00011C50544BD3522856FE00FA91374F40F97
:1021000033348000C5BFEFE2EFA541112A84EFF020
:102110009FE2130500065D3D13054006EFF00F8DAD
:1021200022856D3513054006EFF04F8CEFF07FE30D
:1021300013054006EFF08F8BEFF0FFDF130510065D
:10214000EFF0DFE813054006EFF04F8A31372AC67B
:10215000EFF01FE4EFF0FFE0324541016FE0CFA266
:10216000EFE24FA041118545130590073714014058
:1021700002C202C402C6EFE0DFF2C1478D444C0048
:10218000130504C03EC6648226C4EFE0DFA713092E
:1021900080044C003715014064824AC6EFE0BFA6B8
:1021A0003546130504C09D45EFE09FB49307000832
:1021B0004C00130504C07C824AC6EFE0DFA413057F
:1021C00004C03D46B145EFE0BFB22146130504C04F
:1021D000B545EFE0FFB189674C00130504C07C8270
:1021E000B72401404AC6EFE01FA2138504802D46A4
:1021F0008145EFE0FFAF138504802D468545EFE074
:102200003FAF1385048035468945EFE07FAE1385E7
:10221000048035468D45EFE0BFAD1385048035461B
:102220009145EFE0FFAC1385048035469545EFE01E
:102230003FAC3546138504809945EFE07FAB9307AB
:10224000F0074C00138504807C824AC6EFE0BF9BF8
:102250003546130504C09945EFE09FA99307000494
:102260004C00130504C07C824AC6EFE0DF99354676
:10227000A94537150140EFE0BFA73546B1453715F1
:102280000140EFE0FFA68567938707404C003715B4
:1022900001407C824AC6EFE01F9713050440354693
:1022A0009945EFE0FFA43546130504408945EFE06A
:1022B0003FA4930740044C00130504407C824AC6A7
:1022C000EFE07F9441016FE02F8CEFE2AF89EFF0F8
:1022D0003FE9371401408547130404C05CC8294511
:1022E000EFE0BFF48944294544C8EFE01FF404C877
:1022F000EFF0BFC185451305F00FEFF0BFDC93058C
:1023000000084945EFF01FDC13052003EFE0FFF163
:102310007145EFF05FDF131485007545EFF0BFDE08
:10232000A16733440408938727FAB3658500B3C5D2
:102330000508638BF500375504001305450BEF10B6
:10234000D00C05456FE04F842945EFF0DFDB131417
:1023500085002D45EFF03FDB896733440408938700
:102360002764B3658500B3C50508638AF500375552
:1023700004001305050CEF1050090945E1B7375467
:10238000040013048410930444160C30082009043C
:10239000EFF05FD3E31B94FE01456DB7EFD29FFCD6
:1023A000375404001304840F930404010C300820F4
:1023B0000904EFF03FD1E31B94FE375404001304EB
:1023C000840E9304E4000C3008200904EFF09FCF42
:1023D000E31B94FE6FD05FFBEFD2DFF837540400AD
:1023E0001304C40C9304C4010C3008200904EFF05A
:1023F0007FCDE31B94FE6FD03FF9B367B5008D8BA3
:10240000ADE3EFD23FF6AA842E841305F00F814589
:10241000EFF05FCB91451305000EEFF0BFCA93D5E7
:10242000240093F5F50F1305A005EFF0BFC99355F0
:10243000240093F5F50F1305B005EFF0BFC893D551
:10244000A400218011888D89C18D1305C005EFF08E
:102450007FC781451305000EEFF0DFC601456FD041
:10246000BFF205458280EFD2FFEF2E84AA8481451A
:102470001305F00FEFF01FC5A6851305300DEFF023
:102480007FC485451305F00FEFF0DFC3A2854545F6
:10249000EFF05FC36FD05FEFEFD2DFECEFF0DFF371
:1024A000930500141305000FEFF03FF58545054532
:1024B000EFF07FFB6FD05FEDEFD2DFEAEFF01FEEC2
:1024C0009305000F13050014EFF03FF38545054514
:1024D000EFF07FF96FD05FEB411122C426C206C630
:1024E000AA8455202A842685A9211DC197E50100CB
:1024F00083A585042685EF00B05F6351A002EF102D
:102500006070930720021CC117E4010003248402B9
:10251000B2402285224492444101828097E5010025
:1025200083A5C5012685EF001066E35305FEEF1075
:10253000606D930720021CC113040000D1BF41113C
:1025400022C426C206C6AA8471242A84A6852685AA
:10255000EF10C0501DE1930500002685EF00B0622A
:10256000635D0500EF10006A9307100293050000F9
:102570001CC12E85EF00F02B2A84B2402285224414
:10258000924441018280011122CC06CE26CA4AC85B
:102590004EC652C456C23707807F2A84AA85931735
:1025A000F5496365F71C1359F501639EE700631055
:1025B0000922F24022856244D2444249B249224A69
:1025C000924A056182803777B14213077721635CB5
:1025D000A7006244F240D2444249B249224A924A98
:1025E0000145056189A66352050237F7CF421307FB
:1025F000571B637CF7006244F240D2444249B2491F
:10260000224A924A0145056109AE3777B13E130768
:1026100087216375F7123717853F130717599314EE
:1026200029006367F70C9387018CA6978C4322855A
:10263000EF10400B9387818BA69703AA0700854470
:10264000B3842441AA89B3842441D2854E85EF10F6
:1026500060092A84A2852285EF00705C97E501005D
:1026600083A545EF2A89EF00905B97E5010083A5DC
:10267000A5EEEF102007CA85EF00705A97E501001C
:1026800083A5C5ED992DCA85EF00705997E5010026
:1026900083A505EDEF100005CA85EF00505897E5BA
:1026A000010083A525EC152DCA85EF005057AA859A
:1026B0002285EF102003AA852A892285EF00305653
:1026C000AA8AD5E897E5010083A505EA4A85EF10B7
:1026D0006001AA855685EF00D015A285EF10800015
:1026E000AA8517E501000325A5E6EF00B07F41A00C
:1026F00097E5010083A5C5E42285EF00505293873A
:10270000818CA6978C43D12BEF100039AA84EF104F
:10271000604397E5010083A5E5E22A89EF00305088
:10272000AA852285EF00107CAA8997E5010083A580
:10273000A5E14A85EF00B04E2A8A01BF3707003471
:1027400063F9E70297E5010083A545E0228571233F
:1027500097E5010083A5C5DFEF009039635BA0001A
:1027600097E701009387C7DE8C432285BD232A8427
:1027700089B58144C5B5CA8517E501000325C5DEC5
:10278000EF005076AA855685EF00B00AAA855285DB
:10279000EF005075CE85EF00F074AA8517E50100B3
:1027A000032505DBEF001074930730F863C6F400CF
:1027B000DE043384A400F5BB93844406DE0497E56D
:1027C000010083A5A5DA2695EF0070454DB71304E7
:1027D0000000C5B3011122CC06CE26CA4AC84EC697
:1027E00052C4B706807F2A849317F54963E2D70263
:1027F000AA85EF00D042AA852285C5212A84F2400D
:1028000022856244D2444249B249224A056182800B
:10281000FDD7AA8763590500AA85EF00B06CAA8589
:10282000EF003001E1BFE98E13577541D5C21307A0
:1028300017F8A607A583937617009397772991C277
:102840008607135417408607654681440145B7063D
:102850000001B305D5003E8763C7B7003385D500B7
:102860003387B740B6947D1693171700858275F2AB
:1028700029C313894185938901850325090083A50F
:102880000900032A0900EF00F065AA855285EF00D0
:10289000902F6340A0020325090083A509000329A6
:1028A00009002529AA854A85EF00F02D6356050207
:1028B00089048584B707003FBE945E04269481B7DF
:1028C0008607850633F6B70065DEFD16158F85B7DA
:1028D0008146B7058000FDB78504F998D9BF41113D
:1028E00022C426C206C62A84AE84EF10A03104C1D9
:1028F000B24022852244924441018280411106C6A1
:1029000019C91395F569EF009031B2409305200283
:1029100041016FF0DFFC2E85FDB797E5010083A52F
:1029200025C56FF0BFFD97E5010083A5A5C46FF035
:10293000FFFCB707807F1315F5493325F50082802A
:102940003288AA882E87CDEA63FFC50EC167636A05
:10295000F618B7070001B337F600B307F040E19B64
:10296000E1073353F6009766FADF938666EA9A9694
:10297000942213030002B697B306F340630BF300EF
:102980003397D500B357F5003318D6005D8FB318D1
:10299000D500135608013355C702B346080893D72C
:1029A00008013377C702B385A6024207D98F63FABD
:1029B000B700C2971307F5FF63E4070163E8B73078
:1029C0003A858D8F33D7C702B3C80808B3F7C7025B
:1029D000B386E602C207B3E8F80063FBD800C298EA
:1029E0009307F7FF63E50801791763E3D8003E8793
:1029F0004205598D8145828063F5D50081450145A9
:102A00008280C16763E5F618B7070001B3B7F60027
:102A1000B307F040E19BE10733D8F6001767FADF10
:102A2000130707DF42971823930800023E97338865
:102A3000E8406392E81863EDB6263335C5001345C8
:102A400015008145828045C6C167637BF624133734
:102A50000610134717000E07B356E6009767FADF14
:102A6000938707DBB6979C2393060002BA97B38E31
:102A7000F640639DF608B387C54085459356060129
:102A80003346060833D5D70213D70801B3F7D70268
:102A90003303C502C207D98F63FA6700C2971307D1
:102AA000F5FF63E4070163E067223A85B387674077
:102AB00033D7D702B3C80808B3F7D7023306C70223
:102AC000C207B3E8F80063FBC800C2989307F7FF9A
:102AD00063E50801791763E3C8003E874205598D15
:102AE00082809337061093C717008E079DBD8146DD
:102AF0009767FADF9387C7D1B6979C230147930660
:102B00000002BA97B38EF640E387F6F63318D60183
:102B100033D3F50093560801335ED302B395D50144
:102B2000B357F500CD8F3346080813D70701B31804
:102B3000D5013373D302B305C6034203336767007D
:102B4000637BB70042971305FEFF636A071763783C
:102B5000B716791E42970D8F3355D702B3C70708B2
:102B60003377D7023303A6024207D98F63FB67008E
:102B7000C2971307F5FF63E0071563FE6712791527
:102B8000C29793150E01B3876740C98DE5BD93B712
:102B9000061093C717008E0733D8F6001767FADFC1
:102BA000130707C742971823930800023E973388FC
:102BB000E840E382E8E8335EE600B3960601336E50
:102BC000DE00B3D8E500935E0E01B3D7D803B3950A
:102BD00005013357E5004D8F33430E089356070127
:102BE00033160601B3F8D803B305F302C208B3E6FF
:102BF000160163FBB600F2969388F7FF63E3C60DF8
:102C000063F1B60CF917F2968D8EB3D5D603334720
:102C10000708B3F6D603B308B302C206558F637B29
:102C2000170172979386F5FF6369C70963771709E0
:102C3000F9157297C207C16ECD8F9386FEFFB3F56B
:102C4000D70013D30701F18E4182338ED5023307AB
:102C50001741B306D30293580E01B385C502B6954A
:102C6000C6953303C30263F3D500769393D605016B
:102C70009A966363D7026305D7003E8581458280BB
:102C8000C166FD1633F7D5004207337EDE003315EB
:102C900005017297E373E5FE1385F7FF8145828096
:102CA000B70700016377F6029356060141477DB3EB
:102CB0008145054582803A85E9B5B685A5BF2A8E4E
:102CC00059BDC68791B77915C297CDB37915C2970B
:102CD000CDB993568601614751B3370780007D1700
:102CE0009356750113D67501B377A70013F3F60F4A
:102CF0006D8F1358F5011376F60FFD81C2888E078C
:102D00000E07B306C3406301B804635FD00021EE31
:102D1000630A07101386F6FF630C062A9305F00F6B
:102D2000638DB616B286B1A0D5CAB3066640631CE1
:102D3000031CFDC71385F6FF6307052C1308F00F6E
:102D4000638B0615AA86F1A2635BD0145DCE1306D1
:102D5000F00F6304C3141317A7296D46635AD61ED8
:102D600085079A8681A01306F00F6308C312131714
:102D7000A729ED45054663CDD50013060002158E43
:102D80003316C700B356D7003337C00033E6E6002A
:102D9000918F37070004B3F6E700DDEE13F77700F5
:102DA0009A8649C313F7F70011466303C7009107DA
:102DB000370700047D8F3DC7138516001307F00FFA
:102DC000C2886302E508139767001375F50F258322
:102DD0005E05598D9397F8015D8D8280130613006F
:102DE0001376E60F631B06146314030A6389072036
:102DF000630207103385E74037060004698E6306D7
:102E00000622B307F7402E8841A009CF1386F6FFAC
:102E10006308061A9305F00F6381B608B28635BFC2
:102E20002E88BA871307F00F8D836397E60CDDC3F6
:102E30001305F00F8148370740005E05598D9397C1
:102E4000F8015D8D82801305F00F01475E05598DF5
:102E50009397F8015D8D82807D1733F6E700931715
:102E60000660ED173316F60063C16706B386674048
:102E7000850693070002958FB317F600B337F0006D
:102E80003356D600D18F814613F7770001FF0DB777
:102E90006395071451DF2E88BA878D8349BFA1C27D
:102EA000B30666406316030EADDF9385F6FF6389B4
:102EB00005101305F00FE381A6FEAE86ED4563D243
:102EC000D51293071700B286F1BDB306F3409317EE
:102ED000A6495DBFC2881305F00F0147D5BD930613
:102EE000130013F6E60F45EE6317030E6382071215
:102EF000631207128D838146A60713D7970013F537
:102F0000F60FC288F1B51305F00FE306A6F8939704
:102F1000A7296D480545634DD80013050002158D9E
:102F20003395A700B3D6D700B337A00033E5F6003A
:102F3000B307A74032832E88A9BD3386E740B70682
:102F40000004F18EB5EA01FE81480145014749B50B
:102F500013060002158E3316C7003357D700B33659
:102F6000C000558FBA97370700047D8FE30807E24A
:102F7000930613001305F00F0147E38BA6E4370611
:102F8000007E13D717007D16858B718FD98FEDBD0D
:102F90009305F00FE302B6F09397A72905B7130640
:102FA000F00FE382C6EA3E979357170013F67700B7
:102FB000E31A06DE8D8389B73306F7402E8845B5C0
:102FC000BA97370700047D8F894605434DFBF9B357
:102FD000998F05437DBBE38107ECE31B07E48D83F9
:102FE000B9B593050002958DB395B700B3D6D70058
:102FF000B337B000DD8EB387E6003283ADB729D793
:103000002E88BA87C5BDB307F7402E88054351B354
:10301000BA87CDB5BA97370600047D8E814659DA56
:103020009397A74985468D83C1BDAA8711DD8D83FE
:10303000E1B5935775019318950093F7F70F93D85F
:1030400098007D81F1CB1307F00F638DE70C8E089C
:10305000138617F80147014E9398A82993D7750155
:103060009396950093F7F70FA582FD81C9C71308C2
:10307000F00F6380070D8E06938717F8814E9396A5
:10308000A6293D433348B5001D8E6366E31A1753E6
:10309000FADF1303636D334767201C439A978287D7
:1030A0009307F00F014713957701598D7E0833651B
:1030B000050182808D476304FE028547631BFE0E77
:1030C0002A888147014713957701598D7E0833651A
:1030D000050182808D472E85B688639CFE0C930780
:1030E000F00F37074000139577010148598D7E088E
:1030F000336505018280C1EA13671700B54733487D
:10310000B500E3EFE7F89756FADF9386E6693347B1
:10311000D7201C43B6978287639A0804114701465B
:10312000054E2DBF639F080221471306F00F094E7D
:1031300035B795E2136727007517AD463348B500DC
:10314000E3E1E6F89756FADF938686693347D7209E
:10315000184336970287136737009307F00F8D4E99
:103160000DB731471306F00F0D4ECDBD1397086014
:103170009307B7FFB398F8009307A0F83386E740AA
:10318000014E0147E1BD139806609307B8FFB3965F
:10319000F6009307A0F8B3870741814EDDB513060B
:1031A00016F08947E318FEF02A889307F00F0147CD
:1031B000DDBD2A889307F607635EF00213F77800F7
:1031C00019C713F7F80091466303D7009108370732
:1031D000000833F7E80009C7930706089398B84931
:1031E0001307E00FE34EF7EA13976800258393F780
:1031F000F70F55BD854699C79D8EED45814701471F
:10320000E3C3D5EA1307E6093397E8003337E00054
:10321000B3D7D800D98F13F7770019C713F7F70082
:1032200091466303D7009107370700047D8F55CB84
:10323000854701478DBD4167139356007D17935510
:1032400003013377E30063F8D806B3D6B802C68724
:103250007D1681483385E602B3F7B702C207B3E7AC
:10326000170163F8A7009A979388F6FF63F667063D
:10327000C686898F33D5B702B3F7B7023307E502A5
:10328000C20763F2E702B3856700B3B8F500130E17
:10329000F5FFAE876398080063F6E5007915B387FC
:1032A000650011A07285C206998FC98EB337F000F0
:1032B000B3E8F60001B793D71800B3D6B702FE08FB
:1032C00093D808013385E60241BF2E852A88D5BBF5
:1032D000014837074000C1BBE3FCA7F8F9169A97ED
:1032E00049BF9A0713D79700814775BB2E856DBDDF
:1032F00013567501370780007D1793D67501137635
:10330000F60F1308F00FB378A7009357F5016D8FF0
:1033100013F5F60FFD8163050603630A050105EA4F
:1033200009E939C3639E0804A1C92E85828039E763
:1033300019E2E38B08FE6399B7009DCF3E8582803A
:10334000639E08026305C50205459DE782806DDD29
:10335000E39CB7FEE34AC5FEE341A6FEE36617FF22
:103360000145E3ECE8FC8280E39008FE828019E7E7
:10337000E39CB7FC014582807D558280795582802F
:10338000E38EB7FCD1B713567501370780007D1760
:1033900093D675011376F60F1308F00FB378A700D4
:1033A0009357F5016D8F13F5F60FFD816306060344
:1033B000630A050105EE11E929CB639F0804B9C929
:1033C0002E858280094501EB19E2E38A08FE638BB2
:1033D000B7020545A1E38280639C0802E31BC5FE9A
:1033E000094575FBE397B7FE014582807DD1E392E5
:1033F000B7FEE340C5FE6347A600E36C17FD014539
:10340000E3FBE8FC81CB3E858280E39408FC82806C
:10341000094582807D558280E381B7FE5DBF935769
:1034200075011317950093F7F70F935897007D8157
:10343000638507101307F00F6387E7108E089386E4
:1034400017F80147814E9398A82993D775011398CF
:10345000950093F7F70F13589800FD81F9C31306F1
:10346000F00F6388C704938717F8338ED7000E08D0
:10347000A947014693061E001318A82963C3E71045
:103480003343B50009451A8F6344E5047D1785452C
:1034900063EEE5126300A60C85477A83631BF6048E
:1034A0008147014613957701518D9317F3015D8D87
:1034B0008280138EF60F630A080A3343B500136740
:1034C000370029461A8F938606106344E6200D467E
:1034D0003317E0281375075319CD8947638CFE060F
:1034E0008D476384FE027686854746887A83E309A2
:1034F000F6FA368EA9A29377072481EB1377870813
:1035000071C72E8FC288B28EC9BF9307F00F0143D7
:103510003706400013957701518D9317F3015D8DA8
:10352000828063140808368E13671700A947054682
:1035300093061E00E3D6E7F4A9A0639B0804114795
:103540008146854E19B76390080421479306F00F12
:10355000894EE5BD9307F00F7A83014613957701F5
:10356000518D9317F3015D8D828013672700A94762
:103570009386061039430946E3D4E7F0AD47E302EA
:10358000F3F82A8F99BF31479306F00F8D4E75BD22
:10359000139708609307B7FFB398F8009307A0F854
:1035A000B386E740814E01474DB5931708601386F7
:1035B000B7FFB387F640138EA7F8A9473318C800A2
:1035C00093061E000146E3DDE7EA65BFC16E9387FF
:1035D000FEFF93D5080113550801B3F8F800B3773F
:1035E000F80033861703B387F50213570601B308B3
:1035F0001503BE984697B385A5026373F700F69549
:1036000041657D15B377A700698EC207B2971396FF
:10361000670013580701E9833337C0002E98D98F0C
:103620001A083368F800B7070008B377F80081CBB1
:10363000935718001378180033E80701368E930764
:10364000FE07635EF0021377780019C71377F8005E
:1036500091466303D7001108370700083377E80065
:1036600009C793070E081318B8491307E00F6349F9
:10367000F70413166800258293F7F70F25B5054761
:1036800099C71D8FED4681470146E3CDE6E0130E55
:10369000EE09331EC801B357E8003337C001D98F94
:1036A00013F7770019C713F7F70091466303D700A4
:1036B0009107370700047D8F01CB85470146DDB3B5
:1036C0009307F00F0146F9BB9A0713D6970081477D
:1036D000D1BB3D4E014337064000E305C7DD2D4316
:1036E0000D4669BDB7078000FD1713D6750133F786
:1036F000A700935675019358F501ED8F1376F60FD9
:103700001308F00F13F5F60F46830E07FD8193960D
:1037100037006302060593C51500B307C540638FE4
:10372000B8006358F03035E6638C06141386F7FF53
:103730006302062A638E0703B28785A06356F030C2
:103740006DCA630705039396A6296D466350F61468
:103750000507AA87ADA8930715F0CDE693C5150018
:103760006382B80E638E071863070510AE8836872C
:103770000D8313F318001305F00F3DCF1305F00F61
:103780000143370740005E05598D9317F3015D8DA6
:103790008280E30F05FD9396A629ED45054663CD8E
:1037A000F500130600021D8E3396C600B3D6F60050
:1037B000B337C00033E6F600118FB7070004B376C5
:1037C000F7006393061093767700AA87D5CA93769D
:1037D000F70011466383C6001107B7060004F98E8F
:1037E000C5C285079306F00F13F318006385D70C45
:1037F0001A0713F5F70F25835E05598D9317F3010B
:103800005D8D8280E390B8F6B1C36313051C930706
:10381000F00F35C79385F7FF638805121305F00F86
:103820006388A71AED4763DDB71A13871600B287BE
:1038300079BFB9C61386F7FF63080610E38A07F35A
:10384000B28721B781C761D501471DB7930715001E
:1038500013F6E70F63180614631B05166309071AAE
:103860006399061A0D8381472607258313F5F70F01
:1038700013F3180051B79307F00F65EBAE88368746
:103880009306F00F0D83E386D7EEF9BF130600020F
:103890001D8E3396C6003336C000B3D6F600D18EE7
:1038A0003697B7070004F98F99DF93071500930641
:1038B000F00F6393D70A1305F00F01475E05598D8A
:1038C0009317F3015D8D8280FD173376F700931710
:1038D0000660ED173316F60063C8A704898F8507C5
:1038E000130700021D8F3317E6003337E00033560D
:1038F000F600518F814793767700E39A06ECF1BD8D
:103900009307150093F7E70F8DE755E96DCFB9DA07
:10391000B307D740370600047D8E63070610338750
:10392000E6408147AE88C1BFB307F5401317A649EB
:10393000D9B73306D740B7070004F18FC9E741FA7A
:103940000143014501474DBD3697B7060004F98E86
:1039500089470545E38906E63706007E935617003A
:103960007D16058BF18E558F79B71388F7FF6307A6
:1039700008081305F00FAE88638CA704ED45854752
:1039800063CE050193070002B3870741B317F70021
:1039900033580701B337F000B367F8003387F640B8
:1039A000328521BD1306F00FE387C7F0BA9613D70F
:1039B000160013767700E31C06E00D8375B511EF52
:1039C000E38E06DA65B33386E640AE8809B711E7C1
:1039D000368779BB158F0545CDB3E38B06D879BB08
:1039E000930700028D8FB317F700B355B700B337B5
:1039F000F000DD8D3387D500328565B53387E6402D
:103A0000AE8805455DBB8DDEAE883687A1BD3687A5
:103A100091BD369737060004798E814759DE13171A
:103A2000A74985470D8389B581DF3E870D8381478F
:103A300025BDE38707EC3308A640C287E30F05E204
:103A4000AE881317A7291DBFE38207E0B305A64080
:103A500019E1AE877DBB1317A729E9B3935675010A
:103A6000370780007D1713D6750193F6F60F1308FC
:103A7000F00FB377A7001376F60F6D8F638B0601F7
:103A80009307F00F01456303F60082803335E000B1
:103A900082800545F5D782801357750193179500ED
:103AA0001377F70F1306E00793D697009357F501A6
:103AB000635BE6001306D0096359E6003705008012
:103AC0007D153E95828001458280130650099396AC
:103AD0007629634DE600130660093307E640B3D646
:103AE000E6003305D040EDF3368582801307A7F654
:103AF000B396E600FDB7135775019317950013773A
:103B0000F70F1306E00793D697009357F501014589
:103B10006353E60091C382809307E0097D55E3CCAF
:103B2000E7FE13065009939776296357E6001307BB
:103B3000A7F63395E700828013056009198D33D508
:103B4000A70082801DCDB306A0409307E009B366AD
:103B5000D50A13066009939506608D8F1357F501FA
:103B60006349F6022146638AC508E115B396B6009B
:103B700013F5F70FA606A5825E05558D7E07598DB4
:103B800082800147014581465E05558D7E07598D2E
:103B90008280130690096346F60415461385B5FF27
:103BA0006384C500B396A60013F576001396A64964
:103BB00019CDBD8A1145638CA6001106B706000415
:103BC000F18E91C69307F0098D8F1316A6499316AF
:103BD000660013F5F70FA5825E05558D7E07598D9A
:103BE00082801386B50115453396C6000D8DB3D678
:103BF000A6003336C000D18E45BFA606A5821305A8
:103C0000600959B703A5818582805D7122D406D6EB
:103C10002A842EDA32DC36DEBAC0BEC2C2C4C6C6C0
:103C200003A5818511C51C4D81E72AC6D5203245E3
:103C30000C455418228636CE0529B25022546161B3
:103C40008280411122C406C62A844EA572A5232073
:103C5000050023220500232405002322050623282E
:103C60000500232A0500232C050021468145130564
:103C7000C505EFC02FF2970700009387476D5CD012
:103C8000970700009387676F1CD4970700009387FE
:103C900027735CD49707000093876775B24000D004
:103CA0001CD8224441018280971500009385C5A746
:103CB00049A2411126C2930780069384F5FFB3847D
:103CC000F4024AC02E8922C406C6938544071D24E7
:103CD0002A8401CD2320050023222501310508C4B3
:103CE000138684068145EFC0EFEAB2402285224464
:103CF00092440249410182801385819245A2138535
:103D0000819271AA1385C19251AA1385C19241AAC9
:103D1000411122C406C62A84EFF0DFFE1C4C91C775
:103D20002244B24041016FF05FFE97070000938785
:103D3000E7F71CD4232404042326040423280404C2
:103D400083A7018D6394870085471CCC22851528A5
:103D500048C022853D2008C42285252048C448400B
:103D600001469145EFF0FFED08440546A545EFF00B
:103D70005FED48440946C945EFF0BFEC85471CCCD0
:103D800045B7411126C24AC006C622C42A89EFF0AF
:103D9000BFF683A4018D9C4C81E72685EFF05FF789
:103DA000938484048044DC40FD1763D607009C4064
:103DB000A5C78440C5BF0317C40021EFC17785079D
:103DC0005CC41305840523220406C128EFF03FF3E9
:103DD0002146232004002324040023220400232856
:103DE0000400232A0400232C040081451305C40584
:103DF000EFC04FDA232A0402232C040223240404F4
:103E000023260404B24022852244924402494101FF
:103E100082801304840649BF91454A85EFF07FE90B
:103E200088C02A8459F5EFF09FEDB1472320F900AF
:103E3000D1BF797122D44AD04ECE52CC5AC85EC678
:103E400006D626D256CA2A892E8A130485048149A9
:103E5000054BFD5B0444832A4400FD1A63D00A022B
:103E600000406DF8B250225492540259624AD24A2C
:103E7000424BB24B4E85F24945618280DE24637B22
:103E8000FB008397E40063877701A6854A85029A41
:103E9000B3E9A90093848406C9B7828082808280B6
:103EA00041114AC0138901938327090022C426C205
:103EB00006C6AA842E8489E78145A5212320A9006E
:103EC000A2852685B9297D59631A25017D54B24002
:103ED0002285224492440249410182801304350024
:103EE0007198E30685FEB305A44026851D29E310DD
:103EF00025FFE9BF011126CA93843500F1984AC80D
:103F0000A104B14706CE22CC4EC62A89B3F4F40AE6
:103F100063C4040063FDB400B1472320F9000145E8
:103F2000F2406244D2444249B24905618280EF00C6
:103F3000501B9389419383A709003E8421E8A685FD
:103F40004A85EFF0FFF5FD572A846319F50A03A4AB
:103F50000900A287D1EB8329040081454A85A299F3
:103F6000C9266396A9081C408D044A859D8CF1984A
:103F7000B147A104B3F4F40AA685EFF07FF2FD5730
:103F80006307F5061C40A6971CC015A01440858E3B
:103F900063C906042D47637ED70204C0330794002B
:103FA0006397870223A0E9005C4014C35CC34A8581
:103FB000EF00B0131305B400930744006199330771
:103FC000F540E30FF5F43A94898F1CC091BFD8C334
:103FD000E1BF58406395870023A0E900C9BFD8C35B
:103FE000F9B7A287404099BF3E84DC43A5B7B147EB
:103FF0002320F9004A85EF00500F15B704C145BFD3
:104000001C46FD171CC663D90700184E63C5E700A0
:10401000A9476393F500E9AE1C422E85138717006C
:1040200018C28CA38280011122CC26CA4AC84EC66F
:1040300052C406CE2A89AE893284B304D6007D5A92
:1040400063149400014509A80C204E864A85EFF0C0
:104050003FFB0504E31645FFF2406244D244424967
:10406000B249224A05618280357122CD26CB4AC9E8
:104070004EC706CF52C556C35AC1DEDEE2DCAA895E
:104080002E843289B68409C51C4D99E3EFF05FC8D0
:104090009757FADF9387C78B6317F40403A449008B
:1040A0007C50858B81EB5E2493F7072081E7284CB9
:1040B000EFF0DFDE5E24A18B99C31C48B9EFA28527
:1040C0004E85212939C97C50858BA1C37D55FA4085
:1040D0006A44DA444A49BA492A4A9A4A0A4BF65B80
:1040E000665C0D6182809757FADF9387678463155A
:1040F000F40003A489006DB79757FADF93874781CF
:10410000E310F4FA03A4C90061BF5E2493F707200B
:10411000D5FF284CEFF0BFD855BF93070002A3048A
:10412000F1029307000302D22305F10226C6930B86
:104130005002975AFADF938AAA83294BCA849C209B
:1041400099C3639B7709338C2441638E2401E286F3
:104150004A86A2854E85EFF01FEDFD576307F518DF
:104160009257E2973ED29C2063810718FD5713892E
:10417000140002C802CE3ECA02CCA309010482D4B4
:104180008345090015465685EF002074C247930405
:10419000190029E513F7070109C713070002A3094E
:1041A000E10413F7870009C71307B002A309E1046C
:1041B000834609001307A0026389E602F247CA8416
:1041C00081462546982093851400130707FD6372E6
:1041D000E60685C63ECE15A0850495B73305554144
:1041E000B397A72826893EC861BF32479306470088
:1041F000184336C6634807023ACE98209307E00278
:10420000631CF70498309307A002631AF702B247C1
:104210008904138747009C433AC67D57B3E7E70AF2
:104220003ECA1DA83307E04093E727003ACE3EC8B8
:10423000E9B7B3876703AE848546BA9761B785044B
:1042400002CA8146814725469820938514001307AA
:1042500007FD6372E606E9F68C200D461745FADF86
:10426000130585719D2511CD9747FADF9387C77098
:104270001D8DC247130700043317A700D98F85048B
:104280003EC88C2019461745FADF1305256F1389A0
:1042900014002304B102152D35C99307000095E7DA
:1042A0004247B2471377071009CF91073EC692578E
:1042B000D2973ED261B5B3876703AE848546BA977D
:1042C00061B79D07E19BA107D5B77800970600006D
:1042D0009386A6D522860C084E8597000000E7003D
:1042E0000000FD572A8AE314F5FC7C50858B81EB96
:1042F0005E2493F7072081E7284CEFF05FBA5E2435
:1043000093F70704E39407DC1255D1B378009706BE
:104310000000938686D122860C084E85EF00207817
:10432000C9B7411122C42A842E8523AC019206C646
:10433000EFC0DFFDFD576316F50083A7819391C39E
:104340001CC0B240224441018280411122C42E840B
:104350008395E50006C6EF00501C634905007C48C4
:10436000AA977CC8B2402244410182805E24939780
:10437000C7485EA4C5BFDE25011122CC26CA4AC8A3
:104380004EC606CE93F70710AA842E843289B689CA
:1043900091C78395E5008946014621295E2483154E
:1043A000E400F2409397C7485EA46244CE864A86F2
:1043B000B24942492685D2440561D5A8411122C49B
:1043C0002E848395E50006C6ED267D575E2463198D
:1043D000E5009397C7485EA4B24022444101828021
:1043E0009397C72868C85EA4C5BF8395E500F1AA66
:1043F000011122CC26CA4AC806CE4EC6AA842E89EE
:10440000328409C51C4D99E3EFF09F909747FADF7E
:10441000938707546317F402C0401C4C1CC45E24ED
:10442000A18B99C31C4895EFA28526857D2015C9CF
:104430007D59F2406244D244B2494A8542490561FD
:1044400082809747FADF9387A74E6314F400804475
:10445000E9B79747FADF9387A74BE310F4FCC04412
:104460006DBF1C4808409379F90F1379F90F1D8D22
:104470005C486346F500A28526856D2455F91C44E9
:104480000505FD171CC41C401387170018C02380A6
:1044900037015C486388A7005E24858BD9DBA94778
:1044A000E319F9F8A2852685B52C41D551B74111FC
:1044B00022C42A842E85B285368623AC019206C694
:1044C000EFC07FE1FD576316F50083A7819391C389
:1044D0001CC0B240224441018280411122C426C244
:1044E0004AC006C683A481852A892E8491C49C4C27
:1044F00081E72685EFF0DF819747FADF938747450D
:104500006313F402C0408317C40013F7870025E744
:1045100013F707010DEB25472320E90093E7070474
:104520005EA47D5571A09747FADF938767406314B7
:10453000F4008044C9BF9747FADF9387673DE314CF
:10454000F4FCC044C9B7918B9DC34C5889C99307EB
:1045500044046384F5004A85692E232A04025E24FC
:104560002322040093F7B7FD5EA41C481CC05E2400
:1045700093E787005EA41C4899EB5E241307002094
:1045800093F707286385E700A2854A85652483178A
:10459000C40013F717001DC3584823240400330731
:1045A000E04018CC1848014501E713F707083DF72C
:1045B000B2402244924402494101828013F727000D
:1045C000814611E3544814C4F1BF411122C42A8426
:1045D0002E8523AC019206C6EF00A07BFD57631623
:1045E000F50083A7819391C31CC0B24022444101CE
:1045F00082808397C500011122CC26CA06CE4AC804
:104600004EC613F78700AA842E8479E3D841634508
:10461000E000B8416356E008585459C303A90400A8
:1046200023A004000C5093D7C748A9CB70485E2440
:10463000918B99C75C401D8E5C5899C33C401D8E80
:104640005C540C50814626858297FD57630CF50417
:104650001C480567232204001CC05E24F98F91C307
:1046600068C84C5823A0240185CD93074404638473
:10467000F5002685BD2C232A04021DA0014685468F
:1046800026850297FD572A86E313F5FA9C40C5D389
:1046900075476385E70059476395E70623A0240122
:1046A0000145B5A098408317C40001CFF5466305C6
:1046B000D700D9466319D7041C48232204001CC024
:1046C0004DB718482322040093D7C74818C041BFEC
:1046D00083A90501E38609FC03A905008D8B23A0AE
:1046E000350133093941014791E3D84918C4E359E9
:1046F00020FB1C540C50CA864E8626858297634F39
:10470000A0008317C40093E707045EA47D55F24020
:104710006244D2444249B24905618280AA99330970
:10472000A940F1B79C49411106C622C426C281EBBB
:104730008144B24022442685924441018280AA8469
:104740002E8409C51C4D99E3EFF08FDC9747FADF03
:1047500093870720631FF402C0408317C400E9DB7E
:104760007850058B19E793F7072081E7284CEFF085
:10477000EFF22685A285EFF0DFE77C50AA84858BD7
:10478000CDFB5E2493F70720CDF7284CEFF02FF1F7
:104790004DB79747FADF9387A7196314F400804455
:1047A0006DBF9747FADF9387A716E318F4FAC04462
:1047B0006DB7411122C42A842E85B285368623AC7A
:1047C000019206C6CD2BFD576316F50083A7819392
:1047D00091C31CC0B2402244410182805971A2D4CD
:1047E0002E848395E500A6D2CAD086D6B2843689B7
:1047F00063D205025E2493F707088DEB1307004090
:10480000B65026542320F90098C006599654014505
:104810006561828030003D23E34E05FC3247BD6771
:10482000F98F7977BA9793B71700C9BF81471307F4
:104830000004F9B7DE25797122D406D626D24AD0F3
:104840004ECE898B2E8491CF930774041CC01CC854
:1048500085475CC8B250225492540259F2494561CE
:10486000828074003000AA84EFF05FF7A2492A89A1
:104870002685CE85EFF00FE819E98317C40013F7FA
:10488000072069FBF19B93E727005EA475BF97F7AC
:10489000FFFF9387A7419CD45E2408C008C893E714
:1048A00007085EA4B247232A340199CB8315E4009C
:1048B00026856D2911C55E24F19B93E717005EA440
:1048C0005E2433E527014AA471B793F5F50F2A96C4
:1048D0006314C500014582801C21E38EB7FE0505E7
:1048E000C5BF138541926FF06FDB138541926FF066
:1048F0000FDBC5C183A7C5FF011122CC06CE1384EF
:10490000C5FF63D307003E942AC6EFF09FFD1387CF
:1049100041931C43324589EB2322040000C36244C7
:10492000F24005616FF07FFC637DF4001040B30638
:10493000C4006396D7009443DC43B29614C05CC0B5
:10494000F1BF3E87DC4399C3E37DF4FE1443330695
:10495000D700631F86001040B29614C33306D700F9
:10496000E39FC7FA9043DC43B29614C35CC345BFD0
:104970006375C400B1471CC15DB71040B306C400E5
:104980006396D7009443DC43B29614C05CC040C326
:1049900079B78280797156CA9C49BA8A984522D4DF
:1049A0004AD04ECE52CC06D626D25AC85EC6B3E7FF
:1049B000E70A1CC203C73504AA892E843289368AC5
:1049C00019C385071CC21C4093F7070291C78327B0
:1049D000090089072320F9000440998891E8130B06
:1049E0009401FD5B5C4403270900998F63CCF404B8
:1049F00083473404B336F0001C4093F70702A5EB5D
:104A000013063404D2854E85829AFD576303F5045C
:104A10001C4011478144998B6399E7008327090063
:104A200044449D8C8147B3E4F40A1C441848635401
:104A3000F700998FBE94014969047D5B6398240552
:104A4000014509A885465A86D2854E85829A631EFD
:104A500075017D55B250225492540259F249624A6E
:104A6000D24A424BB24B456182808504A5BF3307D1
:104A7000D40013060003A301C7040347540493871B
:104A80001600A2978906A381E7049DBF854622866A
:104A9000D2854E85829AE30E65FB050945B779718B
:104AA00022D44AD04ECE52CC06D626D256CA5AC8A6
:104AB00003C88501930780072A892E84B289368A24
:104AC00063E20703930720069386350463E1070337
:104AD000630C081C930780051746FADF130686EA65
:104AE0006308F814930424042301040515A893070C
:104AF000D8F993F7F70F5546E366F6FE1746FADF47
:104B00001306C6EAB3C7C7209C43B29782871C43EB
:104B100093842504938647009C4314C32381F504A2
:104B2000854775A290411C4313750608938547007D
:104B300029C19C430CC3584063DF07129305D00280
:104B4000A301B40418C4635E0702B307F04017461C
:104B5000FADF130626E32948B68433F70703FD146A
:104B60003297182398A03E87B3D70703E37707FF50
:104B700085A09C43137506040CC355DD93975760BD
:104B80005DBF6D9A10C0D1B790411C4313750608E4
:104B90009385470001C50CC39C4331A013760604DE
:104BA0000CC37DDA9E231307F0061746FADF1306BF
:104BB00066DD6310E80C2148A3010404584018C4C2
:104BC000E34C07F80C40ED990CC0D9F7B68449F7CF
:104BD000A147631EF8001C40858B91CB58401C48B0
:104BE00063C7E70093070003A38FF4FEFD14858ECF
:104BF00014C85287CE867000A2854A85EFF09FD9EF
:104C0000FD5A631A550D7D55B250225492540259E3
:104C1000F249624AD24A424B456182809C4193E705
:104C200007029CC1130880071746FADF1306C6D691
:104C3000A30204050C401C4313F805081385470024
:104C40006305080008C39C4339A013F8050408C392
:104C5000E30B08FE9E2313F7150001C793E5050239
:104C60000CC099C3414889BF18401377F7FD18C09D
:104C7000D5BF294891B71746FADF1306A6D02948B1
:104C800035BF90411C43CC49137806081385470073
:104C90006306080008C39C438CC339A008C313767D
:104CA00006049C4375DA8EA323280400B68491B7CA
:104CB0001C43D04181459386470014C38443268515
:104CC000EFF0BFC001C5B30795405CC05C401CC895
:104CD000A301040439BF14482686CE854A85029A6A
:104CE000E30355F31C40898B85E74844B24733659D
:104CF000F50A19BF85465686CE854A85029AE30491
:104D000065F185045C443247998FE3C5F4FEF1BF39
:104D10008144930A94017D5BF5B7411122C42A8432
:104D20002E85B285368623AC019206C65928FD57DA
:104D30006316F50083A7819391C31CC0B24022443F
:104D400041018280411122C42A842E85B28523AC80
:104D5000019206C6A920FD576316F50083A781932B
:104D600091C31CC0B240224441018280411122C43F
:104D70002A842E8523AC019206C60528FD576316AA
:104D8000F50083A7819391C31CC0B2402244410126
:104D900082809307800523ACF1927D558280930732
:104DA000800523ACF1927D5582809307800523AC6A
:104DB000F192014582809307800523ACF1927D55E5
:104DC00082809307800523ACF1927D55828000009C
:104DD000307800000D0A563546204641554C542087
:104DE0006D63617573653D00206D6570633D000006
:104DF000206D7476616C3D0056354620537973748E
:104E0000656D436F7265436C6B3A0000496E666571
:104E100072656E636520696E697420646F6E650DDE
:104E20000A0000004A504547206465636F6465725C
:104E300020696E697420646F6E650D0A00000000C1
:104E400046573A2053544550375F50524550524FC1
:104E5000432076310D0A000057616974696E67203E
:104E6000666F72206672616D65732E2E2E0D0A00BC
:104E70004652414D455F53544152540D0A000000C3
:104E80004652414D455F4E554D3A00004A50454708
:104E90005F53495A453A00004445434F44455F4FEC
:104EA0004B3A00004465636F64652074696D653A30
:104EB00000000000207469636B730D0A000000009D
:104EC000434C4153533A000053434F5245533A0029
:104ED000496E6665722074696D653A0043524F50A1
:104EE0003A00000050524550524F435F434B5355D8
:104EF0004D3A00004A5045475F53544152540D0A01
:104F0000000000000D0A4A5045475F454E440D0A17
:104F1000000000004445434F44455F4641494C3A38
:104F2000000000004652414D455F454E440D0A00C9
:104F3000626C696E6400000063656E7465720000E7
:104F4000646F776E000000006C65667400000000FE
:104F5000726967687400000075700000304F0400CB
:104F6000384F0400404F0400484F0400504F0400E5
:104F7000584F040000400000C53E0000213B0000E7
:104F800037350000412D00008E2300007E18000000
:104F90007C0C000000400000373500007E18000047
:104FA00084F3FFFFBFD2FFFF3BC1FFFFDFC4FFFF62
:104FB00072DCFFFF004000008E23000082E7FFFF4D
:104FC0003BC1FFFFBFD2FFFF7C0C0000213B000074
:104FD00037350000004000007C0C0000DFC4FFFFFC
:104FE00072DCFFFF412D00003735000082E7FFFF34
:104FF0003BC1FFFF0040000084F3FFFFDFC4FFFF61
:105000008E230000412D0000C9CAFFFF82E7FFFF89
:10501000C53E00000040000072DCFFFF82E7FFFF9A
:10502000C53E0000BFD2FFFF84F3FFFF213B00001D
:10503000C9CAFFFF00400000C9CAFFFF7E18000078
:105040007C0C0000BFD2FFFFC53E0000DFC4FFFFA5
:105050008E230000004000003BC1FFFF213B000009
:10506000C9CAFFFF412D000072DCFFFF7E1800005F
:1050700084F3FFFF000108100902030A1118201928
:10508000120B04050C131A21283029221B140D06BB
:10509000070E151C232A313839322B241D160F1701
:1050A0001E252C333A3B342D261F272E353C3D360A
:1050B0002F373E3F4D49443A253038780D0A0000DD
:1050C0005049443A253038780D0A0000FF00DA09CB
:1050D000D703DF0233A03C00E167FF01E000E100FD
:1050E000E500D700DA00E000FF01E014E177E51FFA
:1050F000D703DA10E0000000FF00DA10D703DF006A
:1051000033803C40E1770000FF002CFF2EDFFF01E1
:105110003C321100090204D813E514482C0C3378F2
:105120003A333BFB3E0043111610399235DA221A0E
:1051300037C3230034C0361A068807C00D870E41D6
:105140004C0048005B0042034A81219924402538E5
:1051500026825C00630046000C3C617062807C0526
:10516000208028306C006D806E007002719473C1D5
:105170003D345A5712001711187519011A97323613
:10518000030F37404FCA50A85A236D006D38FF00F7
:10519000E57FF9C04124E01476FF33A04220431894
:1051A0004C0087D5883FD703D910D382C808C9805F
:1051B0007C007D007C037D487D487C087D207D103F
:1051C0007D0E9000910E911A9131915A91699175CD
:1051D000917E9188918F919691A391AF91C491D72F
:1051E00091E891209200930693E393059305930031
:1051F0009304930093009300930093009300930013
:105200009600970897199702970C9724973097283C
:10521000972697029798978097009700C3EFA4006E
:10522000A800C511C651BF80C710B666B8A5B7643F
:10523000B97CB3AFB497B5FFB0C5B194B20FC45C3D
:10524000C0C8C1968C00863D50005190522C53002E
:10525000540055885A905B2C5C05D302C3ED7F0047
:10526000DA09E51FE167E000DD7F0500EB0EF53CA4
:10527000ABD532BC658C6EBA997DE33C326815BC07
:105280001E14B6BC876DA53DD7DB053EAFE7803D5C
:10529000DAAF373BCA6EA8BD461B703C51FE393EA3
:1052A0006611BA3D2AB6DD3D050FD0BD28018E3D01
:1052B00048AD00BEAEEE893D9DCCB33D0A6E3D3B90
:1052C00039622C3D2180EA3D7C2C78BE0F2E86BDB4
:1052D000BFC3C1BCD04D27BECF8FA33D639B1A3E39
:1052E000661506BD6A85393ED1D824BE4485AE3CDC
:1052F000C853863DB4D40CBEC3D40DBEAF7E893E28
:10530000D2C3C7BD14B0093E40299DBEDCB6353BB3
:105310007CA254BDF3024ABEBB6D49BE0C1B993D35
:1053200050C9B4BDA266E33C7B4D93BE75438DBBB3
:10533000896CF6BC51E7FDBC932016BCC264B53D38
:105340002E739F3DA385D73C0AC660BE20E0C3BD37
:105350006D2968BD810A87BD887BC53D5242E6BD87
:1053600001F79F3D2A8024BD13B88B3D76FEAA3CF1
:10537000CEABD83C5845B0BDBFFDCEBB2780C5BD28
:1053800069FAB3BDB63EAABE4066ADBDC6DCF4BC8C
:10539000FEEA063E21963A3D029ACCBD7C1CBB3DFE
:1053A000FF53BBBC310BCEBC8C95203D919372BE9C
:1053B0006333B8BC7877783DA3A20A3D0F5745BE4A
:1053C000B024C93D8580823E4226A73D8DCD58BE82
:1053D0008A106D3E179ABBBD1C53643DEFB6383E34
:1053E0002072143D977A3A3E4F4FDABD8904B13EA0
:1053F000614D343E038A88BD10B688BDC84E873ED5
:1054000059AA84BC839E05BDEB4A0BBE5C5B703E13
:10541000587207BDD5BC3ABD60BF733DEFE9873D0B
:10542000ECD03ABC24D91DBC2E87133D3B5C9CBDFF
:10543000DCE4263C3B445A3EAB134D3E5A040E3E40
:10544000DEF23D3E6623513D512B9B3D56E3FBBDB5
:10545000D6323F3DB88E2B3E3063B23EBD34E6BC03
:10546000B65A543D5B94913DAB88B83D7E2E11BE3B
:105470005482D2BCCA4E00BE0844423DC472CFBD65
:105480003F6EAFBD967A12BE61418DBC362E893D0E
:105490004491AFBDCCD3A93D9081DD3D71AA2ABD19
:1054A00067780ABD84618D3D066982BC9AE932BE87
:1054B0005E6D60BC874ECFBBA07111BE1DB7CFBC67
:1054C000ABA0F93CA358DF3DF8E07BBE65B2F2BD6E
:1054D000071A083E70018DBB8FB80DBE74AD02BDBA
:1054E000A02C66BD9A631ABE84ED90BE952326BE9D
:1054F000052024BE84670C3ED23553BC06AEA4BD45
:105500006F334D3C44AF3BBE1C83CCBD46335CBEC9
:10551000F38129BE2DECB23DF6D7B0BDC12965BEE1
:10552000F0360CBC70BB003E233D183E8715D1BD44
:105530009FE7293E2DFA35BC358D56BCC11F82BD73
:105540005448063DC74C62BCD8113C3E075B21BDA8
:105550001E751FBD5B668CBD4718C9BC1F94E9BD95
:1055600033221DBE0C7AFE3D79968DBD0523E5BD27
:10557000203E363C28258BBDA1E443BD11FD7B3D7B
:1055800033B8563D2093143C0CFAF83D90D5143CAA
:10559000E13141BDDD616FBD606550BD831D5ABD08
:1055A0009275193DEACD09BD895F3DBE5C06FE3DA1
:1055B0005B23813DF2E509BB208903BEDCBE8E3D45
:1055C00058ECAABD9D74CFBE033228BE576AB13DC8
:1055D00038BF12BE47E398BDDA3D543D70C964BE82
:1055E000B94191BDA12DB8BEB5840CBF6CD1DFBE51
:1055F00070D437BE503D2E3DFD5EB2BDF13E8CBE37
:105600009AF18A3D9A6B74BE8DCCA8BEDABACFBE31
:1056100040E7ECBE362F183B51D2FABD02BE0CBF9C
:1056200010F59A3DC0C48ABC23D497BD782F623D43
:105630008CC3B9BD9564FC3BACC7CF3DED67D7BD0E
:105640004AA195BD2C27A53BBC611BBEEFB6103D02
:105650006CDACBBD7998D1BD9BBA7F3DC96B00BEDA
:10566000357FDFBDB9328ABD8ECA4DBC7951A3BD2D
:10567000D0AB2B3DE9588D3DE73C113D6371293D91
:105680000AF13EBDDDDAA53E582AEA3DEE6AC53C88
:105690004B0B8EBC2859A1BD716AAE3C481A9A3D8D
:1056A00051A9073ED5992B3E1AFA8ABE42B1BEBD1A
:1056B000F6E1183DFBE60E3E5D9C283EEE62393E6B
:1056C000EA6AC03AF02386BE21719CBED97E14BE20
:1056D0006C343BBD48CAB0BC8A1B2B3DB8D770BEEA
:1056E0009644533C58973DBEB910DDBE52C8E1BE4A
:1056F00072ED96BEA7FE053D7896523D56739EBE4E
:10570000EC75A0BBBC189ABE2BB0E0BE779300BF6F
:105710008EF38DBE9D8B183C5699493D181178BE6D
:10572000ED989FBC3FDB063EFD1F06BD0E826FBDA0
:1057300076649FBDAA8047BE00A7EC3DDE38AA3C38
:105740005B20433D8C11493D080F56BD86C30D3E7D
:10575000DA97AA3D15AA1B3C0EFE5ABDAA338C3D12
:1057600037DBA83D5009993D9E44DD3D2608033EA8
:1057700084D8EF3D2CBF743D3C01183EDD1DE3BDD8
:10578000A7723F3E314EB53E0A6E60BC4455983D0F
:105790007F928EBD7AADE2BC18891EBC2247233DA4
:1057A000FE1E87BC55FB7C3E20D703BE0023C33DB5
:1057B00090439E3E61E9933C77A698BDDBE6D83DD9
:1057C0005C49A03C6F04C7BE8A7D89BED28B79BC80
:1057D00045F92CBD02CC26BD71233FBD442B3CBEF8
:1057E000C1EEAABC2D7F32BE36F5AC3C230823BDEA
:1057F000B61C8CBD729C9C3D72DD9C3E9ED00ABE48
:10580000EFFF313E27D7B93CD8C9CABCC9BFBDBD1F
:10581000DDD5063E03BC8FBDF0C6A63DA1E69A3B92
:105820006C8798BD17EB3E3E890D30BE05696CBE96
:1058300007EE293E8111B1BE600A36BEF1FFDABC27
:1058400036145EBE591FC03DA408EABD27D311BD62
:1058500086D0393E38A0DBBD496799BED4D5DBBDC3
:10586000FE2A09BE79E7B3BC8C45663DC750853E2C
:10587000B3B9883C99279B3DEA62203EB898AA3D7F
:1058800014E2F03DD3910C3E7CECB73D12D53FBD08
:1058900033DF733D0E54F63D34B406BD1A7C84BD2F
:1058A0006326AA3DC8A4543C2D068FBED1B9923EB2
:1058B0007CB878BE1E61A5BCCFFA97BD4CEABA3D54
:1058C000DDE73C3D1DF63DBE89032E3C7EDF173EE5
:1058D0002BF044BED5353E3EF61FFA3D719E51BEBB
:1058E0001479FC3D800FB3BED3F76A3EE73E62BE3B
:1058F000C36591BD29C6D23DBE6D4F3E98A372BE11
:10590000B6F4003E385A113DB82B1F3ED8EDB2BE5A
:10591000A2E49F3C2D3185BD203E423EEA9681BDEA
:10592000B17241BD1E623E3E0818C5BC2EA09BBE92
:1059300037D3923EB83D91BE5422C1BD61464D3E23
:10594000DF1D4BBE2DEA35BDAD8867BED167723C09
:10595000367D8F3B4CBA963CDDBFD5BDBE3AF63D99
:1059600031C999BDE2B8213EEA80F33D85380CBDCE
:105970005F81B33D855FC73D075CC23D36BB063ED8
:1059800035442B3E253B6F3EEEBE043E8006A43DD3
:105990008BD56EBD130542BD0B3596BAE648DDBD0D
:1059A0000A435ABD52D37B3E07256D3DCC12593E6A
:1059B0001543CD3E2F0389BDC0057C3C88C7A2BDE1
:1059C000BD5E45BE3A08D5BC697B6A3DE42D883D85
:1059D000E892983D0B700E3EF31FB43CBA055CBED6
:1059E00021A0233E0517E93DFED6333EDE1511BE4C
:1059F000983309BD7537F53D7BD5DF3D39AF22BE04
:105A00008EA78EBCBF54A13E6172963D70E46EBEFF
:105A1000628E713E5F2CF5BD135F723D9AC9D13E17
:105A20002F62483D66C6D93EF11D38BD8668A7BDC8
:105A3000EB1C943E851878BECD2936BE27CB363E6A
:105A40008AA72ABEAE58683E4466B63DE684ADBD20
:105A500046416D3EF847D6BD6E8910BE9AEC9FBC9C
:105A6000527E2CBE9E38283D2666C53DDB53D2BEF5
:105A70003904823D7422543D4AC9D4BD18C3313E15
:105A8000409559BD315E313C7231273DC2801BBD0E
:105A900028BE9DBD618B09BED58515BE716307BD4E
:105AA00000A6B33CF935A7BD248CCC3EB4A6413C3E
:105AB0000ED9303EA50CE23D3636DF3D8A4EBE3C67
:105AC000D02B9ABCC0E5CCBD4752AF3E19EC613D2E
