:080000006F3080720000000067
:10000800B71402409305E0408CC483A20400370370
:100018000001B3E2620023A0540083A30400370E5A
:100028000002B3F3C301E38A03FE83AE8400370FF3
:100038000080B3EEEE0123A4D401894F23A2F4017A
:1000480003A94400A14933793901E30B09FE1305DB
:10005800C00E9705FEFF9385E5FA1736FEFF1306D7
:10006800A61463FAC5008322050023A055001105D4
:100078009105E3EAC5FE1735EEDF1305657397357D
:10008800FEFF938565121736FEFF1306E61163FA25
:10009800C5008322050023A0550011059105E3EA58
:1000A800C5FE1735EEDF1305A5709705000093858B
:1000B80065051386C18463FAC5008322050023A061
:1000C800550011059105E3EAC5FE1385C1849385A2
:1000D80041886377B500232005001105E36DB5FE5F
:0400E8008280000012
:1000EC000000000000000000320310203403102038
:1000FC0000000000F00710200000000000000000CD
:10010C00F0071020F0071020000000000000000095
:10011C00F0071020F0071020F0071020000000005E
:10012C00F0071020F0071020F0071020F007102027
:10013C0000000000000000000000000000000000B3
:10014C0000000000000000000000000000000000A3
:10015C00F00710200000000000000000000000006C
:10016C00F0071020F0071020F0071020F0071020E7
:10017C00F0071020F0071020F0071020F0071020D7
:10018C00F0071020F0071020F0071020F0071020C7
:10019C00F0071020F0071020F0071020F0071020B7
:1001AC00F0071020F0071020F0071020F0071020A7
:1001BC00F0071020F0071020F0071020F007102097
:1001CC00F0071020F0071020F0071020F007102087
:1001DC00F0071020F0071020F0071020F007102077
:1001EC00F0071020F0071020F0071020F007102067
:1001FC00F0071020F0071020F0071020F007102057
:10020C00F0071020F0071020F0071020F007102046
:10021C00F0071020F0071020F0071020F007102036
:10022C00F0071020F0071020F0071020F007102026
:10023C00F0071020F0071020F0071020F007102016
:10024C00F0071020F0071020F0071020F007102006
:10025C00F0071020F0071020F0071020F0071020F6
:10026C00F0071020F0071020F0071020F0071020E6
:10027C00F0071020F0071020F0071020F0071020D6
:10028C00F0071020F0071020F0071020F0071020C6
:10029C00F0071020F0071020F0071020F0071020B6
:1002AC00F0071020F0071020F0071020F0071020A6
:1002BC00F0071020F0071020F0071020F007102096
:1002CC006E141020F0071020F0071020F0071020FB
:1002DC00F0071020F007102000000000F00710209D
:1002EC00F00710200000000000000000F0071020B4
:1002FC000000000000000000F0071020F0071020A4
:10030C00F0071020F0071020F0071020F007102045
:10031C00F0071020F0071020F0071020F007102035
:10032C00F0071020F0071020F0071020F007102025
:10033C00F0071020397101436EC619A03971415371
:10034C006AC866CA62CC5ECE19A0397101535AD004
:10035C0056D252D44ED64AD826DA22DC06DE3301E7
:10036C006140828241114AC026C222C406C68282E2
:10037C00B24D4101024D924C224CB24B4101024B09
:10038C00924A224AB2494101024992442244B24063
:10039C00410182802A8311C62300B3007D16050318
:1003AC0065FE8280EFF21FFCB74401402A8413895A
:1003BC000480930500044A85EF00507B7DD913859A
:1003CC000480B3450408EF00F0797DBFEFF29FF98C
:1003DC002A840305040011E145BF0504E137D5BFAC
:1003EC00EFF2BFF6AA840D6513050529C5377144D4
:1003FC00A5497159B3D7840013F7F7001305770398
:10040C0063E4E900130507037114693FE31424FF47
:10041C00BDB701A0411122C626C44AC2732920349B
:10042C00F3241034732430340D6513054529793FBA
:10043C004A857D370D651305852A493F26854D373D
:10044C000D651305052B59372285593F0D6513058D
:10045C008534AD3F2945EF005077B707EFBE37E73E
:10046C0000E0938707083CC701A0EFF2BFEF4111F2
:10047C00352AF524EF00307037851E00130505482A
:10048C00EF00D0771305803EEF0030741305D007D2
:10049C00EF00705D6318050E1305E007EF00B05C0C
:1004AC006316050E1305C007EF00F05B6314050E11
:1004BC001305B007EF00305B6312050E1305A007A0
:1004CC00EF00705A6310050E8D65938505302EC6AE
:1004DC00EF00505CB2450D6513058531EF10F0301F
:1004EC00B707122083A5871E0D6513054532EF1043
:1004FC00D02FB707122083A5471E0D651305453372
:10050C00EF10B02E1305401FEF00306C85453705FA
:10051C000010EF00D05113050020EF0030300565BE
:10052C00130505C0EF00D03037070400B7E700E033
:10053C0037F400E023A2E772130404D01C4885456D
:10054C00014593E707021CC8EF00301F1C48894582
:10055C00014593E707011CC8EF0090210145EF000E
:10056C0050200D651305C534EF10103CEF10201012
:10057C000D641305C435EF10303B1305803EEF00BE
:10058C00D064C5BF8D659385852B91B78D6593859B
:10059C00852C35BF8D659385052E15BF8D6593858F
:1005AC00052F35B78D659385853015B7EFF29FDB39
:1005BC00B71702409843B7065C3041111367170018
:1005CC0098C3D84337140240758FD8C35C40B18BA5
:1005DC00F5FF5C403707A76A7D17939767495CC0A6
:1005EC001C449397F7491CC41C40F98F1CC01C4039
:1005FC0037C7FF0F939727491CC01C44F98F1CC4A5
:10060C001C443707600C93E747001CC4B707FF0076
:10061C005CC41C58F98F1CD85C5837E7F0FF1307E3
:10062C000708F98F5CD85C583707080013070702D6
:10063C00D98F5CD8C52502C202C402C61C40B716AD
:10064C0002403706020093970729370700011CC0A8
:10065C009C42F18F3EC4924785073EC2A24781E778
:10066C009247E397E7FEB71702409C433707020017
:10067C00F98FE5C785473EC422478547631DF70CB4
:10068C00B71702409847F1769386F60F019B98C7EF
:10069C0098471367070198C79847758F98C798476D
:1006AC009306000298C798471377F7F198C79847B5
:1006BC001367070298C798471377070EE31DD7FEF9
:1006CC009843B70600021317872998C3B71702403F
:1006DC009843758F75DF9847B7060090FD16131772
:1006EC00F74998C79847758F98C7B7060070B71722
:1006FC0002409847758F75FFD843B706FDFFFD166E
:10070C001377F7F0D8C3D843D8C3D843758FD8C361
:10071C00D843B726024013171729D8C398423AC6B4
:10072C003247719B3AC63247136717003AC63247B5
:10073C0098C29847B71602401317F72998C7D843A1
:10074C00719BD8C3D84313672700D8C32147DC4219
:10075C00B18BE39EE7FE410105B902C431BFB71767
:10076C000240D44398472146B18A6394C602B70627
:10077C000070758F370600506307C7146360E6027C
:10078C001DC7B7479C1CB7060040938707806307BB
:10079C00D706B7877D01938707848DA03706006045
:1007AC006304C710B767730793870794CDB7904757
:1007BC00944798479305000A93F6060E2183137706
:1007CC00F7037D8A05076396B608B767CD1D938737
:1007DC00075033D7E702B707122093870712B29757
:1007EC009C239146B387E7026309D60085669386FE
:1007FC000654B3D6C600858A91C28583370712206A
:10080C002324F71E371602405442370712201307D1
:10081C0007119182BD8A36971823B706122093864A
:10082C00061EB3D7E7005842416641830D8B3697BD
:10083C00182333D7E70023A6E184B7F600E083A69C
:10084C0006D1F18E91E2BA87370712202322F71EC8
:10085C0082809305000E6392B602D45BB707122018
:10086C0093870710C182B6979C23B7867D01938628
:10087C000684B387D7028583A9BF930700086397C3
:10088C00F600B7479C1C93870780A1B79307000C11
:10089C006397F600B7677307938707941DBFB787F5
:1008AC007D019387078435B7D85BB70712209387F0
:1008BC0007104183BA979C2337877D011307078460
:1008CC00B387E7021DBFB767CD1D938707503DB7B0
:1008DC0001A0EFF23FA985450965EF00101781458E
:1008EC000965EF0090164DB4376602402300068070
:1008FC00A300068054395C299165938505FCD58F3E
:10090C00742913070680D58F7439D58F14519A0624
:10091C00ED8ED58F93F7F70F2300F6805C4D89662B
:10092C0081169607103DF58F142DD18ED58F93F728
:10093C00F70F1CB31E215EA33E217EA35C411CC796
:10094C001C455CC75E251EAF7E253EAF1E295EAFE3
:10095C003E297EAF8280376702408347078011C5EE
:10096C0093E717002300F780828093F7E70FDDBF32
:10097C00B767024003C717809387078009C51367C1
:10098C00170098B382801377E70FE5BFB767024073
:10099C0003C717809387078009C51367470098B36F
:1009AC0082801377B70FE5BFB767024003C7178084
:1009BC009387078009C51367270098B38280137744
:1009CC00D70FE5BFB767024003C72780938707801F
:1009DC0081C5498FB8A382803375A740A8A38280B4
:1009EC00376702408347278013070780182B93F73C
:1009FC00F70F698F09C77D8D3335A00082800145C3
:100A0C008280B76702402388A7808280011106CEBE
:100A1C0022CC0010B70700089C432326F4FE1520B7
:100A2C00AA872326F4FE8327C4FE93F707F0232618
:100A3C00F4FE8327C4FE99833E85F240624405612F
:100A4C008280B7270240C84F098182809C4503D819
:100A5C00050013F7070193F8F7001DCB584D93E8E9
:100A6C00180081468D4E414E3316D0283373C80082
:100A7C00631C66001393160033966E003377C740E1
:100A8C00D04133166600518F8506E39FC6FD58CDC5
:100A9C001377F80F1DCF18418146130380023D4E8A
:100AAC00930E8004A1453316D028337FC800631EF3
:100ABC00E6016395670650C913962600331FCE00D6
:100ACC003396C8003377E741518F8506E39DB6FC1A
:100ADC0018C11307F00F6372070554410146130E3A
:100AEC008002930E80042143130786003317E028FD
:100AFC00B375E800631FB7006396C70358C9131793
:100B0C002600BD45B395E5003397E800B3F6B64033
:100B1C00D98E0506E31A66FC54C18280E39ED7F990
:100B2C0010C959BFE39DD7FD18C9D1BF3717014074
:100B3C009D479306078063F8B702938785FF93F769
:100B4C00F70F631AD506B70601408C468A073D4756
:100B5C003317F70033F7E54098C69846B317F600FD
:100B6C00D98F9CC682806308D502930707C0630A9D
:100B7C00F508631CE51637070140544B8A05BD4741
:100B8C00B397B700B3F7F6405CCB5C4BB315B6002C
:100B9C00DD8D4CCB82803707014054438A05BD471D
:100BAC00B397B700B3F7F6405CC35C43B315B6001C
:100BBC00DD8D4CC38280930607C06304D50263129B
:100BCC00E510B70601408C4E8A073D473317F700F6
:100BDC0033F7E54098CE984EB317F600D98F9CCEDC
:100BEC008280B70601408C4A8A073D473317F700CD
:100BFC0033F7E54098CA984AB317F600D98F9CCAC8
:100C0C0082803707014054478A05BD47B397B70028
:100C1C00B3F7F6405CC75C47B315B600DD8D4CC727
:100C2C0082803727014013070780AE876318E504DD
:100C3C003707014054538A05BD47B397B700B3F744
:100C4C00F6405CD35C53B315B600DD8D4CD382807B
:100C5C0037270140130707806312E502B7060140EE
:100C6C008C568A073D473317F70033F7E54098D683
:100C7C009856B317F600D98F9CD68280372701403F
:100C8C00130707C06317E5088A073D473317F700BA
:100C9C003316F6009D471347F7FF63FBB700B70702
:100CAC000140945B758F98DB985B518F98DB828049
:100CBC00B7070140D457758FD8D7D857518FD8D78D
:100CCC00828013070740E315E5F8B70601408C5204
:100CDC008A073D473317F70033F7E54098D298520F
:100CEC00B317F600D98F9CD2828013070740E31A02
:100CFC00E5F237070140544F8A05BD47B397B7005B
:100D0C00B3F7F6405CCF5C4FB315B600DD8D4CCF1E
:100D1C0082808280EFF20FE5411185451305C00FEB
:100D2C0002C202C402C6F521B7A70240984B137742
:100D3C0007F03AC002471367B7013AC0024798CB95
:100D4C00D84B137707FC3AC002471367E7003AC049
:100D5C000247D8CB6539B7F7FF1F83A7477093F7C6
:100D6C00070F8DE3854537050080D121B7870040FB
:100D7C0093870740D85381453705008013671700C8
:100D8C00D8D37521B7F7FF1F83A747703707714179
:100D9C001307D75093F7F7F06380E7086361F70206
:100DAC00370750411307D750638DE70C3707604165
:100DBC001307D7506385E71241016FF0EFDC37075B
:100DCC0072411307D750E399E7FE09649307F4FDCA
:100DDC00B71401407C824C00930780021385048079
:100DEC003EC6AD31E1779387C70F4C00138504C025
:100DFC007C82A939F977938707034C00371501409A
:100E0C007C82A931930700304C0013850440711487
:100E1C007C822D396082B9A0371401409307E01C05
:100E2C007C824C0093078002130504803EC639393E
:100E3C00E1779387470E4C00130504C07C8239314F
:100E4C00F977938707034C00371501407C82FD3EF0
:100E5C00930700304C00130504407C82C53E930779
:100E6C0040387C82372401404C0013050480F93E45
:100E7C009167938707FC4C00130504C07C82F936FC
:100E8C0025BF3714014093070010130504807C82A2
:100E9C004C00930780023EC6553E93074002130553
:100EAC0004C04C007C825D36F977938707024C00B6
:100EBC00371501407C82593EDD57130504404C0028
:100ECC007C82372401405936930770784C00130507
:100EDC0004807C82A53EE17793C777FC69BF371409
:100EEC00014093070070130504807C824C0093072B
:100EFC0080023EC6A13E930740C0130504C04C00BF
:100F0C007C82A936F9774C00371501407C823D3E36
:100F1C009307309F130504404C007C82053EE1771B
:100F2C003724014093C7F7DF4C00130504807C8203
:100F3C00313E95679387F7833DBF3315A02889C948
:100F4C0037C700E083270730C98F2320F730828012
:100F5C00B7C700E003A707303375A74023A0A7301D
:100F6C008280B7C700E03315A02823A4A730828065
:100F7C00377700401C43F99BC98F1CC337F700E03F
:100F8C00832707D193E747002328F7D08547639140
:100F9C00F502832707D1DD9B2328F7D0730050106F
:100FAC0037F700E0832707D1ED9B2328F7D0828009
:100FBC00B70701409385074003A6C1858841498E38
:100FCC0090C123A801847D562322C7C8032607D1CC
:100FDC00136686002328C7D07300501093874741AF
:100FEC00984303A6C185718F19E703A7C18501C773
:100FFC0073005010F5B7984323A8E18437070140DC
:10100C001307074003A6C1850C4333F6C54010C334
:10101C0003A7C1859443558F98C359B7B777004040
:10102C0098431377F7DF98C39843498F98C382800E
:10103C00B77700409843F9769386F63F758F98C33F
:10104C009843598D88C38280B7170240D443984780
:10105C002146B18A6394C602B7060070758F3706B5
:10106C0000506300C7166360E6021DC7B7479C1C9F
:10107C00B7060040938707806307D706B7877D01C3
:10108C00938707848DA037060060630DC710B76780
:10109C00730793870794CDB7904794479847930568
:1010AC00000A93F6060E21831377F7037D8A050752
:1010BC00639FB608B767CD1D9387075033D7E702F8
:1010CC00B707122093870716B2979C239146B387D4
:1010DC00E7026309D600856693860654B3D6C6002C
:1010EC00858A91C285831CC137160240544237074A
:1010FC001220130707159182BD8A36971823B7065D
:10110C0012209386861FB3D7E7005842416641836D
:10111C000D8B36971823B7F600E033D7E70058C18C
:10112C0083A606D1F18E91E2BA871CC53716024010
:10113C005C4263DD07085C4237479C1C1307078041
:10114C00AD83FD8B95073357F70258C58280930505
:10115C00000E6392B602D45BB70712209387071474
:10116C00C182B6979C23B7867D0193860684B3878C
:10117C00D7028583A1B7930700086397F600B7479A
:10118C009C1C938707801DBF9307000C6397F60088
:10119C00B76773079387079415B7B7877D01938754
:1011AC00078429BFD85BB7071220938707144183A4
:1011BC00BA979C2337877D0113070784B387E7020F
:1011CC0015B7B767CD1D9387075031BF5442B7078A
:1011DC0012209387071FAD829D8AB6978C235C42A1
:1011EC00B70612209386C61EB9838D8BB6979C23A7
:1011FC003357B70089BF99C5371702401C4FC98FA9
:10120C001CCF8280B7170240984F3375A74088CF08
:10121C00828099C5371702405C4FC98F5CCF8280A2
:10122C00B7170240D84F3375A740C8CF828099C5F5
:10123C00371702401C53C98F1CD38280B71702404A
:10124C0098533375A74088D3828099C537170240CD
:10125C005C57C98F5CD78280B7170240D85733755B
:10126C00A740C8D782809357550005476399E7007C
:10127C00B71702409C4333D5A700058982800947E4
:10128C006396E700B7170240DC53F5B7B717024077
:10129C009C57D5B7371702401C57939787291CD7F3
:1012AC008280EFF22F8C9E257D77BD667D8F41115C
:1012BC002A84AE84631BD7005A2DB18B33470708A1
:1012CC004D9BD98F5EAD239405001A28F577FD1739
:1012DC007D8FFE200A85D98F1EA85A248D6793878F
:1012EC00379F7D8FDE20D98F9A24D98FBA24D98F3E
:1012FC005EA45E28DA24B3C7070893F7F7CFD98F1B
:10130C005EA89933924765459040B335F502814606
:10131C000A063305F502EF00B01393064006B357E7
:10132C00D5021306F06313974700B377D5029207E3
:10133C0093872703637AF60093070701B3C707085F
:10134C001EA441016FF04F84B3D7D702D98FFDB7DC
:10135C005E2589C59397D7285EA5828079777D17FE
:10136C00F98FDDBF93F5F51F4EA182800A216D8D9B
:10137C003335A000828083A7C18437470F00130741
:10138C000724B3D7E702239CF1841307803EB3876D
:10139C00E70223AAF1848280B7F700E0D843799B57
:1013AC00D8C303D7818523A407003307A70298CBA2
:1013BC00114798C398431367170098C3D843058BFC
:1013CC0075DF9843799B98C38280B7F700E0D843C8
:1013DC00799BD8C303A7418523A407003305E502F5
:1013EC00114788CB98C398431367170098C3D84309
:1013FC00058B75DF9843799B98C38280EFE29FF64B
:10140C002A841165011185451505B714014002C2E6
:10141C0002C402C602C802CA02CC02CEDD3B1D4683
:10142C0013850480A545EFF06FF0930700207C82B4
:10143C008D473EC44C00E147138504803EC6EFF057
:10144C00EFE022C837440140B70708000C08130529
:10145C0004803ECC02CA231E0100A135854513052C
:10146C000480FD3505616FE03FF2EFE21FEE374976
:10147C000140AE89328481441309098063C584001C
:10148C0022856FE0DFEF930500044A85C53565DDE5
:10149C00B3879900838507004A858504B3C5050881
:1014AC00D135E9BFB7061220AA8703A5C61F13873B
:1014BC004188AA9763EBE7003707182013070780CA
:1014CC006365F70023AEF61E82807D558280EFE2C5
:1014DC007FE979711306400281456800EFE09FEBCC
:1014EC0085450965093BEFF0CFBE930700327C8739
:1014FC0083A7018468003EC8B707122083A7072082
:10150C003ECAB70700023ED0930700F82302F1024F
:10151C0085473ED6EFF04FBD0145EFF02FC7014593
:10152C00EFF08FC8B7E700E03707000123A6E710FC
:10153C00238C074685457D45EFF0CFC80545EFF078
:10154C002FC30545EFF02FC145616FE0FFE301119B
:10155C00094522CE26CC4ACA4EC852C6EFF04FC817
:10156C0015C90945EFF0EFC983A70186850723A0AC
:10157C00F18603A74186058B71C303A74186050736
:10158C0023A2E186B767024093870780D8471307E9
:10159C000764D8C71145EFF0AFC439CD1145EFF052
:1015AC004FC60145EFF02FBB83A70186130700320E
:1015BC0037490140B387E7028144370A14201309E5
:1015CC00098023A0F18683A70186B389440163E5D2
:1015DC00F40803A70184B76702409387078098C774
:1015EC0037071220032707200545D8C723A00186FB
:1015FC0023A20186EFF02FB60545EFF06FBE09C9A7
:10160C000545EFF00FC083A78186850723A4F186DB
:10161C004145EFF0EFBC01C54145EFF08FBE2145D0
:10162C00EFF00FBC01C52145EFF0AFBD7244E244B1
:10163C005249C249324A05617300203003A74186E2
:10164C00050723A2E186B767024093870780984776
:10165C001307076498C73DBF930500044A853933C7
:10166C0065DD83C509004A858504ED39A9BFEFE224
:10167C007FCF37140140130404C005498944232843
:10168C0024011305400604C8893344C81305401FC0
:10169C00232A24011D3B130540062328240135333E
:1016AC001305400604C81533C12E1DE51305803EF5
:1016BC00293BAD231305803E093BEF00C0571305B2
:1016CC00803E213329350D651305C536EF00D02535
:1016DC001305803EDD39EDBF1305803EE9B7B71722
:1016EC0001409843419B98C398431367370098C3B4
:1016FC0098431377F7F098C398431367070398C37D
:10170C00054798CB094798CB8280EFE2BFC53714C9
:10171C000140094923282401854404C813052003EA
:10172C00A53913052003232A2401BD3144C86FE0D9
:10173C00BFC5EFE23FC337140140894444C81305C9
:10174C002003993985471CC813052003B1311305B3
:10175C00200304C891316FE03FC3EFE2BFC03714E0
:10176C0001408944130520030539054904C8232881
:10177C002401130520030D3113052003232A240112
:10178C0021391305200344C801396FE0FFBFEFE294
:10179C00DFBBAA84214937140140094A8549939734
:1017AC00446063D507062328440113052003ED3656
:1017BC0013052003232834017D198604F13E137987
:1017CC00F90F232A340193F4F40FE31A09FC1C409B
:1017DC001305200393F7F7F01CC01C4093E7070890
:1017EC001CC05D3E130520032328340175360844C4
:1017FC00232A34011C401355154893F7F7F01CC0ED
:10180C001C4093E707031CC06FE07FB7232A4401F9
:10181C0069BFEFE29FB3B7170140984321490144D8
:10182C001377F7F098C39843B714014085491367B1
:10183C00070898C313052003EFF01FB623A8340143
:10184C009C4406041374F40F898B81C7050413742C
:10185C00F40F130520037D19EFF01FB41379F90F62
:10186C0023AA3401E31809FC9C40228593F7F7F076
:10187C009CC09C4093E707039CC06FE05FB0EFE215
:10188C007FAEAE842A8951351305000609372A84A8
:10189C0013054006EFF05FB04A85D53D498C130522
:1018AC004006EFF07FAF2685DD3511C50544513577
:1018BC0022856FE07FAD1374F40F33348000C5BF05
:1018CC00EFE25FAA41112A84893513050006C13560
:1018DC0013054006EFF05FAC2285553D130540061D
:1018EC00EFF09FABB93513054006EFF0FFAA313D81
:1018FC0013051006693D13054006EFF0FFA9113FD3
:10190C002AC6A13D3D35324541016FE0FFA7EFE20C
:10191C007FA541118545130590073714014002C27C
:10192C0002C402C6EFF0FF8EC1478D444C00130574
:10193C0004C03EC6648226C4EFF04F9113098004A4
:10194C004C003715014064824AC6EFF02F903546A3
:10195C00130504C09D45EFF06F9D930700084C00E4
:10196C00130504C07C824AC6EFF04F8E130504C0E9
:10197C003D46B145EFF08F9B2146130504C0B5459C
:10198C00EFF0CF9A89674C00130504C07C82B72412
:10199C0001404AC6EFF08F8B138504802D4681459C
:1019AC00EFF0CF98138504802D468545EFF00F9806
:1019BC001385048035468945EFF04F9713850480D5
:1019CC0035468D45EFF08F9613850480354691454D
:1019DC00EFF0CF951385048035469545EFF00F95C4
:1019EC003546138504809945EFF04F949307F00723
:1019FC004C00138504807C824AC6EFF02F85354657
:101A0C00130504C09945EFF06F92930700044C0046
:101A1C00130504C07C824AC6EFF04F833546A945B6
:101A2C0037150140EFF08F903546B1453715014021
:101A3C00EFF0CF8F8567938707404C003715014037
:101A4C007C824AC6EFF08F801305044035469945D9
:101A5C00EFF0CF8D3546130504408945EFF00F8D1F
:101A6C00930740044C00130504407C824AC6EFE007
:101A7C00FFFD41016FE05F91EFE2DF8E493D3714CE
:101A8C0001408547130404C05CC82945EFF0FF935F
:101A9C008944294544C8EFF05F9304C8EFF03FC474
:101AAC0085451305F00FE13B930500084945C13B03
:101ABC0013052003EFF07F91714519351314850040
:101ACC007545FD3BA16733440408938727FAB3653A
:101ADC008500B3C505086389F5000D651305C53789
:101AEC00292305456FE05F8A2945D93B13148500EE
:101AFC002D45F93389673344040893872764B3650C
:101B0C008500B3C505086388F5000D651305853898
:101B1C00E9290945C1BF0D641304043D930444161F
:101B2C000C3008200904A13BE31C94FE01455DBF69
:101B3C00EFE25F830D641304043C930404010C3046
:101B4C00082009042D3BE31C94FE0D641304043B94
:101B5C009304E4000C30082009041533E31C94FEB4
:101B6C006FE09F82EFE21F800D64130444399304ED
:101B7C00C4010C30082009041933E31C94FE6FE0F7
:101B8C00BF80B367B5008D8BB9EFEFE2AFFDAA84D0
:101B9C002E841305F00F8145DD3191451305000EA0
:101BAC00F93993D5240093F5F50F1305A005EFF043
:101BBC001FCD9355240093F5F50F1305B005EFF0E9
:101BCC001FCC93D5A400218011888D89C18D13055C
:101BDC00C005EFF0DFCA81451305000EEFF03FCAD8
:101BEC0001456FE06FFA05458280EFE2AFF72E8476
:101BFC00AA8481451305F00FEFF07FC8A685130565
:101C0C00300DEFF0DFC785451305F00FEFF03FC740
:101C1C00A2854545EFF0BFC66FE00FF7EFE28FF4FA
:101C2C009137930500141305000FA13F8545054519
:101C3C006D3F6FE06FF5EFE2EFF2DD3D9305802530
:101C4C00130500323D3F8545054545376FE0CFF321
:101C5C003288AA882E87CDEA63FFC50EC167636AF6
:101C6C00F618B7070001B337F600B307F040E19B55
:101C7C00E1073353F6009726F0DF9386E6999A96A0
:101C8C00942213030002B697B306F340630BF300E0
:101C9C003397D500B357F5003318D6005D8FB318C2
:101CAC00D500135608013355C702B346080893D71D
:101CBC0008013377C702B385A6024207D98F63FAAE
:101CCC00B700C2971307F5FF63E4070163E8B73069
:101CDC003A858D8F33D7C702B3C80808B3F7C7024C
:101CEC00B386E602C207B3E8F80063FBD800C298DB
:101CFC009307F7FF63E50801791763E3D8003E8784
:101D0C004205598D8145828063F5D5008145014599
:101D1C008280C16763E5F618B7070001B3B7F60018
:101D2C00B307F040E19BE10733D8F6001727F0DF4B
:101D3C001307878E42971823930800023E97338827
:101D4C00E8406392E81863EDB6263335C5001345B9
:101D5C0015008145828045C6C167637BF624133725
:101D6C000610134717000E07B356E6009727F0DF4F
:101D7C009387878AB6979C2393060002BA97B38EF3
:101D8C00F640639DF608B387C5408545935606011A
:101D9C003346060833D5D70213D70801B3F7D70259
:101DAC003303C502C207D98F63FA6700C2971307C2
:101DBC00F5FF63E4070163E067223A85B387674068
:101DCC0033D7D702B3C80808B3F7D7023306C70214
:101DDC00C207B3E8F80063FBC800C2989307F7FF8B
:101DEC0063E50801791763E3C8003E874205598D06
:101DFC0082809337061093C717008E079DBD8146CE
:101E0C009727F0DF93874781B6979C23014793066A
:101E1C000002BA97B38EF640E387F6F63318D60174
:101E2C0033D3F50093560801335ED302B395D50135
:101E3C00B357F500CD8F3346080813D70701B318F5
:101E4C00D5013373D302B305C6034203336767006E
:101E5C00637BB70042971305FEFF636A071763782D
:101E6C00B716791E42970D8F3355D702B3C70708A3
:101E7C003377D7023303A6024207D98F63FB67007F
:101E8C00C2971307F5FF63E0071563FE6712791518
:101E9C00C29793150E01B3876740C98DE5BD93B703
:101EAC00061093C717008E0733D8F6001717F0DF0C
:101EBC001307877642971823930800023E973388BE
:101ECC00E840E382E8E8335EE600B3960601336E41
:101EDC00DE00B3D8E500935E0E01B3D7D803B395FB
:101EEC0005013357E5004D8F33430E089356070118
:101EFC0033160601B3F8D803B305F302C208B3E6F0
:101F0C00160163FBB600F2969388F7FF63E3C60DE8
:101F1C0063F1B60CF917F2968D8EB3D5D603334711
:101F2C000708B3F6D603B308B302C206558F637B1A
:101F3C00170172979386F5FF6369C70963771709D1
:101F4C00F9157297C207C16ECD8F9386FEFFB3F55C
:101F5C00D70013D30701F18E4182338ED50233079C
:101F6C001741B306D30293580E01B385C502B6953B
:101F7C00C6953303C30263F3D500769393D605015C
:101F8C009A966363D7026305D7003E8581458280AC
:101F9C00C166FD1633F7D5004207337EDE003315DC
:101FAC0005017297E373E5FE1385F7FF8145828087
:101FBC00B70700016377F6029356060141477DB3DC
:101FCC008145054582803A85E9B5B685A5BF2A8E3F
:101FDC0059BDC68791B77915C297CDB37915C297FC
:101FEC00CDB993568601614751B35D7122D406D6A3
:101FFC002A842EDA32DC36DEBAC0BEC2C2C4C6C6F1
:10200C0003A5418411C51C4D81E72AC6912B32458D
:10201C000C455418228636CEEF00B020B250225414
:10202C0061618280011126CA06CE22CC4AC84EC6F6
:10203C0052C4AA8419E11C4502901C4D2E89ADE3B3
:10204C0005239C4C8044B9CF9717F0DF9387C7705A
:10205C00631DF404C0407C50858B99E75E2493F794
:10206C00072099E3284C8D2D5E24A18B99C31C4825
:10207C00D5E3A28526859D2A51CDFD547C50858BB8
:10208C0099E75E2493F7072099E3284CB925F24091
:10209C0062444249B249224A2685D2440561828073
:1020AC0000455DB726856D2945B79717F0DF9387F7
:1020BC00A7686314F400804479BF9717F0DF938707
:1020CC00A765E31AF4F8C04479B71CC4050963C8C2
:1020DC0007021C401387170018C08CA31C448345AF
:1020EC000900FD17FDF11CC463D907022286A9451E
:1020FC0026853D28FD57E302F5F8A94441B7184C55
:10210C0063C4E700E39745FD228626851520E31777
:10211C0035FDA5B7FD59294AD1B71C4013871700C7
:10212C0018C0294798A3D1BFAA8503A54184DDBD5A
:10213C00011122CC26CA4AC806CE4EC6AA842E89C4
:10214C00328401C51C4D91E321299717F0DF938749
:10215C00A7606317F402C0401C4C1CC45E24A18B06
:10216C0099C31C4895EFA2852685492015C97D5930
:10217C00F2406244D244B2494A85424905618280A8
:10218C009717F0DF9387475B6314F4008044E9B73B
:10219C009717F0DF93874758E310F4FCC0446DBFEA
:1021AC001C4808409379F90F1379F90F1D8D5C4881
:1021BC006346F500A2852685912C55F91C4405052E
:1021CC00FD171CC41C401387170018C0238037014F
:1021DC005C486388A7005E24858BD9DBA947E3198B
:1021EC00F9F8A28526851D2441D551B7411122C489
:1021FC0026C24AC006C683A441842A892E8489C477
:10220C009C4C99E32685A92E9717F0DF9387C7542A
:10221C006313F402C0408317C40013F7870025E74B
:10222C0013F707010DEB25472320E90093E707047B
:10223C005EA47D5571A09717F0DF9387E74F631469
:10224C00F4008044C9BF9717F0DF9387E74CE31481
:10225C00F4FCC044C9B7918B9DC34C5889C99307F2
:10226C0044046384F5004A85B92B232A04025E24B6
:10227C002322040093F7B7FD5EA41C481CC05E2407
:10228C0093E787005EA41C4899EB5E24130700209B
:10229C0093F707286385E700A2854A856129831790
:1022AC00C40013F717001DC3584823240400330738
:1022BC00E04018CC1848014501E713F707083DF733
:1022CC00B2402244924402494101828013F7270014
:1022DC00814611E3544814C4F1BF8397C500011122
:1022EC0022CC26CA06CE4AC84EC613F78700AA844B
:1022FC002E8479E3D8416345E000B8416356E00889
:10230C00585459C303A9040023A004000C5093D7BC
:10231C00C748A9CB70485E24918B99C75C401D8E31
:10232C005C5899C33C401D8E5C540C5081462685EC
:10233C008297FD57630CF5041C48056723220400A3
:10234C001CC05E24F98F91C368C84C5823A024018B
:10235C0085CD930744046384F5002685AD21232A9B
:10236C0004021DA00146854626850297FD572A8644
:10237C00E313F5FA9C40C5D375476385E7005947CD
:10238C006395E70623A024010145B5A09840831767
:10239C00C40001CFF5466305D700D9466319D704AD
:1023AC001C48232204001CC04DB7184823220400EB
:1023BC0093D7C74818C041BF83A90501E38609FC20
:1023CC0003A905008D8B23A0350133093941014741
:1023DC0091E3D84918C4E35920FB1C540C50CA860D
:1023EC004E8626858297634FA0008317C40093E71F
:1023FC0007045EA47D55F2406244D2444249B2497E
:10240C0005618280AA993309A940F1B79C49411111
:10241C0006C622C426C281EB8144B24022442685E2
:10242C00924441018280AA842E8401C51C4D91E303
:10243C00052A9717F0DF93872732631CF402C040FC
:10244C008317C400F1DB7850058B11E793F7072055
:10245C0099E3284C51242685A28541357C50AA84C9
:10246C00858BC5FF5E2493F70720C5FB284CB5244C
:10247C006DB79717F0DF9387272C6314F400804413
:10248C00C1B79717F0DF93872729E31BF4FAC044F1
:10249C0045BF411122C406C62A844EA572A523202D
:1024AC0005002322050023240500232205062328EA
:1024BC000500232A0500232C050021468145130520
:1024CC00C505EFD03FED971700009387A7835CD02D
:1024DC00971700009387A7851CD497170000938744
:1024EC0067895CD4971700009387A78BB24000D004
:1024FC001CD822444101828097050000938545F148
:10250C00BDA2411126C2930780069384F5FFB384C4
:10251C00F4024AC02E8922C406C693854407692E4C
:10252C002A8401CD2320050023222501310508C46E
:10253C00138684068145EFD0FFE5B2402285224404
:10254C0092440249410182801385018771A213854F
:10255C00018761A21385418741A213854187B5AAE2
:10256C00411122C406C62A84F5371C4C89C7224463
:10257C00B2404101DDB797070000938727F81CD4C0
:10258C0023240404232604042328040483A781841D
:10259C006394870085471CCC22853D2048C022854A
:1025AC00252008C422850D2048C448400146914589
:1025BC00CD3508440546A545E93D48440946C9457D
:1025CC00C93D85471CCC65B7411126C24AC006C619
:1025DC0022C42A89953F83A481849C4C99E3268547
:1025EC004137938484048044DC40FD1763D6070094
:1025FC009C40BDC38440C5BF0317C40039EBC177F1
:10260C0085075CC41305840523220406E920813761
:10261C002146232004002324040023220400232821
:10262C000400232A0400232C040081451305C4054F
:10263C00EFD05FD6232A0402232C040223240404A3
:10264C0023260404B24022852244924402494101CB
:10265C0082801304840651BF91454A855D3588C03C
:10266C002A8449F9ED35B1472320F900E1BF79718E
:10267C0022D44AD04ECE52CC5AC85EC606D626D2EA
:10268C0056CA2A892E8A130485048149054BFD5BA1
:10269C000444832A4400FD1A63D00A0200406DF8FA
:1026AC00B250225492540259624AD24A424BB24B13
:1026BC004E85F24945618280DE24637BFB00839763
:1026CC00E40063877701A6854A85029AB3E9A900DD
:1026DC0093848406C9B78280828082805971A2D487
:1026EC002E848395E500A6D2CAD086D6B2843689CC
:1026FC0063D205025E2493F707088DEB13070040A5
:10270C00B65026542320F90098C00659965401451A
:10271C00656182803000C525E34E05FC3247BD67FC
:10272C00F98F7977BA9793B71700C9BF8147130709
:10273C000004F9B7DE25797122D406D626D24AD008
:10274C004ECE898B2E8491CF930774041CC01CC869
:10275C0085475CC8B250225492540259F2494561E3
:10276C00828074003000AA84953FA2492A8926856C
:10277C00CE85992219E98317C40013F7072079FB3A
:10278C00F19B93E727005EA4C1B7970700009387DE
:10279C00E7D69CD45E2408C008C893E707085EA45B
:1027AC00B247232A340199CB8315E4002685852D65
:1027BC0011C55E24F19B93E717005EA45E2433E5FC
:1027CC0027014AA441BFD1CD83A7C5FF011122CC5B
:1027DC0006CE1384C5FF63D307003E942AC6652535
:1027EC001387C1871C43324581EB2322040000C3AD
:1027FC006244F240056161AD637DF4001040B306A4
:10280C00C4006396D7009443DC43B29614C05CC0FA
:10281C00F9BF3E87DC4399C3E37DF4FE14433306D2
:10282C00D700631F86001040B29614C33306D7003E
:10283C00E390C7FC9043DC43B29614C35CC34DBF1A
:10284C006375C400B1471CC165B71040B306C40022
:10285C006396D7009443DC43B29614C05CC040C36B
:10286C0041BF828041114AC01389818783270900A7
:10287C0022C426C206C6AA842E8489E78145A929CA
:10288C002320A900A285268581297D59631A25015B
:10289C007D54B240228522449244024941018280F7
:1028AC00130435007198E30685FEB305A440268514
:1028BC002521E31025FFE9BF011126CA93843500B9
:1028CC00F1984AC8A104B14706CE22CC4EC62A893B
:1028DC00B3F4F40A63C4040063FDB400B1472320CD
:1028EC00F9000145F2406244D2444249B2490561C3
:1028FC008280512B9389C18783A709003E8431E4E0
:10290C00A6854A858537FD572A846316F50A03A4E4
:10291C000900A287C1EB8329040081454A85A2994D
:10292C00652E6394A9081C408D044A859D8CF198F2
:10293C00B147A104B3F4F40AA6852D37FD576306FD
:10294C00F5061C40A6971CC015A01440858E63C8C4
:10295C0006042D47637DD70204C0330794006396A9
:10296C00870223A0E9005C4014C35CC34A8505239D
:10297C001305B4009307440061993307F540E30352
:10298C00F5F63A94898F1CC0B1BFD8C3E9BF584043
:10299C006395870023A0E900D1BFD8C3C1BFA2872C
:1029AC004040B1BF3E84DC43B5B7B1472320F900AA
:1029BC004A85F1293DB704C155BF1C46FD171CC6FD
:1029CC0063DA0700184E63C5E700A9476394F50066
:1029DC006FF00FF61C422E851387170018C28CA3BC
:1029EC008280011122CC26CA4AC84EC652C406CED9
:1029FC002A89AE893284B304D6007D5A63149400BC
:102A0C00014501A80C204E864A85453F0504E31775
:102A1C0045FFF2406244D2444249B249224A056120
:102A2C008280357122CD26CB4AC94EC706CF52C5FE
:102A3C0056C35AC1DEDEE2DCAA892E843289B68402
:102A4C0009C51C4D99E3EFF0BFB19717F0DF9387E1
:102A5C00A7D06318F40403A449007C50858B81EB48
:102A6C005E2493F7072081E7284CEFF0FFC65E2425
:102A7C00A18B99C31C48A5E3A2854E85EFF00FF7F7
:102A8C0039C97C50858BA1C37D55FA406A44DA4420
:102A9C004A49BA492A4A9A4A0A4BF65B665C0D6166
:102AAC0082809717F0DF938727C96315F40003A47E
:102ABC00890065B79717F0DF938707C6E31FF4F813
:102ACC0003A4C90059BF5E2493F70720D5FF284CF7
:102ADC00EFF0BFC055BF93070002A304F1029307A8
:102AEC00000302D22305F10226C6930B5002971A5B
:102AFC00F0DF938A6AC8294BCA849C2099C36399D6
:102B0C007709338C2441638D2401E2864A86A285A1
:102B1C004E85C13DFD576306F5189257E2973ED29C
:102B2C009C2063800718FD571389140002C802CE3D
:102B3C003ECA02CCA309010482D483450900154680
:102B4C0056853526C2479304190029E513F707016A
:102B5C0009C713070002A309E10413F7870009C78B
:102B6C001307B002A309E104834609001307A0026E
:102B7C006389E602F247CA848146254698209385EC
:102B8C001400130707FD6372E60685C63ECE15A03A
:102B9C008504A5B733055541B397A72826893EC8A8
:102BAC0069BF324793064700184336C6634807028D
:102BBC003ACE98209307E002631CF70498309307F1
:102BCC00A002631AF702B2478904138747009C439B
:102BDC003AC67D57B3E7E70A3ECA1DA83307E04063
:102BEC0093E727003ACE3EC8E9B7B3876703AE84B4
:102BFC008546BA9761B7850402CA81468147254646
:102C0C00982093851400130707FD6372E606E9F616
:102C1C008C200D461715F0DF130585B6892C11CDC8
:102C2C009717F0DF9387C7B51D8DC24713070004B4
:102C3C003317A700D98F85043EC88C201946171569
:102C4C00F0DF130525B4138914002304B102052405
:102C5C0035C99307000095E74247B2471377071031
:102C6C0009CF91073EC69257D2973ED271B5B38722
:102C7C006703AE848546BA9761B79D07E19BA107B0
:102C8C00D5B77800970600009386E6D522860C0807
:102C9C004E8597000000E7000000FD572A8AE314D8
:102CAC00F5FC7C50858B81EB5E2493F7072081E744
:102CBC00284CEFF09FA25E2493F70704E39607DC01
:102CCC001255E1B37800970600009386C6D1228690
:102CDC000C084E85F124D1B7411122C42A842E85CB
:102CEC0023A0018806C6EFE0EFFBFD576316F50045
:102CFC0083A7018891C31CC0B24022444101828049
:102D0C00411122C42E848395E50006C6012B63492C
:102D1C0005007C48AA977CC8B240224441018280BD
:102D2C005E249397C7485EA4C5BFDE25011122CC53
:102D3C0026CA4AC84EC606CE93F70710AA842E841C
:102D4C003289B68991C78395E50089460146DD280D
:102D5C005E248315E400F2409397C7485EA4624456
:102D6C00CE864A86B24942492685D24405611DA8C1
:102D7C00411122C42E848395E50006C6E1207D57BF
:102D8C005E246319E5009397C7485EA4B2402244C1
:102D9C00410182809397C72868C85EA4C5BF8395FC
:102DAC00E5003DA0411122C42A842E85B2853686C9
:102DBC0023A0018806C6EFE04FEBFD576316F50024
:102DCC0083A7018891C31CC0B24022444101828078
:102DDC00411122C42A842E8523A0018806C6A52170
:102DEC00FD576316F50083A7018891C31CC0B24040
:102DFC00224441018280411122C42A842E85B2854D
:102E0C0023A0018806C6B121FD576316F50083A7E0
:102E1C00018891C31CC0B2402244410182804111FF
:102E2C0022C42A842E8523A0018806C60D29FD57AD
:102E3C006316F50083A7018891C31CC0B2402244DD
:102E4C0041018280411122C42A842E85B2853686A6
:102E5C0023A0018806C61129FD576316F50083A728
:102E6C00018891C31CC0B24022444101828093F579
:102E7C00F50F2A966314C500014582801C21E38E50
:102E8C00B7FE0505C5BF1385C1866FF0FF8413859A
:102E9C00C1866FF09F84797156CA9C49BA8A98454D
:102EAC0022D44AD04ECE52CC06D626D25AC85EC6B2
:102EBC00B3E7E70A1CC203C73504AA892E843289FA
:102ECC00368A19C385071CC21C4093F7070291C7A9
:102EDC008327090089072320F9000440998891E889
:102EEC00130B9401FD5B5C4403270900998F63CCA1
:102EFC00F40483473404B336F0001C4093F7070204
:102F0C00A5EB13063404D2854E85829AFD576303D4
:102F1C00F5041C4011478144998B6399E700832782
:102F2C00090044449D8C8147B3E4F40A1C441848BE
:102F3C006354F700998FBE94014969047D5B6398D3
:102F4C002405014509A885465A86D2854E85829A64
:102F5C00631E75017D55B250225492540259F249A8
:102F6C00624AD24A424BB24B456182808504A5BF6E
:102F7C003307D40013060003A301C704034754040A
:102F8C0093871600A2978906A381E7049DBF854607
:102F9C002286D2854E85829AE30E65FB050945B7DC
:102FAC00797122D44AD04ECE52CC06D626D256CAED
:102FBC005AC803C88501930780072A892E84B289D1
:102FCC00368A63E20703930720069386350463E190
:102FDC000703630C081C930780051706F0DF130624
:102FEC00E67A6308F814930424042301040515A855
:102FFC009307D8F993F7F70F5546E366F6FE1706D5
:10300C00F0DF1306267BB3C7C7209C43B297828799
:10301C001C4393842504938647009C4314C323814B
:10302C00F504854775A290411C43137506089385DA
:10303C00470029C19C430CC3584063DF071293051A
:10304C00D002A301B40418C4635E0702B307F040B6
:10305C001706F0DF130686732948B68433F7070387
:10306C00FD143297182398A03E87B3D70703E37754
:10307C0007FF85A09C43137506040CC355DD93977D
:10308C0057605DBF6D9A10C0D1B790411C4313754A
:10309C0006089385470001C50CC39C4331A01376E9
:1030AC0006040CC37DDA9E231307F0061706F0DF27
:1030BC001306C66D6310E80C2148A30104045840A4
:1030CC0018C4E34C07F80C40ED990CC0D9F7B68442
:1030DC0049F7A147631EF8001C40858B91CB5840E3
:1030EC001C4863C7E70093070003A38FF4FEFD148D
:1030FC00858E14C85287CE867000A2854A85EFF063
:10310C009FD9FD5A631A550D7D55B25022549254D5
:10311C000259F249624AD24A424B456182809C4133
:10312C0093E707029CC1130880071706F0DF13060C
:10313C002667A30204050C401C4313F805081385ED
:10314C0047006305080008C39C4339A013F8050425
:10315C0008C3E30B08FE9E2313F7150001C793E584
:10316C0005020CC099C3414889BF18401377F7FD7D
:10317C0018C0D5BF294891B71706F0DF13060661B2
:10318C00294835BF90411C43CC4913780608138558
:10319C0047006306080008C39C438CC339A008C3CE
:1031AC00137606049C4375DA8EA323280400B68498
:1031BC0091B71C43D04181459386470014C3844387
:1031CC002685EFF0DFCA01C5B30795405CC05C40B3
:1031DC001CC8A301040439BF14482686CE854A8531
:1031EC00029AE30355F31C40898B85E74844B247A8
:1031FC003365F50A19BF85465686CE854A85029AEF
:10320C00E30465F185045C443247998FE3C5F4FE11
:10321C00F1BF8144930A94017D5BF5B7411122C43F
:10322C002A842E85B285368623A0018806C6A12065
:10323C00FD576316F50083A7018891C31CC0B240EB
:10324C002244410182809307800523A0F1887D559B
:10325C0082809307800523A0F1887D558280930797
:10326C00800523A0F188014582809307800523A067
:10327C00F1887D5582809307800523A0F1887D55C8
:04328C00828000003C
:10329000307800000D0A563346204641554C5420E4
:1032A0006D63617573653D00206D6570633D000061
:1032B000206D7476616C3D00495744472028776142
:1032C000746368646F6729005757444720287769FB
:1032D0006E646F77207761746368646F672900009C
:1032E000534F46542028736F6674776172652900C6
:1032F000504F522028706F7765722D6F6E29000035
:10330000554E4B4E4F574E0050494E20286578740D
:1033100065726E616C2900005253543A2025730D7A
:103320000A00000053797374656D436C6B3A256431
:103330000D0A00005633462053797374656D436F50
:103340007265436C6B3A25640D0A000056334620C3
:1033500077616B652075700D0000000056334620C4
:1033600072756E6E696E672E2E2E0D0046573A20CE
:1033700053545245414D2076310D00004D49443A99
:10338000253038780D0A00005049443A2530387805
:103390000D0A0000FF00DA09D703DF0233A03C006A
:1033A000E167FF01E000E100E500D700DA00E0009E
:1033B000FF01E014E177E51FD703DA10E000000019
:1033C000FF00DA10D703DF0033803C40E1770000D4
:1033D000FF002CFF2EDFFF013C321100090204D850
:1033E00013E514482C0C33783A333BFB3E00431171
:1033F0001610399235DA221A37C3230034C0361A30
:10340000068807C00D870E414C0048005B00420350
:103410004A8121992440253826825C0063004600B9
:103420000C3C617062807C05208028306C006D80CF
:103430006E007002719473C13D345A571200171117
:10344000187519011A973236030F37404FCA50A822
:103450005A236D006D38FF00E57FF9C04124E01468
:1034600076FF33A0422043184C0087D5883FD7030E
:10347000D910D382C808C9807C007D007C037D48B8
:103480007D487C087D207D107D0E9000910E911A64
:103490009131915A91699175917E9188918F919610
:1034A00091A391AF91C491D791E891209200930696
:1034B00093E3930593059300930493009300930083
:1034C0009300930093009300960097089719970232
:1034D000970C97249730972897269702979897806C
:1034E00097009700C3EFA400A800C511C651BF8084
:1034F000C710B666B8A5B764B97CB3AFB497B5FFCB
:10350000B0C5B194B20FC45CC0C8C1968C00863DF2
:1035100050005190522C5300540055885A905B2C07
:103520005C05D302C3ED7F00DA09E51FE167E00027
:10353000DD7F050000010202030303030404040409
:10354000040404040505050505050505050505052F
:10355000050505050606060606060606060606060F
:1035600006060606060606060606060606060606FB
:1035700006060606070707070707070707070707DF
:1035800007070707070707070707070707070707CB
:1035900007070707070707070707070707070707BB
:1035A00007070707070707070707070707070707AB
:1035B000070707070808080808080808080808088F
:1035C000080808080808080808080808080808087B
:1035D000080808080808080808080808080808086B
:1035E000080808080808080808080808080808085B
:1035F000080808080808080808080808080808084B
:10360000080808080808080808080808080808083A
:10361000080808080808080808080808080808082A
:10362000080808080808080808080808080808081A
:10363000080808080000000000000000000000006A
:10364000000000000000000000000000000000007A
:10365000000000000000000000000000000000006A
:10366000000000000000000000000000000000005A
:10367000000000000000000000000000000000004A
:10368000000000000000000000000000000000003A
:1036900000000000232D302B20000000686C4C003F
:1036A000656667454647000030313233343536377A
:1036B000383941424344454600000000303132333E
:1036C000343536373839616263646566000000005E
:1036D00060F80F2076F80F2036F80F2036F80F200C
:1036E00036F80F2036F80F2076F80F2036F80F2026
:1036F00036F80F2036F80F2036F80F20D4F90F20B7
:10370000DAF80F206EF90F2036F80F2036F80F2068
:1037100002FA0F2036F80F20DAF80F2036F80F20C3
:0837200036F80F2076F90F20A6
:1037280097D111209381812B17D117201301018D77
:103738001305800097D511209385458C17D6112045
:103748001306069A63FAC5008322050023A05500D4
:1037580011059105E3EAC5FE97D01120E780008A9C
:10376800B70237129382123E739002BC854273905F
:1037780012BC9D4273904280996293828208739032
:10378800023097D20F209382628793E232007390BF
:10379800523097D20F20938202BF73901234730075
:0437A80020300000CD
:1037AC00191C1E202326282D32383C40464C505ADA
:1037BC0000000000000000000102030406070809D5
:1037CC00040607081109130A150B170C190D0E0F17
:1037DC00101112131416181A1C1E20222426283B12
:1037EC00191C1E202326282D32383C40464C505A9A
:1037FC000000000000000000010203040607080995
:10380C00040607081109130A150B170C190D0E0FD6
:10381C00101112131416181A1C1E20222426283BD1
:10382C0000000000743600005436000034360000EE
:10383C00000000000000000000000000000000007C
:10384C00000000000000000000000000000000006C
:10385C00000000000000000000000000000000005C
:10386C00000000000000000000000000000000004C
:10387C00000000000000000000000000000000003C
:10388C000001020200E1F5050084D71702040608C6
:10389C000000000001020304000102026402122075
:1038AC0020031420000000000000000000000000B5
:1038BC0000000000000000000000000000000000FC
:0C38CC0000001420800112208001122056
:00000001FF
