:020000024000BC
:080000006F80000F00000000FA
:100008001705F8DF130505EE9705FEFF938585DFD5
:100018001746FEFF1306C63C63FAC5008322050097
:1000280023A0550011059105E3EAC5FE1785F8DF01
:10003800130585F19745FEFF9385853A1746FEFF20
:100048001306063A63FAC5008322050023A055006B
:1000580011059105E3EAC5FE1785F8DF1305C5EE1E
:10006800970500009385050A1386418D63FAC5003C
:100078008322050023A0550011059105E3EAC5FE7A
:100088001385418D938581486377B500232005004A
:100098001105E36DB5FEB7B237129382023E739035
:1000A80002BC9D42739012BCBD427390428099621B
:1000B80093828208739002309702FEFF938282D463
:1000C80093E23200739052309702FEFF93824221EE
:0800D800739012347300203014
:1000E000000004000000000034030A2036030A2048
:1000F000000000008C090A20000000000000000041
:100100008C090A208C090A20000000000000000071
:100110008C090A208C090A208C090A2000000000A2
:100120008C090A208C090A208C090A208C090A20D3
:1001300000000000000000000000000000000000BF
:1001400000000000000000000000000000000000AF
:100150008C090A20000000000000000000000000E0
:100160008C090A208C090A208C090A208C090A2093
:100170008C090A208C090A208C090A208C090A2083
:100180008C090A208C090A208C090A208C090A2073
:100190008C090A208C090A208C090A208C090A2063
:1001A0008C090A208C090A208C090A208C090A2053
:1001B0008C090A208C090A208C090A208C090A2043
:1001C0008C090A208C090A208C090A208C090A2033
:1001D0008C090A208C090A208C090A208C090A2023
:1001E0008C090A208C090A208C090A208C090A2013
:1001F0008C090A208C090A208C090A208C090A2003
:100200008C090A208C090A208C090A208C090A20F2
:100210008C090A208C090A208C090A208C090A20E2
:100220008C090A208C090A208C090A208C090A20D2
:100230008C090A208C090A208C090A208C090A20C2
:100240008C090A208C090A208C090A208C090A20B2
:100250008C090A208C090A208C090A208C090A20A2
:100260008C090A208C090A208C090A208C090A2092
:100270008C090A208C090A208C090A208C090A2082
:100280008C090A208C090A208C090A208C090A2072
:100290008C090A208C090A208C090A208C090A2062
:1002A0008C090A208C090A208C090A208C090A2052
:1002B0008C090A208C090A208C090A208C090A2042
:1002C00088030A208C090A208C090A208C090A203C
:1002D0008C090A208C090A20000000008C090A20E1
:1002E0008C090A2000000000000000008C090A2090
:1002F00000000000000000008C090A208C090A2080
:100300008C090A208C090A208C090A208C090A20F1
:100310008C090A208C090A208C090A208C090A20E1
:100320008C090A208C090A208C090A208C090A20D1
:100330008C090A20397101436EC619A039714153E5
:100340006AC866CA62CC5ECE19A0397101535AD010
:1003500056D252D44ED64AD826DA22DC06DE3301F3
:100360006140828241114AC026C222C406C68282EE
:10037000B24D4101024D924C224CB24B4101024B15
:10038000924A224AB2494101024992442244B2406F
:10039000410182802A8311C62300B3007D16050324
:1003A00065FE8280EFF21FFCB74401402A84138966
:1003B0000480930500044A85EF00D0317DD9138570
:1003C0000480B3450408EF0070307DBFEFF29FF961
:1003D0002A840305040011E145BF0504E137D5BFB8
:1003E000EFF2BFF6AA84374504001305C56BF93F49
:1003F0007144A5497159B3D7840013F7F700130569
:10040000770363E4E900130507037114613FE31404
:1004100024FFB5B701A0411122C626C44AC27329E0
:100420002034F3241034732430343745040013058A
:10043000056C693F4A856D37374504001305456DE6
:1004400071372685713F374504001305C56DBD3FE3
:1004500022857937375504001305C598853F130564
:100460004006EF00D02D01A00945EF00007115C92D
:100470000945EF00A07283A7018F850723A8F18E9D
:1004800003A7418F058B3DCF03A7418F050723AA03
:10049000E18EB767024093870780D8471307072884
:1004A000D8C71145EF00606D15C11145EF00006F11
:1004B0000145EF00E06383A7018F13070014B387A2
:1004C000E70223A4F18E054723A6E18E0545EF0040
:1004D000C06A09C90545EF00606C83A7818F850755
:1004E00023ACF18E4145EF00406901C54145EF0065
:1004F000E06A2145EF00606801C52145EF00006A10
:100500007300203003A7418F050723AAE18EB76748
:1005100002409387078098471307072898C751B769
:10052000EFF25FE4B74401402A8413890480930505
:1005300000044A85EF00101A7DD9A2851385048036
:10054000EF00D01891B5EFF2FFE12A840305040013
:1005500011E11DBD1375F50F0504D937C5BFEFF2C5
:100560007FE0411111E5130500035D3F410129BD05
:100570005C000144BE84A94625463377D5020504B4
:10058000850713070703A38FE7FE2A873355D50294
:10059000E365E6FE7D14B3878400882351377DF838
:1005A000F1B7EFF23FDC2A84635705001305D00250
:1005B000853F3304804022855D37F9B3EFF29FD742
:1005C000797185452145EF00F00CB7140140C14712
:1005D0000947138504C04C103ED23AD43ED67D5410
:1005E000D923938404C0312E6559EF00500F137640
:1005F0001400C1452685EF0000691305800C7D14A9
:10060000EF00F013E31524FF374504001305456E92
:100610001D3F03A5418DB7540400014B8937138555
:10062000C4981537EF00302C374504001305856F4B
:10063000193FEF001071374504001305057121378C
:100640001305401FEF00B00FEF0090233745040063
:100650001305C572CD3D3745040013050574E53516
:1006600083A70186374C04003EC683A741863EC857
:1006700083A7C18EF5DF37F900E0032A890883A735
:10068000818E37051620BE853EC4EF00F06D8327AE
:1006900089082A8463E347253745040013058575D7
:1006A000338A47414D353745040013058576613D52
:1006B0005A8575351385C498793537450400130577
:1006C000457751352245613D1385C498AD3D631092
:1006D000042203A90192374504001305057883A974
:1006E000C19195354A85753D13058007153D4E85A9
:1006F0004D3D1385C498813D374504001305C578E9
:1007000099355285A93D1305CC79353D03A7C184A0
:10071000814A1308800293080018370312209306B9
:10072000F9FF930D0002138EF9FFB3870A03B68C0D
:10073000338A1A039587938767091A9A63D3270127
:10074000BE8C014DBA9CB347BD03B307F0409387FD
:10075000170863C33701F287B387270372CE36CCFD
:100760003ACA130D8D02310AE6978823EF20504CC8
:10077000B245EF20C01A232AAAFE232CAAFE232E5C
:10078000AAFE130600505247E246724E130880023A
:100790009308001837031220E317CDFA850AE39671
:1007A000BAF9B7F900E09385C1933705122003A980
:1007B0008908EF00F02283A7890863E227133389B1
:1007C0002741138AC1938549938CC193994AB347B2
:1007D000942103254A008C43EF2040406353A0003E
:1007E0004E848509110AE39459FF37450400130527
:1007F000857A913BB75A04009387CA82B347F420A5
:100800008843096A814981331385C4982D3B374554
:1008100004001305057B053B938ACA82130A0A71FB
:10082000130D703E930D3006B7870400138507063D
:10083000193BB3873A01884339331305D003CD31CF
:10084000B3873C01C2458843EF20204CEF2070392C
:100850002A843355450321331305E002D131337423
:10086000440363608D02130500035D3963EB8D0063
:10087000130500037531A54763E5870013050003E1
:1008800045312285E9399109E147E39FF9F813855C
:10089000C4985539374504001305857B6D314A8569
:1008A0007D391305CC794531374504001305457C66
:1008B0005939014437091620A24763948702374506
:1008C00004001305457D4131374504001305457F7C
:1008D0009D39050BEF00207861BBFD1775BBFD1737
:1008E000F9BDB3078900882305041D39F1B73745E1
:1008F00004001305457E8139228565311385C4982E
:10090000D9B7B7170240D44398472146B18A6394B8
:10091000C602B7060070758F370600506303C71410
:100920006360E6021DC7B7479C1CB706004093876B
:1009300007806307D706B7877D01938707848DA05B
:10094000370600606300C710B76773079387079483
:10095000CDB79047944798479305000A93F6060E43
:1009600021831377F7037D8A05076392B608B7677B
:10097000CD1D9387075033D7E702B7070C20938725
:100980000732B2979C239146B387E7026309D600EA
:10099000856693860654B3D6C600858A91C2858340
:1009A00023ACF18C37160240544237070C20130752
:1009B00007319182BD8A36971823B7060C2093869B
:1009C000063AB3D7E7005842416641830D8B36970C
:1009D000182333D7E70023AEE18CB7F600E083A6F7
:1009E00006D1F18E91E2BA8723AAF18C8280930519
:1009F000000E6392B602D45BB7070C2093870730D2
:100A0000C182B6979C23B7867D0193860684B387FF
:100A1000D70285838DB7930700086397F600B74721
:100A20009C1C9387078081BF9307000C6397F60097
:100A3000B7677307938707943DBFB7877D01938797
:100A4000078415BFD85BB7070C2093870730418315
:100A5000BA979C2337877D0113070784B387E70282
:100A60003DBFB767CD1D938707501DBF01A0EFF2B3
:100A70007F8F854509652D298145096515296FF009
:100A8000BF903766024023000680A30006805439D9
:100A90005C299165938505FCD58F74291307068021
:100AA000D58F7439D58F14519A06ED8ED58F93F763
:100AB000F70F2300F6805C4D896681169607103D7E
:100AC000F58F142DD18ED58F93F7F70F1CB31E2100
:100AD0005EA33E217EA35C411CC71C455CC75E250E
:100AE0001EAF7E253EAF1E295EAF3E297EAF8280BF
:100AF000376702408347078011C593E7170023003B
:100B0000F780828093F7E70FDDBFB767024003C726
:100B100017809387078009C51367170098B38280F1
:100B20001377E70FE5BFB767024003C717809387C6
:100B3000078009C51367470098B382801377B70F02
:100B4000E5BFB767024003C717809387078009C5D1
:100B50001367270098B382801377D70FE5BFB76775
:100B6000024003C727809387078081C5498FB8A3B8
:100B700082803375A740A8A38280376702408347ED
:100B8000278013070780182B93F7F70F698F09C782
:100B90007D8D3335A000828001458280B767024099
:100BA0002388A78082809C4503D8050013F707019E
:100BB00093F8F7001DCB584D93E8180081468D4EF1
:100BC000414E3316D0283373C800631C660013935C
:100BD000160033966E003377C740D0413316660057
:100BE000518F8506E39FC6FD58CD1377F80F1DCFB3
:100BF00018418146130380023D4E930E8004A145A7
:100C00003316D028337FC800631EE601639567065C
:100C100050C913962600331FCE003396C800337791
:100C2000E741518F8506E39DB6FC18C11307F00F0D
:100C30006372070554410146130E8002930E80042F
:100C40002143130786003317E028B375E800631FBC
:100C5000B7006396C70358C913172600BD45B3955F
:100C6000E5003397E800B3F6B640D98E0506E31ADF
:100C700066FC54C18280E39ED7F910C959BFE39D39
:100C8000D7FD18C9D1BF19C20CC982804CC9828056
:100C9000371701409D479306078063F8B702938793
:100CA00085FF93F7F70F631AD506B70601408C4608
:100CB0008A073D473317F70033F7E54098C6984653
:100CC000B317F600D98F9CC682806308D5029307BC
:100CD00007C0630AF508631CE51637070140544B4B
:100CE0008A05BD47B397B700B3F7F6405CCB5C4BC2
:100CF000B315B600DD8D4CCB8280370701405443DD
:100D00008A05BD47B397B700B3F7F6405CC35C43B1
:100D1000B315B600DD8D4CC38280930607C0630413
:100D2000D5026312E510B70601408C4E8A073D4795
:100D30003317F70033F7E54098CE984EB317F60017
:100D4000D98F9CCE8280B70601408C4A8A073D47E6
:100D50003317F70033F7E54098CA984AB317F600FF
:100D6000D98F9CCA82803707014054478A05BD4706
:100D7000B397B700B3F7F6405CC75C47B315B6004E
:100D8000DD8D4CC782803727014013070780AE876F
:100D90006318E5043707014054538A05BD47B397EC
:100DA000B700B3F7F6405CD35C53B315B600DD8DE6
:100DB0004CD3828037270140130707806312E50276
:100DC000B70601408C568A073D473317F70033F7C3
:100DD000E54098D69856B317F600D98F9CD68280F6
:100DE00037270140130707C06317E5088A073D4707
:100DF0003317F7003316F6009D471347F7FF63FBE1
:100E0000B700B7070140945B758F98DB985B518FF3
:100E100098DB8280B7070140D457758FD8D7D85751
:100E2000518FD8D7828013070740E315E5F8B7063E
:100E300001408C528A073D473317F70033F7E540EE
:100E400098D29852B317F600D98F9CD2828013079C
:100E50000740E31AE5F237070140544F8A05BD47C2
:100E6000B397B700B3F7F6405CCF5C4FB315B6004D
:100E7000DD8D4CCF8280828099C5371702401C4F90
:100E8000C98F1CCF8280B7170240984F3375A74097
:100E900088CF828099C5371702405C4FC98F5CCFDD
:100EA0008280B7170240D84F3375A740C8CF8280E1
:100EB00099C5371702405C57C98F5CD78280B71736
:100EC0000240D8573375A740C8D7828093F5F51FE5
:100ED0004EA182800A216D8D3335A000828083A7C8
:100EE000C18D37470F0013070724B3D7E7022392BA
:100EF000F18E1307803EB387E70223A0F18E828034
:100F0000B7F700E0D843759BD8C303D7418E9387CA
:100F1000070823A407003307A70298CB114798C3FB
:100F200098431367170098C3B7F700E0D843098BBD
:100F300075DF938707089843799B98C38280B7F73A
:100F400000E0D843759BD8C303A7018E9387070899
:100F500023A407003305E502114788CB98C39843C3
:100F60001367170098C3B7F700E0D843098B75DF04
:100F7000938707089843799B98C38280EFF28FBECE
:100F80002E893284814463C5840022856FF0CFBFEF
:100F90009305000437250040353F7DD9B3079900FC
:100FA00083850700372500408504B3C50508393F10
:100FB000D9BFB7060C20AA8703A5463A13878148F4
:100FC000AA9763EBE70037071020130707806365D4
:100FD000F70023A2F63A82807D558280EFF28FB827
:100FE00079711306400281456800EFF0AFBA85457C
:100FF00009655935EFF0BFA7930700147C8783A7D5
:10100000018468003EC8B7070C2083A7073C3ECA8E
:10101000B70700023ED0930700F82302F10285478C
:101020003ED6EFF01FA60145FD3C0145193EB7E74E
:1010300000E03707000123A6E710238C074685450B
:101040007D45313E0545EFF05FAC0545EFF05FAA09
:1010500045616FF06FB303A70184B76702409387C0
:10106000078098C737070C200327073C0545D8C7DA
:1010700023A8018E23AA018E23A6018E6FF05FA7FD
:10108000EFF24FAE37140140130404C00549894400
:10109000232824011305400604C8553544C8130508
:1010A000401F232A2401613D130540062328240103
:1010B00079351305400604C85935EF00706A0DE113
:1010C0001305803EAD3DEF1080061305803E853D43
:1010D000EF10C0071305803E9D3509376FF0CFAA8A
:1010E0001305803ED1BFEFF2EFA4378A040041110F
:1010F00093074ABB3EC483A78186B78A0400B78B97
:101100000400378C0400B78C0400378D04000144C0
:101110006D49938A4AB53EC6138B4195938B4BBD5F
:10112000130C4CB7938C4CB9130D4DBFA247B2456D
:10113000A2978443B30754018843EF10C048EF10CF
:101140002009AA852685EF10807DB3077401B306B8
:1011500084018C422AC28843B3046401EF105067B3
:101160009245EF10903AB30794018C43EF10A045DD
:1011700037060C2088C013064651930459FE814D52
:1011800033CAA421B3C9C420924503250A00850DA2
:10119000310AEF10903723A0A900924503258AFF5A
:1011A000B109EF10903623ACA9FE92450325CAFF82
:1011B000EF10B035B7070C2023AEA9FE0D481386FB
:1011C0004751E3930DFDA504E39B24FB1389B40170
:1011D0009307300F1104E31BF9F441016FF04F99AD
:1011E000EFF24F95B7070C207971938747513EC6B0
:1011F000930705182E84938B4195814A130A0002A8
:101200003EC8214DED47B387FA02139BAA008149DE
:101210003EC46DA09108FD4763EC0705FD576315BB
:10122000F90091080149C5BF6304490593070018F7
:101230003305F802B1471ED67ED47AD21AD042CEF8
:1012400016CC46CAB305F90216952E95032505E876
:1012500083A50800EF10702BAA852685EF10A03615
:10126000B253A25F125F02537248E242D248AA848C
:101270000509E31179FA05080D0F6308B801B247B3
:101280001309FCFFB348FF2079B705038D47A50F6D
:101290006313F304930500002685EF1030146344B4
:1012A000A0009304000023A09C00050C910C631E79
:1012B0004C018509130B0B0263868903B7071320C2
:1012C000014C938D2900B34CFB2083A40B00A24F4B
:1012D000014393032C00C2471388F9FF7E8FB3426A
:1012E000F32071BF850A910BE39EAAF183A8C18602
:1012F00001493708152037061320131A4900131720
:10130000590081448DA883A70D00E28576C83E85EB
:101310003AC63EC4EF10900C3247C24E83A8C18635
:101320009146370613203708152013030010130EBB
:1013300000026354A000A2473E8C8509910DE394FE
:10134000D9FC850C130D0D0263863C018149B34D18
:10135000DD2155BF23A08B01938A0A02910B130B49
:101360000B4063866A005A8D814C468CC5B7910448
:10137000210A6389C4013A8B814AB34B0A21B3CE57
:10138000C420D5B71109E31A99F637590400B75AA2
:101390000400371B1520130949B58144938ACAB349
:1013A000130B0B80931CB028614CB387540183A9A5
:1013B0000700CA8B370A152083A50B0003250A00F6
:1013C000110A910BEF107014AA854E85EF10A01F23
:1013D000AA89E3136AFFB307940088C3910466994E
:1013E000E39584FD032A040013094400A2849309B1
:1013F0008401832A0900D2855685EF10207E63532D
:10140000A000568A1109E39629FF1309000008403D
:10141000D2851104EF10D03BEF003055232EA4FEEF
:10142000AA854A85EF10201A2A89E39289FE88400E
:10143000CA859104EF10A04E23AEA4FEE39999FE55
:1014400045616FE0FFF283A781908DEF83A7419004
:1014500083A501907D5563F5B70688231386170091
:1014600023A6A19023A2C1901308F00F63190501D0
:101470006377B600903301E6890723A2F190A14774
:1014800023A4F19083A78190FD1723A4F19003A5D5
:10149000C19003A7C18F3355F548FD4763CFE700DF
:1014A0009387419193563740BE968C229347F7FF1E
:1014B0009D8BB317F500CD8F9CA2050723AEE18E5F
:1014C0008280EFE23FEAAA84014901446345990022
:1014D00022856FE07FEB853F634605000604498C5B
:1014E0000509EDB77D54EDB7EFE23FE62A84930995
:1014F000451105498144454AB93763420504B3079C
:1015000024019C238604C98C85C703D70900B3072F
:10151000F740850763CEF400634C97009D8C3349F8
:1015200089208327491326943E9408386FE03FE5CD
:1015300005098909E31249FD130590C1C5BF7D5511
:10154000F5B7EFE23FE21306802F8145138501FFD7
:10155000EFE05FE41306802F8145138581CFEFE034
:101560007FE301456FE05FE2EFE2DFDCB307B50048
:10157000130101D73EC4224723A2A190414523A0D5
:10158000E1908137C167938787FD6302F5067D553A
:10159000130101296FE0DFDD414525378549E3D897
:1015A000A9FE930704FC1309E5FF639FF408214596
:1015B000093F4145393723AEA1904145193723A052
:1015C000A1922145FD3D23ACA1907599631C355D29
:1015D00023A4A18423A2A1841389C1CE9384C147EB
:1015E00013840147814983A7819163C1F90283A7CD
:1015F0004190224763FAE7004145E1354164930792
:1016000094FDAA84E31AF5F8014559B72145553DE3
:101610002145453D03A78184935745403D899CC0A2
:1016200008C06354F70023A4F18483A7418463D4E2
:10163000A70023A2A184214569352320A90085099B
:1016400011099104110445B79307B4FD639AF4029C
:101650009384812E93090004E35B20F9214595359D
:101660001374F5001A04014A2145A13DB3078A000D
:10167000A69788A3050AE3193AFF1309F9FBE9BF06
:10168000930744FC639AF40C938981CF138A8142B7
:10169000938AC144E35D20F521452535935C45409F
:1016A0001304C0173D8993FCFC0033048502639E3C
:1016B0000C08938701FF3E94C547054C014B454DEF
:1016C000B304F50285042145ED3B3307840193778C
:1016D000F50F1CA33387540163840C003387440146
:1016E0001375F50F1CA3050C2A9B8504E31DACFDA7
:1016F000A284330C8B00639C840513068413930629
:101700004411814705478145FD5845480CC2239047
:1017100016013305E400082109C9AA97B3C70708D1
:101720001383F7FF23906600AA9586070507110625
:101730008906B3C70708E31B07FD8547232CF4166A
:1017400093071B013309F940B1B74E94B5B7214552
:101750008D3B88B8850445B71304A4FD8149639087
:1017600084442145B93B138901CE938941CD138728
:1017700001CE938741CD2A8481443AD63ED8214573
:1017800063C784083D3B21452D3B21451D3B23AAD2
:10179000019023AE018E1306000281451385813E20
:1017A00023A80190EFE01FBF1306000281451385B7
:1017B000813CEFE03FBE83A7818483A6019282C271
:1017C00013973700B3E7D720FD17B3C7E70283A607
:1017D000C19182C482C602C6814C8144014C3ECE76
:1017E00083A7418413973700B3E7D720FD17B3C70A
:1017F000E7023ED09387C1CE3EDC83A741902247CB
:10180000E3F7E7DE930A4104014402C8B5A655395F
:1018100021454539935745402320F9009377F5003A
:1018200023A0F90085041109910991BF83A7C18FF5
:10183000138501FF3ECAB257A29798439307C0177A
:10184000B387E7023E954D312A8B03AA01919D474C
:10185000634FA00C63C147039387813EB347FA20CF
:1018600023A007009387813CB347FA20050A23A0F1
:10187000070023A84191014503ABC18F83A70A004C
:101880001306C00F8145330AF50023A04A01480919
:10189000EFE05FB0C25752C9130AC017A2979C432A
:1018A000130DF003BD4D330AFA02938781CFD2970F
:1018B0003ED2054A12550D39634BA00A32479D4767
:1018C00063D2E710D2571385812E94439D479A0621
:1018D00063CE97013307D50018234A46938781408A
:1018E0003307C702B3C7FC20850C98C310093287A1
:1018F000814713080004B385D700AA9583C8050063
:101900000C438507B38515030CC31107E39507FF47
:10191000140B8D6836850148938818D4A14E130F97
:101920000004B757040013874784AA85D5A863D25B
:101930004703EFF01FB9050A9307FBFF23A8419166
:10194000B317F028E35AF5F2B3176029FD171D8D80
:1019500025B79387813EB347FA2088C3EFF07FB65F
:10196000931D2A009387813CEE9788C3E9B793566D
:101970004540369A9377F500E3424DF581E7E39FC2
:10198000B6F30DBF3E853EDEEFF0BFB3F257938650
:10199000F7FFB316D0286356D500B317F028FD170C
:1019A0001D8DB757040093874794D2979C23180D39
:1019B000050AB3C7E72023A0A7E093070004E31BB1
:1019C000FAEEEDBD5247938781383307EB40CE974F
:1019D00098C303A7C18F93878136CE97330B674196
:1019E000D24623A067019387813ACE97158F98C37B
:1019F000D1BD83220E0083A30F000503910FB38294
:101A00007202110E9697E316D3FFB9879CC1B757A0
:101A10000400130707029387479491056300F702B8
:101A20001C4203230700930F4600B3871703130ECE
:101A30004700B987B3876702054365BF21081306CE
:101A4000060213050502E31EE8ED0D6801461308C2
:101A500018D4A1481303F00F014E9C083305F6007B
:101A6000B7570400138747843DA883AF0E00832235
:101A70000F008505130F0F02B38F5F02910EFE97C3
:101A8000E39515FFC18793870708B3C7670AB3E7D4
:101A9000C70B1CA1B757040013070702938747948D
:101AA0002105630FF7009C420C43138F0602B38796
:101AB0000703930E4700B987B387B702854575B70B
:101AC00005069106E31BB6F883A78184124781457A
:101AD000B387F402130E0004CA979396370083A7C6
:101AE000418493888600B307FC02BA9713973700A6
:101AF0009C0836863388F50083A70192635FF60061
:101B000003A5C191635BA7003385E70283A7C18466
:101B1000B297AA970345080088A305060508E31DA8
:101B200016FDA1050507E395C5FD05099109E247E5
:101B3000CA973EC6A2579C43E34AF9CE924785070F
:101B40003EC293870147A2979C4312476351F70215
:101B5000B24701493ECC939927009387C147A2978A
:101B60003ED4F1B7E25702C2A2973EDAD9BFC247CC
:101B7000910A110485073EC883A781914247E34338
:101B8000F7FEF2478504E3CAF4C68257050CE35D0D
:101B9000FCA681449DB12145EFF0BF928509E3CCBD
:101BA00029FFB1B47555EDB2B71701409843419B79
:101BB00098C398431367370098C398431377F7F097
:101BC00098C398431367070398C3054798CB094701
:101BD00098CB8280EFE20FF937140140094923289E
:101BE0002401854404C813052003EFF06FB11305E9
:101BF0002003232A2401EFF0AFB044C86FE0CFF8F0
:101C0000EFE24FF637140140894444C8130520031E
:101C1000EFF00FAF85471CC813052003EFF04FAE60
:101C20001305200304C8EFF0AFAD6FE0EFF5EFE26E
:101C30006FF337140140894413052003EFF04FACD4
:101C4000054904C82328240113052003EFF04FABF6
:101C500013052003232A2401EFF08FAA1305200384
:101C600044C8EFF0EFA96FE02FF2EFE20FEEAA8485
:101C7000214937140140094A85499397446063D943
:101C800007062328440113052003EFF06FA713056F
:101C90002003232834017D198604EFF06FA6137901
:101CA000F90F232A340193F4F40FE31809FC1C40C4
:101CB0001305200393F7F7F01CC01C4093E70708B7
:101CC0001CC0EFF0EFA31305200323283401EFF02D
:101CD0002FA30844232A34011C401355154893F7B9
:101CE000F7F01CC01C4093E707031CC06FE02FE90E
:101CF000232A440149BFEFE24FE5B717014098435B
:101D0000214901441377F7F098C39843B714014071
:101D100085491367070898C313052003EFF04F9E0A
:101D200023A834019C4406041374F40F898B81C7E3
:101D300005041374F40F130520037D19EFF04F9C75
:101D40001379F90F23AA3401E31809FC9C4022857A
:101D500093F7F7F09CC09C4093E707039CC06FE0AB
:101D60000FE2EFE22FE0AE842A89AD3513050006BD
:101D7000ED3D2A8413054006EFF08F984A85F5352E
:101D8000498C13054006EFF0AF972685F93D11C544
:101D90000544BD3522856FE02FDF1374F40F333413
:101DA0008000C5BFEFE20FDC41112A842535130501
:101DB0000006653D13054006EFF08F9422857535CA
:101DC00013054006EFF0CF93253D13054006EFF0D5
:101DD0002F93EFF03FE013051006413D1305400639
:101DE000EFF00F92093F2AC69935EFF07FE13245B7
:101DF00041016FE06FD9EFE2EFD641118545130540
:101E000090073714014002C202C402C6EFF08F8867
:101E1000C1478D444C00130504C03EC6648226C4ED
:101E2000EFE07FD8130980044C003715014064822D
:101E30004AC6EFE05FD73546130504C09D45EFE085
:101E40003FE5930700084C00130504C07C824AC696
:101E5000EFE07FD5130504C03D46B145EFE05FE3F9
:101E60002146130504C0B545EFE09FE289674C00A9
:101E7000130504C07C82B72401404AC6EFE0BFD2FC
:101E8000138504802D468145EFE09FE01385048093
:101E90002D468545EFE0DFDF138504803546894513
:101EA000EFE01FDF1385048035468D45EFE05FDEF0
:101EB0001385048035469145EFE09FDD138504804E
:101EC00035469545EFE0DFDC3546138504809945BE
:101ED000EFE01FDC9307F0074C00138504807C8241
:101EE0004AC6EFE05FCC3546130504C09945EFE0E4
:101EF0003FDA930700044C00130504C07C824AC6F5
:101F0000EFE07FCA3546A94537150140EFE05FD8BD
:101F10003546B14537150140EFE09FD78567938778
:101F200007404C00371501407C824AC6EFE0BFC72E
:101F30001305044035469945EFE09FD53546130516
:101F400004408945EFE0DFD4930740044C001305BB
:101F500004407C824AC6EFE01FC541016FE0CFC25A
:101F6000EFE24FC0EFF03FE937140140854713041B
:101F700004C05CC82945EFE09FFC8944294544C85A
:101F8000EFE0FFFB04C8EFF03FC285451305F00FFB
:101F9000EFF03FDD930500084945EFF09FDC1305A6
:101FA0002003EFE0DFF97145EFF0DFDF1314850068
:101FB0007545EFF03FDFA16733440408938727FAA4
:101FC000B3658500B3C50508638BF500375504007C
:101FD00013054598EF10205205456FE0EFBA2945EB
:101FE000EFF05FDC131485002D45EFF0BFDB896750
:101FF0003344040893872764B3658500B3C5050897
:10200000638AF5003755040013050599EF10A04EBB
:102010000945E1B7375404001304849D9304441622
:102020000C3008200904EFF0DFD3E31B94FE0145D8
:102030006DB7EFE22FB3375404001304849C93046C
:1020400004010C3008200904EFF0BFD1E31B94FE1B
:10205000375404001304849B9304E4000C300820DC
:102060000904EFF01FD0E31B94FE6FE0EFB1EFE245
:102070006FAF375404001304C4999304C4010C30A7
:1020800008200904EFF0FFCDE31B94FE6FE0CFAF13
:10209000B367B5008D8BADE3EFE2CFACAA842E849D
:1020A0001305F00F8145EFF0DFCB91451305000ECE
:1020B000EFF03FCB93D5240093F5F50F1305A00562
:1020C000EFF03FCA9355240093F5F50F1305B005C3
:1020D000EFF03FC993D5A400218011888D89C18D6F
:1020E0001305C005EFF0FFC781451305000EEFF0A3
:1020F0005FC701456FE04FA905458280EFE28FA6DB
:102100002E84AA8481451305F00FEFF09FC5A685A4
:102110001305300DEFF0FFC485451305F00FEFF008
:102120005FC4A2854545EFF0DFC36FE0EFA5EFE2A6
:102130006FA3EFF0DFF3930500141305000FEFF02A
:102140003FF5854505455D3F6FE00FA4EFE28FA1A8
:10215000EFF03FEE9305000F13050014EFF05FF36F
:1021600085450545613F6FE02FA2411122C426C27B
:1021700006C6AA8455202A8426853D291DC197E5D7
:10218000010083A565372685EF0050256351A00225
:10219000EF100036930720021CC117E4010003244E
:1021A0006435B2402285224492444101828097E501
:1021B000010083A5A5342685EF00B02BE35305FE6F
:1021C000EF100033930720021CC113040000D1BF9D
:1021D000411122C426C206C6AA8461242A84A68587
:1021E0002685EF1060161DE1930500002685EF009F
:1021F0005028635D0500EF10A02F93071002930590
:1022000000001CC12E85EF0080712A84B240228517
:102210002244924441018280011122CC06CE26CA7A
:102220004AC84EC652C456C23707807F2A84AA8540
:102230009317F5496364F71C1359F501639EE70092
:10224000631E0920F24022856244D2444249B249C9
:10225000224A924A056182803777B142130777217B
:10226000635CA7006244F240D2444249B249224A28
:10227000924A014505611DAE6352050237F7CF4210
:102280001307571B637CF7006244F240D244424973
:10229000B249224A924A0145056119A63777B13EF3
:1022A000130787216374F7123717853F13071759F0
:1022B000931429006366F70C9387018CA6978C43CF
:1022C0002285EF00F0509387818BA69703AA070021
:1022D0008544B3842441AA89B3842441D2854E85A0
:1022E000EF00104F2A84A2852285EF00102297E587
:1022F000010083A525222A89EF00302197E50100FE
:1023000083A58521EF00D04CCA85EF00102097E50A
:10231000010083A5A520452CCA85EF00101F97E575
:10232000010083A5E51FEF00B04ACA85EF00F01D4C
:1023300097E5010083A5051F7924CA85EF00F01CED
:10234000AA852285EF00D048AA852A892285EF0038
:10235000D01BAA8ACDE897E5010083A5E51C4A8534
:10236000EF001047AA8556855D2BA285EF005046E9
:10237000AA8517E501000325A519EF00704541A0C6
:1023800097E5010083A5C5172285EF0010189387F4
:10239000818CA6978C43052CEF00D07EAA84EF1089
:1023A000200997E5010083A5E5152A89EF00F015BE
:1023B000AA852285EF00D041AA8997E5010083A56F
:1023C000A5144A85EF0070142A8A09BF3707003424
:1023D00063F9E70297E5010083A545132285E5220D
:1023E00097E5010083A5C512EF00407F635BA00065
:1023F00097E701009387C7118C432285E9222A843D
:1024000091B58144CDB5CA8517E501000325C511F5
:10241000EF00103CAA8556851923AA855285EF0046
:10242000303BCE85EF00D03AAA8517E501000325A1
:10243000250EEF00F039930730F863C6F400DE0490
:102440003384A40001B593844406DE0497E50100BB
:1024500083A5C50D2695EF00500B55B7130400005A
:10246000D5B3011122CC06CE26CA4AC84EC652C4E4
:10247000B706807F2A849317F54963E2D702AA85BD
:10248000EF00B008AA8522853D2A2A84F2402285E1
:102490006244D2444249B249224A05618280FDD752
:1024A000AA8763580500AA85EF009032AA8585297E
:1024B000E9BFE98E13577541C5C2130717F8A60780
:1024C000A583937617009397772991C286071354B3
:1024D00017408607654681440145B7060001B305EC
:1024E000D5003E8763C7B7003385D5003387B74033
:1024F000B6947D1693171700858275F21DCF138948
:102500004185938901850325090083A50900032AD4
:102510000900EF00F02BAA855285A12F634FA00080
:102520000325090083A50900032909006928AA8554
:102530004A8581276356050289048584B707003FD1
:10254000BE945E04269499B78607850633F6B700D5
:1025500065DEFD16158F95B78146B7058000FDB77E
:102560008504F998D9BF411122C426C206C62A841F
:10257000AE84EF00F07704C1B24022852244924439
:1025800041018280411106C611C91395F569B52F25
:10259000B2409305200241016FF0FFFC2E85C5BFBC
:1025A00097E5010083A5C5F86FF0DFFD97E5010011
:1025B00083A545F86FF01FFDB707807F1315F54918
:1025C0003325F5008280370780007D17935675010B
:1025D00013D67501B377A70013F3F60F6D8F135859
:1025E000F5011376F60FFD81C2888E070E07B3063C
:1025F000C3406301B804635FD00021EE630A071093
:102600001386F6FF630C062A9305F00F638DB6164A
:10261000B286B1A0D5CAB3066640631C031CFDC7D1
:102620001385F6FF6307052C1308F00F638B06155F
:10263000AA86F1A2635BD0145DCE1306F00F63048B
:10264000C3141317A7296D46635AD61E85079A86A9
:1026500081A01306F00F6308C3121317A729ED45D5
:10266000054663CDD50013060002158E3316C7004C
:10267000B356D7003337C00033E6E600918F3707F3
:102680000004B3F6E700DDEE13F777009A8649C33E
:1026900013F7F70011466303C700910737070004DB
:1026A0007D8F3DC7138516001307F00FC2886302A4
:1026B000E508139767001375F50F25835E05598D9F
:1026C0009397F8015D8D8280130613001376E60F51
:1026D000631B06146314030A63890720630207104F
:1026E0003385E74037060004698E63060622B30788
:1026F000F7402E8841A009CF1386F6FF6308061A1B
:102700009305F00F6381B608B28635BF2E88BA876D
:102710001307F00F8D836397E60CDDC31305F00FED
:102720008148370740005E05598D9397F8015D8D0C
:1027300082801305F00F01475E05598D9397F801CC
:102740005D8D82807D1733F6E70093170660ED17E5
:102750003316F60063C16706B386674085069307A4
:102760000002958FB317F600B337F0003356D6004A
:10277000D18F814613F7770001FF0DB763950714DA
:1027800051DF2E88BA878D8349BFA1C2B306664048
:102790006316030EADDF9385F6FF638905101305FD
:1027A000F00FE381A6FEAE86ED4563D2D512930706
:1027B0001700B286F1BDB306F3409317A6495DBF7B
:1027C000C2881305F00F0147D5BD9306130013F619
:1027D000E60F45EE6317030E6382071263120712BA
:1027E0008D838146A60713D7970013F5F60FC2888D
:1027F000F1B51305F00FE306A6F89397A7296D48E6
:102800000545634DD80013050002158D3395A700CB
:10281000B3D6D700B337A00033E5F600B307A7401F
:1028200032832E88A9BD3386E740B7060004F18EB7
:10283000B5EA01FE81480145014749B5130600028A
:10284000158E3316C7003357D700B336C000558FE7
:10285000BA97370700047D8FE30807E29306130059
:102860001305F00F0147E38BA6E43706007E13D76C
:1028700017007D16858B718FD98FEDBD9305F00FF5
:10288000E302B6F09397A72905B71306F00FE3828A
:10289000C6EA3E979357170013F67700E31A06DE51
:1028A0008D8389B73306F7402E8845B5BA97370729
:1028B00000047D8F894605434DFBF9B3998F05438D
:1028C0007DBBE38107ECE31B07E48D83B9B593057A
:1028D0000002958DB395B700B3D6D700B337B000DB
:1028E000DD8EB387E6003283ADB729D72E88BA874D
:1028F000C5BDB307F7402E88054351B3BA87CDB5A0
:10290000BA97370600047D8E814659DA9397A74916
:1029100085468D83C1BDAA8711DD8D83E1B59357AF
:1029200075019318950093F7F70F93D898007D8160
:10293000F1CB1307F00F638DE70C8E08138617F8A1
:102940000147014E9398A82993D775019396950056
:1029500093F7F70FA582FD81C9C71308F00F6380B5
:10296000070D8E06938717F8814E9396A6293D434F
:102970003348B5001D8E6366E31A1753FADF13035D
:10298000A36B334767201C439A9782879307F00F06
:10299000014713957701598D7E08336505018280C3
:1029A0008D476304FE028547631BFE0E2A8881471C
:1029B000014713957701598D7E08336505018280A3
:1029C0008D472E85B688639CFE0C9307F00F370762
:1029D0004000139577010148598D7E083365050144
:1029E0008280C1EA13671700B5473348B500E3EFAB
:1029F000E7F89756FADF938626683347D7201C43BB
:102A0000B6978287639A080411470146054E2DBF89
:102A1000639F080221471306F00F094E35B795E270
:102A2000136727007517AD463348B500E3E1E6F8B4
:102A30009756FADF9386C6673347D72018433697F1
:102A40000287136737009307F00F8D4E0DB731479C
:102A50001306F00F0D4ECDBD139708609307B7FF17
:102A6000B398F8009307A0F83386E740014E01477A
:102A7000E1BD139806609307B8FFB396F60093077D
:102A8000A0F8B3870741814EDDB5130616F08947DC
:102A9000E318FEF02A889307F00F0147DDBD2A886E
:102AA0009307F607635EF00213F7780019C713F770
:102AB000F80091466303D70091083707000833F701
:102AC000E80009C7930706089398B8491307E00F71
:102AD000E34EF7EA13976800258393F7F70F55BD88
:102AE000854699C79D8EED4581470147E3C3D5EAE9
:102AF0001307E6093397E8003337E000B3D7D8006F
:102B0000D98F13F7770019C713F7F70091466303BE
:102B1000D7009107370700047D8F55CB85470147C4
:102B20008DBD4167139356007D179355030133778D
:102B3000E30063F8D806B3D6B802C6877D1681488D
:102B40003385E602B3F7B702C207B3E7170163F8AC
:102B5000A7009A979388F6FF63F66706C686898F63
:102B600033D5B702B3F7B7023307E502C20763F202
:102B7000E702B3856700B3B8F500130EF5FFAE8723
:102B80006398080063F6E5007915B387650011A026
:102B90007285C206998FC98EB337F000B3E8F6008C
:102BA00001B793D71800B3D6B702FE0893D808012F
:102BB0003385E60241BF2E852A88D5BB01483707F9
:102BC0004000C1BBE3FCA7F8F9169A9749BF9A07E2
:102BD00013D79700814775BB2E856DBD13567501C0
:102BE000370780007D1793D675011376F60F13080B
:102BF000F00FB378A7009357F5016D8F13F5F60F1B
:102C0000FD8163050603630A050105EA09E939C385
:102C1000639E0804A1C92E85828039E719E2E38BFF
:102C200008FE6399B7009DCF3E858280639E0802AF
:102C30006305C50205459DE782806DDDE39CB7FE17
:102C4000E34AC5FEE341A6FEE36617FF0145E3EC58
:102C5000E8FC8280E39008FE828019E7E39CB7FCE1
:102C6000014582807D55828079558280E38EB7FC54
:102C7000D1B713567501370780007D1793D67501BC
:102C80001376F60F1308F00FB378A7009357F501EA
:102C90006D8F13F5F60FFD8163060603630A0501C8
:102CA00005EE11E929CB639F0804B9C92E858280FE
:102CB000094501EB19E2E38A08FE638BB70205457B
:102CC000A1E38280639C0802E31BC5FE094575FBF6
:102CD000E397B7FE014582807DD1E392B7FEE340E2
:102CE000C5FE6347A600E36C17FD0145E3FBE8FC66
:102CF00081CB3E858280E39408FC828009458280F6
:102D00007D558280E381B7FE5DBF93577501131730
:102D1000950093F7F70F935897007D81638507100F
:102D20001307F00F6387E7108E08938617F80147A3
:102D3000814E9398A82993D775011398950093F71E
:102D4000F70F13589800FD81F9C31306F00F63883D
:102D5000C704938717F8338ED7000E08A94701469A
:102D600093061E001318A82963C3E7103343B50068
:102D700009451A8F6344E5047D17854563EEE51226
:102D80006300A60C85477A83631BF60481470146DE
:102D900013957701518D9317F3015D8D8280138E0A
:102DA000F60F630A080A3343B50013673700294654
:102DB0001A8F938606106344E6200D463317E028E9
:102DC0001375075319CD8947638CFE068D476384BD
:102DD000FE027686854746887A83E309F6FA368EC0
:102DE000A9A29377072481EB1377870871C72E8FE9
:102DF000C288B28EC9BF9307F00F01433706400067
:102E000013957701518D9317F3015D8D82806314C3
:102E10000808368E13671700A947054693061E005B
:102E2000E3D6E7F4A9A0639B080411478146854EC9
:102E300019B76390080421479306F00F894EE5BD4A
:102E40009307F00F7A83014613957701518D9317FD
:102E5000F3015D8D828013672700A94793860610D2
:102E600039430946E3D4E7F0AD47E302F3F82A8F8C
:102E700099BF31479306F00F8D4E75BD13970860CB
:102E80009307B7FFB398F8009307A0F8B386E7401D
:102E9000814E01474DB5931708601386B7FFB3877E
:102EA000F640138EA7F8A9473318C80093061E00F2
:102EB0000146E3DDE7EA65BFC16E9387FEFF93D568
:102EC000080113550801B3F8F800B377F80033860A
:102ED0001703B387F50213570601B3081503BE980D
:102EE0004697B385A5026373F700F69541657D1596
:102EF000B377A700698EC207B2971396670013587D
:102F00000701E9833337C0002E98D98F1A08336838
:102F1000F800B7070008B377F80081CB9357180083
:102F20001378180033E80701368E9307FE07635EB7
:102F3000F0021377780019C71377F80091466303FE
:102F4000D7001108370700083377E80009C793074F
:102F50000E081318B8491307E00F6349F704131656
:102F60006800258293F7F70F25B5054799C71D8F90
:102F7000ED4681470146E3CDE6E0130EEE09331E30
:102F8000C801B357E8003337C001D98F13F7770072
:102F900019C713F7F70091466303D7009107370766
:102FA00000047D8F01CB85470146DDB39307F00F09
:102FB0000146F9BB9A0713D697008147D1BB3D4E16
:102FC000014337064000E305C7DD2D430D4669BDCB
:102FD000B7078000FD1713D6750133F7A700935686
:102FE00075019358F501ED8F1376F60F1308F00F66
:102FF00013F5F60F46830E07FD81939637006302A3
:10300000060593C51500B307C540638FB800635824
:10301000F03035E6638C06141386F7FF6302062A48
:10302000638E0703B28785A06356F0306DCA6307CD
:1030300005039396A6296D466350F6140507AA87E3
:10304000ADA8930715F0CDE693C515006382B80EC1
:10305000638E071863070510AE8836870D8313F358
:1030600018001305F00F3DCF1305F00F014337078C
:1030700040005E05598D9317F3015D8D8280E30F4B
:1030800005FD9396A629ED45054663CDF50013068B
:1030900000021D8E3396C600B3D6F600B337C000CB
:1030A00033E6F600118FB7070004B376F700639399
:1030B000061093767700AA87D5CA9376F700114653
:1030C0006383C6001107B7060004F98EC5C28507E1
:1030D0009306F00F13F318006385D70C1A0713F546
:1030E000F70F25835E05598D9317F3015D8D82805F
:1030F000E390B8F6B1C36313051C9307F00F35C70F
:103100009385F7FF638805121305F00F6388A71AEC
:10311000ED4763DDB71A13871600B28779BFB9C6CA
:103120001386F7FF63080610E38A07F3B28721B717
:1031300081C761D501471DB79307150013F6E70F47
:1031400063180614631B05166309071A6399061AA8
:103150000D8381472607258313F5F70F13F3180016
:1031600051B79307F00F65EBAE8836879306F00FE3
:103170000D83E386D7EEF9BF130600021D8E33964A
:10318000C6003336C000B3D6F600D18E3697B707E7
:103190000004F98F99DF930715009306F00F6393EE
:1031A000D70A1305F00F01475E05598D9317F301F8
:1031B0005D8D8280FD173376F70093170660ED175B
:1031C0003316F60063C8A704898F8507130700022A
:1031D0001D8F3317E6003337E0003356F600518F6A
:1031E000814793767700E39A06ECF1BD93071500CB
:1031F00093F7E70F8DE755E96DCFB9DAB307D740FD
:10320000370600047D8E630706103387E64081474A
:10321000AE88C1BFB307F5401317A649D9B7330627
:10322000D740B7070004F18FC9E741FA01430145D0
:1032300001474DBD3697B7060004F98E894705450D
:10324000E38906E63706007E935617007D16058B48
:10325000F18E558F79B71388F7FF630708081305B8
:10326000F00FAE88638CA704ED45854763CE05015A
:1032700093070002B3870741B317F70033580701DC
:10328000B337F000B367F8003387F640328521BDCD
:103290001306F00FE387C7F0BA9613D7160013761C
:1032A0007700E31C06E00D8375B511EFE38E06DAB7
:1032B00065B33386E640AE8809B711E7368779BB38
:1032C000158F0545CDB3E38B06D879BB9307000274
:1032D0008D8FB317F700B355B700B337F000DD8D0E
:1032E0003387D500328565B53387E640AE8805451E
:1032F0005DBB8DDEAE883687A1BD368791BD369722
:1033000037060004798E814759DE1317A749854790
:103310000D8389B581DF3E870D83814725BDE38716
:1033200007EC3308A640C287E30F05E2AE88131707
:10333000A7291DBFE38207E0B305A64019E1AE87C8
:103340007DBB1317A729E9B3935675013707800092
:103350007D1713D6750193F6F60F1308F00FB377A8
:10336000A7001376F60F6D8F638B06019307F00F9E
:1033700001456303F60082803335E0008280054515
:10338000F5D7828013577501931795001377F70FC0
:103390001306E00793D697009357F501635BE600A9
:1033A0001306D0096359E600370500807D153E9568
:1033B0008280014582801306500993967629634DD9
:1033C000E600130660093307E640B3D6E60033058E
:1033D000D040EDF3368582801307A7F6B396E6005A
:1033E000FDB713577501931795001377F70F130661
:1033F000E00793D697009357F50101456353E60024
:1034000091C382809307E0097D55E3CCE7FE130664
:103410005009939776296357E6001307A7F633956B
:10342000E700828013056009198D33D5A7008280DB
:103430001DCDB306A0409307E009B366D50A130675
:103440006009939506608D8F1357F5016349F60265
:103450002146638AC508E115B396B60013F5F70F48
:10346000A606A5825E05558D7E07598D828001478F
:10347000014581465E05558D7E07598D8280130674
:1034800090096346F60415461385B5FF6384C500AD
:10349000B396A60013F576001396A64919CDBD8AFA
:1034A0001145638CA6001106B7060004F18E91C683
:1034B0009307F0098D8F1316A6499316660013F52E
:1034C000F70FA5825E05558D7E07598D8280138684
:1034D000B50115453396C6000D8DB3D6A60033361B
:1034E000C000D18E45BFA606A5821305600959B755
:1034F00003A5818582805D7122D406D62A842EDAC6
:1035000032DC36DEBAC0BEC2C2C4C6C603A58185DF
:1035100011C51C4D81E72AC6D52032450C455418EB
:10352000228636CE0529B250225461618280411133
:1035300022C406C62A844EA572A523200500232294
:103540000500232405002322050623280500232A3D
:103550000500232C0500214681451305C505EFC054
:103560007FE3970700009387476D5CD097070000C3
:103570009387676F1CD497070000938727735CD4E9
:103580009707000093876775B24000D01CD822448B
:1035900041018280971500009385C5A749A241117A
:1035A00026C2930780069384F5FFB384F4024AC0D1
:1035B0002E8922C406C6938544071D242A8401CD82
:1035C0002320050023222501310508C41386840623
:1035D0008145EFC03FDCB24022852244924402493B
:1035E000410182801385819245A21385819271AA3F
:1035F0001385C19251AA1385C19241AA411122C4D7
:1036000006C62A84EFF0DFFE1C4C91C72244B2406C
:1036100041016FF05FFE970700009387E7F71CD426
:1036200023240404232604042328040483A7018DEF
:103630006394870085471CCC2285152848C02285C5
:103640003D2008C42285252048C4484001469145B4
:10365000EFF0FFED08440546A545EFF05FED484467
:103660000946C945EFF0BFEC85471CCC45B7411171
:1036700026C24AC006C622C42A89EFF0BFF683A438
:10368000018D9C4C81E72685EFF05FF793848404DD
:103690008044DC40FD1763D607009C40A5C78440EA
:1036A000C5BF0317C40021EFC17785075CC41305AC
:1036B000840523220406C128EFF03FF3214623208E
:1036C0000400232404002322040023280400232AC6
:1036D0000400232C040081451305C405EFC09FCBD3
:1036E000232A0402232C0402232404042326040492
:1036F000B24022852244924402494101828013044F
:10370000840649BF91454A85EFF07FE988C02A8445
:1037100059F5EFF09FEDB1472320F900D1BF797142
:1037200022D44AD04ECE52CC5AC85EC606D626D235
:1037300056CA2A892E8A130485048149054BFD5BEC
:103740000444832A4400FD1A63D00A0200406DF845
:10375000B250225492540259624AD24A424BB24B5E
:103760004E85F24945618280DE24637BFB008397AE
:10377000E40063877701A6854A85029AB3E9A90028
:1037800093848406C9B782808280828041114AC0B6
:10379000138901938327090022C426C206C6AA847E
:1037A0002E8489E78145A5212320A900A2852685AD
:1037B000B9297D59631A25017D54B24022852244DE
:1037C0009244024941018280130435007198E30656
:1037D00085FEB305A44026851D29E31025FFE9BF1A
:1037E000011126CA93843500F1984AC8A104B14753
:1037F00006CE22CC4EC62A89B3F4F40A63C4040070
:1038000063FDB400B1472320F9000145F240624452
:10381000D2444249B24905618280EF00501B93892E
:10382000419383A709003E8421E8A6854A85EFF0ED
:10383000FFF5FD572A846319F50A03A40900A2873E
:10384000D1EB8329040081454A85A299C926639654
:10385000A9081C408D044A859D8CF198B147A104AC
:10386000B3F4F40AA685EFF07FF2FD576307F5067F
:103870001C40A6971CC015A01440858E63C9060481
:103880002D47637ED70204C03307940063978702F5
:1038900023A0E9005C4014C35CC34A85EF00B01369
:1038A0001305B4009307440061993307F540E30F13
:1038B000F5F43A94898F1CC091BFD8C3E1BF58403A
:1038C0006395870023A0E900C9BFD8C3F9B7A287D1
:1038D000404099BF3E84DC43A5B7B1472320F9009F
:1038E0004A85EF00500F15B704C145BF1C46FD17B0
:1038F0001CC663D90700184E63C5E700A947639348
:10390000F500E9AE1C422E851387170018C28CA360
:103910008280011122CC26CA4AC84EC652C406CEA5
:103920002A89AE893284B304D6007D5A6314940088
:10393000014509A80C204E864A85EFF03FFB05049F
:10394000E31645FFF2406244D2444249B249224A5A
:1039500005618280357122CD26CB4AC94EC706CF7C
:1039600052C556C35AC1DEDEE2DCAA892E843289F2
:10397000B68409C51C4D99E3EFF05FC89747FADF9D
:103980009387077A6317F40403A449007C50858B5E
:1039900081EB5E2493F7072081E7284CEFF0DFDE10
:1039A0005E24A18B99C31C48B9EFA2854E852129BD
:1039B00039C97C50858BA1C37D55FA406A44DA44ED
:1039C0004A49BA492A4A9A4A0A4BF65B665C0D6133
:1039D00082809747FADF9387A7726315F40003A4E8
:1039E00089006DB79747FADF9387876FE310F4FA82
:1039F00003A4C90061BF5E2493F70720D5FF284CBC
:103A0000EFF0BFD855BF93070002A304F10293075C
:103A1000000302D22305F10226C6930B5002974AF7
:103A2000FADF938AEA71294BCA849C2099C3639B6D
:103A30007709338C2441638E2401E2864A86A2856D
:103A40004E85EFF01FEDFD576307F5189257E2978B
:103A50003ED29C2063810718FD571389140002C8C9
:103A600002CE3ECA02CCA309010482D483450900D8
:103A700015465685EF002074C2479304190029E5C6
:103A800013F7070109C713070002A309E10413F79D
:103A9000870009C71307B002A309E10483460900A0
:103AA0001307A0026389E602F247CA8481462546CD
:103AB000982093851400130707FD6372E60685C6F8
:103AC0003ECE15A0850495B733055541B397A72879
:103AD00026893EC861BF324793064700184336C661
:103AE000634807023ACE98209307E002631CF7046C
:103AF00098309307A002631AF702B247890413872C
:103B000047009C433AC67D57B3E7E70A3ECA1DA863
:103B10003307E04093E727003ACE3EC8E9B7B387C2
:103B20006703AE848546BA9761B7850402CA8146A9
:103B300081472546982093851400130707FD63727B
:103B4000E606E9F68C200D461745FADF1305C55F3A
:103B50009D2511CD9747FADF9387075F1D8DC247DB
:103B6000130700043317A700D98F85043EC88C20A3
:103B700019461745FADF1305655D13891400230400
:103B8000B102152D35C99307000095E74247B247AA
:103B90001377071009CF91073EC69257D2973ED2AE
:103BA00061B5B3876703AE848546BA9761B79D0751
:103BB000E19BA107D5B77800970600009386A6D5AC
:103BC00022860C084E8597000000E7000000FD5794
:103BD0002A8AE314F5FC7C50858B81EB5E2493F7F5
:103BE000072081E7284CEFF05FBA5E2493F70704C3
:103BF000E39407DC1255D1B3780097060000938652
:103C000086D122860C084E85EF002078C9B7411175
:103C100022C42A842E8523AC019206C6EFD06FB948
:103C2000FD576316F50083A7819391C31CC0B24072
:103C3000224441018280411122C42E848395E500F3
:103C400006C6EF00501C634905007C48AA977CC853
:103C5000B2402244410182805E249397C7485EA40B
:103C6000C5BFDE25011122CC26CA4AC84EC606CEE3
:103C700093F70710AA842E843289B68991C7839559
:103C8000E5008946014621295E248315E400F240BF
:103C90009397C7485EA46244CE864A86B249424999
:103CA0002685D2440561D5A8411122C42E8483956E
:103CB000E50006C6ED267D575E246319E50093975F
:103CC000C7485EA4B2402244410182809397C7282E
:103CD00068C85EA4C5BF8395E500F1AA011122CC96
:103CE00026CA4AC806CE4EC6AA842E89328409C581
:103CF0001C4D99E3EFF09F909747FADF9387474277
:103D00006317F402C0401C4C1CC45E24A18B99C3F1
:103D10001C4895EFA28526857D2015C97D59F24066
:103D20006244D244B2494A8542490561828097473C
:103D3000FADF9387E73C6314F4008044E9B79747C0
:103D4000FADF9387E739E310F4FCC0446DBF1C48E9
:103D500008409379F90F1379F90F1D8D5C4863467C
:103D6000F500A28526856D2455F91C440505FD172F
:103D70001CC41C401387170018C0238037015C48FF
:103D80006388A7005E24858BD9DBA947E319F9F87E
:103D9000A2852685B52C41D551B7411122C42A846C
:103DA0002E85B285368623AC019206C6EFD00F9DD4
:103DB000FD576316F50083A7819391C31CC0B240E1
:103DC000224441018280411122C426C24AC006C653
:103DD00083A481852A892E8491C49C4C81E7268501
:103DE000EFF0DF819747FADF938787336313F4029D
:103DF000C0408317C40013F7870025E713F70701B6
:103E00000DEB25472320E90093E707045EA47D55C9
:103E100071A09747FADF9387A72E6314F4008044BC
:103E2000C9BF9747FADF9387A72BE314F4FCC0447C
:103E3000C9B7918B9DC34C5889C9930744046384C7
:103E4000F5004A85692E232A04025E2423220400F9
:103E500093F7B7FD5EA41C481CC05E2493E787005F
:103E60005EA41C4899EB5E241307002093F70728F3
:103E70006385E700A2854A8565248317C40013F78C
:103E800017001DC35848232404003307E04018CC12
:103E90001848014501E713F707083DF7B2402244EF
:103EA000924402494101828013F72700814611E3C1
:103EB000544814C4F1BF411122C42A842E8523AC76
:103EC000019206C6EF00A07BFD576316F50083A79D
:103ED000819391C31CC0B2402244410182808397E8
:103EE000C500011122CC26CA06CE4AC84EC613F719
:103EF0008700AA842E8479E3D8416345E000B84165
:103F00006356E008585459C303A9040023A00400D1
:103F10000C5093D7C748A9CB70485E24918B99C7A2
:103F20005C401D8E5C5899C33C401D8E5C540C5007
:103F3000814626858297FD57630CF5041C4805676A
:103F4000232204001CC05E24F98F91C368C84C581A
:103F500023A0240185CD930744046384F5002685BE
:103F6000BD2C232A04021DA0014685462685029702
:103F7000FD572A86E313F5FA9C40C5D37547638540
:103F8000E70059476395E70623A024010145B5A042
:103F900098408317C40001CFF5466305D700D94682
:103FA0006319D7041C48232204001CC04DB71848CD
:103FB0002322040093D7C74818C041BF83A9050135
:103FC000E38609FC03A905008D8B23A03501330985
:103FD0003941014791E3D84918C4E35920FB1C54E7
:103FE0000C50CA864E8626858297634FA0008317A1
:103FF000C40093E707045EA47D55F2406244D244B6
:104000004249B24905618280AA993309A940F1B7B2
:104010009C49411106C622C426C281EB8144B240AC
:1040200022442685924441018280AA842E8409C5B7
:104030001C4D99E3EFF08FDC9747FADF9387470E2B
:10404000631FF402C0408317C400E9DB7850058B7E
:1040500019E793F7072081E7284CEFF0EFF2268568
:10406000A285EFF0DFE77C50AA84858BCDFB5E2430
:1040700093F70720CDF7284CEFF02FF14DB7974776
:10408000FADF9387E7076314F40080446DBF974716
:10409000FADF9387E704E318F4FAC0446DB74111DF
:1040A00022C42A842E85B285368623AC019206C6A8
:1040B000CD2BFD576316F50083A7819391C31CC0D8
:1040C000B2402244410182805971A2D42E8483954A
:1040D000E500A6D2CAD086D6B284368963D205025C
:1040E0005E2493F707088DEB13070040B650265463
:1040F0002320F90098C006599654014565618280D5
:1041000030003D23E34E05FC3247BD67F98F7977D8
:10411000BA9793B71700C9BF814713070004F9B7CF
:10412000DE25797122D406D626D24AD04ECE898B8E
:104130002E8491CF930774041CC01CC885475CC8AB
:10414000B250225492540259F2494561828074005F
:104150003000AA84EFF05FF7A2492A892685CE8530
:10416000EFF00FE819E98317C40013F7072069FB84
:10417000F19B93E727005EA475BF97F7FFFF938736
:10418000A7419CD45E2408C008C893E707085EA432
:10419000B247232A340199CB8315E40026856D2983
:1041A00011C55E24F19B93E717005EA45E2433E5FE
:1041B00027014AA471B793F5F50F2A966314C50039
:1041C000014582801C21E38EB7FE0505C5BF13851E
:1041D00041926FF06FDB138541926FF00FDBC5C129
:1041E00083A7C5FF011122CC06CE1384C5FF63D37C
:1041F00007003E942AC6EFF09FFD138741931C43AE
:10420000324589EB2322040000C36244F240056179
:104210006FF07FFC637DF4001040B306C40063962A
:10422000D7009443DC43B29614C05CC0F1BF3E8714
:10423000DC4399C3E37DF4FE14433306D700631FC8
:1042400086001040B29614C33306D700E39FC7FA26
:104250009043DC43B29614C35CC345BF6375C4008E
:10426000B1471CC15DB71040B306C4006396D700C8
:104270009443DC43B29614C05CC040C379B78280DB
:10428000797156CA9C49BA8A984522D44AD04ECEF2
:1042900052CC06D626D25AC85EC6B3E7E70A1CC27D
:1042A00003C73504AA892E843289368A19C3850743
:1042B0001CC21C4093F7070291C783270900890796
:1042C0002320F9000440998891E8130B9401FD5BC9
:1042D0005C4403270900998F63CCF40483473404BA
:1042E000B336F0001C4093F70702A5EB1306340425
:1042F000D2854E85829AFD576303F5041C40114711
:104300008144998B6399E7008327090044449D8C7D
:104310008147B3E4F40A1C4418486354F700998FAA
:10432000BE94014969047D5B63982405014509A891
:1043300085465A86D2854E85829A631E75017D55C3
:10434000B250225492540259F249624AD24A424B24
:10435000B24B456182808504A5BF3307D4001306A4
:104360000003A301C7040347540493871600A297D0
:104370008906A381E7049DBF85462286D2854E85A6
:10438000829AE30E65FB050945B7797122D44AD0BC
:104390004ECE52CC06D626D256CA5AC803C885017C
:1043A000930780072A892E84B289368A63E207033D
:1043B000930720069386350463E10703630C081C0A
:1043C000930780051746FADF1306C6D86308F8146A
:1043D000930424042301040515A89307D8F993F73F
:1043E000F70F5546E366F6FE1746FADF130606D9C1
:1043F000B3C7C7209C43B29782871C43938425048C
:10440000938647009C4314C32381F504854775A216
:1044100090411C43137506089385470029C19C43AE
:104420000CC3584063DF07129305D002A301B40404
:1044300018C4635E0702B307F0401746FADF13069D
:1044400066D12948B68433F70703FD143297182341
:1044500098A03E87B3D70703E37707FF85A09C4367
:10446000137506040CC355DD939757605DBF6D9AB5
:1044700010C0D1B790411C431375060893854700BF
:1044800001C50CC39C4331A0137606040CC37DDA2E
:104490009E231307F0061746FADF1306A6CB631018
:1044A000E80C2148A3010404584018C4E34C07F861
:1044B0000C40ED990CC0D9F7B68449F7A147631EAB
:1044C000F8001C40858B91CB58401C4863C7E7001F
:1044D00093070003A38FF4FEFD14858E14C8528742
:1044E000CE867000A2854A85EFF09FD9FD5A631AE7
:1044F000550D7D55B250225492540259F249624AE8
:10450000D24A424B456182809C4193E707029CC19D
:10451000130880071746FADF130606C5A302040531
:104520000C401C4313F80508138547006305080079
:1045300008C39C4339A013F8050408C3E30B08FE25
:104540009E2313F7150001C793E505020CC099C31C
:10455000414889BF18401377F7FD18C0D5BF2948D7
:1045600091B71746FADF1306E6BE294835BF9041DA
:104570001C43CC49137806081385470063060800DE
:1045800008C39C438CC339A008C3137606049C431C
:1045900075DA8EA323280400B68491B71C43D0415A
:1045A00081459386470014C384432685EFF0BFC03E
:1045B00001C5B30795405CC05C401CC8A30104045E
:1045C00039BF14482686CE854A85029AE30355F3FF
:1045D0001C40898B85E74844B2473365F50A19BF0B
:1045E00085465686CE854A85029AE30465F18504A0
:1045F0005C443247998FE3C5F4FEF1BF8144930ACE
:1046000094017D5BF5B7411122C42A842E85B285C1
:10461000368623AC019206C65928FD576316F5006D
:1046200083A7819391C31CC0B24022444101828080
:10463000411122C42A842E85B28523AC019206C67C
:10464000A920FD576316F50083A7819391C31CC071
:10465000B240224441018280411122C42A842E8525
:1046600023AC019206C60528FD576316F50083A703
:10467000819391C31CC0B2402244410182809307C0
:10468000800523ACF1927D5582809307800523AC91
:10469000F1927D5582809307800523ACF19201450C
:1046A00082809307800523ACF1927D558280930729
:0C46B000800523ACF1927D558280000053
:1046BC00307800000D0A563546204641554C5420A2
:1046CC006D63617573653D00206D6570633D000021
:1046DC00206D7476616C3D005635462053797374A9
:1046EC00656D436F7265436C6B3A0000496E66658D
:1046FC0072656E636520696E697420646F6E650DFA
:10470C000A0000004A504547206465636F64657277
:10471C0020696E697420646F6E650D0A00000000DC
:10472C0046573A2053544550345F464153542076F3
:10473C00310D0A0057616974696E6720666F7220CB
:10474C006672616D65732E2E2E0D0A004652414D18
:10475C00455F53544152540D0A0000004652414DDE
:10476C00455F4E554D3A00004A5045475F53495AF4
:10477C00453A00004445434F44455F4F4B3A0000D7
:10478C004465636F64652074696D653A00000000D0
:10479C00207469636B730D0A00000000434C415395
:1047AC00533A000053434F5245533A00496E6665E5
:1047BC00722074696D653A004A5045475F53544105
:1047CC0052540D0A000000000D0A4A5045475F453F
:1047DC004E440D0A000000004445434F44455F46DB
:1047EC0041494C3A000000004652414D455F454E50
:1047FC00440D0A00626C696E6400000063656E749F
:10480C0065720000646F776E000000006C65667462
:10481C000000000072696768740000007570000089
:10482C00004804000848040010480400184804001C
:10483C00204804002848040000400000C53E000049
:10484C00213B000037350000412D00008E23000075
:10485C007E1800007C0C0000004000003735000082
:10486C007E18000084F3FFFFBFD2FFFF3BC1FFFFA8
:10487C00DFC4FFFF72DCFFFF004000008E2300004E
:10488C0082E7FFFF3BC1FFFFBFD2FFFF7C0C0000A4
:10489C00213B000037350000004000007C0C00007C
:1048AC00DFC4FFFF72DCFFFF412D00003735000035
:1048BC0082E7FFFF3BC1FFFF0040000084F3FFFFD6
:1048CC00DFC4FFFF8E230000412D0000C9CAFFFF8B
:1048DC0082E7FFFFC53E00000040000072DCFFFFD6
:1048EC0082E7FFFFC53E0000BFD2FFFF84F3FFFF4E
:1048FC00213B0000C9CAFFFF00400000C9CAFFFFEE
:10490C007E1800007C0C0000BFD2FFFFC53E0000EB
:10491C00DFC4FFFF8E230000004000003BC1FFFFFF
:10492C00213B0000C9CAFFFF412D000072DCFFFFD4
:10493C007E18000084F3FFFF000108100902030A2F
:10494C0011182019120B04050C131A2128302922D6
:10495C001B140D06070E151C232A313839322B2453
:10496C001D160F171E252C333A3B342D261F272ED0
:10497C00353C3D362F373E3F4D49443A253038784B
:10498C000D0A00005049443A253038780D0A0000D1
:10499C00FF00DA09D703DF0233A03C00E167FF0117
:1049AC00E000E100E500D700DA00E000FF01E014D0
:1049BC00E177E51FD703DA10E0000000FF00DA1002
:1049CC00D703DF0033803C40E1770000FF002CFF71
:1049DC002EDFFF013C321100090204D813E5144804
:1049EC002C0C33783A333BFB3E00431116103992B2
:1049FC0035DA221A37C3230034C0361A068807C0AA
:104A0C000D870E414C0048005B0042034A812199FE
:104A1C002440253826825C00630046000C3C617003
:104A2C0062807C05208028306C006D806E007002E6
:104A3C00719473C13D345A5712001711187519012E
:104A4C001A973236030F37404FCA50A85A236D00BD
:104A5C006D38FF00E57FF9C04124E01476FF33A0E8
:104A6C00422043184C0087D5883FD703D910D382F6
:104A7C00C808C9807C007D007C037D487D487C088B
:104A8C007D207D107D0E9000910E911A9131915ADE
:104A9C0091699175917E9188918F919691A391AF27
:104AAC0091C491D791E891209200930693E39305DA
:104ABC009305930093049300930093009300930049
:104ACC00930093009600970897199702970C9724D8
:104ADC00973097289726970297989780970097007A
:104AEC00C3EFA400A800C511C651BF80C710B6669D
:104AFC00B8A5B764B97CB3AFB497B5FFB0C5B194E2
:104B0C00B20FC45CC0C8C1968C00863D5000519059
:104B1C00522C5300540055885A905B2C5C05D302E0
:104B2C00C3ED7F00DA09E51FE167E000DD7F0500DA
:104B3C00EB0EF53CABD532BC658C6EBA997DE33C83
:104B4C00326815BC1E14B6BC876DA53DD7DB053E7F
:104B5C00AFE7803DDAAF373BCA6EA8BD461B703C51
:104B6C0051FE393E6611BA3D2AB6DD3D050FD0BD6A
:104B7C0028018E3D48AD00BEAEEE893D9DCCB33DC7
:104B8C000A6E3D3B39622C3D2180EA3D7C2C78BE7F
:104B9C000F2E86BDBFC3C1BCD04D27BECF8FA33D4A
:104BAC00639B1A3E661506BD6A85393ED1D824BE74
:104BBC004485AE3CC853863DB4D40CBEC3D40DBEA4
:104BCC00AF7E893ED2C3C7BD14B0093E40299DBEFD
:104BDC00DCB6353B7CA254BDF3024ABEBB6D49BE6C
:104BEC000C1B993D50C9B4BDA266E33C7B4D93BEF2
:104BFC0075438DBB896CF6BC51E7FDBC932016BC8C
:104C0C00C264B53D2E739F3DA385D73C0AC660BEDA
:104C1C0020E0C3BD6D2968BD810A87BD887BC53D79
:104C2C005242E6BD01F79F3D2A8024BD13B88B3D4F
:104C3C0076FEAA3CCEABD83C5845B0BDBFFDCEBB32
:104C4C002780C5BD69FAB3BDB63EAABE4066ADBDF0
:104C5C00C6DCF4BCFEEA063E21963A3D029ACCBD77
:104C6C007C1CBB3DFF53BBBC310BCEBC8C95203D9B
:104C7C00919372BE6333B8BC7877783DA3A20A3D9A
:104C8C000F5745BEB024C93D8580823E4226A73DC4
:104C9C008DCD58BE8A106D3E179ABBBD1C53643D1A
:104CAC00EFB6383E2072143D977A3A3E4F4FDABD3C
:104CBC008904B13E614D343E038A88BD10B688BD6F
:104CCC00C84E873E59AA84BC839E05BDEB4A0BBED9
:104CDC005C5B703E587207BDD5BC3ABD60BF733D7E
:104CEC00EFE9873DECD03ABC24D91DBC2E87133D8F
:104CFC003B5C9CBDDCE4263C3B445A3EAB134D3E36
:104D0C005A040E3EDEF23D3E6623513D512B9B3D37
:104D1C0056E3FBBDD6323F3DB88E2B3E3063B23EE0
:104D2C00BD34E6BCB65A543D5B94913DAB88B83D5E
:104D3C007E2E11BE5482D2BCCA4E00BE0844423DE7
:104D4C00C472CFBD3F6EAFBD967A12BE61418DBCB1
:104D5C00362E893D4491AFBDCCD3A93D9081DD3D2C
:104D6C0071AA2ABD67780ABD84618D3D066982BC33
:104D7C009AE932BE5E6D60BC874ECFBBA07111BE8E
:104D8C001DB7CFBCABA0F93CA358DF3DF8E07BBE10
:104D9C0065B2F2BD071A083E70018DBB8FB80DBE0F
:104DAC0074AD02BDA02C66BD9A631ABE84ED90BE94
:104DBC00952326BE052024BE84670C3ED23553BCF9
:104DCC0006AEA4BD6F334D3C44AF3BBE1C83CCBD83
:104DDC0046335CBEF38129BE2DECB23DF6D7B0BD97
:104DEC00C12965BEF0360CBC70BB003E233D183E9D
:104DFC008715D1BD9FE7293E2DFA35BC358D56BCA4
:104E0C00C11F82BD5448063DC74C62BCD8113C3E04
:104E1C00075B21BD1E751FBD5B668CBD4718C9BCE9
:104E2C001F94E9BD33221DBE0C7AFE3D79968DBDD3
:104E3C000523E5BD203E363C28258BBDA1E443BDB2
:104E4C0011FD7B3D33B8563D2093143C0CFAF83DD4
:104E5C0090D5143CE13141BDDD616FBD606550BD45
:104E6C00831D5ABD9275193DEACD09BD895F3DBEC2
:104E7C005C06FE3D5B23813DF2E509BB208903BE48
:104E8C00DCBE8E3D58ECAABD9D74CFBE033228BE4D
:104E9C00576AB13D38BF12BE47E398BDDA3D543D69
:104EAC0070C964BEB94191BDA12DB8BEB5840CBF0B
:104EBC006CD1DFBE70D437BE503D2E3DFD5EB2BD11
:104ECC00F13E8CBE9AF18A3D9A6B74BE8DCCA8BE15
:104EDC00DABACFBE40E7ECBE362F183B51D2FABD42
:104EEC0002BE0CBF10F59A3DC0C48ABC23D497BD3A
:104EFC00782F623D8CC3B9BD9564FC3BACC7CF3DEC
:104F0C00ED67D7BD4AA195BD2C27A53BBC611BBE47
:104F1C00EFB6103D6CDACBBD7998D1BD9BBA7F3D15
:104F2C00C96B00BE357FDFBDB9328ABD8ECA4DBCA0
:104F3C007951A3BDD0AB2B3DE9588D3DE73C113DDC
:104F4C006371293D0AF13EBDDDDAA53E582AEA3DE2
:104F5C00EE6AC53C4B0B8EBC2859A1BD716AAE3CA8
:104F6C00481A9A3D51A9073ED5992B3E1AFA8ABE8A
:104F7C0042B1BEBDF6E1183DFBE60E3E5D9C283EFF
:104F8C00EE62393EEA6AC03AF02386BE21719CBEBD
:104F9C00D97E14BE6C343BBD48CAB0BC8A1B2B3DB9
:104FAC00B8D770BE9644533C58973DBEB910DDBE81
:104FBC0052C8E1BE72ED96BEA7FE053D7896523DF5
:104FCC0056739EBEEC75A0BBBC189ABE2BB0E0BE4F
:104FDC00779300BF8EF38DBE9D8B183C5699493D3F
:104FEC00181178BEED989FBC3FDB063EFD1F06BD39
:104FFC000E826FBD76649FBDAA8047BE00A7EC3DB4
:10500C00DE38AA3C5B20433D8C11493D080F56BD50
:10501C0086C30D3EDA97AA3D15AA1B3C0EFE5ABD5F
:10502C00AA338C3D37DBA83D5009993D9E44DD3DAC
:10503C002608033E84D8EF3D2CBF743D3C01183E3E
:10504C00DD1DE3BDA7723F3E314EB53E0A6E60BC1E
:10505C004455983D7F928EBD7AADE2BC18891EBC3A
:10506C002247233DFE1E87BC55FB7C3E20D703BE4A
:10507C000023C33D90439E3E61E9933C77A698BDC7
:10508C00DBE6D83D5C49A03C6F04C7BE8A7D89BE77
:10509C00D28B79BC45F92CBD02CC26BD71233FBD0A
:1050AC00442B3CBEC1EEAABC2D7F32BE36F5AC3CC7
:1050BC00230823BDB61C8CBD729C9C3D72DD9C3EAE
:1050CC009ED00ABEEFFF313E27D7B93CD8C9CABC27
:1050DC00C9BFBDBDDDD5063E03BC8FBDF0C6A63D28
:1050EC00A1E69A3B6C8798BD17EB3E3E890D30BE0E
:1050FC0005696CBE07EE293E8111B1BE600A36BE51
:10510C00F1FFDABC36145EBE591FC03DA408EABDDF
:10511C0027D311BD86D0393E38A0DBBD496799BE77
:10512C00D4D5DBBDFE2A09BE79E7B3BC8C45663D00
:10513C00C750853EB3B9883C99279B3DEA62203E17
:10514C00B898AA3D14E2F03DD3910C3E7CECB73DEF
:10515C0012D53FBD33DF733D0E54F63D34B406BD5E
:10516C001A7C84BD6326AA3DC8A4543C2D068FBE70
:10517C00D1B9923E7CB878BE1E61A5BCCFFA97BD62
:10518C004CEABA3DDDE73C3D1DF63DBE89032E3CA5
:10519C007EDF173E2BF044BED5353E3EF61FFA3D62
:1051AC00719E51BE1479FC3D800FB3BED3F76A3E9D
:1051BC00E73E62BEC36591BD29C6D23DBE6D4F3E72
:1051CC0098A372BEB6F4003E385A113DB82B1F3E60
:1051DC00D8EDB2BEA2E49F3C2D3185BD203E423EAF
:1051EC00EA9681BDB17241BD1E623E3E0818C5BC37
:1051FC002EA09BBE37D3923EB83D91BE5422C1BD6A
:10520C0061464D3EDF1D4BBE2DEA35BDAD8867BEF8
:10521C00D167723C367D8F3B4CBA963CDDBFD5BD19
:10522C00BE3AF63D31C999BDE2B8213EEA80F33D64
:10523C0085380CBD5F81B33D855FC73D075CC23DC2
:10524C0036BB063E35442B3E253B6F3EEEBE043E40
:10525C008006A43D8BD56EBD130542BD0B3596BAA9
:10526C00E648DDBD0A435ABD52D37B3E07256D3D52
:10527C00CC12593E1543CD3E2F0389BDC0057C3C55
:10528C0088C7A2BDBD5E45BE3A08D5BC697B6A3DE8
:10529C00E42D883DE892983D0B700E3EF31FB43C14
:1052AC00BA055CBE21A0233E0517E93DFED6333E70
:1052BC00DE1511BE983309BD7537F53D7BD5DF3D45
:1052CC0039AF22BE8EA78EBCBF54A13E6172963DF3
:1052DC0070E46EBE628E713E5F2CF5BD135F723D45
:1052EC009AC9D13E2F62483D66C6D93EF11D38BDE4
:1052FC008668A7BDEB1C943E851878BECD2936BEBA
:10530C0027CB363E8AA72ABEAE58683E4466B63DC9
:10531C00E684ADBD46416D3EF847D6BD6E8910BEE4
:10532C009AEC9FBC527E2CBE9E38283D2666C53D0D
:10533C00DB53D2BE3904823D7422543D4AC9D4BDDC
:10534C0018C3313E409559BD315E313C7231273D19
:10535C00C2801BBD28BE9DBD618B09BED58515BE07
:10536C00716307BD00A6B33CF935A7BD248CCC3EB8
:10537C00B4A6413C0ED9303EA50CE23D3636DF3D9D
:10538C008A4EBE3CD02B9ABCC0E5CCBD4752AF3E3A
:10539C0019EC613DB1341B3EEA217EBDBA933C3D14
:1053AC004E325EBE138A363E43F16CBEDBB8E23D34
:1053BC003114223EAFA1EDBDEBE8AEBDCCA48C3ECA
:1053CC00A41507BE8C794F3EA44B26BD5BD2B03DD5
:1053DC00EA1D533DFCE4C33C96B6AEBDC72F183E48
:1053EC00623148BE4C39CA3DAA86903D1BBA593D24
:1053FC0026DC3ABE0AEDE13CDD1305BE8293783D16
:10540C00B851CCBC42A029BED2F83C3DF926033E93
:10541C00264F5FBD6BC8D5BD06C314BE55ACC2BE0E
:10542C00A3BB9BBD383BB1BECFB39CBDA4DC11BDAF
:10543C00F7BF2F3C8DC5C83DD270893DFF6910BEAA
:10544C008448E5BC4901E0BD42D1483DA9BC493E78
:10545C0094C600BDF482783D96FE5D3DCF162A3D84
:10546C0023E9A6BB4FD73A3D684E443EC9BB373DF6
:10547C001E087B3E6E38823E542499BD891841BD6E
:10548C001BA68F3E63E4A3BDE972B43DB4C9403C96
:10549C007C65E53D6C1D833C5A0E1BBE50143DBE15
:1054AC0062FE043C1F7B1CBEB0CAD1BD06A380BDEE
:1054BC00EBA4A3BCEAFF27BE866C81BD69EB93BD50
:1054CC005AAB90BD25EF8EBDEB8F07BE8ACD87BE44
:1054DC001EA8AFBE4F55EBBDDEC85FBCFC6EA6BDB3
:1054EC00A2460FBEC6D4FE3DD3CFE33D8DC481BDD5
:1054FC0058B5A2BE2E6B66BC540B293D947154BD9D
:10550C008056F6BDFA26CD3BAC33D5BDB98DB0BEB9
:10551C009E51003EF04FC9BD3DBC3CBEE3EE813C0C
:10552C0004BBABB9A7F36ABDB27B09BDE609AB3DC1
:10553C0017F1BE3B4158BDBD66976A3D7924AA3D23
:10554C00478859BCC306EA3D10A84ABE79C40D373A
:10555C008DE246BD70968BBD61C23ABD9546273E25
:10556C002B10F3BDAA25EF3D81721F3E78F880BB4E
:10557C00DDD20BBB0BFDF0BDCE2A203C441B7B3D8A
:10558C00171C543DBF07C6BDD4AF563EA5C881BD40
:10559C0061FA9E3CF76CD7BDB99CFE3DF652213B9F
:1055AC00B2C5B33D8E57D13D64AD633A5A45D4BDB7
:1055BC007D93FC3DF971EDBD88E0933DEF969DBC6C
:1055CC0065AEA5BDB37C2B3D068904BDB27479BE16
:1055DC000F4D49BE996BE5BD802DED3BA10CF93CFF
:1055EC00864DEF3CD821C03D44AC263D161735BD49
:1055FC00695F97BEF71332BE26DCDF3D36ED5DBD2D
:10560C008BB905BE877C63BD465D9B3DD1DBC9BEB6
:10561C00C06E163E4CE75C3BCD1CF63C9EA05FBEBC
:10562C00C5DB8D3D1C2DC03C8AE4EB3C462E303C4A
:10563C007689F13D54A7633D18FCB0BD0879B3BD24
:10564C00E7E7CC3DD2FB1BBD3875BDBED08F8DBC02
:10565C0072F8C5BB15D28FBC2571B23D9B86023D3D
:10566C009E8514BE688EE73DBEB9BFBE97DC28BED2
:10567C006FACA2BEE4A1FABEB7F4F93D272C053DF0
:10568C00E298BBBE9C3A6A3D1DB29BBC5CEC0A3EE8
:10569C0097E9D5BD92AC21BE6C66813EA2F9A03DC6
:1056AC00F28052BEA1C2B93D4A8695BC5438A93E7F
:1056BC00766598BEDA5BE53D72B8133E066D8ABC22
:1056CC00178D183DACE0273EFE056ABD45AA0E3E7F
:1056DC007A1360BEB9D5DB3DA244253E3C8A5C3EC4
:1056EC00BEAA063E46288B3E0BD82B3DFF0B5E3DDB
:1056FC008A9331BEBC3D243EA8C138BB6556823E60
:10570C007DFA7BBDD7DCC83D73E30A3D90CB443EAC
:10571C004E2F343E639C0D3EEC8063BD4C0D1E3D04
:10572C00F66BFA3DAF788E3DEF558C3C6E6F943C2A
:10573C00F127FFBDBF2595BD6C7936BD57034E3E95
:10574C00B8100A3DC60E3BBECFF996BEFD8AE3BD2E
:10575C00740243BB013438BD0B81F93B325FDA3C38
:10576C0089CF5EBECB0FAFBD631261BE254F81BD2D
:10577C0038D3813E1B9B4EBEA64A31BD7FAE10BEB8
:10578C00F2A6CE3C14984EBD8B871C3BFCAE3B3E28
:10579C00CAD427BE4372143E58354B3D32BD773EBA
:1057AC0080B7063ED563BE3D5800B33EF4465E3E20
:1057BC00381858BDD670683ED2DFF7BDF44CE4BD46
:1057CC00DB250C3E31C71F3E5623483EF8CD5E3ECE
:1057DC00F9A1F33A350B3F3E5A5B2EBEDD1AA6BE3D
:1057EC00E5788B3E7093763B6D981B3EB0F64F3E42
:1057FC00A80352BE8727C93DAE33AABD8AD8A2BD25
:10580C006E0EB93D6C0CB3BD2EDB243D78D23A3E06
:10581C00C5F7A33DD5CD0D3EDD69CCBDBE3DDABD92
:10582C00C6973C3D4A184BBD7C1DBCBDC1010ABD91
:10583C005A5301BD70612BBDE9C116BEAD00263DAA
:10584C0054190F3E8055C33A1A4F74BEA016123E1F
:10585C00C7F499BD79D2CABDDFB353BDD0BE073EE4
:10586C00F1718EBDC65B5EBDF94764BDBE4DBC3CDF
:10587C00948F37BDDEE334BE8CAE9CBCA36B96BD5F
:10588C0067C3A4BEAE3C54BDD0D0F83D64E0C63D69
:10589C00D9949FBD057313BE6D1F8FBCBFAFC8BD20
:1058AC007B4FA83DA80889BD12A5B43EBCD0B7BBA0
:1058BC00B11BBCBDF0DC85BDEC1F003E888B83BEEC
:1058CC00DCC35E3E4AFFD5BD1E35643C2E1716BBAD
:1058DC000BFA253E2B9BA23DA98CA13DDD41EFBCD3
:1058EC00107EBD3D3F5707BDD84C7C3CC3560A3D8E
:1058FC00ECB039BD7AF91FBEF8FBC1BDD171B93A14
:10590C00055EA23DD0E6023C46F3593EF346FF3B12
:10591C00E805CC3CC487A43DB8CCE5BB7FABB83D17
:10592C00AC43C53C211A34BD03F57BBB9F6DFABD5E
:10593C00BB8DD1BD749C8A3D75BE2BBDF0CDE73BB4
:10594C0055F508BD8B9F0EBE17AF63BD1A5018BE20
:10595C002F8BA93D4D717EBDF8BAD3BCCB19D9BDE7
:10596C007A7EA23DD860B2BD4B046ABC52DD18BE33
:10597C00DCF09F3D6EE2313E5BE6ACBDB2D901BEC0
:10598C003FA50CBD45E1ECBD219F933D8775FCBA4D
:10599C00EA80DFBD180A26BD6ECF02BE4EDA503A41
:1059AC00A20C05BD9D38AD3C657A883EF962393E46
:1059BC009437283DD8CBDD3DDE2424BEDC40D1BD60
:1059CC00FA37363EC108A5BDF757AB3D519A873E15
:1059DC0034F8A73EC79F2F3E255C963D8BB819BE69
:1059EC00EF56363D66FD623B26B96CBB6D147F3DB0
:1059FC00A782E73D33E9113E2CFFEEBDA1A13B3C54
:105A0C00D0EEBBBDB76BDBBC988E103EBC35E73D12
:105A1C00703DC43D0568CC3E5597BFBDED31CBBC48
:105A2C00155C2E3E3D35D7BDCA9C913D43CC88BDFF
:105A3C00EC7EDCBC8F8B95BD116352BE0A54843D49
:105A4C00CDCA263DD0DA4EBEE86ACABC67E4BE3C7D
:105A5C0075E0BC3D41E19B3D26579C3DAC96CB3C53
:105A6C00B0389E3CDD96B8BDE0C46CBEF4C6E8BC54
:105A7C000131D1BDEED56CBED025BE3DE3CC15BDFC
:105A8C0051C3E9BE3C65993C1C90DABE18E9C9BB10
:105A9C000B4912BE855B07BFA8FC983D996DDD3B99
:105AAC005B1D15BE32B01A3E0278A9BE599EAF3CA2
:105ABC0004616EBD74F5E3BE7F07333D3C46C93DC2
:105ACC00B69F4DBEB68284BC23C2DDBD66C9F2BD95
