:020000024000BC
:080000006F0050230000000016
:100008001705F8DF130505EE9705FEFF938585DFD5
:100018001706FEFF1306865463FAC50083220500FF
:1000280023A0550011059105E3EAC5FE1715F8DF71
:100038001305C5859705FEFF938545521706FEFFF4
:100048001306C65163FAC5008322050023A0550094
:1000580011059105E3EAC5FE1715F8DF13050583B9
:10006800970500009385050A1386818063FAC50009
:100078008322050023A0550011059105E3EAC5FE7A
:10008800138581809385C1816377B500232005009E
:100098001105E36DB5FEB7B237129382023E739035
:1000A80002BC9D42739012BCBD427390428099621B
:1000B80093828208739002309702FEFF938282D463
:1000C80093E23200739052309702FEFF93826214DB
:0800D800739012347300203014
:1000E000000004000000000036030A2038030A2044
:1000F00000000000E4060A200000000000000000EC
:10010000E4060A20E4060A200000000000000000C7
:10011000E4060A20E4060A20E4060A2000000000A3
:10012000E4060A20E4060A20E4060A20E4060A207F
:1001300000000000000000000000000000000000BF
:1001400000000000000000000000000000000000AF
:10015000E4060A200000000000000000000000008B
:10016000E4060A20E4060A20E4060A20E4060A203F
:10017000E4060A20E4060A20E4060A20E4060A202F
:10018000E4060A20E4060A20E4060A20E4060A201F
:10019000E4060A20E4060A20E4060A20E4060A200F
:1001A000E4060A20E4060A20E4060A20E4060A20FF
:1001B000E4060A20E4060A20E4060A20E4060A20EF
:1001C000E4060A20E4060A20E4060A20E4060A20DF
:1001D000E4060A20E4060A20E4060A20E4060A20CF
:1001E000E4060A20E4060A20E4060A20E4060A20BF
:1001F000E4060A20E4060A20E4060A20E4060A20AF
:10020000E4060A20E4060A20E4060A20E4060A209E
:10021000E4060A20E4060A20E4060A20E4060A208E
:10022000E4060A20E4060A20E4060A20E4060A207E
:10023000E4060A20E4060A20E4060A20E4060A206E
:10024000E4060A20E4060A20E4060A20E4060A205E
:10025000E4060A20E4060A20E4060A20E4060A204E
:10026000E4060A20E4060A20E4060A20E4060A203E
:10027000E4060A20E4060A20E4060A20E4060A202E
:10028000E4060A20E4060A20E4060A20E4060A201E
:10029000E4060A20E4060A20E4060A20E4060A200E
:1002A000E4060A20E4060A20E4060A20E4060A20FE
:1002B000E4060A20E4060A20E4060A20E4060A20EE
:1002C000E4060A20E4060A20E4060A20E4060A20DE
:1002D000E4060A20E4060A2000000000E4060A20E2
:1002E000E4060A200000000000000000E4060A20E6
:1002F0000000000000000000E4060A20E4060A20D6
:10030000E4060A20E4060A20E4060A20E4060A209D
:10031000E4060A20E4060A20E4060A20E4060A208D
:10032000E4060A20E4060A20E4060A20E4060A207D
:10033000E4060A20397101436EC619A03971415390
:100340006AC866CA62CC5ECE19A0397101535AD010
:1003500056D252D44ED64AD826DA22DC06DE3301F3
:100360006140828241114AC026C222C406C68282EE
:10037000B24D4101024D924C224CB24B4101024B15
:10038000924A224AB2494101024992442244B2406F
:10039000410182802A8309CA8383050023007300F8
:1003A0007D16050385056DFA8280EFF2BFFBB74429
:1003B00001402A8413890480930500044A85012999
:1003C00065DD13850480B3450408F52E75BFEFF293
:1003D0007FF92A840305040011E17DB70504F13794
:1003E000D5BFEFF29FF6AA84371504001305858365
:1003F000F93F7144A5497159B3D7840013F7F70049
:100400001305770363E4E900130507037114713FD3
:10041000E31424FFADB701A0411122C626C44AC28D
:1004200073292034F3241034732430343715040036
:100430001305C583693F4A856D37371504001305D9
:10044000058571372685713F3715040013058585AD
:10045000BD3F22857937371504001305C598853FC0
:100460002945612EB707EFBE37E700E093870708FD
:100470003CC701A0EFF21FEFB74401402A84138963
:100480000480930500044A85992665DDA2851385BD
:100490000480152ED5BDEFF2FFEC2A84030504007D
:1004A00011E1DDB51375F50F0504E937C5BFEFF2AE
:1004B0007FEB0111B7150400454693850586AA8494
:1004C0006800C93D3715040013058583E937714479
:1004D0007159B3D78400BD8B938707028A9703C5F0
:1004E000C7FE7114413FE31624FF056171BDEFF2B1
:1004F000DFE501118D22CD24371504001305458752
:10050000593F371504001305458A71373715040024
:100510001305C58C4937371504001305858FA53F92
:10052000B7070C2003A58734B7041420B7190400BB
:10053000BD3F371504001305C590B13F37150400C2
:1005400013054591893F3705142095373715040069
:100550001305859389373715040013050594253F46
:1005600013890401802045469385098668001D355E
:1005700093574400938707028A9703C5C7FE3D88B7
:100580008504CD3D93070402338427000345C4FE50
:10059000D53513050002F93DE39624FDB714040098
:1005A0001385C498CD3D3715040013058595E535B1
:1005B0008147014981497D5A0144B705142013063A
:1005C0000040B386F500942213F7F70F6307D700B6
:1005D00001E43689BA893E8A05048507E393C7FE9C
:1005E00005E43715040013054597753537150400E4
:1005F000130505994D3537150400130505A2613D16
:100600001305803EDD2AEDBF371504001305059C58
:100610005935371504001305859DB53D2285413DAB
:100620001385C4988D3D371504001305C59EA53567
:100630005285B53D371504001305C5A0A93D4E856B
:10064000BD3537150400130585A1B1354A858535BB
:100650001385C49845B7B7170240D443984721463D
:10066000B18A6394C602B7060070758F37060050D2
:100670006305C7146360E6021DC7B7479C1CB70635
:100680000040938707806307D706B7877D0193876C
:1006900007848DA0370600606302C710B767730731
:1006A00093870794CDB79047944798479305000ADE
:1006B00093F6060E21831377F7037D8A050763946B
:1006C000B608B767CD1D9387075033D7E702B70742
:1006D0000C2093870732B2979C239146B387E70299
:1006E0006309D600856693860654B3D6C600858A0C
:1006F00091C2858323A6F180371602405442370702
:100700000C20130707319182BD8A36971823B7064C
:100710000C2093860634B3D7E700584241664183E4
:100720000D8B3697182333D7E70023A8E180B7F65F
:1007300000E083A606D1F18E91E2BA8737070C203C
:100740002324F73482809305000E6392B602D45BB3
:10075000B7070C2093870730C182B6979C23B786D2
:100760007D0193860684B387D7028583B9BF93073B
:1007700000086397F600B7479C1C93870780B1B7C2
:100780009307000C6397F600B76773079387079486
:100790002DBFB7877D019387078405BFD85BB70757
:1007A0000C20938707304183BA979C2337877D01BC
:1007B00013070784B387E7022DBFB767CD1D938763
:1007C00007500DBF01A093F5F51F4EA182800A21AD
:1007D0006D8D3335A000828083A7018137470F00DC
:1007E00013070724B3D7E702239CF1801307803E49
:1007F000B387E70223AAF1808280B7F700E0D843ED
:10080000759BD8C303A741819387070823A40700DA
:100810003305E502114788CB98C398431367170047
:1008200098C3B7F700E0D843098B75DF93870708B3
:080830009843799B98C3828074
:10083800307800000D0A563546204641554C542064
:100848006D63617573653D00206D6570633D0000E3
:10085800206D7476616C3D00303132333435363773
:100868003839414243444546000000000D0A3D3DE9
:100878003D3D3D3D3D3D3D3D3D3D3D3D3D3D3D3DA0
:100888003D3D3D3D3D3D3D3D3D3D3D3D3D3D3D3D90
:100898003D3D3D3D3D3D0D0A00000000546573742B
:1008A800353A2056354620536861726564204D6597
:1008B8006D6F727920526561642056657269667938
:1008C8000D0A00003D3D3D3D3D3D3D3D3D3D3D3D2D
:1008D8003D3D3D3D3D3D3D3D3D3D3D3D3D3D3D3D40
:1008E8003D3D3D3D3D3D3D3D3D3D3D3D0D0A00000D
:1008F8005635462053797374656D436F7265436C42
:100908006B3A00000D0A0D0A000000005635463A01
:100918002052656164696E6720736861726564203E
:100928006D656D6F72792061742030780000000069
:100938002E2E2E0D0A0000005635463A20466972C2
:1009480073742031362062797465733A2000000090
:100958005635463A20566572696679696E67207021
:1009680061747465726E2E2E2E0D0A002A2A2A20B2
:10097800414C4C2054455354532050415353454403
:10098800202A2A2A0D0A00005635463A20416C6C66
:100998002031303234206279746573206D6174635C
:1009A8006820657870656374656420706174746527
:1009B800726E2E0D0A0000002A2A2A20544553542C
:1009C800204641494C4544202A2A2A0D0A000000A5
:1009D8005635463A204572726F727320666F756E8F
:1009E800643A20005635463A204669727374206589
:1009F80072726F7220617420706F736974696F6EA0
:100A0800200000002C206578706563746564200000
:100A18002C20676F742000000D0A546573742063DE
:0C0A28006F6D706C657465642E0D0A0023
:100A3400970108209381C11017F10B201301415C29
:100A4400B726024098428D47D98F9CC217F5FFFF05
:100A54001305855B97F507209385857A170608208B
:100A64001306868763FAC5008322050023A0550078
:100A740011059105E3EAC5FE98C297F00720E780C7
:040A840020780000D6
:100A8800191C1E202326282D32383C40464C505A2B
:100A98000000000000000000010203040607080926
:100AA800040607081109130A150B170C190D0E0F68
:100AB800101112131416181A1C1E20222426283B63
:080AC800000102020000000021
:0400000340000000B9
:00000001FF
