:080000006F20C02C000000007D
:10000800B71402409305E0408CC483A20400370370
:100018000001B3E2620023A0540083A30400370E5A
:100028000002B3F3C301E38A03FE83AE8400370FF3
:100038000080B3EEEE0123A4D401894F23A2F4017A
:1000480003A94400A14933793901E30B09FE1305DB
:10005800C00E9705FEFF9385E5FA1726FEFF1306E7
:1000680066FD63FAC5008322050023A0550011052B
:100078009105E3EAC5FE1725EEDF1305A52D9725A3
:10008800FEFF938525FB1726FEFF1306A6FA63FAE3
:10009800C5008322050023A0550011059105E3EA58
:1000A800C5FE1725EEDF1305E52A970500009385A1
:1000B80065051386C18263FAC5008322050023A063
:1000C800550011059105E3EAC5FE1385C1829385A4
:1000D80081856377B500232005001105E36DB5FE22
:0400E8008280000012
:1000EC000000000000000000320310203403102038
:1000FC00000000001C0710200000000000000000A1
:10010C001C0710201C07102000000000000000003D
:10011C001C0710201C0710201C07102000000000DA
:10012C001C0710201C0710201C0710201C07102077
:10013C0000000000000000000000000000000000B3
:10014C0000000000000000000000000000000000A3
:10015C001C07102000000000000000000000000040
:10016C001C0710201C0710201C0710201C07102037
:10017C001C0710201C0710201C0710201C07102027
:10018C001C0710201C0710201C0710201C07102017
:10019C001C0710201C0710201C0710201C07102007
:1001AC001C0710201C0710201C0710201C071020F7
:1001BC001C0710201C0710201C0710201C071020E7
:1001CC001C0710201C0710201C0710201C071020D7
:1001DC001C0710201C0710201C0710201C071020C7
:1001EC001C0710201C0710201C0710201C071020B7
:1001FC001C0710201C0710201C0710201C071020A7
:10020C001C0710201C0710201C0710201C07102096
:10021C001C0710201C0710201C0710201C07102086
:10022C001C0710201C0710201C0710201C07102076
:10023C001C0710201C0710201C0710201C07102066
:10024C001C0710201C0710201C0710201C07102056
:10025C001C0710201C0710201C0710201C07102046
:10026C001C0710201C0710201C0710201C07102036
:10027C001C0710201C0710201C0710201C07102026
:10028C001C0710201C0710201C0710201C07102016
:10029C001C0710201C0710201C0710201C07102006
:1002AC001C0710201C0710201C0710201C071020F6
:1002BC001C0710201C0710201C0710201C071020E6
:1002CC001C0710201C0710201C0710201C071020D6
:1002DC001C0710201C071020000000001C07102019
:1002EC001C07102000000000000000001C0710205C
:1002FC0000000000000000001C0710201C0710204C
:10030C001C0710201C0710201C0710201C07102095
:10031C001C0710201C0710201C0710201C07102085
:10032C001C0710201C0710201C0710201C07102075
:10033C001C071020397101436EC619A03971415345
:10034C006AC866CA62CC5ECE19A0397101535AD004
:10035C0056D252D44ED64AD826DA22DC06DE3301E7
:10036C006140828241114AC026C222C406C68282E2
:10037C00B24D4101024D924C224CB24B4101024B09
:10038C00924A224AB2494101024992442244B24063
:10039C00410182802A8311C62300B3007D16050318
:1003AC0065FE8280EFF21FFCB74401402A8413895A
:1003BC000480930500044A85EF00F04E7DD9138527
:1003CC000480B3450408EF00904D7DBFEFF29FF918
:1003DC002A840305040011E145BF0504E137D5BFAC
:1003EC00EFF2BFF6AA8409651305C511C537714430
:1003FC00A5497159B3D7840013F7F7001305770398
:10040C0063E4E900130507037114693FE31424FF47
:10041C00BDB701A0411122C626C44AC2732920349B
:10042C00F324103473243034096513050512793F15
:10043C004A857D37096513054513493F26854D3798
:10044C0009651305C51359372285593F09651305ED
:10045C004514AD3F13054006EF00B04701A0EFF285
:10046C007FF0AD282D24EF00B0443715070013059D
:10047C000580EF0030491305803EEF00904585451F
:10048C0037050010EF00F03313050020EF00D014F7
:10049C000565130505C0EF00701509651305851476
:1004AC00EF10001DB7E700E03707040023A2E77246
:1004BC0037F700E0832707D10145894593E7070209
:1004CC002328F7D0EF00900609651305C515EF102A
:1004DC00201A1305803EEF00D03FE5BFEFF29FE8F6
:1004EC00B71702409843B7065C30411113671700E9
:1004FC0098C3D84337140240758FD8C35C40B18B76
:10050C00F5FF5C403707A76A7D17939767495CC076
:10051C001C449397F7491CC41C40F98F1CC01C4009
:10052C0037C7FF0F939727491CC01C44F98F1CC475
:10053C001C443707600C93E747001CC4B707FF0047
:10054C005CC41C58F98F1CD85C5837E7F0FF1307B4
:10055C000708F98F5CD85C583707080013070702A7
:10056C00D98F5CD84D2302C202C402C61C40B716F8
:10057C0002403706020093970729370700011CC079
:10058C009C42F18F3EC4924785073EC2A24781E749
:10059C009247E397E7FEB71702409C4337070200E8
:1005AC00F98FE5C785473EC422478547631DF70C85
:1005BC00B71702409847F1769386F60F019B98C7C0
:1005CC0098471367070198C79847758F98C798473E
:1005DC009306000298C798471377F7F198C7984786
:1005EC001367070298C798471377070EE31DD7FECA
:1005FC009843B70600021317872998C3B717024010
:10060C009843758F75DF9847B7060090FD16131742
:10061C00F74998C79847758F98C7B7060070B717F2
:10062C0002409847758F75FFD843B706FDFFFD163E
:10063C001377F7F0D8C3D843D8C3D843758FD8C332
:10064C00D843B726024013171729D8C398423AC685
:10065C003247719B3AC63247136717003AC6324786
:10066C0098C29847B71602401317F72998C7D84372
:10067C00719BD8C3D84313672700D8C32147DC42EA
:10068C00B18BE39EE7FE410101B302C431BFB71742
:10069C000240D44398472146B18A6394C602B706F8
:1006AC000070758F370600506305C7146360E6024F
:1006BC001DC7B7479C1CB70600409387078063078C
:1006CC00D706B7877D01938707848DA03706006016
:1006DC006302C710B767730793870794CDB790472A
:1006EC00944798479305000A93F6060E21831377D7
:1006FC00F7037D8A05076394B608B767CD1D93870A
:10070C00075033D7E702B707122093870712B29727
:10071C009C239146B387E7026309D60085669386CE
:10072C000654B3D6C600858A91C2858323A4F18072
:10073C0037160240544237071220130707119182D3
:10074C00BD8A36971823B70612209386061EB3D798
:10075C00E7005842416641830D8B3697182333D7F7
:10076C00E70023A6E182B7F600E083A606D1F18E5E
:10077C0091E2BA87370712202322F71E8280930555
:10078C00000E6392B602D45BB70712209387071052
:10079C00C182B6979C23B7867D0193860684B38766
:1007AC00D7028583B9BF930700086397F600B74754
:1007BC009C1C93870780B1B79307000C6397F600D6
:1007CC00B7677307938707942DBFB7877D0193870E
:1007DC00078405BFD85BB7071220938707104183A6
:1007EC00BA979C2337877D0113070784B387E702E9
:1007FC002DBFB767CD1D938707500DBF01A0011109
:10080C0006CE22CC0010B70700089C432326F4FE2A
:10081C001520AA872326F4FE8327C4FE93F707F03E
:10082C002326F4FE8327C4FE99833E85F24062445E
:10083C0005618280B7270240C84F098182809C45A0
:10084C0003D8050013F7070193F8F7001DCB584D9B
:10085C0093E8180081468D4E414E3316D0283373E1
:10086C00C800631C66001393160033966E00337732
:10087C00C740D04133166600518F8506E39FC6FDF5
:10088C0058CD1377F80F1DCF184181461303800202
:10089C003D4E930E8004A1453316D028337FC800FB
:1008AC00631EE6016395670650C913962600331F35
:1008BC00CE003396C8003377E741518F8506E39D10
:1008CC00B6FC18C11307F00F6372070554410146BB
:1008DC00130E8002930E80042143130786003317F6
:1008EC00E028B375E800631FB7006396C70358C9C7
:1008FC0013172600BD45B395E5003397E800B3F612
:10090C00B640D98E0506E31A66FC54C18280E39E7C
:10091C00D7F910C959BFE39DD7FD18C9D1BF3717F7
:10092C0001409D479306078063F8B702938785FFC4
:10093C0093F7F70F631AD506B70601408C468A0762
:10094C003D473317F70033F7E54098C69846B31781
:10095C00F600D98F9CC682806308D502930707C026
:10096C00630AF508631CE51637070140544B8A05EA
:10097C00BD47B397B700B3F7F6405CCB5C4BB315F0
:10098C00B600DD8D4CCB82803707014054438A057D
:10099C00BD47B397B700B3F7F6405CC35C43B315E0
:1009AC00B600DD8D4CC38280930607C06304D5026C
:1009BC006312E510B70601408C4E8A073D4733178A
:1009CC00F70033F7E54098CE984EB317F600D98F61
:1009DC009CCE8280B70601408C4A8A073D4733176C
:1009EC00F70033F7E54098CA984AB317F600D98F49
:1009FC009CCA82803707014054478A05BD47B3978C
:100A0C00B700B3F7F6405CC75C47B315B600DD8D95
:100A1C004CC782803727014013070780AE876318C5
:100A2C00E5043707014054538A05BD47B397B70017
:100A3C00B3F7F6405CD35C53B315B600DD8D4CD3E5
:100A4C00828037270140130707806312E502B7063F
:100A5C0001408C568A073D473317F70033F7E540C2
:100A6C0098D69856B317F600D98F9CD68280372724
:100A7C000140130707C06317E5088A073D47331782
:100A8C00F7003316F6009D471347F7FF63FBB700DB
:100A9C00B7070140945B758F98DB985B518F98DB9F
:100AAC008280B7070140D457758FD8D7D857518F4C
:100ABC00D8D7828013070740E315E5F8B706014045
:100ACC008C528A073D473317F70033F7E54098D22D
:100ADC009852B317F600D98F9CD282801307074027
:100AEC00E31AE5F237070140544F8A05BD47B39727
:100AFC00B700B3F7F6405CCF5C4FB315B600DD8D95
:100B0C004CCF82808280EFF2FF8541118545130521
:100B1C00C00F02C202C402C67921B7A70240984B8B
:100B2C00137707F03AC002471367B7013AC0024780
:100B3C0098CBD84B137707FC3AC002471367E700F2
:100B4C003AC00247D8CB6539B7F7FF1F83A7477068
:100B5C0093F7070F8DE38545370500809D21B787F7
:100B6C00004093870740D8538145370500801367B1
:100B7C001700D8D3B921B7F7FF1F83A747703707E2
:100B8C0071411307D75093F7F7F06380E70863615F
:100B9C00F702370750411307D750638DE70C37071F
:100BAC0060411307D7506385E71241016FF0CFFD09
:100BBC00370772411307D750E399E7FE096493078F
:100BCC00F4FDB71401407C824C009307800213851E
:100BDC0004803EC6AD31E1779387C70F4C00138577
:100BEC0004C07C82A939F977938707034C00371529
:100BFC0001407C82A931930700304C0013850440DE
:100C0C0071147C822D396082B9A03714014093078E
:100C1C00E01C7C824C0093078002130504803EC6C6
:100C2C003939E1779387470E4C00130504C07C8259
:100C3C003931F977938707034C00371501407C82D3
:100C4C00FD3E930700304C00130504407C82C53EEA
:100C5C00930740387C82372401404C0013050480F4
:100C6C00F93E9167938707FC4C00130504C07C8206
:100C7C00F93625BF37140140930700101305048083
:100C8C007C824C00930780023EC6553E930740027F
:100C9C00130504C04C007C825D36F97793870702FC
:100CAC004C00371501407C82593EDD57130504403A
:100CBC004C007C82372401405936930770784C00E5
:100CCC00130504807C82A53EE17793C777FC69BF4E
:100CDC003714014093070070130504807C824C008C
:100CEC00930780023EC6A13E930740C0130504C083
:100CFC004C007C82A936F9774C00371501407C8278
:100D0C003D3E9307309F130504404C007C82053E0A
:100D1C00E1773724014093C7F7DF4C0013050480BB
:100D2C007C82313E95679387F7833DBF37770040D0
:100D3C001C43F99BC98F1CC337F700E0832707D1ED
:100D4C0093E747002328F7D085476391F502832763
:100D5C0007D1DD9B2328F7D07300501037F700E044
:100D6C00832707D1ED9B2328F7D08280B70701405A
:100D7C009385074003A6C1838841498E90C123A85F
:100D8C0001827D562322C7C8032607D1136686002D
:100D9C002328C7D07300501093874741984303A66C
:100DAC00C183718F19E703A7C18301C7730050106A
:100DBC00F5B7984323A8E182370701401307074092
:100DCC0003A6C1830C4333F6C54010C303A7C183EC
:100DDC009443558F98C359B7B7770040984313770E
:100DEC00F7DF98C39843498F98C38280B777004048
:100DFC009843F9769386F63F758F98C39843598D2F
:100E0C0088C38280B7170240D44398472146B18AE1
:100E1C006394C602B7060070758F37060050630ED8
:100E2C00C7146360E6021DC7B7479C1CB706004099
:100E3C00938707806307D706B7877D01938707845D
:100E4C008DA037060060630BC710B76773079387D5
:100E5C000794CDB79047944798479305000A93F6AB
:100E6C00060E21831377F7037D8A0507639DB60869
:100E7C00B767CD1D9387075033D7E702B70712200A
:100E8C0093870716B2979C239146B387E7026309B1
:100E9C00D600856693860654B3D6C600858A91C261
:100EAC0085831CC1371602405442370712201307A2
:100EBC0007159182BD8A3697182393868181B3D703
:100ECC00E7005842416641830D8B36971823B7F6DD
:100EDC0000E033D7E70058C183A606D1F18E91E22A
:100EEC00BA871CC5371602405C4263DD07085C42BA
:100EFC0037479C1C13070780AD83FD8B9507335731
:100F0C00F70258C582809305000E6392B602D45B3B
:100F1C00B707122093870714C182B6979C23B78614
:100F2C007D0193860684B387D7028583B1B7930777
:100F3C0000086397F600B7479C1C938707802DBF6A
:100F4C009307000C6397F600B767730793870794B2
:100F5C0025B7B7877D019387078439BFD85BB7075F
:100F6C001220938707144183BA979C2337877D01FE
:100F7C0013070784B387E70225B7B767CD1D93879F
:100F8C00075005B7544293870181AD829D8AB6976D
:100F9C008C235C429386C180B9838D8BB6979C233E
:100FAC003357B700A9BF99C5371702405C4FC98F9B
:100FBC005CCF8280B7170240D84F3375A740C8CF9B
:100FCC00828099C5371702401C53C98F1CD382806D
:100FDC00B717024098533375A74088D38280EFF23D
:100FEC006FB89E257D77BD667D8F41112A84AE84B6
:100FFC00631BD7005A2DB18B334707084D9BD98FF4
:10100C005EAD239405001A28F577FD177D8FFE2021
:10101C000A85D98F1EA85A248D679387379F7D8F99
:10102C00DE20D98F9A24D98FBA24D98F5EA45E285A
:10103C00DA24B3C7070893F7F7CFD98F5EA8D93353
:10104C00924765459040B335F50281460A06330553
:10105C00F502412293064006B357D5021306F063FE
:10106C0013974700B377D502920793872703637AC8
:10107C00F60093070701B3C707081EA441016FF0E0
:10108C00AFB0B3D7D702D98FFDB75E2589C593977B
:10109C00D7285EA5828079777D17F98FDDBF93F510
:1010AC00F51F4EA182800A216D8D3335A000828000
:1010BC0083A7C18237470F0013070724B3D7E70272
:1010CC00239CF1821307803EB387E70223AAF182A7
:1010DC008280B7F700E0D843799BD8C303A741833C
:1010EC0023A407003305E502114788CB98C3984326
:1010FC001367170098C3D843058B75DF9843799B0A
:10110C0098C38280EFF20FA62A84116501118545E0
:10111C001505B714014002C202C402C602C802CAB5
:10112C0002CC02CE49351D4613850480A545EFF04F
:10113C000FFF930700207C828D473EC44C00E14793
:10114C00138504803EC6EFF08FEF22C83744014070
:10115C00B70708000C08130504803ECC02CA231EF6
:10116C000100B53D854513050480053705616FF019
:10117C00AFA1EFF28F9D37490140AE893284814493
:10118C001309098063C5840022856FF04F9F930576
:10119C0000044A85093F65DDB38799008385070004
:1011AC004A858504B3C50508DD3DE9BFAA8703A5BB
:1011BC00C18113878185AA9763EBE7003707182055
:1011CC00130707806365F70023AEF18082807D559D
:1011DC0082803288AA882E87CDEA63FFC50EC1674C
:1011EC00636AF618B7070001B337F600B307F0408F
:1011FC00E19BE1073353F6009716F0DF9386460523
:10120C009A96942213030002B697B306F340630B2D
:10121C00F3003397D500B357F5003318D6005D8F24
:10122C00B318D500135608013355C702B346080846
:10123C0093D708013377C702B385A6024207D98F2B
:10124C0063FAB700C2971307F5FF63E4070163E87D
:10125C00B7303A858D8F33D7C702B3C80808B3F7B8
:10126C00C702B386E602C207B3E8F80063FBD800F6
:10127C00C2989307F7FF63E50801791763E3D80079
:10128C003E874205598D8145828063F5D5008145A5
:10129C0001458280C16763E5F618B7070001B3B753
:1012AC00F600B307F040E19BE10733D8F6001717BF
:1012BC00F0DF1307E7F942971823930800023E97D3
:1012CC003388E8406392E81863EDB6263335C500E1
:1012DC00134515008145828045C6C167637BF624A2
:1012EC0013370610134717000E07B356E60097176F
:1012FC00F0DF9387E7F5B6979C2393060002BA9725
:10130C00B38EF640639DF608B387C540854593566A
:10131C0006013346060833D5D70213D70801B3F7B5
:10132C00D7023303C502C207D98F63FA6700C2978D
:10133C001307F5FF63E4070163E067223A85B3877F
:10134C00674033D7D702B3C80808B3F7D7023306C0
:10135C00C702C207B3E8F80063FBC800C298930742
:10136C00F7FF63E50801791763E3C8003E87420580
:10137C00598D82809337061093C717008E079DBD39
:10138C0081469717F0DF9387A7ECB6979C2301470C
:10139C0093060002BA97B38EF640E387F6F633183D
:1013AC00D60133D3F50093560801335ED302B395BF
:1013BC00D501B357F500CD8F3346080813D7070175
:1013CC00B318D5013373D302B305C6034203336795
:1013DC006700637BB70042971305FEFF636A07172C
:1013EC006378B716791E42970D8F3355D702B3C762
:1013FC0007083377D7023303A6024207D98F63FB62
:10140C006700C2971307F5FF63E0071563FE6712C9
:10141C007915C29793150E01B3876740C98DE5BD49
:10142C0093B7061093C717008E0733D8F60017171B
:10143C00F0DF1307E7E142971823930800023E9769
:10144C003388E840E382E8E8335EE600B3960601B1
:10145C00336EDE00B3D8E500935E0E01B3D7D8032C
:10146C00B39505013357E5004D8F33430E08935662
:10147C00070133160601B3F8D803B305F302C2080B
:10148C00B3E6160163FBB600F2969388F7FF63E3AD
:10149C00C60D63F1B60CF917F2968D8EB3D5D60343
:1014AC0033470708B3F6D603B308B302C206558F09
:1014BC00637B170172979386F5FF6369C70963779E
:1014CC001709F9157297C207C16ECD8F9386FEFF6F
:1014DC00B3F5D70013D30701F18E4182338ED502B9
:1014EC0033071741B306D30293580E01B385C502D7
:1014FC00B695C6953303C30263F3D500769393D6A2
:10150C0005019A966363D7026305D7003E85814532
:10151C008280C166FD1633F7D5004207337EDE00AC
:10152C00331505017297E373E5FE1385F7FF8145CB
:10153C008280B70700016377F60293560601414794
:10154C007DB38145054582803A85E9B5B685A5BF51
:10155C002A8E59BDC68791B77915C297CDB3791527
:10156C00C297CDB993568601614751B3011126CA72
:10157C0006CE22CC4AC84EC652C4AA8419E11C45D8
:10158C0002901C4D2E89ADE305239C4C8044B9CFB1
:10159C009717F0DF9387C7DF631DF404C0407C50BE
:1015AC00858B99E75E2493F7072099E3284C8D2DC2
:1015BC005E24A18B99C31C48D5E3A28526859D2A60
:1015CC0051CDFD547C50858B99E75E2493F7072011
:1015DC0099E3284CB925F24062444249B249224A67
:1015EC002685D2440561828000455DB726856D292C
:1015FC0045B79717F0DF9387A7D76314F40080449F
:10160C0079BF9717F0DF9387A7D4E31AF4F8C04497
:10161C0079B71CC4050963C807021C40138717005F
:10162C0018C08CA31C4483450900FD17FDF11CC494
:10163C0063D907022286A94526853D28FD57E3027A
:10164C00F5F8A94441B7184C63C4E700E39745FD8E
:10165C00228626851520E31735FDA5B7FD59294AA5
:10166C00D1B71C401387170018C0294798A3D1BFC6
:10167C00AA8503A50182DDBD011122CC26CA4AC868
:10168C0006CE4EC6AA842E89328401C51C4D91E328
:10169C0021299717F0DF9387A7CF6317F402C04077
:1016AC001C4C1CC45E24A18B99C31C4895EFA285CD
:1016BC002685492015C97D59F2406244D244B2496D
:1016CC004A854249056182809717F0DF938747CAA4
:1016DC006314F4008044E9B79717F0DF938747C78A
:1016EC00E310F4FCC0446DBF1C4808409379F90F1B
:1016FC001379F90F1D8D5C486346F500A28526858C
:10170C00912C55F91C440505FD171CC41C4013876E
:10171C00170018C0238037015C486388A7005E243B
:10172C00858BD9DBA947E319F9F8A28526851D24F9
:10173C0041D551B7411122C426C24AC006C683A462
:10174C0001822A892E8489C49C4C99E32685A92E72
:10175C009717F0DF9387C7C36313F402C040831756
:10176C00C40013F7870025E713F707010DEB254796
:10177C002320E90093E707045EA47D5571A0971719
:10178C00F0DF9387E7BE6314F4008044C9BF97175A
:10179C00F0DF9387E7BBE314F4FCC044C9B7918B2B
:1017AC009DC34C5889C9930744046384F5004A854A
:1017BC00B92B232A04025E242322040093F7B7FDDD
:1017CC005EA41C481CC05E2493E787005EA41C48E2
:1017DC0099EB5E241307002093F707286385E70035
:1017EC00A2854A8561298317C40013F717001DC30E
:1017FC005848232404003307E04018CC184801450E
:10180C0001E713F707083DF7B2402244924402491E
:10181C004101828013F72700814611E3544814C418
:10182C00F1BF8397C500011122CC26CA06CE4AC847
:10183C004EC613F78700AA842E8479E3D8416345FA
:10184C00E000B8416356E008585459C303A904009A
:10185C0023A004000C5093D7C748A9CB70485E2432
:10186C00918B99C75C401D8E5C5899C33C401D8E72
:10187C005C540C50814626858297FD57630CF50409
:10188C001C480567232204001CC05E24F98F91C3F9
:10189C0068C84C5823A0240185CD93074404638465
:1018AC00F5002685AD21232A04021DA0014685469C
:1018BC0026850297FD572A86E313F5FA9C40C5D37B
:1018CC0075476385E70059476395E70623A0240114
:1018DC000145B5A098408317C40001CFF5466305B8
:1018EC00D700D9466319D7041C48232204001CC016
:1018FC004DB718482322040093D7C74818C041BFDE
:10190C0083A90501E38609FC03A905008D8B23A09F
:10191C00350133093941014791E3D84918C4E359DA
:10192C0020FB1C540C50CA864E8626858297634F2A
:10193C00A0008317C40093E707045EA47D55F24012
:10194C006244D2444249B24905618280AA99330962
:10195C00A940F1B79C49411106C622C426C281EBAD
:10196C008144B24022442685924441018280AA845B
:10197C002E8401C51C4D91E3052A9717F0DF938740
:10198C0027A1631CF402C0408317C400F1DB78501C
:10199C00058B11E793F7072099E3284C51242685F2
:1019AC00A28541357C50AA84858BC5FF5E2493F7B4
:1019BC000720C5FB284CB5246DB79717F0DF93872C
:1019CC00279B6314F4008044C1B79717F0DF93870B
:1019DC002798E31BF4FAC04445BF411122C406C644
:1019EC002A844EA572A5232005002322050023245A
:1019FC0005002322050623280500232A0500232C95
:101A0C000500214681451305C505EFE0BF989707F2
:101A1C0000009387C7515CD0970700009387C7538A
:101A2C001CD497070000938787575CD49707000056
:101A3C009387C759B24000D01CD822444101828000
:101A4C0097050000938545F1BDA2411126C293076D
:101A5C0080069384F5FFB384F4024AC02E8922C415
:101A6C0006C693854407692E2A8401CD23200500E0
:101A7C0023222501310508C4138684068145EFE035
:101A8C007F91B240228522449244024941018280D6
:101A9C001385418471A21385418461A213858184CD
:101AAC0041A213858184B5AA411122C406C62A8499
:101ABC00F5371C4C89C72244B2404101DDB797076A
:101ACC000000938727F81CD4232404042326040441
:101ADC002328040483A781826394870085471CCC48
:101AEC0022853D2048C02285252008C422850D2052
:101AFC0048C4484001469145CD3508440546A545A6
:101B0C00E93D48440946C945C93D85471CCC65B7E4
:101B1C00411126C24AC006C622C42A89953F83A415
:101B2C0081829C4C99E326854137938484048044BC
:101B3C00DC40FD1763D607009C40BDC38440C5BF85
:101B4C000317C40039EBC17785075CC41305840502
:101B5C0023220406E9208137214623200400232474
:101B6C0004002322040023280400232A0400232C2D
:101B7C00040081451305C405EFE0DF81232A04022C
:101B8C00232C04022324040423260404B2402285BB
:101B9C00224492440249410182801304840651BFBD
:101BAC0091454A855D3588C02A8449F9ED35B147A0
:101BBC002320F900E1BF797122D44AD04ECE52CC09
:101BCC005AC85EC606D626D256CA2A892E8A13044D
:101BDC0085048149054BFD5B0444832A4400FD1AAE
:101BEC0063D00A0200406DF8B2502254925402594C
:101BFC00624AD24A424BB24B4E85F24945618280D1
:101C0C00DE24637BFB008397E40063877701A68562
:101C1C004A85029AB3E9A90093848406C9B78280E5
:101C2C00828082805971A2D42E848395E500A6D23D
:101C3C00CAD086D6B284368963D205025E2493F765
:101C4C0007088DEB13070040B65026542320F900EB
:101C5C0098C0065996540145656182803000C926AA
:101C6C00E34E05FC3247BD67F98F7977BA9793B786
:101C7C001700C9BF814713070004F9B7DE25797136
:101C8C0022D406D626D24AD04ECE898B2E8491CF22
:101C9C00930774041CC01CC885475CC8B2502254FE
:101CAC0092540259F2494561828074003000AA8432
:101CBC00953FA2492A892685CE85992219E9831751
:101CCC00C40013F7072079FBF19B93E727005EA470
:101CDC00C1B7970700009387E7D69CD45E2408C051
:101CEC0008C893E707085EA4B247232A340199CBAE
:101CFC008315E4002685892E11C55E24F19B93E79C
:101D0C0017005EA45E2433E527014AA441BFD1CD60
:101D1C0083A7C5FF011122CC06CE1384C5FF63D364
:101D2C0007003E942AC68D2E138701851C4332452D
:101D3C0081EB2322040000C36244F24005618DA6AE
:101D4C00637DF4001040B306C4006396D70094433F
:101D5C00DC43B29614C05CC0F9BF3E87DC4399C328
:101D6C00E37DF4FE14433306D700631F8600104056
:101D7C00B29614C33306D700E390C7FC9043DC4300
:101D8C00B29614C35CC34DBF6375C400B1471CC18C
:101D9C0065B71040B306C4006396D7009443DC4388
:101DAC00B29614C05CC040C341BF828041114AC08E
:101DBC001389C1848327090022C426C206C6AA84BB
:101DCC002E8489E78145352A2320A900A285268502
:101DDC000D2A7D59631A25017D54B2402285224477
:101DEC009244024941018280130435007198E30644
:101DFC0085FEB305A44026852922E31025FFE9BF03
:101E0C00011126CA93843500F1984AC8A104B14740
:101E1C0006CE22CC4EC62A89B3F4F40A63C404005D
:101E2C0063FDB400B1472320F9000145F240624440
:101E3C00D2444249B24905618280B92C938901850B
:101E4C0083A709003E8431E4A6854A858537FD5772
:101E5C002A846316F50A03A40900A287C1EB83291F
:101E6C00040081454A85A29969286394A9081C40FD
:101E7C008D044A859D8CF198B147A104B3F4F40A02
:101E8C00A6852D37FD576306F5061C40A6971CC08A
:101E9C0015A01440858E63C806042D47637DD702B8
:101EAC0004C0330794006396870223A0E9005C40CA
:101EBC0014C35CC34A85ED221305B4009307440098
:101ECC0061993307F540E303F5F63A94898F1CC00A
:101EDC00B1BFD8C3E9BF58406395870023A0E90080
:101EEC00D1BFD8C3C1BFA2874040B1BF3E84DC4341
:101EFC00B5B7B1472320F9004A855D223DB704C12F
:101F0C0055BF411122C42A842E8523AA018406C6FA
:101F1C00EFF0CFA9FD576316F50083A7418591C358
:101F2C001CC0B240224441018280411122C42E8443
:101F3C008395E50006C68D2A634905007C48AA975F
:101F4C007CC8B2402244410182805E249397C748EA
:101F5C005EA4C5BFDE25011122CC26CA4AC84EC6D6
:101F6C0006CE93F70710AA842E843289B68991C7BE
:101F7C008395E50089460146DD285E248315E4003F
:101F8C00F2409397C7485EA46244CE864A86B24913
:101F9C0042492685D24405611DA8411122C42E84D4
:101FAC008395E50006C6E1207D575E246319E500A4
:101FBC009397C7485EA4B240224441018280939714
:101FCC00C72868C85EA4C5BF8395E5003DA0411134
:101FDC0022C42A842E85B285368623AA018406C69D
:101FEC00EFF02F99FD576316F50083A7418591C338
:101FFC001CC0B240224441018280411122C42A8477
:10200C002E8523AA018406C6E920FD576316F50028
:10201C0083A7418591C31CC0B240224441018280F8
:10202C00411122C42A842E85B28523AA018406C6B6
:10203C007D20FD576316F50083A7418591C31CC015
:10204C00B240224441018280411122C42A842E854F
:10205C0023AA018406C65128FD576316F50083A7F1
:10206C00418591C31CC0B240224441018280411180
:10207C0022C42A842E85B285368623AA018406C6FC
:10208C009D28FD576316F50083A7418591C31CC09D
:10209C00B240224441018280138501846FF05FB805
:1020AC00138501846FF0FFB7411122C42A842E8559
:1020BC00B285368623AA018406C6A120FD57631675
:1020CC00F50083A7418591C31CC0B2402244410155
:1020DC0082809307800523AAF1847D558280930723
:1020EC00800523AAF1847D5582809307800523AA5D
:1020FC00F184014582809307800523AAF1847D55E4
:10210C0082809307800523AAF1847D55828000008C
:10211C00307800000D0A563346204641554C542069
:10212C006D63617573653D00206D6570633D0000E6
:10213C00206D7476616C3D000D0A00005633463AF2
:10214C002057616B65207570205635460D000000D8
:10215C005633463A20576F6B652075700D000000A2
:10216C000001020203030303040404040404040432
:10217C000505050505050505050505050505050503
:10218C0006060606060606060606060606060606E3
:10219C0006060606060606060606060606060606D3
:1021AC0007070707070707070707070707070707B3
:1021BC0007070707070707070707070707070707A3
:1021CC000707070707070707070707070707070793
:1021DC000707070707070707070707070707070783
:1021EC000808080808080808080808080808080863
:1021FC000808080808080808080808080808080853
:10220C000808080808080808080808080808080842
:10221C000808080808080808080808080808080832
:10222C000808080808080808080808080808080822
:10223C000808080808080808080808080808080812
:10224C000808080808080808080808080808080802
:10225C0008080808080808080808080808080808F2
:10226C000000000000000000000000000000000062
:10227C000000000000000000000000000000000052
:10228C000000000000000000000000000000000042
:10229C000000000000000000000000000000000032
:1022AC000000000000000000000000000000000022
:1022BC000000000000000000000000000000000012
:1022CC0097E111209381417117E117201301C1D2BD
:1022DC001305800097E51120938505D217E6112090
:1022EC001306C6DF63FAC5008322050023A0550040
:1022FC0011059105E3EAC5FE97E01120E780C0CFF8
:10230C00B70237129382123E739002BC85427390CF
:10231C0012BC9D42739042809962938282087390A2
:10232C00023097E20F20938222CD93E23200739019
:10233C00523097E20F209382020473901234730090
:04234C00203000003D
:10235000191C1E202326282D32383C40464C505A4A
:102360000000000000000000010203040607080945
:10237000040607081109130A150B170C190D0E0F87
:10238000101112131416181A1C1E20222426283B82
:10239000191C1E202326282D32383C40464C505A0A
:1023A0000000000000000000010203040607080905
:1023B000040607081109130A150B170C190D0E0F47
:1023C000101112131416181A1C1E20222426283B42
:1023D00000000000AC2200008C2200006C220000F3
:1023E00000000000000000000000000000000000ED
:1023F00000000000000000000000000000000000DD
:1024000000000000000000000000000000000000CC
:1024100000000000000000000000000000000000BC
:1024200000000000000000000000000000000000AC
:102430000001020200E1F5050084D7170204060836
:102440000000000001020304000102023802122011
:0C2450008001122000000000800112201A
:00000001FF
