:020000024000BC
:080000006F7080370000000062
:100008001705F8DF130505EE9705FEFF938585DFD5
:100018001736FEFF1306463B63FAC5008322050028
:1000280023A0550011059105E3EAC5FE1775F8DF11
:100038001305051A9735FEFF938505391736FEFF18
:100048001306863863FAC5008322050023A05500ED
:1000580011059105E3EAC5FE1775F8DF1305451785
:10006800970500009385050A1386818A63FAC500FF
:100078008322050023A0550011059105E3EAC5FE7A
:100088001385818A938501436377B5002320050092
:100098001105E36DB5FEB7B237129382023E739035
:1000A80002BC9D42739012BCBD427390428099621B
:1000B80093828208739002309702FEFF938282D463
:1000C80093E23200739052309702FEFF9382E21B54
:0800D800739012347300203014
:1000E00000000400000000004A030A204C030A201C
:1000F00000000000660D0A20000000000000000063
:10010000660D0A20660D0A200000000000000000B5
:10011000660D0A20660D0A20660D0A200000000008
:10012000660D0A20660D0A20660D0A20660D0A205B
:1001300000000000000000000000000000000000BF
:1001400000000000000000000000000000000000AF
:10015000660D0A2000000000000000000000000002
:10016000660D0A20660D0A20660D0A20660D0A201B
:10017000660D0A20660D0A20660D0A20660D0A200B
:10018000660D0A20660D0A20660D0A20660D0A20FB
:10019000660D0A20660D0A20660D0A20660D0A20EB
:1001A000660D0A20660D0A20660D0A20660D0A20DB
:1001B000660D0A20660D0A20660D0A20660D0A20CB
:1001C000660D0A20660D0A20660D0A20660D0A20BB
:1001D000660D0A20660D0A20660D0A20660D0A20AB
:1001E000660D0A20660D0A20660D0A20660D0A209B
:1001F000660D0A20660D0A20660D0A20660D0A208B
:10020000660D0A20660D0A20660D0A20660D0A207A
:10021000660D0A20660D0A20660D0A20660D0A206A
:10022000660D0A20660D0A20660D0A20660D0A205A
:10023000660D0A20660D0A20660D0A20660D0A204A
:10024000660D0A20660D0A20660D0A20660D0A203A
:10025000660D0A20660D0A20660D0A20660D0A202A
:10026000660D0A20660D0A20660D0A20660D0A201A
:10027000660D0A20660D0A20660D0A20660D0A200A
:10028000660D0A20660D0A20660D0A20660D0A20FA
:10029000660D0A20660D0A20660D0A20660D0A20EA
:1002A000660D0A20660D0A20660D0A20660D0A20DA
:1002B000660D0A20660D0A20660D0A20660D0A20CA
:1002C000660D0A20660D0A20660D0A20660D0A20BA
:1002D000660D0A20660D0A2000000000660D0A2047
:1002E000660D0A200000000000000000660D0A20D4
:1002F0000000000000000000660D0A20660D0A20C4
:10030000660D0A20660D0A20660D0A20660D0A2079
:10031000660D0A20660D0A20660D0A20660D0A2069
:10032000660D0A20660D0A20660D0A20660D0A2059
:10033000660D0A20397101436EC619A03971415307
:100340006AC866CA62CC5ECE19A0397101535AD010
:1003500056D252D44ED64AD826DA22DC06DE3301F3
:100360006140828241114AC026C222C406C68282EE
:10037000B24D4101024D924C224CB24B4101024B15
:10038000924A224AB2494101024992442244B2406F
:10039000410182802A8309CA8383050023007300F8
:1003A0007D16050385056DFA82802A8311C6230018
:1003B000B3007D16050365FE8280EFF2BFFAB744F5
:1003C00001402A8413890480930500044A85EF00C4
:1003D000907F7DD913850480B3450408EF00307EFB
:1003E00065B7EFF23FF82A840305040011E169BF05
:1003F0000504E137D5BFEFF25FF5AA843735040075
:100400001305456AF93F7144A5497159B3D7840072
:1004100013F7F7001305770363E4E90013050703F7
:100420007114613FE31424FF99BF01A0411122C65A
:1004300026C44AC273292034F32410347324303480
:10044000373504001305856A693F4A856D373735AE
:1004500004001305C56B71372685713F37350400DD
:100460001305456CBD3F22857937373504001305E8
:100470008572853F2945EF00D077B707EFBE37E794
:1004800000E0938707083CC701A0EFF2BFEDB74437
:1004900001402A8413890480930500044A85EF00F3
:1004A00090727DD9A28513850480EF005071E9BD5B
:1004B000EFF25FEB2A840305040011E1F1B5137537
:1004C000F50F0504D937C5BFEFF2DFE90111B735E4
:1004D000040045469385C56CAA846800653D3735A0
:1004E00004001305456AE93771447159B3D7840094
:1004F000BD8B938707028A9703C5C7FE71147137B6
:10050000E31624FF056149B5EFF2DFE5411111E57E
:10051000130500039D3F410185BD5C000144BE847D
:10052000A94625463377D502050485071307070337
:10053000A38FE7FE2A873355D502E365E6FE7D14D7
:10054000B3878400882391377DF8F1B7EFF29FE1FC
:100550002A84635705001305D002053F3304804009
:1005600022855D3715B5EFF2FFDC01118545214588
:10057000EF005055B7140140C1470947138504C027
:100580004C083ECA3ACC3ECEEF00100CEF0000758E
:10059000EF001064716513050520EF0070697D544C
:1005A000938404C0655913761400C1452685EF0075
:1005B000B0171305800C7D14EF00B063E31524FF22
:1005C000373504001305056EE53503A5818A3734F8
:1005D0000400373A04000D3F13058472D13DEF004B
:1005E000106C373504001305456FD9351305401FCE
:1005F000EF003060373504001305C570553D3735C1
:1006000004001305C5726D3583A7C188B7FA00E0F1
:10061000B74904003E853EC2C53D1305CA73493D36
:1006200083A48A08EF10602D9245138549A9EF1025
:10063000202F83A78A082A8963E69760373504004C
:1006400013058574B3849740A5352685753D3735E8
:10065000040013058575A93D373504009387818A09
:1006600013054576938401439D8C99352685693D14
:100670001305CA73353D37350400130545770D3D25
:1006800003A5C18193048014938949A9353D1305BD
:100690008472393D3735040013054578113D3735EF
:1006A0000400130545792935130A8015B3873401F1
:1006B00088238504113D13050002C13BE39844FFE4
:1006C00013058472F533373504001305457ACD33AD
:1006D00081449389418D114AB3873401882385046D
:1006E000E533130500025533E39844FF1305847284
:1006F000C133373504001305057B938401354D3B29
:10070000938904028840910401351305C002B53B6A
:10071000E39A34FF13058472613B373504001305F7
:10072000C57B938401336933938904028840910423
:10073000E13B1305C002913BE39A34FF1305847239
:10074000853B373504001305857C938401318D3357
:100750009389040288409104453B1305C002353358
:10076000E39A34FF13058472A1333735040013056F
:10077000457D3D3B03A5018ED13B37350400130574
:10078000857D3D3303A5C18DD13337350400130575
:10079000C57D393B03A5818D93894142938A81416F
:1007A0007533373504001305457E193303A5818160
:1007B000014C373B0400593B373504001305C57E17
:1007C000C53903A54181373D0400B74D0400BD3B49
:1007D00013058472F13983A7818D6348FC46374540
:1007E000040013054580E9318149938A0129130CDE
:1007F0000004B38759018823850939331305C002E2
:100800006931E39889FF130584725D31B74C0400A8
:10081000938A013B1385CC806139138C0A0293893A
:10082000013B03A50900910915331305C002B13935
:10083000E39989FF13058472A53937450400130530
:10084000458193890139AD31138D090203A5090052
:1008500091095D391305C0020D39E399A9FF13050C
:100860008472B931374504001305C5819389013776
:100870008131138D090203A5090091097131130516
:10088000C0022131E399A9FF130584721531374560
:1008900004001305458229398549138D013DC54D55
:1008A000B387A9018823850985311305C002F13E6C
:1008B000E398B9FF13058472E53E1385CC80CD3EE5
:1008C00003A50A00910A59311305C0027D3EE39940
:1008D0008AFF13058472E93E83A7018E6350F004FA
:1008E00083A7C18D635CF0023745040013050583BF
:1008F000C13603A7C18D83A7018EA14AB387E70242
:100900001307F0236346F700930A0004B3CA5703A2
:10091000814963CB593713058472593E374504002A
:100920001305C5837136631F093837450400130565
:100930008584BD3E03A5018E8149A94A013913056D
:100940008007A13603A5C18D0D4C093113058472B2
:1009500085363745040013054585993E014403A7B4
:10096000018E83A7C181A29705043387E902BA9754
:100970008823593E1305C002093EE31254FF85093E
:10098000E39E89FDB7390400138589721536374512
:10099000040013054586B74A0400193E0144938AB2
:1009A0004AA992476390873037450400130545876D
:1009B00001363745040013054588DD3C83A7C18D0A
:1009C00083AA018E03ABC181B38AFA020144639208
:1009D0008A2E3745040013054589D93C03AB018EA7
:1009E00003ADC18D83A7018383AAC181B7041220FF
:1009F00093840418014C814C930D00021306FDFFF3
:100A00009308FBFF3EC233C7BC03138A04E8B287D6
:100A10006353A701BA87B3876703814B3384FA0016
:100A2000B3C7BB0363C36701C687A297882346C6C3
:100A300032C4EF20D03A9245310ADA9BEF20000908
:100A4000232AAAFE232CAAFE232EAAFE2246B2485F
:100A500013080040E39644FD130C0C02EA9C9384B7
:100A60000418E3120CFB37FA00E09385418E37053A
:100A7000122083248A08EF00303283278A0863E13A
:100A80009724374504001305458AB384974013849F
:100A9000418E393C054A938A418E194BB3475921FF
:100AA00048408C43EF20602E6353A0005289050A12
:100AB0001104E3156AFF374504001305458BCD3A51
:100AC000374B04009307CB93B347F9208843096A57
:100AD0000149F93A13858972E13A37450400130553
:100AE000C58BF93283AC4183130BCB93130A0A7184
:100AF000130C703E130D3006E14BB3072B018843F6
:100B0000453A1305D0035132B3872A018843E6855D
:100B1000EF20803AEF20D0272A8433554503ED3269
:100B20001305E0029D323374440363608C021305A5
:100B30000003A13A636B8D0013050003B932A5478A
:100B400063E587001305000389322285753A130592
:100B5000000211091D3AE31279FB13858972893A63
:100B6000374504001305458CA1322685713A373587
:100B70000400130585752D3A374504001305058DCE
:100B8000053A83AB8183B704122037490F00616AAD
:100B9000896A13090924130AFA69938AFA70130CF3
:100BA000703E930C3006138B04088840DE85EF20DE
:100BB000A030EF20F01D2A8433552503B1321305F0
:100BC000E002EFF09F8C33742403636F8A021305F5
:100BD0000003EFF09F8B63E98A0213050003EFF037
:100BE000DF8A63638C0213050003EFF01F8A63ED55
:100BF0008C0013050003EFF05F89A54763E68700CB
:100C000013050003EFF07F882285FD3813050002ED
:100C10009104EFF09F87E39A64F913858972EFF0EE
:100C20003F89374504001305C58EEFF07F883745AF
:100C300004001305858FEFF0BF871305803EEF009A
:100C4000407BE5BFFD176FF07F9F13054B7FEFF0F3
:100C50003F866285EFF05F8B1305CD7FEFF05F85F8
:100C600003A50900050C9109EFF01F8A13850D807B
:100C7000EFF01F8403A50A00910AEFF0FF88130527
:100C80008472EFF0FF8281BE83A7C1811397690050
:100C90008509BA978823EFF07F8B1305C002EFF028
:100CA000CFFE85B9B307540188230504EFF0EFFDAB
:100CB000CDB9B3078B0088230504EFF00FFD01BB0E
:100CC000FD17C1B33745040013050590EFF04FFE43
:100CD0004A85EFF0BF8713058472B1BFB717024092
:100CE000D44398472146B18A6394C602B706007080
:100CF000758F370600506303C7146360E6021DC793
:100D0000B7479C1CB7060040938707806307D70648
:100D1000B7877D01938707848DA037060060630045
:100D2000C710B767730793870794CDB79047944769
:100D300098479305000A93F6060E21831377F7036D
:100D40007D8A05076392B608B767CD1D9387075064
:100D500033D7E702B7070C2093870732B2979C235B
:100D60009146B387E7026309D600856693860654E9
:100D7000B3D6C600858A91C2858323A6F18A371629
:100D80000240544237070C20130707319182BD8A75
:100D900036971823B7060C209386063EB3D7E70094
:100DA0005842416641830D8B3697182333D7E700AD
:100DB00023A8E18AB7F600E083A606D1F18E91E27E
:100DC000BA8723A4F18A82809305000E6392B6024B
:100DD000D45BB7070C2093870730C182B6979C235A
:100DE000B7867D0193860684B387D70285838DB746
:100DF000930700086397F600B7479C1C938707800A
:100E000081BF9307000C6397F600B767730793875A
:100E100007943DBFB7877D019387078415BFD85BD3
:100E2000B7070C20938707304183BA979C233787F5
:100E30007D0113070784B387E7023DBFB767CD1D68
:100E4000938707501DBF01A09C4503D8050013F7E9
:100E5000070193F8F7001DCB584D93E81800814621
:100E60008D4E414E3316D0283373C800631C660084
:100E70001393160033966E003377C740D041331674
:100E80006600518F8506E39FC6FD58CD1377F80F96
:100E90001DCF18418146130380023D4E930E8004FE
:100EA000A1453316D028337FC800631EE601639541
:100EB000670650C913962600331FCE003396C8002C
:100EC0003377E741518F8506E39DB6FC18C11307C0
:100ED000F00F6372070554410146130E8002930E12
:100EE00080042143130786003317E028B375E80018
:100EF000631FB7006396C70358C913172600BD4583
:100F0000B395E5003397E800B3F6B640D98E0506F1
:100F1000E31A66FC54C18280E39ED7F910C959BF19
:100F2000E39DD7FD18C9D1BF19C20CC982804CC935
:100F30008280371701409D479306078063F8B70208
:100F4000938785FF93F7F70F631AD506B70601401D
:100F50008C468A073D473317F70033F7E54098C6BC
:100F60009846B317F600D98F9CC682806308D502D5
:100F7000930707C0630AF508631CE51637070140AD
:100F8000544B8A05BD47B397B700B3F7F6405CCB27
:100F90005C4BB315B600DD8D4CCB8280370701402A
:100FA00054438A05BD47B397B700B3F7F6405CC317
:100FB0005C43B315B600DD8D4CC38280930607C039
:100FC0006304D5026312E510B70601408C4E8A0710
:100FD0003D473317F70033F7E54098CE984EB317E7
:100FE000F600D98F9CCE8280B70601408C4A8A07D2
:100FF0003D473317F70033F7E54098CA984AB317CF
:10100000F600D98F9CCA82803707014054478A0571
:10101000BD47B397B700B3F7F6405CC75C47B3155D
:10102000B600DD8D4CC7828037270140130707804B
:10103000AE876318E5043707014054538A05BD475E
:10104000B397B700B3F7F6405CD35C53B315B60063
:10105000DD8D4CD382803727014013070780631250
:10106000E502B70601408C568A073D473317F70063
:1010700033F7E54098D69856B317F600D98F9CD62B
:10108000828037270140130707C06317E5088A07E6
:101090003D473317F7003316F6009D471347F7FF18
:1010A00063FBB700B7070140945B758F98DB985BD3
:1010B000518F98DB8280B7070140D457758FD8D7FE
:1010C000D857518FD8D7828013070740E315E5F82A
:1010D000B70601408C528A073D473317F70033F7B4
:1010E000E54098D29852B317F600D98F9CD28280EF
:1010F00013070740E31AE5F237070140544F8A050A
:10110000BD47B397B700B3F7F6405CCF5C4FB3155C
:10111000B600DD8D4CCF82808280B7170240D44369
:1011200098472146B18A6394C602B7060070758F4E
:1011300037060050630EC7146360E6021DC7B74749
:101140009C1CB7060040938707806307D706B787C4
:101150007D01938707848DA037060060630BC7105D
:10116000B767730793870794CDB79047944798471D
:101170009305000A93F6060E21831377F7037D8A01
:101180000507639DB608B767CD1D9387075033D712
:10119000E702B7070C2093870736B2979C23914646
:1011A000B387E7026309D600856693860654B3D6F3
:1011B000C600858A91C285831CC1371602405442FD
:1011C00037070C20130707359182BD8A36971823FD
:1011D00093860181B3D7E7005842416641830D8B66
:1011E00036971823B7F600E033D7E70058C183A637
:1011F00006D1F18E91E2BA871CC5371602405C42D7
:1012000063DD07085C4237479C1C13070780AD83EA
:10121000FD8B95073357F70258C582809305000E62
:101220006392B602D45BB7070C2093870734C18260
:10123000B6979C23B7867D0193860684B387D70231
:101240008583B1B7930700086397F600B7479C1CE6
:10125000938707802DBF9307000C6397F600B7674D
:1012600073079387079425B7B7877D019387078412
:1012700039BFD85BB7070C20938707344183BA97EF
:101280009C2337877D0113070784B387E70225B7BF
:10129000B767CD1D9387075005B75442B7070C2099
:1012A0009387873EAD829D8AB6978C235C42B706B2
:1012B0000C209386463EB9838D8BB6979C2333577B
:1012C000B70089BF99C5371702405C4FC98F5CCF03
:1012D0008280B7170240D84F3375A740C8CF8280AD
:1012E00099C5371702401C53C98F1CD38280B7178A
:1012F000024098533375A74088D38280EFF28F86DF
:101300009E257D77BD667D8F41112A84AE84631B47
:10131000D7005A2DB18B334707084D9BD98F5EAD4F
:10132000239405001A28F577FD177D8FFE200A8586
:10133000D98F1EA85A248D679387379F7D8FDE2013
:10134000D98F9A24D98FBA24D98F5EA45E28DA2443
:10135000B3C7070893F7F7CFD98F5EA87D3B9247B5
:1013600065459040B335F50281460A063305F5021E
:10137000EF10A00693064006B357D5021306F0639C
:1013800013974700B377D502920793872703637AB1
:10139000F60093070701B3C707081EA441016FE0D9
:1013A000BFFEB3D7D702D98FFDB75E2589C5939706
:1013B000D7285EA5828079777D17F98FDDBF93F5F9
:1013C000F51F4EA182800A216D8D3335A0008280E9
:1013D00083A7018B37470F0013070724B3D7E70212
:1013E000239CF18A1307803EB387E70223AAF18A80
:1013F0008280B7F700E0D843759BD8C303A7418B21
:101400009387070823A407003305E502114788CB1B
:1014100098C398431367170098C3B7F700E0D84301
:10142000098B75DF938707089843799B98C382805F
:10143000EFE25FF301112A848545254502C202C40B
:1014400002C602C802CA02CC02CEAD3D85451305D4
:1014500000107935B71401402D46138504C091451D
:10146000EFF03FADC1477C828D473EC44C00E14761
:10147000138504C03EC6EFF03F9DB70708000C0877
:10148000372500403ECC22C802CA231E0100BD35CC
:10149000854537250040113F05616FE0FFEEEFE223
:1014A0007FE9377A0400411193070ADD3EC483A720
:1014B000C183B77A0400B77B0400377C0400B77C93
:1014C0000400377D040001446D49938A0AD73EC663
:1014D000138BC18F938B0BDF130C0CD9938C0CDB0C
:1014E000130D0DE1A247B245A2978443B3075401FF
:1014F0008843EF102028EF00302EAA852685EF10B4
:10150000E05CB3077401B30684018C422AC28843AD
:10151000B3046401EF10B0469245EF10F019B30721
:1015200094018C43EF10002537060C2088C0130669
:10153000C64F930459FE814D33CAA421B3C9C420B8
:10154000924503250A00850D310AEF10F01623A0FD
:10155000A900924503258AFFB109EF10F01523ACCD
:10156000A9FE92450325CAFFEF101015B7070C20FE
:1015700023AEA9FE0D481386C74FE3930DFDA504C6
:10158000E39B24FB1389B4019307300F1104E31B81
:10159000F9F441016FE0DFDDEFE2DFD9B7070C209E
:1015A00079719387C74F3EC6930705182E84938B96
:1015B000C18F814A130A00023EC8214DED47B3870F
:1015C000FA02139BAA0081493EC46DA09108FD4711
:1015D00063EC0705FD576315F90091080149C5BF84
:1015E00063044905930700183305F802B1471ED676
:1015F0007ED47AD21AD042CE16CC46CAB305F902AE
:1016000016952E95032505E883A50800EF10D00A4E
:10161000AA852685EF100016B253A25F125F02530F
:101620007248E242D248AA840509E31179FA050812
:101630000D0F6308B801B2471309FCFFB348FF2040
:1016400079B705038D47A50F6313F30493050000D5
:101650002685EF1080736344A0009304000023A04C
:101660009C00050C910C631E4C018509130B0B02A9
:1016700063868903B7071320014C938D2900B34C6F
:10168000FB2083A40B00A24F014393032C00C2470D
:101690001388F9FF7E8FB342F32071BF850A910B47
:1016A000E39EAAF183A80184014937081420370674
:1016B0001320131A49001317590081448DA883A7DA
:1016C0000D00E28576C83E853AC63EC4EF10E06B59
:1016D0003247C24E83A8018491463706132037084B
:1016E000142013030010130E00026354A000A2473D
:1016F0003E8C8509910DE394D9FC850C130D0D02E8
:1017000063863C018149B34DDD2155BF23A08B0188
:10171000938A0A02910B130B0B4063866A005A8D61
:10172000814C468CC5B79104210A6389C4013A8B68
:10173000814AB34B0A21B3CEC420D5B71109E31AAD
:1017400099F637490400B74A0400371B14201309DF
:1017500009D78144938A8AD5130B0B80931CB02838
:10176000614CB387540183A90700CA8B370A142040
:1017700083A50B0003250A00110A910BEF10C0731B
:10178000AA854E85EF00107FAA89E3136AFFB3078D
:10179000940088C391046699E39584FD032A0400AC
:1017A00013094400A28493098401832A0900D28585
:1017B0005685EF10805D6353A000568A1109E396A9
:1017C00029FF130900000840D2851104EF10301BD7
:1017D000EF00207A232EA4FEAA854A85EF00907997
:1017E0002A89E39289FE8840CA859104EF10002E71
:1017F00023AEA4FEE39999FE45616FE07FB783A70E
:10180000818C8DEF83A7418C83A5018C7D5563F579
:10181000B70688231386170023A6A18C23A2C18CA8
:101820001308F00F631905016377B600903301E6E2
:10183000890723A2F18CA14723A4F18C83A7818C73
:10184000FD1723A4F18C03A5C18C03A7C18B3355CD
:10185000F548FD4763CFE7009387418D93563740A6
:10186000BE968C229347F7FF9D8BB317F500CD8F63
:101870009CA2050723AEE18A8280EFE2BFAEAA8474
:10188000014901446345990022856FE0FFAF853F20
:10189000634605000604498C0509EDB77D54EDB794
:1018A000EFE2BFAA2A849309451105498144454ABC
:1018B000B93763420504B30724019C238604C98C0D
:1018C00085C703D70900B307F740850763CEF40047
:1018D000634C97009D8C33498920832749132694B4
:1018E0003E9408386FE0BFA905098909E31249FD54
:1018F000130590C1C5BF7D55F5B7EFE2BFA613062E
:10190000802F8145138581F9EFE03FAA1306802FD0
:101910008145138501CAEFE05FA901456FE0DFA6AD
:10192000EFE25FA1B307B500130101D73EC4224720
:1019300023A2A18C414523A0E18C8137C167938705
:1019400087FD6302F5067D55130101296FE05FA253
:10195000414525378549E3D8A9FE930704FC1309BF
:10196000E5FF639FF4082145093F4145393723AE20
:10197000A18C4145193723A0A18E2145FD3D23AC03
:10198000A18C75996315355F23ACA18023AAA18032
:10199000138941C99384414213848141814983A7BA
:1019A000818D63C1F90283A7418C224763FAE70066
:1019B0004145E1354164930794FDAA84E31AF5F8A3
:1019C000014559B72145553D2145453D03A7818135
:1019D000935745403D899CC008C06354F70023AC31
:1019E000F18083A7418163D4A70023AAA180214568
:1019F00069352320A900850911099104110445B70F
:101A00009307B4FD639AF4029384012993090004B7
:101A1000E35B20F9214595351374F5001A04014A5A
:101A20002145A13DB3078A00A69788A3050AE319BB
:101A30003AFF1309F9FBE9BF930744FC639BF40CDD
:101A4000938901CA138A013D938A413FE35D20F5E2
:101A500021452535935C45401304C0173D8993FC0F
:101A6000FC0033048502639E0C08938781F93E9441
:101A7000C547054C014B454DB304F502850421458E
:101A8000ED3B330784019377F50F1CA33387540193
:101A900063840C00338744011375F50F1CA3050CF8
:101AA0002A9B8504E31DACFDA284330C8B00639C50
:101AB0008405130684139306441181470547814525
:101AC000FD5845480CC2239016013305E400082157
:101AD00009C9AA97B3C707081383F7FF23906600C5
:101AE000AA958607050711068906B3C70708E31BF1
:101AF00007FD8547232CF41693071B013309F94092
:101B0000B1B74E94B5B72145EFF03FD788B88504FB
:101B100079BF1304A4FD8149639884442145EFF003
:101B2000DFD5138981C89389C1C7138781C893877B
:101B3000C1C72A8481443AD63ED8214563CA840865
:101B4000EFF0BFD32145EFF05FD32145EFF0FFD297
:101B500023AA018C23AE018A130600028145138556
:101B6000013923A8018CEFE05F8413060002814550
:101B700013850137EFE07F8383A7818183A6018EE0
:101B800082C213973700B3E7D720FD17B3C7E70228
:101B900083A6C18D82C482C602C6814C8144014C99
:101BA0003ECE83A7418113973700B3E7D720FD17B7
:101BB000B3C7E7023ED0938741C93EDC83A7418C7F
:101BC0002247E3F2E7DE930A4104014402C895AEDE
:101BD000EFF0BFCA2145EFF05FCA9357454023207D
:101BE000F9009377F50023A0F90085041109910904
:101BF000A9B783A7C18B138581F93ECAB257A297B3
:101C000098439307C017B387E7023E95EFF05FC98B
:101C10002A8B03AA018D9D476340A00E63C1470331
:101C200093870139B347FA2023A007009387013730
:101C3000B347FA20050A23A0070023A8418D0145D8
:101C400003ABC18B83A70A001306C00F8145330A7B
:101C5000F50023A04A014809EFE02FF5C25752C909
:101C6000130AC017A2979C43130DF003BD4D330A0E
:101C7000FA02938701CAD2973ED2054A1255EFF075
:101C80003FC2634BA00A32479D4763D2E710D25749
:101C90001385012994439D479A0663CE9701330724
:101CA000D50018234A469387013B3307C702B3C7C1
:101CB000FC20850C98C31009328781471308000463
:101CC000B385D700AA9583C805000C438507B38563
:101CD00015030CC31107E39507FF140B8D683685B8
:101CE0000148938818D4A14E130F0004B74704008D
:101CF00013874795AA85D5A863D24703EFF0FFB7AE
:101D0000050A9307FBFF23A8418DB317F028E35979
:101D1000F5F2B3176029FD171D8D1DB793870139A3
:101D2000B347FA2088C3EFF05FB5931D2A0093876D
:101D30000137EE9788C3E9B793564540369A9377B3
:101D4000F500E3424DF581E7E39FB6F305BF3E851D
:101D50003EDEEFF09FB2F2579386F7FFB316D0281E
:101D60006356D500B317F028FD171D8DB747040043
:101D7000938747A5D2979C23180D050AB3C7E72080
:101D800023A0A7E093070004E31AFAEEEDBD524743
:101D9000938701333307EB40CE9798C303A7C18BDA
:101DA00093870131CE97330B6741D24623A0670159
:101DB00093870135CE97158F98C3D1BD83220E002E
:101DC00083A30F000503910FB3827202110E969741
:101DD000E316D3FFB9879CC1B74704001307070276
:101DE000938747A591056300F7021C420323070070
:101DF000930F4600B3871703130E4700B987B387C5
:101E00006702054365BF2108130606021305050294
:101E1000E31EE8ED0D680146130818D4A14813032A
:101E2000F00F014E9C083305F600B74704001387F6
:101E300047953DA883AF0E0083220F008505130F41
:101E40000F02B38F5F02910EFE97E39515FFC187D6
:101E500093870708B3C7670AB3E7C70B1CA1B74747
:101E6000040013070702938747A52105630FF700B6
:101E70009C420C43138F0602B3870703930E47005F
:101E8000B987B387B702854575B705069106E31B89
:101E9000B6F883A7818112478145B387F402130EF8
:101EA0000004CA979396370083A7418193888600E0
:101EB000B307FC02BA97139737009C08368633881D
:101EC000F50083A7018E635FF60003A5C18D635BF8
:101ED000A7003385E70283A7C181B297AA9703457C
:101EE000080088A305060508E31D16FDA1050507E2
:101EF000E395C5FD05099109E247CA973EC6A25779
:101F00009C43E348F9CE924785073EC293878141BF
:101F1000A2979C4312476351F702B24701493ECC56
:101F20009399270093874142A2973ED4F1B7E25795
:101F300002C2A2973EDAD9BFC247910A11048507AF
:101F40003EC883A7818D4247E343F7FEF2478504ED
:101F5000E3C6F4C68257050CE354FCA68144B9B924
:101F60002145EFF09F918509E3CC29FF2DBC7555E4
:101F7000E1BA411122C426C206C6AA8455202A8489
:101F80002685A9211DC197E5010083A52558268531
:101F9000EF00B05F6351A002EF1060709307200262
:101FA0001CC117E4010003242456B24022852244B8
:101FB00092444101828097E5010083A565552685FD
:101FC000EF001066E35305FEEF10606D93072002EB
:101FD0001CC113040000D1BF411122C426C206C691
:101FE000AA8471242A84A6852685EF10C0501DE19D
:101FF000930500002685EF00B062635D0500EF10D9
:10200000006A93071002930500001CC12E85EF00A3
:10201000F02B2A84B24022852244924441018280DE
:10202000011122CC06CE26CA4AC84EC652C456C298
:102030003707807F2A84AA859317F5496365F71CC3
:102040001359F501639EE70063100922F2402285CF
:102050006244D2444249B249224A924A056182808E
:102060003777B14213077721635CA7006244F240DF
:10207000D2444249B249224A924A0145056189A6A1
:102080006352050237F7CF421307571B637CF700F3
:102090006244F240D2444249B249224A924A01453E
:1020A000056109AE3777B13E130787216375F712D3
:1020B0003717853F13071759931429006367F70CE7
:1020C00093878189A6978C432285EF10400B9387D5
:1020D0000189A69703AA07008544B3842441AA89ED
:1020E000B3842441D2854E85EF1060092A84A285ED
:1020F0002285EF00705C97E5010083A5E5422A89FF
:10210000EF00905B97E5010083A54542EF102007A3
:10211000CA85EF00705A97E5010083A56541992DA6
:10212000CA85EF00705997E5010083A5A540EF101F
:102130000005CA85EF00505897E5010083A5C53F0B
:10214000152DCA85EF005057AA852285EF10200370
:10215000AA852A892285EF003056AA8AD5E897E514
:10216000010083A5A53D4A85EF106001AA8556852B
:10217000EF00D015A285EF108000AA8517E50100B9
:102180000325453AEF00B07F41A097E5010083A504
:1021900065382285EF0050529387018AA6978C43B9
:1021A000D12BEF100039AA84EF10604397E50100AE
:1021B00083A585362A89EF003050AA852285EF0055
:1021C000107CAA8997E5010083A545354A85EF0073
:1021D000B04E2A8A01BF3707003463F9E70297E55A
:1021E000010083A5E5332285712397E5010083A5CE
:1021F0006533EF009039635BA00097E70100938798
:1022000067328C432285BD232A8489B58144C5B5B4
:10221000CA8517E5010003256532EF005076AA85CF
:102220005685EF00B00AAA855285EF005075CE851D
:10223000EF00F074AA8517E501000325A52EEF0035
:102240001074930730F863C6F400DE043384A400EE
:10225000F5BB93844406DE0497E5010083A5452E73
:102260002695EF0070454DB713040000C5B301116A
:1022700022CC06CE26CA4AC84EC652C4B706807FB4
:102280002A849317F54963E2D702AA85EF00D0426A
:10229000AA852285C5212A84F24022856244D2443F
:1022A0004249B249224A05618280FDD7AA87635913
:1022B0000500AA85EF00B06CAA85EF003001E1BFF0
:1022C000E98E13577541D5C2130717F8A607A583E2
:1022D000937617009397772991C286071354174076
:1022E0008607654681440145B7060001B305D50060
:1022F0003E8763C7B7003385D5003387B740B694B0
:102300007D1693171700858275F229C313894182C0
:10231000938901820325090083A50900032A090086
:10232000EF00F065AA855285EF00902F6340A00270
:102330000325090083A50900032909002529AA8589
:102340004A85EF00F02D6356050289048584B7079E
:10235000003FBE945E04269481B78607850633F657
:10236000B70065DEFD16158F85B78146B70580007D
:10237000FDB78504F998D9BF411122C426C206C60B
:102380002A84AE84EF10A03104C1B24022852244D9
:10239000924441018280411106C619C91395F5691D
:1023A000EF009031B2409305200241016FF0DFFC55
:1023B0002E85FDB797E5010083A5C5186FF0BFFD19
:1023C00097E5010083A545186FF0FFFCB707807FF4
:1023D0001315F5493325F50082803288AA882E87A7
:1023E000CDEA63FFC50EC167636AF618B70700013F
:1023F000B337F600B307F040E19BE1073353F60033
:102400009756FADF938686EF9A969422130300027A
:10241000B697B306F340630BF3003397D500B35779
:10242000F5003318D6005D8FB318D5001356080198
:102430003355C702B346080893D708013377C7025C
:10244000B385A6024207D98F63FAB700C297130774
:10245000F5FF63E4070163E8B7303A858D8F33D722
:10246000C702B3C80808B3F7C702B386E602C207BB
:10247000B3E8F80063FBD800C2989307F7FF63E561
:102480000801791763E3D8003E874205598D8145DD
:10249000828063F5D500814501458280C16763E58F
:1024A000F618B7070001B3B7F600B307F040E19B99
:1024B000E10733D8F6001757FADF130727E44297EE
:1024C0001823930800023E973388E8406392E81887
:1024D00063EDB6263335C50013451500814582806E
:1024E00045C6C167637BF6241337061013471700F0
:1024F0000E07B356E6009757FADF938727E0B697A3
:102500009C2393060002BA97B38EF640639DF608AB
:10251000B387C5408545935606013346060833D533
:10252000D70213D70801B3F7D7023303C502C20796
:10253000D98F63FA6700C2971307F5FF63E40701B9
:1025400063E067223A85B387674033D7D702B3C8C1
:102550000808B3F7D7023306C702C207B3E8F8008A
:1025600063FBC800C2989307F7FF63E5080179177A
:1025700063E3C8003E874205598D82809337061079
:1025800093C717008E079DBD81469757FADF938743
:10259000E7D6B6979C23014793060002BA97B38EFD
:1025A000F640E387F6F63318D60133D3F500935699
:1025B0000801335ED302B395D501B357F500CD8F33
:1025C0003346080813D70701B318D5013373D30274
:1025D000B305C603420333676700637BB7004297C6
:1025E0001305FEFF636A07176378B716791E4297D3
:1025F0000D8F3355D702B3C707083377D70233039C
:10260000A6024207D98F63FB6700C2971307F5FF45
:1026100063E0071563FE67127915C29793150E01E3
:10262000B3876740C98DE5BD93B7061093C7170000
:102630008E0733D8F6001757FADF130727CC4297D7
:102640001823930800023E973388E840E382E8E8C5
:10265000335EE600B3960601336EDE00B3D8E500C4
:10266000935E0E01B3D7D803B39505013357E50048
:102670004D8F33430E089356070133160601B3F806
:10268000D803B305F302C208B3E6160163FBB60034
:10269000F2969388F7FF63E3C60D63F1B60CF91762
:1026A000F2968D8EB3D5D60333470708B3F6D6031B
:1026B000B308B302C206558F637B170172979386E6
:1026C000F5FF6369C70963771709F9157297C207A0
:1026D000C16ECD8F9386FEFFB3F5D70013D30701EC
:1026E000F18E4182338ED50233071741B306D302F0
:1026F00093580E01B385C502B695C6953303C30240
:1027000063F3D500769393D605019A966363D70257
:102710006305D7003E8581458280C166FD1633F78B
:10272000D5004207337EDE00331505017297E3734F
:10273000E5FE1385F7FF81458280B70700016377C7
:10274000F6029356060141477DB3814505458280D7
:102750003A85E9B5B685A5BF2A8E59BDC68791B71A
:102760007915C297CDB37915C297CDB99356860125
:10277000614751B3370780007D179356750113D613
:102780007501B377A70013F3F60F6D8F1358F5019A
:102790001376F60FFD81C2888E070E07B306C3407D
:1027A0006301B804635FD00021EE630A071013864B
:1027B000F6FF630C062A9305F00F638DB616B286FA
:1027C000B1A0D5CAB3066640631C031CFDC71385C0
:1027D000F6FF6307052C1308F00F638B0615AA8616
:1027E000F1A2635BD0145DCE1306F00F6304C31433
:1027F0001317A7296D46635AD61E85079A8681A0AE
:102800001306F00F6308C3121317A729ED450546F9
:1028100063CDD50013060002158E3316C700B356DC
:10282000D7003337C00033E6E600918F3707000446
:10283000B3F6E700DDEE13F777009A8649C313F786
:10284000F70011466303C7009107370700047D8F27
:102850003DC7138516001307F00FC2886302E50811
:10286000139767001375F50F25835E05598D9397B0
:10287000F8015D8D8280130613001376E60F631B4B
:1028800006146314030A6389072063020710338563
:10289000E74037060004698E63060622B307F74057
:1028A0002E8841A009CF1386F6FF6308061A930508
:1028B000F00F6381B608B28635BF2E88BA8713073A
:1028C000F00F8D836397E60CDDC31305F00F81488D
:1028D000370740005E05598D9397F8015D8D828022
:1028E0001305F00F01475E05598D9397F8015D8D33
:1028F00082807D1733F6E70093170660ED173316D5
:10290000F60063C16706B386674085069307000239
:10291000958FB317F600B337F0003356D600D18F3A
:10292000814613F7770001FF0DB76395071451DF58
:102930002E88BA878D8349BFA1C2B306664063164D
:10294000030EADDF9385F6FF638905101305F00FC5
:10295000E381A6FEAE86ED4563D2D512930717003C
:10296000B286F1BDB306F3409317A6495DBFC28896
:102970001305F00F0147D5BD9306130013F6E60FBC
:1029800045EE6317030E63820712631207128D83ED
:102990008146A60713D7970013F5F60FC288F1B545
:1029A0001305F00FE306A6F89397A7296D48054590
:1029B000634DD80013050002158D3395A700B3D6DB
:1029C000D700B337A00033E5F600B307A740328342
:1029D0002E88A9BD3386E740B7060004F18EB5EA1C
:1029E00001FE81480145014749B513060002158ED5
:1029F0003316C7003357D700B336C000558FBA9788
:102A0000370700047D8FE30807E2930613001305E0
:102A1000F00F0147E38BA6E43706007E13D71700BB
:102A20007D16858B718FD98FEDBD9305F00FE30275
:102A3000B6F09397A72905B71306F00FE382C6EA0D
:102A40003E979357170013F67700E31A06DE8D833F
:102A500089B73306F7402E8845B5BA973707000483
:102A60007D8F894605434DFBF9B3998F05437DBBA7
:102A7000E38107ECE31B07E48D83B9B593050002FE
:102A8000958DB395B700B3D6D700B337B000DD8EC0
:102A9000B387E6003283ADB729D72E88BA87C5BD84
:102AA000B307F7402E88054351B3BA87CDB5BA971F
:102AB000370600047D8E814659DA9397A7498546EB
:102AC0008D83C1BDAA8711DD8D83E1B59357750153
:102AD0009318950093F7F70F93D898007D81F1CB69
:102AE0001307F00F638DE70C8E08138617F8014764
:102AF000014E9398A82993D775019396950093F763
:102B0000F70FA582FD81C9C71308F00F6380070D79
:102B10008E06938717F8814E9396A6293D43334836
:102B2000B5001D8E6366E31A1743FADF1303837241
:102B3000334767201C439A9782879307F00F01471A
:102B400013957701598D7E083365050182808D4785
:102B50006304FE028547631BFE0E2A8881470147F6
:102B600013957701598D7E083365050182808D4765
:102B70002E85B688639CFE0C9307F00F3707400044
:102B8000139577010148598D7E08336505018280D0
:102B9000C1EA13671700B5473348B500E3EFE7F81C
:102BA0009746FADF9386066F3347D7201C43B697C4
:102BB0008287639A080411470146054E2DBF639F23
:102BC000080221471306F00F094E35B795E2136747
:102BD00027007517AD463348B500E3E1E6F89746A0
:102BE000FADF9386A66E3347D720184336970287BD
:102BF000136737009307F00F8D4E0DB7314713065B
:102C0000F00F0D4ECDBD139708609307B7FFB39833
:102C1000F8009307A0F83386E740014E0147E1BD75
:102C2000139806609307B8FFB396F6009307A0F8D1
:102C3000B3870741814EDDB5130616F08947E318C7
:102C4000FEF02A889307F00F0147DDBD2A8893071D
:102C5000F607635EF00213F7780019C713F7F80060
:102C600091466303D70091083707000833F7E8005F
:102C700009C7930706089398B8491307E00FE34E76
:102C8000F7EA13976800258393F7F70F55BD85463C
:102C900099C79D8EED4581470147E3C3D5EA1307E8
:102CA000E6093397E8003337E000B3D7D800D98F6F
:102CB00013F7770019C713F7F70091466303D7009E
:102CC0009107370700047D8F55CB854701478DBDA0
:102CD0004167139356007D17935503013377E30043
:102CE00063F8D806B3D6B802C6877D168148338507
:102CF000E602B3F7B702C207B3E7170163F8A7000C
:102D00009A979388F6FF63F66706C686898F33D550
:102D1000B702B3F7B7023307E502C20763F2E7026F
:102D2000B3856700B3B8F500130EF5FFAE8763985F
:102D3000080063F6E5007915B387650011A0728578
:102D4000C206998FC98EB337F000B3E8F60001B719
:102D500093D71800B3D6B702FE0893D8080133857D
:102D6000E60241BF2E852A88D5BB014837074000BF
:102D7000C1BBE3FCA7F8F9169A9749BF9A0713D786
:102D80009700814775BB2E856DBD135675013707BA
:102D900080007D1793D675011376F60F1308F00F98
:102DA000B378A7009357F5016D8F13F5F60FFD81EA
:102DB00063050603630A050105EA09E939C3639E51
:102DC0000804A1C92E85828039E719E2E38B08FE49
:102DD0006399B7009DCF3E858280639E080263059C
:102DE000C50205459DE782806DDDE39CB7FEE34AA1
:102DF000C5FEE341A6FEE36617FF0145E3ECE8FCF0
:102E00008280E39008FE828019E7E39CB7FC0145CD
:102E100082807D55828079558280E38EB7FCD1B760
:102E200013567501370780007D1793D67501137609
:102E3000F60F1308F00FB378A7009357F5016D8FC5
:102E400013F5F60FFD8163060603630A050105EE1F
:102E500011E929CB639F0804B9C92E8582800945F1
:102E600001EB19E2E38A08FE638BB7020545A1E393
:102E70008280639C0802E31BC5FE094575FBE3974E
:102E8000B7FE014582807DD1E392B7FEE340C5FEE7
:102E90006347A600E36C17FD0145E3FBE8FC81CB2B
:102EA0003E858280E39408FC8280094582807D55BE
:102EB0008280E381B7FE5DBF9357750113179500BC
:102EC00093F7F70F935897007D81638507101307D9
:102ED000F00F6387E7108E08938617F80147814E3D
:102EE0009398A82993D775011398950093F7F70F36
:102EF00013589800FD81F9C31306F00F6388C704C7
:102F0000938717F8338ED7000E08A947014693061A
:102F10001E001318A82963C3E7103343B500094501
:102F20001A8F6344E5047D17854563EEE51263005F
:102F3000A60C85477A83631BF604814701461395E7
:102F40007701518D9317F3015D8D8280138EF60FFB
:102F5000630A080A3343B5001367370029461A8FFE
:102F6000938606106344E6200D463317E028137558
:102F7000075319CD8947638CFE068D476384FE0293
:102F80007686854746887A83E309F6FA368EA9A2C3
:102F90009377072481EB1377870871C72E8FC28838
:102FA000B28EC9BF9307F00F014337064000139557
:102FB0007701518D9317F3015D8D828063140808AA
:102FC000368E13671700A947054693061E00E3D601
:102FD000E7F4A9A0639B080411478146854E19B701
:102FE0006390080421479306F00F894EE5BD9307CF
:102FF000F00F7A83014613957701518D9317F301F2
:103000005D8D828013672700A94793860610394398
:103010000946E3D4E7F0AD47E302F3F82A8F99BFFE
:1030200031479306F00F8D4E75BD139708609307D7
:10303000B7FFB398F8009307A0F8B386E740814E36
:1030400001474DB5931708601386B7FFB387F64065
:10305000138EA7F8A9473318C80093061E0001462F
:10306000E3DDE7EA65BFC16E9387FEFF93D50801F4
:1030700013550801B3F8F800B377F8003386170347
:10308000B387F50213570601B3081503BE98469798
:10309000B385A5026373F700F69541657D15B37797
:1030A000A700698EC207B2971396670013580701ED
:1030B000E9833337C0002E98D98F1A083368F80097
:1030C000B7070008B377F80081CB9357180013783F
:1030D000180033E80701368E9307FE07635EF0029F
:1030E0001377780019C71377F80091466303D70068
:1030F0001108370700083377E80009C793070E085F
:103100001318B8491307E00F6349F7041316680052
:10311000258293F7F70F25B5054799C71D8FED4613
:1031200081470146E3CDE6E0130EEE09331EC801E8
:10313000B357E8003337C001D98F13F7770019C7A9
:1031400013F7F70091466303D70091073707000490
:103150007D8F01CB85470146DDB39307F00F014614
:10316000F9BB9A0713D697008147D1BB3D4E014367
:1031700037064000E305C7DD2D430D4669BDB7079F
:103180008000FD1713D6750133F7A700935675011C
:103190009358F501ED8F1376F60F1308F00F13F522
:1031A000F60F46830E07FD819396370063020605EE
:1031B00093C51500B307C540638FB8006358F0305E
:1031C00035E6638C06141386F7FF6302062A638EC6
:1031D0000703B28785A06356F0306DCA6307050305
:1031E0009396A6296D466350F6140507AA87ADA8E5
:1031F000930715F0CDE693C515006382B80E638E74
:10320000071863070510AE8836870D8313F318007F
:103210001305F00F3DCF1305F00F014337074000B2
:103220005E05598D9317F3015D8D8280E30F05FDD7
:103230009396A629ED45054663CDF50013060002D9
:103240001D8E3396C600B3D6F600B337C00033E602
:10325000F600118FB7070004B376F70063930610EA
:1032600093767700AA87D5CA9376F70011466383D1
:10327000C6001107B7060004F98EC5C2850793067C
:10328000F00F13F318006385D70C1A0713F5F70F27
:1032900025835E05598D9317F3015D8D8280E39040
:1032A000B8F6B1C36313051C9307F00F35C79385B8
:1032B000F7FF638805121305F00F6388A71AED471F
:1032C00063DDB71A13871600B28779BFB9C61386B4
:1032D000F7FF63080610E38A07F3B28721B781C7B7
:1032E00061D501471DB79307150013F6E70F631863
:1032F0000614631B05166309071A6399061A0D83E2
:1033000081472607258313F5F70F13F3180051B7EC
:103310009307F00F65EBAE8836879306F00F0D83A9
:10332000E386D7EEF9BF130600021D8E3396C60062
:103330003336C000B3D6F600D18E3697B7070004F7
:10334000F98F99DF930715009306F00F6393D70A5F
:103350001305F00F01475E05598D9317F3015D8D3D
:103360008280FD173376F70093170660ED1733164A
:10337000F60063C8A704898F8507130700021D8F15
:103380003317E6003337E0003356F600518F81479C
:1033900093767700E39A06ECF1BD9307150093F757
:1033A000E70F8DE755E96DCFB9DAB307D740370698
:1033B00000047D8E630706103387E6408147AE88A0
:1033C000C1BFB307F5401317A649D9B73306D74095
:1033D000B7070004F18FC9E741FA014301450147EE
:1033E0004DBD3697B7060004F98E89470545E38938
:1033F00006E63706007E935617007D16058BF18E84
:10340000558F79B71388F7FF630708081305F00F86
:10341000AE88638CA704ED45854763CE050193070D
:103420000002B3870741B317F70033580701B337DA
:10343000F000B367F8003387F640328521BD1306EC
:10344000F00FE387C7F0BA9613D71600137677000C
:10345000E31C06E00D8375B511EFE38E06DA65B364
:103460003386E640AE8809B711E7368779BB158FFA
:103470000545CDB3E38B06D879BB930700028D8F4A
:10348000B317F700B355B700B337F000DD8D3387BE
:10349000D500328565B53387E640AE8805455DBB0E
:1034A0008DDEAE883687A1BD368791BD369737064B
:1034B0000004798E814759DE1317A74985470D838C
:1034C00089B581DF3E870D83814725BDE38707EC02
:1034D0003308A640C287E30F05E2AE881317A72979
:1034E0001DBFE38207E0B305A64019E1AE877DBBAF
:1034F0001317A729E9B393567501370780007D1785
:1035000013D6750193F6F60F1308F00FB377A700E3
:103510001376F60F6D8F638B06019307F00F01454D
:103520006303F60082803335E00082800545F5D7DD
:10353000828013577501931795001377F70F1306C1
:10354000E00793D697009357F501635BE6001306F7
:10355000D0096359E600370500807D153E958280CD
:10356000014582801306500993967629634DE60043
:10357000130660093307E640B3D6E6003305D040B2
:10358000EDF3368582801307A7F6B396E600FDB704
:1035900013577501931795001377F70F1306E0077C
:1035A00093D697009357F50101456353E60091C305
:1035B00082809307E0097D55E3CCE7FE13065009AE
:1035C000939776296357E6001307A7F63395E7002C
:1035D000828013056009198D33D5A70082801DCD27
:1035E000B306A0409307E009B366D50A1306600945
:1035F000939506608D8F1357F5016349F6022146B6
:10360000638AC508E115B396B60013F5F70FA60651
:10361000A5825E05558D7E07598D82800147014543
:1036200081465E05558D7E07598D8280130690096F
:103630006346F60415461385B5FF6384C500B3964B
:10364000A60013F576001396A64919CDBD8A11453B
:10365000638CA6001106B7060004F18E91C693078D
:10366000F0098D8F1316A6499316660013F5F70F10
:10367000A5825E05558D7E07598D82801386B50122
:1036800015453396C6000D8DB3D6A6003336C0005F
:10369000D18E45BFA606A5821305600959B703A5BB
:0436A0008182828021
:1036A400307800000D0A563546204641554C5420CA
:1036B4006D63617573653D00206D6570633D000049
:1036C400206D7476616C3D003031323334353637D9
:1036D40038394142434445460000000056354620EF
:1036E40053797374656D436F7265436C6B3A000074
:1036F400496E666572656E636520696E69742064DF
:103704006F6E650D0A0000005374617274696E6710
:10371400204A504547206465636F6465207465736F
:10372400742E2E2E0D0A00004A5045472064617401
:10373400612073697A653A002062797465730D0AB1
:10374400000000004465636F64652074696D653A28
:1037540000000000207469636B730D0A0000000010
:103764004454434D202E62737320757365643A008C
:103774006A7065675F6465635F6275662040000018
:10378400444941475F53544152540D0A000000001C
:10379400434F4D505F444154415F3332383A000047
:1037A40042495453545245414D3A0000424C4F4310
:1037B4004B5F424954533A0044435F424954533A9D
:1037C4000000000041435F424954533A00000000A6
:1037D400573A000020483A00204E433A00000000C7
:1037E40020486D61783A000020566D61783A0000F7
:1037F400434F4D50000000003A680000760000007E
:103804005154303A000000005241575F44433A009B
:1038140044435F4341543A0044435F56414C3A00A9
:10382400414342495453303A0000000044435F533B
:10383400414D504C453A0000444941475F454E4490
:103844000D0A00004465636F6465204F4B3A000025
:10385400504958454C5F434845434B3A00000000EB
:103864004A5045475F53544152540D0A000000002A
:103874000D0A4A5045475F454E440D0A00000000BA
:10388400504958454C5F53544152540D0A000000AE
:103894000D0A504958454C5F454E440D0A0000003E
:1038A400494E4645525F53544152540D0A0000009C
:1038B400436C6173733A000053636F7265733A002B
:1038C400496E6665722074696D653A005072657060
:1038D400726F6365737365642028666972737420FC
:1038E4003332293A00000000494E4645525F454EA6
:1038F400440D0A00446F6E650D0A00004465636F51
:103904006465206661696C65643A0000626C696E86
:103914006400000063656E7465720000646F776E06
:10392400000000006C65667400000000726967683E
:103934007400000075700000103904001839040088
:1039440020390400283904003039040038390400CF
:1039540000400000C53E0000213B00003735000058
:10396400412D00008E2300007E1800007C0C000016
:1039740000400000373500007E18000084F3FFFF8C
:10398400BFD2FFFF3BC1FFFFDFC4FFFF72DCFFFFBD
:10399400004000008E23000082E7FFFF3BC1FFFFD1
:1039A400BFD2FFFF7C0C0000213B00003735000034
:1039B400004000007C0C0000DFC4FFFF72DCFFFF4E
:1039C400412D00003735000082E7FFFF3BC1FFFFB8
:1039D4000040000084F3FFFFDFC4FFFF8E230000DC
:1039E400412D0000C9CAFFFF82E7FFFFC53E00006A
:1039F4000040000072DCFFFF82E7FFFFC53E0000CD
:103A0400BFD2FFFF84F3FFFF213B0000C9CAFFFFC1
:103A140000400000C9CAFFFF7E1800007C0C0000B3
:103A2400BFD2FFFFC53E0000DFC4FFFF8E230000AE
:103A3400004000003BC1FFFF213B0000C9CAFFFF5B
:103A4400412D000072DCFFFF7E18000084F3FFFFAD
:103A5400000108100902030A11182019120B0405A9
:103A64000C131A21283029221B140D06070E151CCD
:103A7400232A313839322B241D160F171E252C33D7
:103A84003A3B342D261F272E353C3D362F373E3FFB
:103A9400FFD8FFE000104A4649460001010000013A
:103AA40000010000FFDB00430002010101010102EB
:103AB40001010102020202020403020202020504DD
:103AC4000403040605060606050606060709080695
:103AD4000709070606080B08090A0A0A0A0A06085B
:103AE4000B0C0B0A0C090A0A0AFFC0000B08002879
:103AF400002801011100FFC4001F0000010501019D
:103B040001010101000000000000000001020304A3
:103B140005060708090A0BFFC400B51000020103DB
:103B240003020403050504040000017D01020300EF
:103B34000411051221314106135161072271143217
:103B44008191A1082342B1C11552D1F0243362728C
:103B540082090A161718191A25262728292A3435FE
:103B6400363738393A434445464748494A53545509
:103B7400565758595A636465666768696A737475F9
:103B8400767778797A838485868788898A929394EC
:103B940095969798999AA2A3A4A5A6A7A8A9AAB20C
:103BA400B3B4B5B6B7B8B9BAC2C3C4C5C6C7C8C931
:103BB400CAD2D3D4D5D6D7D8D9DAE1E2E3E4E5E65C
:103BC400E7E8E9EAF1F2F3F4F5F6F7F8F9FAFFDADF
:103BD4000008010100003F00BF7F7B04899DA3030F
:103BE40039CD723E2CF15681A3C426D466551F36B6
:103BF40030A4FA7A0AE26F7E29F82EE81449F6AF67
:103C0400AF90FCFF00E3B58B77E20F0A6A2592CEF2
:103C140074666EB9461FCC5721F107C1705EE96620
:103C2400E60895BE56230C3DABE8BD62E6E0A6C2AD
:103C3400FB739EF5CDDCFC3B8BC4D306D4276644D2
:103C44003F28CFAFFF00AAA7B8F825E175B3D8D6AF
:103C5400FB481F29F5AE0BC63F0592D17CFD2656C5
:103C640056049C061CF4AC77F0E6B3068B2DAC88A6
:103C7400D23F964005C71807DEBD73C4F7D3C57598
:103C8400E52FA9EFF4AA16FF001034ED106DBDBBAB
:103C9400DA4F5FDDB1E9F41EF576E7E2C6833DB0A5
:103CA40031EA69D0FDE565FE62B0353F1D69F78EE6
:103CB400B1A5CA3EE271B727F974A65D2C32E95367
:103CC4005C2C430B03966F4F94E2BA9F1068F71A6B
:103CD4008DD3C4B19E4F04115CFDC78464B690C1FA
:103CE4007FA7B48ADF75F20E3F2AC7D5BE1ADADE83
:103CF40011E4C0D819C060453F45F860F68E5A28D3
:103D04003B8DDF30FEA6B735AD0E7B0F0D5C88937F
:103D1400398B6B7CC38E2BB708D6D7FF00E9118093
:103D240018F1CD6B43696B73CAA29FA8A4BAD12DB5
:103D34001D33242BF2FA01583AA456D6CE044A175E
:103D4400AE6B9FF14DDAB69524713E41187FE95F61
:103D5400FFD90000EB0EF53CABD532BC658C6EBAD6
:103D6400997DE33C326815BC1E14B6BC876DA53D35
:103D7400D7DB053EAFE7803DDAAF373BCA6EA8BD5F
:103D8400461B703C51FE393E6611BA3D2AB6DD3DF4
:103D9400050FD0BD28018E3D48AD00BEAEEE893D75
:103DA4009DCCB33D0A6E3D3B39622C3D2180EA3DFA
:103DB4007C2C78BE0F2E86BDBFC3C1BCD04D27BEA0
:103DC400CF8FA33D639B1A3E661506BD6A85393EB7
:103DD400D1D824BE4485AE3CC853863DB4D40CBE71
:103DE400C3D40DBEAF7E893ED2C3C7BD14B0093E55
:103DF40040299DBEDCB6353B7CA254BDF3024ABECD
:103E0400BB6D49BE0C1B993D50C9B4BDA266E33CD1
:103E14007B4D93BE75438DBB896CF6BC51E7FDBCED
:103E2400932016BCC264B53D2E739F3DA385D73C39
:103E34000AC660BE20E0C3BD6D2968BD810A87BD86
:103E4400887BC53D5242E6BD01F79F3D2A8024BDD3
:103E540013B88B3D76FEAA3CCEABD83C5845B0BDDA
:103E6400BFFDCEBB2780C5BD69FAB3BDB63EAABEB1
:103E74004066ADBDC6DCF4BCFEEA063E21963A3D82
:103E8400029ACCBD7C1CBB3DFF53BBBC310BCEBCEA
:103E94008C95203D919372BE6333B8BC7877783D9E
:103EA400A3A20A3D0F5745BEB024C93D8580823E7A
:103EB4004226A73D8DCD58BE8A106D3E179ABBBDD4
:103EC4001C53643DEFB6383E2072143D977A3A3E57
:103ED4004F4FDABD8904B13E614D343E038A88BD3B
:103EE40010B688BDC84E873E59AA84BC839E05BDC2
:103EF400EB4A0BBE5C5B703E587207BDD5BC3ABD45
:103F040060BF733DEFE9873DECD03ABC24D91DBCBA
:103F14002E87133D3B5C9CBDDCE4263C3B445A3E6F
:103F2400AB134D3E5A040E3EDEF23D3E6623513D38
:103F3400512B9B3D56E3FBBDD6323F3DB88E2B3E05
:103F44003063B23EBD34E6BCB65A543D5B94913DF9
:103F5400AB88B83D7E2E11BE5482D2BCCA4E00BE80
:103F64000844423DC472CFBD3F6EAFBD967A12BEC7
:103F740061418DBC362E893D4491AFBDCCD3A93D62
:103F84009081DD3D71AA2ABD67780ABD84618D3DAB
:103F9400066982BC9AE932BE5E6D60BC874ECFBBB7
:103FA400A07111BE1DB7CFBCABA0F93CA358DF3D37
:103FB400F8E07BBE65B2F2BD071A083E70018DBB06
:103FC4008FB80DBE74AD02BDA02C66BD9A631ABE37
:103FD40084ED90BE952326BE052024BE84670C3E46
:103FE400D23553BC06AEA4BD6F334D3C44AF3BBE8B
:103FF4001C83CCBD46335CBEF38129BE2DECB23D9F
:10400400F6D7B0BDC12965BEF0360CBC70BB003E0E
:10401400233D183E8715D1BD9FE7293E2DFA35BCB7
:10402400358D56BCC11F82BD5448063DC74C62BC89
:10403400D8113C3E075B21BD1E751FBD5B668CBD60
:104044004718C9BC1F94E9BD33221DBE0C7AFE3D3E
:1040540079968DBD0523E5BD203E363C28258BBDD4
:10406400A1E443BD11FD7B3D33B8563D2093143C80
:104074000CFAF83D90D5143CE13141BDDD616FBDD2
:10408400606550BD831D5ABD9275193DEACD09BDC9
:10409400895F3DBE5C06FE3D5B23813DF2E509BBC5
:1040A400208903BEDCBE8E3D58ECAABD9D74CFBEF4
:1040B400033228BE576AB13D38BF12BE47E398BDEC
:1040C400DA3D543D70C964BEB94191BDA12DB8BE5D
:1040D400B5840CBF6CD1DFBE70D437BE503D2E3DCD
:1040E400FD5EB2BDF13E8CBE9AF18A3D9A6B74BE00
:1040F4008DCCA8BEDABACFBE40E7ECBE362F183B53
:1041040051D2FABD02BE0CBF10F59A3DC0C48ABCA0
:1041140023D497BD782F623D8CC3B9BD9564FC3B15
:10412400ACC7CF3DED67D7BD4AA195BD2C27A53BB4
:10413400BC611BBEEFB6103D6CDACBBD7998D1BD26
:104144009BBA7F3DC96B00BE357FDFBDB9328ABDE6
:104154008ECA4DBC7951A3BDD0AB2B3DE9588D3DE2
:10416400E73C113D6371293D0AF13EBDDDDAA53E10
:10417400582AEA3DEE6AC53C4B0B8EBC2859A1BDBA
:10418400716AAE3C481A9A3D51A9073ED5992B3E17
:104194001AFA8ABE42B1BEBDF6E1183DFBE60E3EF8
:1041A4005D9C283EEE62393EEA6AC03AF02386BE40
:1041B40021719CBED97E14BE6C343BBD48CAB0BCD0
:1041C4008A1B2B3DB8D770BE9644533C58973DBECE
:1041D400B910DDBE52C8E1BE72ED96BEA7FE053D24
:1041E4007896523D56739EBEEC75A0BBBC189ABE21
:1041F4002BB0E0BE779300BF8EF38DBE9D8B183C31
:104204005699493D181178BEED989FBC3FDB063E98
:10421400FD1F06BD0E826FBD76649FBDAA8047BE9A
:1042240000A7EC3DDE38AA3C5B20433D8C11493DA0
:10423400080F56BD86C30D3EDA97AA3D15AA1B3C4E
:104244000EFE5ABDAA338C3D37DBA83D5009993D7B
:104254009E44DD3D2608033E84D8EF3D2CBF743DCB
:104264003C01183EDD1DE3BDA7723F3E314EB53E15
:104274000A6E60BC4455983D7F928EBD7AADE2BC17
:1042840018891EBC2247233DFE1E87BC55FB7C3E7D
:1042940020D703BE0023C33D90439E3E61E9933C77
:1042A40077A698BDDBE6D83D5C49A03C6F04C7BE49
:1042B4008A7D89BED28B79BC45F92CBD02CC26BD42
:1042C40071233FBD442B3CBEC1EEAABC2D7F32BE40
:1042D40036F5AC3C230823BDB61C8CBD729C9C3DBA
:1042E40072DD9C3E9ED00ABEEFFF313E27D7B93C1B
:1042F400D8C9CABCC9BFBDBDDDD5063E03BC8FBD90
:10430400F0C6A63DA1E69A3B6C8798BD17EB3E3EEE
:10431400890D30BE05696CBE07EE293E8111B1BE20
:10432400600A36BEF1FFDABC36145EBE591FC03DCA
:10433400A408EABD27D311BD86D0393E38A0DBBD21
:10434400496799BED4D5DBBDFE2A09BE79E7B3BC63
:104354008C45663DC750853EB3B9883C99279B3D43
:10436400EA62203EB898AA3D14E2F03DD3910C3E97
:104374007CECB73D12D53FBD33DF733D0E54F63DA3
:1043840034B406BD1A7C84BD6326AA3DC8A4543C3B
:104394002D068FBED1B9923E7CB878BE1E61A5BCF5
:1043A400CFFA97BD4CEABA3DDDE73C3D1DF63DBE74
:1043B40089032E3C7EDF173E2BF044BED5353E3EAE
:1043C400F61FFA3D719E51BE1479FC3D800FB3BEB9
:1043D400D3F76A3EE73E62BEC36591BD29C6D23DAE
:1043E400BE6D4F3E98A372BEB6F4003E385A113DDE
:1043F400B82B1F3ED8EDB2BEA2E49F3C2D3185BD43
:10440400203E423EEA9681BDB17241BD1E623E3EEF
:104414000818C5BC2EA09BBE37D3923EB83D91BEB2
:104424005422C1BD61464D3EDF1D4BBE2DEA35BD54
:10443400AD8867BED167723C367D8F3B4CBA963CE3
:10444400DDBFD5BDBE3AF63D31C999BDE2B8213EC6
:10445400EA80F33D85380CBD5F81B33D855FC73D80
:10446400075CC23D36BB063E35442B3E253B6F3EC2
:10447400EEBE043E8006A43D8BD56EBD130542BD41
:104484000B3596BAE648DDBD0A435ABD52D37B3E8E
:1044940007256D3DCC12593E1543CD3E2F0389BDF2
:1044A400C0057C3C88C7A2BDBD5E45BE3A08D5BCEC
:1044B400697B6A3DE42D883DE892983D0B700E3E81
:1044C400F31FB43CBA055CBE21A0233E0517E93DA9
:1044D400FED6333EDE1511BE983309BD7537F53D62
:1044E4007BD5DF3D39AF22BE8EA78EBCBF54A13E23
:1044F4006172963D70E46EBE628E713E5F2CF5BDB6
:10450400135F723D9AC9D13E2F62483D66C6D93EBB
:10451400F11D38BD8668A7BDEB1C943E851878BE96
:10452400CD2936BE27CB363E8AA72ABEAE58683E72
:104534004466B63DE684ADBD46416D3EF847D6BD02
:104544006E8910BE9AEC9FBC527E2CBE9E38283DCC
:104554002666C53DDB53D2BE3904823D7422543DE8
:104564004AC9D4BD18C3313E409559BD315E313C72
:104574007231273DC2801BBD28BE9DBD618B09BE23
:10458400D58515BE716307BD00A6B33CF935A7BD3B
:10459400248CCC3EB4A6413C0ED9303EA50CE23D61
:1045A4003636DF3D8A4EBE3CD02B9ABCC0E5CCBD2E
:1045B4004752AF3E19EC613DB1341B3EEA217EBD4A
:1045C400BA933C3D4E325EBE138A363E43F16CBE16
:1045D400DBB8E23D3114223EAFA1EDBDEBE8AEBD48
:1045E400CCA48C3EA41507BE8C794F3EA44B26BDAB
:1045F4005BD2B03DEA1D533DFCE4C33C96B6AEBD70
:10460400C72F183E623148BE4C39CA3DAA86903D38
:104614001BBA593D26DC3ABE0AEDE13CDD1305BE6A
:104624008293783DB851CCBC42A029BED2F83C3D1F
:10463400F926033E264F5FBD6BC8D5BD06C314BE25
:1046440055ACC2BEA3BB9BBD383BB1BECFB39CBD72
:10465400A4DC11BDF7BF2F3C8DC5C83DD270893D88
:10466400FF6910BE8448E5BC4901E0BD42D1483D24
:10467400A9BC493E94C600BDF482783D96FE5D3DDA
:10468400CF162A3D23E9A6BB4FD73A3D684E443E98
:10469400C9BB373D1E087B3E6E38823E542499BD0B
:1046A400891841BD1BA68F3E63E4A3BDE972B43DE6
:1046B400B4C9403C7C65E53D6C1D833C5A0E1BBE71
:1046C40050143DBE62FE043C1F7B1CBEB0CAD1BD6B
:1046D40006A380BDEBA4A3BCEAFF27BE866C81BD04
:1046E40069EB93BD5AAB90BD25EF8EBDEB8F07BE32
:1046F4008ACD87BE1EA8AFBE4F55EBBDDEC85FBCDA
:10470400FC6EA6BDA2460FBEC6D4FE3DD3CFE33D8C
:104714008DC481BD58B5A2BE2E6B66BC540B293D19
:10472400947154BD8056F6BDFA26CD3BAC33D5BD4D
:10473400B98DB0BE9E51003EF04FC9BD3DBC3CBEDC
:10474400E3EE813C04BBABB9A7F36ABDB27B09BD00
:10475400E609AB3D17F1BE3B4158BDBD66976A3DC6
:104764007924AA3D478859BCC306EA3D10A84ABE2D
:1047740079C40D378DE246BD70968BBD61C23ABDDA
:104784009546273E2B10F3BDAA25EF3D81721F3EAF
:1047940078F880BBDDD20BBB0BFDF0BDCE2A203CEC
:1047A400441B7B3D171C543DBF07C6BDD4AF563ECA
:1047B400A5C881BD61FA9E3CF76CD7BDB99CFE3D8E
:1047C400F652213BB2C5B33D8E57D13D64AD633A39
:1047D4005A45D4BD7D93FC3DF971EDBD88E0933D10
:1047E400EF969DBC65AEA5BDB37C2B3D068904BD8B
:1047F400B27479BE0F4D49BE996BE5BD802DED3B7A
:10480400A10CF93C864DEF3CD821C03D44AC263D7B
:10481400161735BD695F97BEF71332BE26DCDF3D40
:1048240036ED5DBD8BB905BE877C63BD465D9B3DA2
:10483400D1DBC9BEC06E163E4CE75C3BCD1CF63CDA
:104844009EA05FBEC5DB8D3D1C2DC03C8AE4EB3CC5
:10485400462E303C7689F13D54A7633D18FCB0BD2B
:104864000879B3BDE7E7CC3DD2FB1BBD3875BDBEAF
:10487400D08F8DBC72F8C5BB15D28FBC2571B23DEB
:104884009B86023D9E8514BE688EE73DBEB9BFBEC1
:1048940097DC28BE6FACA2BEE4A1FABEB7F4F93D22
:1048A400272C053DE298BBBE9C3A6A3D1DB29BBCD9
:1048B4005CEC0A3E97E9D5BD92AC21BE6C66813EA4
:1048C400A2F9A03DF28052BEA1C2B93D4A8695BC70
:1048D4005438A93E766598BEDA5BE53D72B8133E5E
:1048E400066D8ABC178D183DACE0273EFE056ABDF7
:1048F40045AA0E3E7A1360BEB9D5DB3DA244253EDF
:104904003C8A5C3EBEAA063E46288B3E0BD82B3D15
:10491400FF0B5E3D8A9331BEBC3D243EA8C138BB2B
:104924006556823E7DFA7BBDD7DCC83D73E30A3D04
:1049340090CB443E4E2F343E639C0D3EEC8063BDD1
:104944004C0D1E3DF66BFA3DAF788E3DEF558C3C19
:104954006E6F943CF127FFBDBF2595BD6C7936BDC4
:1049640057034E3EB8100A3DC60E3BBECFF996BE65
:10497400FD8AE3BD740243BB013438BD0B81F93BAE
:10498400325FDA3C89CF5EBECB0FAFBD631261BE2E
:10499400254F81BD38D3813E1B9B4EBEA64A31BDF7
:1049A4007FAE10BEF2A6CE3C14984EBD8B871C3B46
:1049B400FCAE3B3ECAD427BE4372143E58354B3D31
:1049C40032BD773E80B7063ED563BE3D5800B33E48
:1049D400F4465E3E381858BDD670683ED2DFF7BD47
:1049E400F44CE4BDDB250C3E31C71F3E5623483E44
:1049F400F8CD5E3EF9A1F33A350B3F3E5A5B2EBE2D
:104A0400DD1AA6BEE5788B3E7093763B6D981B3E0F
:104A1400B0F64F3EA80352BE8727C93DAE33AABDA8
:104A24008AD8A2BD6E0EB93D6C0CB3BD2EDB243DFD
:104A340078D23A3EC5F7A33DD5CD0D3EDD69CCBD58
:104A4400BE3DDABDC6973C3D4A184BBD7C1DBCBD7E
:104A5400C1010ABD5A5301BD70612BBDE9C116BE27
:104A6400AD00263D54190F3E8055C33A1A4F74BE0B
:104A7400A016123EC7F499BD79D2CABDDFB353BDA7
:104A8400D0BE073EF1718EBDC65B5EBDF94764BD05
:104A9400BE4DBC3C948F37BDDEE334BE8CAE9CBCB3
:104AA400A36B96BD67C3A4BEAE3C54BDD0D0F83D45
:104AB40064E0C63DD9949FBD057313BE6D1F8FBCC2
:104AC400BFAFC8BD7B4FA83DA80889BD12A5B43EA1
:104AD400BCD0B7BBB11BBCBDF0DC85BDEC1F003E38
:104AE400888B83BEDCC35E3E4AFFD5BD1E35643C65
:104AF4002E1716BB0BFA253E2B9BA23DA98CA13D7C
:104B0400DD41EFBC107EBD3D3F5707BDD84C7C3C1A
:104B1400C3560A3DECB039BD7AF91FBEF8FBC1BDDE
:104B2400D171B93A055EA23DD0E6023C46F3593E46
:104B3400F346FF3BE805CC3CC487A43DB8CCE5BBB9
:104B44007FABB83DAC43C53C211A34BD03F57BBBF8
:104B54009F6DFABDBB8DD1BD749C8A3D75BE2BBDC6
:104B6400F0CDE73B55F508BD8B9F0EBE17AF63BD77
:104B74001A5018BE2F8BA93D4D717EBDF8BAD3BC17
:104B8400CB19D9BD7A7EA23DD860B2BD4B046ABCB4
:104B940052DD18BEDCF09F3D6EE2313E5BE6ACBDFB
:104BA400B2D901BE3FA50CBD45E1ECBD219F933DAB
:104BB4008775FCBAEA80DFBD180A26BD6ECF02BE37
:104BC4004EDA503AA20C05BD9D38AD3C657A883E5C
:104BD400F962393E9437283DD8CBDD3DDE2424BE2E
:104BE400DC40D1BDFA37363EC108A5BDF757AB3D11
:104BF400519A873E34F8A73EC79F2F3E255C963DC9
:104C04008BB819BEEF56363D66FD623B26B96CBBC8
:104C14006D147F3DA782E73D33E9113E2CFFEEBDC5
:104C2400A1A13B3CD0EEBBBDB76BDBBC988E103E64
:104C3400BC35E73D703DC43D0568CC3E5597BFBDCE
:104C4400ED31CBBC155C2E3E3D35D7BDCA9C913DA4
:104C540043CC88BDEC7EDCBC8F8B95BD116352BE0A
:104C64000A54843DCDCA263DD0DA4EBEE86ACABC99
:104C740067E4BE3C75E0BC3D41E19B3D26579C3D4D
:104C8400AC96CB3CB0389E3CDD96B8BDE0C46CBE5F
:104C9400F4C6E8BC0131D1BDEED56CBED025BE3D15
:104CA400E3CC15BD51C3E9BE3C65993C1C90DABE0A
:104CB40018E9C9BB0B4912BE855B07BFA8FC983D28
:104CC400996DDD3B5B1D15BE32B01A3E0278A9BE5C
:104CD400599EAF3C04616EBD74F5E3BE7F07333D5E
:104CE4003C46C93DB69F4DBEB68284BC23C2DDBDE1
:104CF40066C9F2BDFAD8CFBDDD7EBCBD05F4A53DC5
:104D0400EE3937BD300E9BBE2C1F9CBD79B2253EBB
:104D1400E3688E3D14AD10BD09C7463DA58318BC9C
:104D240045ADDC3CD918653D267741BDE330BBBCBD
:104D34005B560F3ED21DDD3EAEE85E3D6DFEC43CCB
:104D4400A55080BD28CB8F3E4DF7013E2B62513DCF
:104D540074315EBDA78B4DBD801E043DAEBD30BE1B
:104D6400AD82383E161AA3BD819081BE2B44B8BDD6
:104D7400D77C043DA505F9BBA5ADD2BD9576213DF3
:104D8400E607133EA725E2BDB21FB43C05BEE83CCE
:104D9400D07B78BD52DBFFBC7E6465BE73DFF63D1D
:104DA4000CFB57BDDA5BA3BE44CC023E9CE4433CFF
:104DB400585D12BEA37D47BD44F571BECB57E83D97
:104DC400F0E034BDC0135ABDB8BD5EBD3B97CA3DCB
:104DD40090E4CABD3143FB3D3E1A33BE1CBA5F3E6C
:104DE400EAA1883DFFB48EBCE7C41E3C55829A3DBF
:104DF4001372103C445CCEBB8FE95EBE10FF5A3E7A
:104E04002F47F6BC5350F0BDF116803DE13AAB3D5F
:104E14007E3921BDA9A643BCE79CF4BD3213783D7D
:104E2400407E1E3D7C4B34BD13D7023EEE15B73D8C
:104E34006A2EC3BD412235BE8DADA63D6A2D41BE4D
:104E4400AA0E05BE6672613E27B583BEDD5623BC3D
:104E54003849D8BC62FBA3BC0359D33C8D81AFBD98
:104E6400278AEABC3C1D4F3DF187CABD150F363E6B
:104E7400C431103E99830C3DE530B03D520A5EBD0D
:104E8400B1C7613B99525F3D58D53F3DF2BF08BE63
:104E9400376EEFBBBE1F3BBD34F355BD39F3EE3D5A
:104EA400DDC6EE3C8982C6BDFF4F0DBCFB1E65BE50
:104EB4004064653D2DD9B33D91B62CBE5CBD143E16
:104EC4008C60EB3C603D2C3C8E6B0ABD049A01BEA9
:104ED400C4353A3D858792BE44D5D43BC43FCB3CD0
:104EE400A04CCABCDCFE99BD3B52313D6F4396BD1C
:104EF400F0B0B03D723E74BEBC7497BC6BCDF4BDD3
:104F0400697EC13DE9EDB23B193832BE0A5500BE97
:104F1400D60AF83DE078A13E6C13AABDD73804BD8B
:104F2400757C6FBE827E243DAC7E10BEC5A1EABCFA
:104F3400CF6B4BBDFB4427BD809927BE372E77BD71
:104F4400196F813DD1C01CBD8CD9313DD5BBEA3D23
:104F540096117E3DDF170B3E3FFCE03D3F2D093EA1
:104F6400C3B3EB3C88B8FA3DA664243D87C2813EB6
:104F74007392623E8DCD14BD11AE0CBD1D63FEBA9D
:104F8400EFF221BCB3B25C3D43271ABD5AE893BC8F
:104F94003F4616BE299C573C54C1AF3DCB71BD3C26
:104FA40031C8E53C8B46163EE76A8D3CEBBD1ABE24
:104FB400E16DA9BD15E77A3EA42A0EBE6548E73D1A
:104FC400E3659E3D6A7A9D3D9C95E5BA363B04BEF9
:104FD400579CD5BDCAA393BD3D0D583C5BD413BEAD
:104FE400004F1E3C33417F3CC3BFB5BD1FBC573D82
:104FF4005A80EEBD9952433EC89ACFBC3D59B73C46
:105004000BF3943D10F0BD3B00A6D8BDC0C3E0BD7A
:10501400F0A81CBEFE5D513D0BD80ABE394D593C6B
:10502400781BA53C0B05CF3CD752233EAD7D38BD44
:105034000F93E1BD7D447A3D190100BE8371A93C03
:10504400AD38A23DBBB18A3DAF272D3EF7AFC2BDFF
:1050540053DC253C2F6B60BC2B7C79BDC867CB3CF3
:1050640076FF383E2186053DA821433B36A9213EE3
:10507400DCFA35BE81BE803C1EE174BC37DCEA3C00
:10508400886F92BD3552B33D925435BE43A95FBD7E
:105094001CB0D0BCEBE900BC3FAE473CCF9BCFBCBF
:1050A400E93D2A3DB7E7B8BD2F69C93D49F8A4BD1C
:1050B4004770463C158399BE59A9FBBC9BCF543D10
:1050C400060C84BD0967F5BD0A795B3D35C40BBE8A
:1050D400A5753CBE128D063D9F51EEBD075A433D5A
:1050E400F853723D0ED8B63C665933BDB984F2BD4F
:1050F40021C4DDBD8619F93D2AE23CBE2C463C3C68
:105104009CC79FBB585FD53C3BBDDFBD27A627BDD1
:10511400DC7623BE19C3EA3D8A6013BD8C5C103D66
:10512400CD5F07BE736851BCD2D7FD3C622E14BE5E
:10513400E9ACF03D565FFEBD783886BD07DF443EDE
:10514400194B013C040A6EBE8999043E46B6F2BC72
:10515400B45ABC3DED6FA43D7A69313C4C696FBDD6
:10516400FAB8763CEDB5A2BCAE37E0BD6BEC58BEE8
:10517400C4B8803DD509A83C70E3FD3CC200103E94
:105184000FDCE13D0D93383EB2FB3B3E037C35BD65
:10519400691FFC3ED1D9DCBD218A403E398AF73DE6
:1051A400F6706E3EC4ED02BED3AE8EBDCCC9EB3DEF
:1051B4008A726D3ED1E392BD0328593E7AC0E2BCA7
:1051C40088CE14BE89F4CD3DEDAB84BE76C6453D94
:1051D4007A16803E0060CB3D9D94343E907B853DA5
:1051E400A35CB03DA685223C55778ABD720975BE85
:1051F40041C3563E087F68BD0576CE3CB5E4273EE4
:105204000E8CFC3D19A14ABD4079493EEACF71BEDE
:10521400FDB7463DA050513DC877FEBD6E04313EFA
:10522400FA60C83D861DF7BD050D443D6EE432BDF0
:10523400D6306A3CF69931BED3450E3B584C36BB4A
:105244001DFDACBD662983BE7FE9433DAAB2EB3D9B
:105254009842893D91D8B1BDB4A0833D11DFA93CEA
:10526400F8C4573D81F169BD3FCC09BD045C67BEFC
:10527400053491BB8367023EB98FA03DA23D71BD49
:1052840090D3FCBCF66F8B3CA0300BBE0CBC153E1F
:10529400ADB31B3D2B1A92BEC0B52D3EEED2E3BD7D
:1052A40003B6A63D7FA35B3C4C1742BD7A776C3EA8
:1052B400349D1FBC4F1A72BC47C8793EF31A01BE15
:1052C4000B5B6FBEFFD6903E5D781EBEB950513E5B
:1052D4007A13F4BD5DCAACBD3A80813E395FF6BD38
:1052E400687E66BED6E1503E24E07EBE63E4A63D01
:1052F400755DF13C20E65ABCFA08E93D5699943DA7
:105304006754DBBD62440F3EF737D2BD89DBA73D4E
:10531400D367F23D9C4F9F3DDCFF063E97EA3D3E3E
:10532400A928403EB2C5653EB385DA3D1CCE22BEF7
:105334007BB5713E13CEA63DA741D0BDE4CA6EBC79
:105344002855ECBCCE44FB3D2FF9BFBD44C1DB3D29
:10535400A51D4CBB5B0203BE22B89A3C7CE3983B80
:10536400C01617BD373745BDB2025EBD26EE77BE07
:105374004D6BB23DC6DD8A3D5F60663DC1B593BDF0
:10538400C3EC6B3C28D974BD1D04ADBD1CC3063EE3
:105394008AB06E3E973081BEFA2FF83DD1C74DBE1C
:1053A400DFDB183D9222B2BCED1ED2BD16149A3E2C
:1053B400BFE88C3E30144B3C4BC0B43E4D069CBE03
:1053C4004C01AABE0FE08D3E8760C9BE5474873E6F
:1053D400631B443D9950113E797A723D054536BEB2
:1053E4008268C9BE0938393E078A62BEE9C4D33C23
:1053F40035E5B3BBF8F77A3EF19DB63C3777D4BDBB
:1054040070A7F4BD2758913D1AF4F5BDA8B1353BFA
:10541400B7F3AEBDD182A03EC3C1283DFC4F433E8D
:10542400EF51E2BD3587143E6539D83D197C33BE52
:105434005147963DDA4BEC3D3D0120BEF8FF323E2C
:10544400D06CCD3D8329F33BE5D93B3EC05BDEBA4E
:10545400477D8ABD8B49093E19CE61BD52771A3DFD
:1054640056EF3D3EB86B95BCB311633C858D05BECC
:10547400380F0ABD71212E3DA73CCC3D49EE903D2D
:10548400689F3BBC80E4F33D8AC8DBBD8AC14D3DC7
:10549400085403BCF4BF84BD409B453E03D51A3B6E
:1054A40013375E3DEF48473D8C0EEDBACCAC5E3D04
:1054B40066A80CBEAFFC9E3DE51B1D3E869E2DBE20
:1054C400F43FAABD7F84F53D519C5ABE38EC7A3E28
:1054D400F0B32EBE56117D3DD3AB463E3926C4BD36
:1054E400CA3F97BD510B2D3EA9165FBEEED18E3D2E
:1054F4001A1602B92E27A73EF196003DEF4AFC3C4E
:10550400ED3CAABDEDE1A33CC8AA503DBA9B44BE04
:10551400D1F3DD3BF6E3923D71F273BE1AC5133E3F
:10552400398FB43DA7ACE0BDF586383DF010B2BE6E
:1055340042A32F3E75B10F3ED950FCBEE7DE083EB4
:105544004FE15B3E5E3855BE16B9813E1DBACDBCF7
:10555400797F763C40AEA03E9B803ABE02F9183E6D
:10556400DE58173E291E2EBD8C36BA3D58EA91BD31
:105574002C72DABCF256083E2174503CB4A749BCE4
:10558400FEB32F3E6430D4BCDA2D13BC995EC53B08
:10559400BCE3B3BEF397B6BD57279BBEB3F205BDBC
:1055A4006EA371BDDB55DA3DB651253D28D13D3E94
:1055B4001A0680BE0AF1DCBD071698BE0F42253CD0
:1055C4007C1C08BDA846FBBC803094BDFE4A013D4E
:1055D4007B3423BEE080B33D2CDBBDBD5E73623EF5
:1055E400C8967DBE42F190BD70C09D3BE9B02E3E91
:1055F40043251D3EA77BD83C341CB63D9C9E453EAE
:105604000024FABD7952613E4F8D0BBD2091E73DD8
:1056140025C3883E3BF80FBE2739093DAA47FC3C09
:10562400E9A77FBD02245D3EDE6D263C4874AA3B9B
:10563400E8C6523E38A1AABD3FF1233EB6DD5DBDAA
:10564400078DF73D799A303EE974C43DBF4B853DE3
:10565400BC6D8CBC676CCABD5E71E73C20C0BBBD31
:105664000D586C3C876DACB87C36EFBDE5B42BBCF3
:10567400086764BDC3409DBB26857DBDE71278BD28
:1056840094E782BD7A15ACBDD414DDBCEED58FBDD4
:105694000261183D5114073EF11A1BBE1C3FF6BCB3
:1056A4009651153D2E343EBD5EC7F43D59F259BEA8
:1056B400004AB73DA66CADBDA9EE26BE523F14BD4F
:1056C400704F023E8FACB3BD03D3943D0226333DED
:1056D4001224813EB592113E59FD2E3BB52F06BED4
:1056E400D24BF9BD6836D93A1B3207BEAB67D23DFF
:1056F400490D373EA819AC3E48F749BDBBD901BE98
:10570400AB812FBEE900333EE53F91BDA92D273E75
:1057140071EED03D423C133E5B1B94BCD49738BD24
:10572400925EBFBDC4625B3EC3094CBE6BF75F3E75
:10573400316E6F3E0D96A23C84BD8D3DFC1D36BD81
:10574400AB046EBCB5E9713EA8FDB538B0077FBDAA
:105754004FC8B03DB87A4E3E3B74183D194E40BD1B
:1057640070A8933D2B18ADBD4C541CBE95E04D3E26
:105774004D8F853EA4F68B3D0B78AF3DD9F6863D23
:105784007446B2BD2C91F43DB778DBBC6CF1FE3DA0
:10579400BD2FDC3E4E67253E24C5613EA500673D16
:1057A4004BC6303EB13FB13DF941663DBC047ABEC3
:1057B40067C2AB3D5E2D953C1E1DCABDAE59363D3C
:1057C4001613F63D47CC5B3D32FCCF3D3A36063BE3
:1057D4005CD4FEBBF807293EB05F73BE164A203E78
:1057E4001507E73D8435633C1135B23D1106DA3DBA
:1057F400DE687B3E6701EA3E5F1780BDF90CB0BCF2
:10580400CD35053D9F7BEF3D3E6B94BD828F2ABE17
:1058140078F5803E5A5A4A3E97CAE6BD165FAEBD39
:1058240006A60C3E185A9E3C2323E7BD29ADC4BCF2
:10583400C3837D3EC7C017BE027F7ABC9B11B1BB38
:105844004DAD0CBC20F4863DEBB189BC7F0D10BB83
:10585400A169FD3D7740E3BCAC5F40BC66A81DBEBA
:105864001100B939FCF0F1BDB03A62BDD2AE433E8D
:10587400CD2A503EEC8E7F3C2126FC3C612A37BD6C
:1058840060790E3D0223A93D4057083E77C1913E01
:105894009584A43E4005F63C0927D43E1838BF3D04
:1058A4002503453E87EA6F3E092EDB3C9317343EC1
:1058B400F71F033E1D9B903E5FC56E3E9A054ABD91
:1058C400DE9ACA3DC27DA53EF855ECBD2441BEBC5E
:1058D400DFF4D7BBFE9B753E9D8BC93D77C70B3E5E
:1058E400BBAB2BBD1C78393E8174103E05FBADBDAE
:1058F400A5B2D1BC4D7E323DC8A81BBE0D5D01BD15
:10590400DD97F13C490D3BBEB439AABD431B37BEFC
:105914003278E4BD04E9D6BE902950BEF18F083E2A
:10592400272163BD559038BD86E733BDA48EAB3BBC
:105934002AA08D3EF1FF02BF2A448DBD04BE4ABE9B
:10594400D9AE76BE8A1B20BEACE954BEB359D9BCCD
:10595400291716BD71B0E4BD5EF03D3D85AF1BBE99
:105964001C0458BEF3CA75BB1A9E12BEA28C8E3E8E
:105974008789163D5930B23C89ED60BDC4E472BDDF
:10598400A3C492BD2936603DF2BA18BDCA167C3E46
:1059940042F0D63C043567BE0C8B3F3E01EF83BD1D
:1059A400FBF7A2BDE49D373E5F03AEBDE2C4DE3D1E
:1059B400D3F44A3EE18F903DC92DE93DD543803D66
:1059C40061AF2B3D09509B3E32843C3DD7F231BA46
:1059D400FB34DE3DE3E8B9BD7AF12E3DE27DF9BD4D
:1059E4006267C5BDDD270FBE565EAEBD379845BEA6
:1059F40087C081BEF316083D04D93ABCD35C033E8C
:105A0400C2595F3C3BB0C0BDA0F8963D0F48C6BE2E
:105A14005E104FBE3524B1BC9D74B5BE6B908B3DFA
:105A2400B12B743E231FC7BD7D39AD3D7BDC583B94
:105A34007AA9463DD7D6CABEE9B01A3D47B63CBEA0
:105A4400C4DAB6BD424E4BBD6ADB93BD9DE1A3BD36
:105A54005F9C763D04F2A0BD62B3E93D68728CBEE2
:105A640048272CBE3CC00ABE30129EBE3510A43E50
:105A74009F1E6B3D9A3EBEBD04B2123D29F974BD12
:105A8400F13964BCF54350BD819CB8BDF23EF3BC12
:105A94003F6C2D3C7A61BE3A30FCEBBD97D77EBD9E
:105AA40007EA87BD455C2ABD8850703D4AF00B3E2D
:105AB4006A96813E4FC75A3E6C98B13D0CBF243E56
:105AC40089D2833DE934093E96306D3E372580BE48
